{
  "contractName": "FrankieTexts",
  "abi": [
    {
      "inputs": [],
      "stateMutability": "nonpayable",
      "type": "constructor"
    },
    {
      "anonymous": false,
      "inputs": [
        {
          "indexed": true,
          "internalType": "address",
          "name": "owner",
          "type": "address"
        },
        {
          "indexed": true,
          "internalType": "address",
          "name": "approved",
          "type": "address"
        },
        {
          "indexed": true,
          "internalType": "uint256",
          "name": "tokenId",
          "type": "uint256"
        }
      ],
      "name": "Approval",
      "type": "event"
    },
    {
      "anonymous": false,
      "inputs": [
        {
          "indexed": true,
          "internalType": "address",
          "name": "owner",
          "type": "address"
        },
        {
          "indexed": true,
          "internalType": "address",
          "name": "operator",
          "type": "address"
        },
        {
          "indexed": false,
          "internalType": "bool",
          "name": "approved",
          "type": "bool"
        }
      ],
      "name": "ApprovalForAll",
      "type": "event"
    },
    {
      "anonymous": false,
      "inputs": [
        {
          "indexed": false,
          "internalType": "uint256",
          "name": "nftId",
          "type": "uint256"
        },
        {
          "indexed": false,
          "internalType": "string",
          "name": "nftCid",
          "type": "string"
        }
      ],
      "name": "MintedFrankie",
      "type": "event"
    },
    {
      "anonymous": false,
      "inputs": [
        {
          "indexed": false,
          "internalType": "uint256",
          "name": "newDeckSize",
          "type": "uint256"
        }
      ],
      "name": "NewDeckSize",
      "type": "event"
    },
    {
      "anonymous": false,
      "inputs": [
        {
          "indexed": false,
          "internalType": "string",
          "name": "chosenCid",
          "type": "string"
        }
      ],
      "name": "RequestedText",
      "type": "event"
    },
    {
      "anonymous": false,
      "inputs": [
        {
          "indexed": true,
          "internalType": "address",
          "name": "from",
          "type": "address"
        },
        {
          "indexed": true,
          "internalType": "address",
          "name": "to",
          "type": "address"
        },
        {
          "indexed": true,
          "internalType": "uint256",
          "name": "tokenId",
          "type": "uint256"
        }
      ],
      "name": "Transfer",
      "type": "event"
    },
    {
      "inputs": [
        {
          "internalType": "address",
          "name": "to",
          "type": "address"
        },
        {
          "internalType": "uint256",
          "name": "tokenId",
          "type": "uint256"
        }
      ],
      "name": "approve",
      "outputs": [],
      "stateMutability": "nonpayable",
      "type": "function"
    },
    {
      "inputs": [
        {
          "internalType": "address",
          "name": "owner",
          "type": "address"
        }
      ],
      "name": "balanceOf",
      "outputs": [
        {
          "internalType": "uint256",
          "name": "",
          "type": "uint256"
        }
      ],
      "stateMutability": "view",
      "type": "function",
      "constant": true
    },
    {
      "inputs": [],
      "name": "deckCounter",
      "outputs": [
        {
          "internalType": "uint256",
          "name": "",
          "type": "uint256"
        }
      ],
      "stateMutability": "view",
      "type": "function",
      "constant": true
    },
    {
      "inputs": [],
      "name": "deckSize",
      "outputs": [
        {
          "internalType": "uint256",
          "name": "",
          "type": "uint256"
        }
      ],
      "stateMutability": "view",
      "type": "function",
      "constant": true
    },
    {
      "inputs": [],
      "name": "feedCounter",
      "outputs": [
        {
          "internalType": "uint256",
          "name": "",
          "type": "uint256"
        }
      ],
      "stateMutability": "view",
      "type": "function",
      "constant": true
    },
    {
      "inputs": [],
      "name": "frankieId",
      "outputs": [
        {
          "internalType": "uint256",
          "name": "",
          "type": "uint256"
        }
      ],
      "stateMutability": "view",
      "type": "function",
      "constant": true
    },
    {
      "inputs": [
        {
          "internalType": "string",
          "name": "",
          "type": "string"
        }
      ],
      "name": "frankies",
      "outputs": [
        {
          "internalType": "uint256",
          "name": "endedSince",
          "type": "uint256"
        }
      ],
      "stateMutability": "view",
      "type": "function",
      "constant": true
    },
    {
      "inputs": [
        {
          "internalType": "uint256",
          "name": "tokenId",
          "type": "uint256"
        }
      ],
      "name": "getApproved",
      "outputs": [
        {
          "internalType": "address",
          "name": "",
          "type": "address"
        }
      ],
      "stateMutability": "view",
      "type": "function",
      "constant": true
    },
    {
      "inputs": [
        {
          "internalType": "address",
          "name": "owner",
          "type": "address"
        },
        {
          "internalType": "address",
          "name": "operator",
          "type": "address"
        }
      ],
      "name": "isApprovedForAll",
      "outputs": [
        {
          "internalType": "bool",
          "name": "",
          "type": "bool"
        }
      ],
      "stateMutability": "view",
      "type": "function",
      "constant": true
    },
    {
      "inputs": [
        {
          "internalType": "uint256",
          "name": "",
          "type": "uint256"
        }
      ],
      "name": "mintedCids",
      "outputs": [
        {
          "internalType": "string",
          "name": "",
          "type": "string"
        }
      ],
      "stateMutability": "view",
      "type": "function",
      "constant": true
    },
    {
      "inputs": [],
      "name": "name",
      "outputs": [
        {
          "internalType": "string",
          "name": "",
          "type": "string"
        }
      ],
      "stateMutability": "view",
      "type": "function",
      "constant": true
    },
    {
      "inputs": [
        {
          "internalType": "uint256",
          "name": "tokenId",
          "type": "uint256"
        }
      ],
      "name": "ownerOf",
      "outputs": [
        {
          "internalType": "address",
          "name": "",
          "type": "address"
        }
      ],
      "stateMutability": "view",
      "type": "function",
      "constant": true
    },
    {
      "inputs": [
        {
          "internalType": "address",
          "name": "from",
          "type": "address"
        },
        {
          "internalType": "address",
          "name": "to",
          "type": "address"
        },
        {
          "internalType": "uint256",
          "name": "tokenId",
          "type": "uint256"
        }
      ],
      "name": "safeTransferFrom",
      "outputs": [],
      "stateMutability": "nonpayable",
      "type": "function"
    },
    {
      "inputs": [
        {
          "internalType": "address",
          "name": "from",
          "type": "address"
        },
        {
          "internalType": "address",
          "name": "to",
          "type": "address"
        },
        {
          "internalType": "uint256",
          "name": "tokenId",
          "type": "uint256"
        },
        {
          "internalType": "bytes",
          "name": "_data",
          "type": "bytes"
        }
      ],
      "name": "safeTransferFrom",
      "outputs": [],
      "stateMutability": "nonpayable",
      "type": "function"
    },
    {
      "inputs": [
        {
          "internalType": "address",
          "name": "operator",
          "type": "address"
        },
        {
          "internalType": "bool",
          "name": "approved",
          "type": "bool"
        }
      ],
      "name": "setApprovalForAll",
      "outputs": [],
      "stateMutability": "nonpayable",
      "type": "function"
    },
    {
      "inputs": [],
      "name": "submitCounter",
      "outputs": [
        {
          "internalType": "uint256",
          "name": "",
          "type": "uint256"
        }
      ],
      "stateMutability": "view",
      "type": "function",
      "constant": true
    },
    {
      "inputs": [
        {
          "internalType": "bytes4",
          "name": "interfaceId",
          "type": "bytes4"
        }
      ],
      "name": "supportsInterface",
      "outputs": [
        {
          "internalType": "bool",
          "name": "",
          "type": "bool"
        }
      ],
      "stateMutability": "view",
      "type": "function",
      "constant": true
    },
    {
      "inputs": [],
      "name": "symbol",
      "outputs": [
        {
          "internalType": "string",
          "name": "",
          "type": "string"
        }
      ],
      "stateMutability": "view",
      "type": "function",
      "constant": true
    },
    {
      "inputs": [
        {
          "internalType": "uint256",
          "name": "tokenId",
          "type": "uint256"
        }
      ],
      "name": "tokenURI",
      "outputs": [
        {
          "internalType": "string",
          "name": "",
          "type": "string"
        }
      ],
      "stateMutability": "view",
      "type": "function",
      "constant": true
    },
    {
      "inputs": [
        {
          "internalType": "address",
          "name": "from",
          "type": "address"
        },
        {
          "internalType": "address",
          "name": "to",
          "type": "address"
        },
        {
          "internalType": "uint256",
          "name": "tokenId",
          "type": "uint256"
        }
      ],
      "name": "transferFrom",
      "outputs": [],
      "stateMutability": "nonpayable",
      "type": "function"
    },
    {
      "inputs": [
        {
          "internalType": "address",
          "name": "",
          "type": "address"
        }
      ],
      "name": "untitledCounter",
      "outputs": [
        {
          "internalType": "uint256",
          "name": "",
          "type": "uint256"
        }
      ],
      "stateMutability": "view",
      "type": "function",
      "constant": true
    },
    {
      "inputs": [
        {
          "internalType": "address",
          "name": "",
          "type": "address"
        },
        {
          "internalType": "uint256",
          "name": "",
          "type": "uint256"
        }
      ],
      "name": "untitledTexts",
      "outputs": [
        {
          "internalType": "string",
          "name": "",
          "type": "string"
        }
      ],
      "stateMutability": "view",
      "type": "function",
      "constant": true
    },
    {
      "inputs": [],
      "name": "victor",
      "outputs": [
        {
          "internalType": "address",
          "name": "",
          "type": "address"
        }
      ],
      "stateMutability": "view",
      "type": "function",
      "constant": true
    },
    {
      "inputs": [],
      "name": "requestText",
      "outputs": [],
      "stateMutability": "nonpayable",
      "type": "function"
    },
    {
      "inputs": [
        {
          "internalType": "string",
          "name": "oldCid",
          "type": "string"
        },
        {
          "internalType": "string",
          "name": "newCid",
          "type": "string"
        }
      ],
      "name": "submitText",
      "outputs": [],
      "stateMutability": "nonpayable",
      "type": "function"
    },
    {
      "inputs": [
        {
          "internalType": "string",
          "name": "oldCid",
          "type": "string"
        },
        {
          "internalType": "string",
          "name": "newCid",
          "type": "string"
        }
      ],
      "name": "mintFrankie",
      "outputs": [],
      "stateMutability": "nonpayable",
      "type": "function"
    },
    {
      "inputs": [],
      "name": "requestUntitled",
      "outputs": [
        {
          "internalType": "string",
          "name": "",
          "type": "string"
        }
      ],
      "stateMutability": "view",
      "type": "function",
      "constant": true
    },
    {
      "inputs": [],
      "name": "discardUntitled",
      "outputs": [],
      "stateMutability": "nonpayable",
      "type": "function"
    },
    {
      "inputs": [
        {
          "internalType": "string",
          "name": "cid",
          "type": "string"
        }
      ],
      "name": "seedPlot",
      "outputs": [],
      "stateMutability": "nonpayable",
      "type": "function"
    },
    {
      "inputs": [
        {
          "internalType": "uint256",
          "name": "id",
          "type": "uint256"
        }
      ],
      "name": "mintedCidById",
      "outputs": [
        {
          "internalType": "string",
          "name": "",
          "type": "string"
        }
      ],
      "stateMutability": "view",
      "type": "function",
      "constant": true
    },
    {
      "inputs": [
        {
          "internalType": "uint256",
          "name": "newSize",
          "type": "uint256"
        }
      ],
      "name": "setDeckSize",
      "outputs": [],
      "stateMutability": "nonpayable",
      "type": "function"
    }
  ],
  "bytecode": "0x60806040523480156200001157600080fd5b506040518060400160405280600881526020017f4672616e6b6965730000000000000000000000000000000000000000000000008152506040518060400160405280600381526020017f464b45000000000000000000000000000000000000000000000000000000000081525081600090805190602001906200009692919062000129565b508060019080519060200190620000af92919062000129565b50505060006006819055506000600781905550600060088190555060006009819055506064600a819055506000600b8190555033600c60006101000a81548173ffffffffffffffffffffffffffffffffffffffff021916908373ffffffffffffffffffffffffffffffffffffffff1602179055506200023e565b8280546200013790620001d9565b90600052602060002090601f0160209004810192826200015b5760008555620001a7565b82601f106200017657805160ff1916838001178555620001a7565b82800160010185558215620001a7579182015b82811115620001a657825182559160200191906001019062000189565b5b509050620001b69190620001ba565b5090565b5b80821115620001d5576000816000905550600101620001bb565b5090565b60006002820490506001821680620001f257607f821691505b602082108114156200020957620002086200020f565b5b50919050565b7f4e487b7100000000000000000000000000000000000000000000000000000000600052602260045260246000fd5b614724806200024e6000396000f3fe608060405234801561001057600080fd5b50600436106101e55760003560e01c806384478ad31161010f578063c87b56dd116100a2578063dde2ae4811610071578063dde2ae4814610590578063e985e9c5146105ae578063ef06b902146105de578063fb5556b9146105e8576101e5565b8063c87b56dd146104f4578063d40cf78a14610524578063d4fb945714610542578063d812da2714610572576101e5565b8063a22cb465116100de578063a22cb46514610482578063ae52bc971461049e578063b17de4af146104bc578063b88d4fde146104d8576101e5565b806384478ad3146103e85780638ffd2b771461041857806395d89b41146104485780639a791cb314610466576101e5565b80631e0ddc2a116101875780634ee069b8116101565780634ee069b81461033a5780636352211e1461036a57806370a082311461039a5780637403a42a146103ca576101e5565b80631e0ddc2a146102c857806323b872dd146102e45780632c5bbc5c1461030057806342842e0e1461031e576101e5565b8063081812fc116101c3578063081812fc14610256578063095ea7b3146102865780631415f1e7146102a25780631d10b430146102ac576101e5565b80630148c3eb146101ea57806301ffc9a71461020857806306fdde0314610238575b600080fd5b6101f2610618565b6040516101ff9190614268565b60405180910390f35b610222600480360381019061021d91906135ec565b61061e565b60405161022f9190614049565b60405180910390f35b610240610700565b60405161024d9190614064565b60405180910390f35b610270600480360381019061026b9190613739565b610792565b60405161027d9190613fe2565b60405180910390f35b6102a0600480360381019061029b91906135b0565b610817565b005b6102aa61092f565b005b6102c660048036038101906102c19190613683565b610b10565b005b6102e260048036038101906102dd9190613739565b610d53565b005b6102fe60048036038101906102f991906134aa565b610df0565b005b610308610e50565b6040516103159190614064565b60405180910390f35b610338600480360381019061033391906134aa565b61102d565b005b610354600480360381019061034f9190613739565b61104d565b6040516103619190614064565b60405180910390f35b610384600480360381019061037f9190613739565b6110ed565b6040516103919190613fe2565b60405180910390f35b6103b460048036038101906103af9190613445565b61119f565b6040516103c19190614268565b60405180910390f35b6103d2611257565b6040516103df9190614268565b60405180910390f35b61040260048036038101906103fd91906135b0565b61125d565b60405161040f9190614064565b60405180910390f35b610432600480360381019061042d91906136f8565b611316565b60405161043f9190614268565b60405180910390f35b61045061134a565b60405161045d9190614064565b60405180910390f35b610480600480360381019061047b9190613683565b6113dc565b005b61049c60048036038101906104979190613574565b61169d565b005b6104a661181e565b6040516104b39190613fe2565b60405180910390f35b6104d660048036038101906104d1919061363e565b611844565b005b6104f260048036038101906104ed91906134f9565b611aa0565b005b61050e60048036038101906105099190613739565b611b02565b60405161051b9190614064565b60405180910390f35b61052c611ba9565b6040516105399190614268565b60405180910390f35b61055c60048036038101906105579190613739565b611baf565b6040516105699190614064565b60405180910390f35b61057a611c62565b6040516105879190614268565b60405180910390f35b610598611c68565b6040516105a59190614268565b60405180910390f35b6105c860048036038101906105c3919061346e565b611c6e565b6040516105d59190614049565b60405180910390f35b6105e6611d02565b005b61060260048036038101906105fd9190613445565b611de6565b60405161060f9190614268565b60405180910390f35b60075481565b60007f80ac58cd000000000000000000000000000000000000000000000000000000007bffffffffffffffffffffffffffffffffffffffffffffffffffffffff1916827bffffffffffffffffffffffffffffffffffffffffffffffffffffffff191614806106e957507f5b5e139f000000000000000000000000000000000000000000000000000000007bffffffffffffffffffffffffffffffffffffffffffffffffffffffff1916827bffffffffffffffffffffffffffffffffffffffffffffffffffffffff1916145b806106f957506106f882611dfe565b5b9050919050565b60606000805461070f9061450f565b80601f016020809104026020016040519081016040528092919081815260200182805461073b9061450f565b80156107885780601f1061075d57610100808354040283529160200191610788565b820191906000526020600020905b81548152906001019060200180831161076b57829003601f168201915b5050505050905090565b600061079d82611e68565b6107dc576040517f08c379a00000000000000000000000000000000000000000000000000000000081526004016107d3906141c8565b60405180910390fd5b6004600083815260200190815260200160002060009054906101000a900473ffffffffffffffffffffffffffffffffffffffff169050919050565b6000610822826110ed565b90508073ffffffffffffffffffffffffffffffffffffffff168373ffffffffffffffffffffffffffffffffffffffff161415610893576040517f08c379a000000000000000000000000000000000000000000000000000000000815260040161088a90614228565b60405180910390fd5b8073ffffffffffffffffffffffffffffffffffffffff166108b2611ed4565b73ffffffffffffffffffffffffffffffffffffffff1614806108e157506108e0816108db611ed4565b611c6e565b5b610920576040517f08c379a000000000000000000000000000000000000000000000000000000000815260040161091790614148565b60405180910390fd5b61092a8383611edc565b505050565b600060644442600e60006007548152602001908152602001600020600e60006008548152602001908152602001600020600654604051602001610976959493929190613f8b565b6040516020818303038152906040528051906020012060001c6109999190614594565b905060405180606001604052806010600084815260200190815260200160002080546109c49061450f565b80601f01602080910402602001604051908101604052809291908181526020018280546109f09061450f565b8015610a3d5780601f10610a1257610100808354040283529160200191610a3d565b820191906000526020600020905b815481529060010190602001808311610a2057829003601f168201915b5050505050815260200142815260200182815250600f60003373ffffffffffffffffffffffffffffffffffffffff1673ffffffffffffffffffffffffffffffffffffffff1681526020019081526020016000206000820151816000019080519060200190610aac929190612e77565b5060208201518160010155604082015181600201559050507fe067647a4b2d21f4376d40bbedfcd7a79c39f8ada5141f685ad509fb07749c8c60106000838152602001908152602001600020604051610b059190614086565b60405180910390a150565b426203f480600d8686604051610b27929190613efc565b908152602001604051809103902060020154610b43919061439e565b11610b4d57600080fd5b601160003373ffffffffffffffffffffffffffffffffffffffff1673ffffffffffffffffffffffffffffffffffffffff168152602001908152602001600020601260003373ffffffffffffffffffffffffffffffffffffffff1673ffffffffffffffffffffffffffffffffffffffff1681526020019081526020016000205481548110610c03577f4e487b7100000000000000000000000000000000000000000000000000000000600052603260045260246000fd5b90600052602060002001604051602001610c1d9190613f74565b604051602081830303815290604052805190602001208484604051602001610c46929190613efc565b6040516020818303038152906040528051906020012014610c6657600080fd5b610c7282828686611f95565b601260003373ffffffffffffffffffffffffffffffffffffffff1673ffffffffffffffffffffffffffffffffffffffff1681526020019081526020016000206000815480929190610cc290614541565b9190505550610cd333600b546120f9565b818160136000600b5481526020019081526020016000209190610cf7929190612efd565b507f22f1a4c231d55f64bab6355b1f1f7137edc522fea2f774a252ba1a0219eac206600b548383604051610d2d93929190614283565b60405180910390a1600b6000815480929190610d4890614541565b919050555050505050565b600c60009054906101000a900473ffffffffffffffffffffffffffffffffffffffff1673ffffffffffffffffffffffffffffffffffffffff163373ffffffffffffffffffffffffffffffffffffffff1614610dad57600080fd5b80600a819055507f70a6286f27f9956ce5b6e16ef0e2239ffd4b785cfb298076b77b608b6325431a600a54604051610de59190614268565b60405180910390a150565b610e01610dfb611ed4565b82612117565b610e40576040517f08c379a0000000000000000000000000000000000000000000000000000000008152600401610e3790614248565b60405180910390fd5b610e4b8383836121f5565b505050565b6060601260003373ffffffffffffffffffffffffffffffffffffffff1673ffffffffffffffffffffffffffffffffffffffff16815260200190815260200160002054601160003373ffffffffffffffffffffffffffffffffffffffff1673ffffffffffffffffffffffffffffffffffffffff1681526020019081526020016000208054905011610edf57600080fd5b601160003373ffffffffffffffffffffffffffffffffffffffff1673ffffffffffffffffffffffffffffffffffffffff168152602001908152602001600020601260003373ffffffffffffffffffffffffffffffffffffffff1673ffffffffffffffffffffffffffffffffffffffff1681526020019081526020016000205481548110610f95577f4e487b7100000000000000000000000000000000000000000000000000000000600052603260045260246000fd5b906000526020600020018054610faa9061450f565b80601f0160208091040260200160405190810160405280929190818152602001828054610fd69061450f565b80156110235780601f10610ff857610100808354040283529160200191611023565b820191906000526020600020905b81548152906001019060200180831161100657829003601f168201915b5050505050905090565b61104883838360405180602001604052806000815250611aa0565b505050565b6013602052806000526040600020600091509050805461106c9061450f565b80601f01602080910402602001604051908101604052809291908181526020018280546110989061450f565b80156110e55780601f106110ba576101008083540402835291602001916110e5565b820191906000526020600020905b8154815290600101906020018083116110c857829003601f168201915b505050505081565b6000806002600084815260200190815260200160002060009054906101000a900473ffffffffffffffffffffffffffffffffffffffff169050600073ffffffffffffffffffffffffffffffffffffffff168173ffffffffffffffffffffffffffffffffffffffff161415611196576040517f08c379a000000000000000000000000000000000000000000000000000000000815260040161118d90614188565b60405180910390fd5b80915050919050565b60008073ffffffffffffffffffffffffffffffffffffffff168273ffffffffffffffffffffffffffffffffffffffff161415611210576040517f08c379a000000000000000000000000000000000000000000000000000000000815260040161120790614168565b60405180910390fd5b600360008373ffffffffffffffffffffffffffffffffffffffff1673ffffffffffffffffffffffffffffffffffffffff168152602001908152602001600020549050919050565b600b5481565b6011602052816000526040600020818154811061127957600080fd5b906000526020600020016000915091505080546112959061450f565b80601f01602080910402602001604051908101604052809291908181526020018280546112c19061450f565b801561130e5780601f106112e35761010080835404028352916020019161130e565b820191906000526020600020905b8154815290600101906020018083116112f157829003601f168201915b505050505081565b600d818051602081018201805184825260208301602085012081835280955050505050506000915090508060020154905081565b6060600180546113599061450f565b80601f01602080910402602001604051908101604052809291908181526020018280546113859061450f565b80156113d25780601f106113a7576101008083540402835291602001916113d2565b820191906000526020600020905b8154815290600101906020018083116113b557829003601f168201915b5050505050905090565b838381816040516020016113f1929190613efc565b60405160208183030381529060405280519060200120600f60003373ffffffffffffffffffffffffffffffffffffffff1673ffffffffffffffffffffffffffffffffffffffff1681526020019081526020016000206000016040516020016114599190613f74565b604051602081830303815290604052805190602001201461147957600080fd5b42611c20600f60003373ffffffffffffffffffffffffffffffffffffffff1673ffffffffffffffffffffffffffffffffffffffff168152602001908152602001600020600101546114ca919061439e565b116114d457600080fd5b6114e084848888611f95565b6005600d85856040516114f4929190613efc565b908152602001604051809103902060010180549050141561151e576115198484612451565b611695565b8383600e600060085481526020019081526020016000209190611542929190612efd565b506008600081548092919060010191905055508585604051602001611568929190613efc565b6040516020818303038152906040528051906020012060106000600f60003373ffffffffffffffffffffffffffffffffffffffff1673ffffffffffffffffffffffffffffffffffffffff1681526020019081526020016000206002015481526020019081526020016000206040516020016115e39190613f74565b60405160208183030381529060405280519060200120141561169457600e6000600754815260200190815260200160002060106000600f60003373ffffffffffffffffffffffffffffffffffffffff1673ffffffffffffffffffffffffffffffffffffffff1681526020019081526020016000206002015481526020019081526020016000209080546116759061450f565b611680929190612f83565b506007600081548092919060010191905055505b5b505050505050565b6116a5611ed4565b73ffffffffffffffffffffffffffffffffffffffff168273ffffffffffffffffffffffffffffffffffffffff161415611713576040517f08c379a000000000000000000000000000000000000000000000000000000000815260040161170a90614108565b60405180910390fd5b8060056000611720611ed4565b73ffffffffffffffffffffffffffffffffffffffff1673ffffffffffffffffffffffffffffffffffffffff16815260200190815260200160002060008473ffffffffffffffffffffffffffffffffffffffff1673ffffffffffffffffffffffffffffffffffffffff16815260200190815260200160002060006101000a81548160ff0219169083151502179055508173ffffffffffffffffffffffffffffffffffffffff166117cd611ed4565b73ffffffffffffffffffffffffffffffffffffffff167f17307eab39ab6107e8899845ad3d59bd9653f200f220920489ca2b5937696c31836040516118129190614049565b60405180910390a35050565b600c60009054906101000a900473ffffffffffffffffffffffffffffffffffffffff1681565b600c60009054906101000a900473ffffffffffffffffffffffffffffffffffffffff1673ffffffffffffffffffffffffffffffffffffffff163373ffffffffffffffffffffffffffffffffffffffff161461189e57600080fd5b60608060405180606001604052808381526020018281526020016000815250600d85856040516118cf929190613efc565b908152602001604051809103902060008201518160000190805190602001906118f9929190613010565b506020820151816001019080519060200190611916929190613070565b5060408201518160020155905050600d8484604051611936929190613efc565b9081526020016040518091039020600001848490918060018154018082558091505060019003906000526020600020016000909192909192909192909192509190611982929190612efd565b50600d8484604051611995929190613efc565b9081526020016040518091039020600101339080600181540180825580915050600190039060005260206000200160009091909190916101000a81548173ffffffffffffffffffffffffffffffffffffffff021916908373ffffffffffffffffffffffffffffffffffffffff160217905550600a546009541015611a635783836010600060085481526020019081526020016000209190611a37929190612efd565b5060076000815480929190600101919050555060096000815480929190611a5d90614541565b91905055505b8383600e600060085481526020019081526020016000209190611a87929190612efd565b5060086000815480929190600101919050555050505050565b611ab1611aab611ed4565b83612117565b611af0576040517f08c379a0000000000000000000000000000000000000000000000000000000008152600401611ae790614248565b60405180910390fd5b611afc8484848461287f565b50505050565b6060611b0d82611e68565b611b4c576040517f08c379a0000000000000000000000000000000000000000000000000000000008152600401611b4390614208565b60405180910390fd5b6000611b566128db565b90506000815111611b765760405180602001604052806000815250611ba1565b80611b80846128f2565b604051602001611b91929190613f50565b6040516020818303038152906040525b915050919050565b60095481565b6060600b548210611bbf57600080fd5b601360008381526020019081526020016000208054611bdd9061450f565b80601f0160208091040260200160405190810160405280929190818152602001828054611c099061450f565b8015611c565780601f10611c2b57610100808354040283529160200191611c56565b820191906000526020600020905b815481529060010190602001808311611c3957829003601f168201915b50505050509050919050565b60085481565b600a5481565b6000600560008473ffffffffffffffffffffffffffffffffffffffff1673ffffffffffffffffffffffffffffffffffffffff16815260200190815260200160002060008373ffffffffffffffffffffffffffffffffffffffff1673ffffffffffffffffffffffffffffffffffffffff16815260200190815260200160002060009054906101000a900460ff16905092915050565b601260003373ffffffffffffffffffffffffffffffffffffffff1673ffffffffffffffffffffffffffffffffffffffff16815260200190815260200160002054601160003373ffffffffffffffffffffffffffffffffffffffff1673ffffffffffffffffffffffffffffffffffffffff1681526020019081526020016000208054905011611d8f57600080fd5b601260003373ffffffffffffffffffffffffffffffffffffffff1673ffffffffffffffffffffffffffffffffffffffff1681526020019081526020016000206000815480929190611ddf90614541565b9190505550565b60126020528060005260406000206000915090505481565b60007f01ffc9a7000000000000000000000000000000000000000000000000000000007bffffffffffffffffffffffffffffffffffffffffffffffffffffffff1916827bffffffffffffffffffffffffffffffffffffffffffffffffffffffff1916149050919050565b60008073ffffffffffffffffffffffffffffffffffffffff166002600084815260200190815260200160002060009054906101000a900473ffffffffffffffffffffffffffffffffffffffff1673ffffffffffffffffffffffffffffffffffffffff1614159050919050565b600033905090565b816004600083815260200190815260200160002060006101000a81548173ffffffffffffffffffffffffffffffffffffffff021916908373ffffffffffffffffffffffffffffffffffffffff160217905550808273ffffffffffffffffffffffffffffffffffffffff16611f4f836110ed565b73ffffffffffffffffffffffffffffffffffffffff167f8c5be1e5ebec7d5bd14f71427d1e84f3dd0314c0f7b2291e5b200ac8c7c3b92560405160405180910390a45050565b600d8282604051611fa7929190613efc565b9081526020016040518091039020600d8585604051611fc7929190613efc565b90815260200160405180910390206000820181600001908054611feb9291906130fa565b506001820181600101908054612002929190613162565b5060028201548160020155905050600d8484604051612022929190613efc565b908152602001604051809103902060000184849091806001815401808255809150506001900390600052602060002001600090919290919290919290919250919061206e929190612efd565b50600d8484604051612081929190613efc565b9081526020016040518091039020600101339080600181540180825580915050600190039060005260206000200160009091909190916101000a81548173ffffffffffffffffffffffffffffffffffffffff021916908373ffffffffffffffffffffffffffffffffffffffff16021790555050505050565b612113828260405180602001604052806000815250612a9f565b5050565b600061212282611e68565b612161576040517f08c379a000000000000000000000000000000000000000000000000000000000815260040161215890614128565b60405180910390fd5b600061216c836110ed565b90508073ffffffffffffffffffffffffffffffffffffffff168473ffffffffffffffffffffffffffffffffffffffff1614806121db57508373ffffffffffffffffffffffffffffffffffffffff166121c384610792565b73ffffffffffffffffffffffffffffffffffffffff16145b806121ec57506121eb8185611c6e565b5b91505092915050565b8273ffffffffffffffffffffffffffffffffffffffff16612215826110ed565b73ffffffffffffffffffffffffffffffffffffffff161461226b576040517f08c379a0000000000000000000000000000000000000000000000000000000008152600401612262906141e8565b60405180910390fd5b600073ffffffffffffffffffffffffffffffffffffffff168273ffffffffffffffffffffffffffffffffffffffff1614156122db576040517f08c379a00000000000000000000000000000000000000000000000000000000081526004016122d2906140e8565b60405180910390fd5b6122e6838383612afa565b6122f1600082611edc565b6001600360008573ffffffffffffffffffffffffffffffffffffffff1673ffffffffffffffffffffffffffffffffffffffff16815260200190815260200160002060008282546123419190614425565b925050819055506001600360008473ffffffffffffffffffffffffffffffffffffffff1673ffffffffffffffffffffffffffffffffffffffff1681526020019081526020016000206000828254612398919061439e565b92505081905550816002600083815260200190815260200160002060006101000a81548173ffffffffffffffffffffffffffffffffffffffff021916908373ffffffffffffffffffffffffffffffffffffffff160217905550808273ffffffffffffffffffffffffffffffffffffffff168473ffffffffffffffffffffffffffffffffffffffff167fddf252ad1be2c89b69c2b068fc378daa952ba7f163c4a11628f55a4df523b3ef60405160405180910390a4505050565b42600d8383604051612464929190613efc565b90815260200160405180910390206002018190555060005b60058110156125985760116000600d858560405161249b929190613efc565b908152602001604051809103902060010183815481106124e4577f4e487b7100000000000000000000000000000000000000000000000000000000600052603260045260246000fd5b9060005260206000200160009054906101000a900473ffffffffffffffffffffffffffffffffffffffff1673ffffffffffffffffffffffffffffffffffffffff1673ffffffffffffffffffffffffffffffffffffffff168152602001908152602001600020838390918060018154018082558091505060019003906000526020600020016000909192909192909192909192509190612584929190612efd565b50808061259090614541565b91505061247c565b506014600d83836040516125ad929190613efc565b90815260200160405180910390206000016000815481106125f7577f4e487b7100000000000000000000000000000000000000000000000000000000600052603260045260246000fd5b9060005260206000200160405161260e9190613f74565b908152602001604051809103902060009054906101000a900460ff166127e65760008282604051602001612643929190613f15565b604051602081830303815290604052905060608060405180606001604052808381526020018281526020016000815250600d846040516126839190613f39565b908152602001604051809103902060008201518160000190805190602001906126ad929190613010565b5060208201518160010190805190602001906126ca929190613070565b50604082015181600201559050508260106000600f60003373ffffffffffffffffffffffffffffffffffffffff1673ffffffffffffffffffffffffffffffffffffffff1681526020019081526020016000206002015481526020019081526020016000209080519060200190612741929190612e77565b5060016014600d8787604051612758929190613efc565b90815260200160405180910390206000016000815481106127a2577f4e487b7100000000000000000000000000000000000000000000000000000000600052603260045260246000fd5b906000526020600020016040516127b99190613f74565b908152602001604051809103902060006101000a81548160ff02191690831515021790555050505061287b565b600e6000600754815260200190815260200160002060106000600f60003373ffffffffffffffffffffffffffffffffffffffff1673ffffffffffffffffffffffffffffffffffffffff16815260200190815260200160002060020154815260200190815260200160002090805461285c9061450f565b612867929190612f83565b506007600081548092919060010191905055505b5050565b61288a8484846121f5565b61289684848484612aff565b6128d5576040517f08c379a00000000000000000000000000000000000000000000000000000000081526004016128cc906140a8565b60405180910390fd5b50505050565b606060405180602001604052806000815250905090565b6060600082141561293a576040518060400160405280600181526020017f30000000000000000000000000000000000000000000000000000000000000008152509050612a9a565b600082905060005b6000821461296c57808061295590614541565b915050600a8261296591906143f4565b9150612942565b60008167ffffffffffffffff8111156129ae577f4e487b7100000000000000000000000000000000000000000000000000000000600052604160045260246000fd5b6040519080825280601f01601f1916602001820160405280156129e05781602001600182028036833780820191505090505b5090505b60008514612a93576001826129f99190614425565b9150600a85612a089190614594565b6030612a14919061439e565b60f81b818381518110612a50577f4e487b7100000000000000000000000000000000000000000000000000000000600052603260045260246000fd5b60200101907effffffffffffffffffffffffffffffffffffffffffffffffffffffffffffff1916908160001a905350600a85612a8c91906143f4565b94506129e4565b8093505050505b919050565b612aa98383612c96565b612ab66000848484612aff565b612af5576040517f08c379a0000000000000000000000000000000000000000000000000000000008152600401612aec906140a8565b60405180910390fd5b505050565b505050565b6000612b208473ffffffffffffffffffffffffffffffffffffffff16612e64565b15612c89578373ffffffffffffffffffffffffffffffffffffffff1663150b7a02612b49611ed4565b8786866040518563ffffffff1660e01b8152600401612b6b9493929190613ffd565b602060405180830381600087803b158015612b8557600080fd5b505af1925050508015612bb657506040513d601f19601f82011682018060405250810190612bb39190613615565b60015b612c39573d8060008114612be6576040519150601f19603f3d011682016040523d82523d6000602084013e612beb565b606091505b50600081511415612c31576040517f08c379a0000000000000000000000000000000000000000000000000000000008152600401612c28906140a8565b60405180910390fd5b805181602001fd5b63150b7a0260e01b7bffffffffffffffffffffffffffffffffffffffffffffffffffffffff1916817bffffffffffffffffffffffffffffffffffffffffffffffffffffffff191614915050612c8e565b600190505b949350505050565b600073ffffffffffffffffffffffffffffffffffffffff168273ffffffffffffffffffffffffffffffffffffffff161415612d06576040517f08c379a0000000000000000000000000000000000000000000000000000000008152600401612cfd906141a8565b60405180910390fd5b612d0f81611e68565b15612d4f576040517f08c379a0000000000000000000000000000000000000000000000000000000008152600401612d46906140c8565b60405180910390fd5b612d5b60008383612afa565b6001600360008473ffffffffffffffffffffffffffffffffffffffff1673ffffffffffffffffffffffffffffffffffffffff1681526020019081526020016000206000828254612dab919061439e565b92505081905550816002600083815260200190815260200160002060006101000a81548173ffffffffffffffffffffffffffffffffffffffff021916908373ffffffffffffffffffffffffffffffffffffffff160217905550808273ffffffffffffffffffffffffffffffffffffffff16600073ffffffffffffffffffffffffffffffffffffffff167fddf252ad1be2c89b69c2b068fc378daa952ba7f163c4a11628f55a4df523b3ef60405160405180910390a45050565b600080823b905060008111915050919050565b828054612e839061450f565b90600052602060002090601f016020900481019282612ea55760008555612eec565b82601f10612ebe57805160ff1916838001178555612eec565b82800160010185558215612eec579182015b82811115612eeb578251825591602001919060010190612ed0565b5b509050612ef991906131b4565b5090565b828054612f099061450f565b90600052602060002090601f016020900481019282612f2b5760008555612f72565b82601f10612f4457803560ff1916838001178555612f72565b82800160010185558215612f72579182015b82811115612f71578235825591602001919060010190612f56565b5b509050612f7f91906131b4565b5090565b828054612f8f9061450f565b90600052602060002090601f016020900481019282612fb15760008555612fff565b82601f10612fc25780548555612fff565b82800160010185558215612fff57600052602060002091601f016020900482015b82811115612ffe578254825591600101919060010190612fe3565b5b50905061300c91906131b4565b5090565b82805482825590600052602060002090810192821561305f579160200282015b8281111561305e57825182908051906020019061304e929190612e77565b5091602001919060010190613030565b5b50905061306c91906131d1565b5090565b8280548282559060005260206000209081019282156130e9579160200282015b828111156130e85782518260006101000a81548173ffffffffffffffffffffffffffffffffffffffff021916908373ffffffffffffffffffffffffffffffffffffffff16021790555091602001919060010190613090565b5b5090506130f691906131b4565b5090565b8280548282559060005260206000209081019282156131515760005260206000209182015b828111156131505782829080546131359061450f565b6131409291906131f5565b509160010191906001019061311f565b5b50905061315e91906131d1565b5090565b8280548282559060005260206000209081019282156131a35760005260206000209182015b828111156131a2578254825591600101919060010190613187565b5b5090506131b091906131b4565b5090565b5b808211156131cd5760008160009055506001016131b5565b5090565b5b808211156131f157600081816131e89190613282565b506001016131d2565b5090565b8280546132019061450f565b90600052602060002090601f0160209004810192826132235760008555613271565b82601f106132345780548555613271565b8280016001018555821561327157600052602060002091601f016020900482015b82811115613270578254825591600101919060010190613255565b5b50905061327e91906131b4565b5090565b50805461328e9061450f565b6000825580601f106132a057506132bf565b601f0160209004906000526020600020908101906132be91906131b4565b5b50565b60006132d56132d0846142e6565b6142b5565b9050828152602081018484840111156132ed57600080fd5b6132f88482856144cd565b509392505050565b600061331361330e84614316565b6142b5565b90508281526020810184848401111561332b57600080fd5b6133368482856144cd565b509392505050565b60008135905061334d81614692565b92915050565b600081359050613362816146a9565b92915050565b600081359050613377816146c0565b92915050565b60008151905061338c816146c0565b92915050565b600082601f8301126133a357600080fd5b81356133b38482602086016132c2565b91505092915050565b60008083601f8401126133ce57600080fd5b8235905067ffffffffffffffff8111156133e757600080fd5b6020830191508360018202830111156133ff57600080fd5b9250929050565b600082601f83011261341757600080fd5b8135613427848260208601613300565b91505092915050565b60008135905061343f816146d7565b92915050565b60006020828403121561345757600080fd5b60006134658482850161333e565b91505092915050565b6000806040838503121561348157600080fd5b600061348f8582860161333e565b92505060206134a08582860161333e565b9150509250929050565b6000806000606084860312156134bf57600080fd5b60006134cd8682870161333e565b93505060206134de8682870161333e565b92505060406134ef86828701613430565b9150509250925092565b6000806000806080858703121561350f57600080fd5b600061351d8782880161333e565b945050602061352e8782880161333e565b935050604061353f87828801613430565b925050606085013567ffffffffffffffff81111561355c57600080fd5b61356887828801613392565b91505092959194509250565b6000806040838503121561358757600080fd5b60006135958582860161333e565b92505060206135a685828601613353565b9150509250929050565b600080604083850312156135c357600080fd5b60006135d18582860161333e565b92505060206135e285828601613430565b9150509250929050565b6000602082840312156135fe57600080fd5b600061360c84828501613368565b91505092915050565b60006020828403121561362757600080fd5b60006136358482850161337d565b91505092915050565b6000806020838503121561365157600080fd5b600083013567ffffffffffffffff81111561366b57600080fd5b613677858286016133bc565b92509250509250929050565b6000806000806040858703121561369957600080fd5b600085013567ffffffffffffffff8111156136b357600080fd5b6136bf878288016133bc565b9450945050602085013567ffffffffffffffff8111156136de57600080fd5b6136ea878288016133bc565b925092505092959194509250565b60006020828403121561370a57600080fd5b600082013567ffffffffffffffff81111561372457600080fd5b61373084828501613406565b91505092915050565b60006020828403121561374b57600080fd5b600061375984828501613430565b91505092915050565b61376b81614459565b82525050565b61377a8161446b565b82525050565b600061378b8261435b565b6137958185614371565b93506137a58185602086016144dc565b6137ae81614681565b840191505092915050565b60006137c58385614382565b93506137d28385846144cd565b6137db83614681565b840190509392505050565b60006137f28385614393565b93506137ff8385846144cd565b82840190509392505050565b600061381682614366565b6138208185614382565b93506138308185602086016144dc565b61383981614681565b840191505092915050565b600061384f82614366565b6138598185614393565b93506138698185602086016144dc565b80840191505092915050565b600081546138828161450f565b61388c8186614382565b945060018216600081146138a757600181146138b9576138ec565b60ff19831686526020860193506138ec565b6138c285614346565b60005b838110156138e4578154818901526001820191506020810190506138c5565b808801955050505b50505092915050565b600081546139028161450f565b61390c8186614393565b9450600182166000811461392757600181146139385761396b565b60ff1983168652818601935061396b565b61394185614346565b60005b8381101561396357815481890152600182019150602081019050613944565b838801955050505b50505092915050565b6000613981603283614382565b91507f4552433732313a207472616e7366657220746f206e6f6e20455243373231526560008301527f63656976657220696d706c656d656e74657200000000000000000000000000006020830152604082019050919050565b60006139e7601c83614382565b91507f4552433732313a20746f6b656e20616c7265616479206d696e746564000000006000830152602082019050919050565b6000613a27602483614382565b91507f4552433732313a207472616e7366657220746f20746865207a65726f2061646460008301527f72657373000000000000000000000000000000000000000000000000000000006020830152604082019050919050565b6000613a8d601983614382565b91507f4552433732313a20617070726f766520746f2063616c6c6572000000000000006000830152602082019050919050565b6000613acd602c83614382565b91507f4552433732313a206f70657261746f7220717565727920666f72206e6f6e657860008301527f697374656e7420746f6b656e00000000000000000000000000000000000000006020830152604082019050919050565b6000613b33603883614382565b91507f4552433732313a20617070726f76652063616c6c6572206973206e6f74206f7760008301527f6e6572206e6f7220617070726f76656420666f7220616c6c00000000000000006020830152604082019050919050565b6000613b99602a83614382565b91507f4552433732313a2062616c616e636520717565727920666f7220746865207a6560008301527f726f2061646472657373000000000000000000000000000000000000000000006020830152604082019050919050565b6000613bff602983614382565b91507f4552433732313a206f776e657220717565727920666f72206e6f6e657869737460008301527f656e7420746f6b656e00000000000000000000000000000000000000000000006020830152604082019050919050565b6000613c65602083614382565b91507f4552433732313a206d696e7420746f20746865207a65726f20616464726573736000830152602082019050919050565b6000613ca5600583614393565b91507f30303030300000000000000000000000000000000000000000000000000000006000830152600582019050919050565b6000613ce5602c83614382565b91507f4552433732313a20617070726f76656420717565727920666f72206e6f6e657860008301527f697374656e7420746f6b656e00000000000000000000000000000000000000006020830152604082019050919050565b6000613d4b602983614382565b91507f4552433732313a207472616e73666572206f6620746f6b656e2074686174206960008301527f73206e6f74206f776e00000000000000000000000000000000000000000000006020830152604082019050919050565b6000613db1602f83614382565b91507f4552433732314d657461646174613a2055524920717565727920666f72206e6f60008301527f6e6578697374656e7420746f6b656e00000000000000000000000000000000006020830152604082019050919050565b6000613e17602183614382565b91507f4552433732313a20617070726f76616c20746f2063757272656e74206f776e6560008301527f72000000000000000000000000000000000000000000000000000000000000006020830152604082019050919050565b6000613e7d603183614382565b91507f4552433732313a207472616e736665722063616c6c6572206973206e6f74206f60008301527f776e6572206e6f7220617070726f7665640000000000000000000000000000006020830152604082019050919050565b613edf816144c3565b82525050565b613ef6613ef1826144c3565b61458a565b82525050565b6000613f098284866137e6565b91508190509392505050565b6000613f228284866137e6565b9150613f2d82613c98565b91508190509392505050565b6000613f458284613844565b915081905092915050565b6000613f5c8285613844565b9150613f688284613844565b91508190509392505050565b6000613f8082846138f5565b915081905092915050565b6000613f978288613ee5565b602082019150613fa78287613ee5565b602082019150613fb782866138f5565b9150613fc382856138f5565b9150613fcf8284613ee5565b6020820191508190509695505050505050565b6000602082019050613ff76000830184613762565b92915050565b60006080820190506140126000830187613762565b61401f6020830186613762565b61402c6040830185613ed6565b818103606083015261403e8184613780565b905095945050505050565b600060208201905061405e6000830184613771565b92915050565b6000602082019050818103600083015261407e818461380b565b905092915050565b600060208201905081810360008301526140a08184613875565b905092915050565b600060208201905081810360008301526140c181613974565b9050919050565b600060208201905081810360008301526140e1816139da565b9050919050565b6000602082019050818103600083015261410181613a1a565b9050919050565b6000602082019050818103600083015261412181613a80565b9050919050565b6000602082019050818103600083015261414181613ac0565b9050919050565b6000602082019050818103600083015261416181613b26565b9050919050565b6000602082019050818103600083015261418181613b8c565b9050919050565b600060208201905081810360008301526141a181613bf2565b9050919050565b600060208201905081810360008301526141c181613c58565b9050919050565b600060208201905081810360008301526141e181613cd8565b9050919050565b6000602082019050818103600083015261420181613d3e565b9050919050565b6000602082019050818103600083015261422181613da4565b9050919050565b6000602082019050818103600083015261424181613e0a565b9050919050565b6000602082019050818103600083015261426181613e70565b9050919050565b600060208201905061427d6000830184613ed6565b92915050565b60006040820190506142986000830186613ed6565b81810360208301526142ab8184866137b9565b9050949350505050565b6000604051905081810181811067ffffffffffffffff821117156142dc576142db614652565b5b8060405250919050565b600067ffffffffffffffff82111561430157614300614652565b5b601f19601f8301169050602081019050919050565b600067ffffffffffffffff82111561433157614330614652565b5b601f19601f8301169050602081019050919050565b60008190508160005260206000209050919050565b600081519050919050565b600081519050919050565b600082825260208201905092915050565b600082825260208201905092915050565b600081905092915050565b60006143a9826144c3565b91506143b4836144c3565b9250827fffffffffffffffffffffffffffffffffffffffffffffffffffffffffffffffff038211156143e9576143e86145c5565b5b828201905092915050565b60006143ff826144c3565b915061440a836144c3565b92508261441a576144196145f4565b5b828204905092915050565b6000614430826144c3565b915061443b836144c3565b92508282101561444e5761444d6145c5565b5b828203905092915050565b6000614464826144a3565b9050919050565b60008115159050919050565b60007fffffffff0000000000000000000000000000000000000000000000000000000082169050919050565b600073ffffffffffffffffffffffffffffffffffffffff82169050919050565b6000819050919050565b82818337600083830152505050565b60005b838110156144fa5780820151818401526020810190506144df565b83811115614509576000848401525b50505050565b6000600282049050600182168061452757607f821691505b6020821081141561453b5761453a614623565b5b50919050565b600061454c826144c3565b91507fffffffffffffffffffffffffffffffffffffffffffffffffffffffffffffffff82141561457f5761457e6145c5565b5b600182019050919050565b6000819050919050565b600061459f826144c3565b91506145aa836144c3565b9250826145ba576145b96145f4565b5b828206905092915050565b7f4e487b7100000000000000000000000000000000000000000000000000000000600052601160045260246000fd5b7f4e487b7100000000000000000000000000000000000000000000000000000000600052601260045260246000fd5b7f4e487b7100000000000000000000000000000000000000000000000000000000600052602260045260246000fd5b7f4e487b7100000000000000000000000000000000000000000000000000000000600052604160045260246000fd5b6000601f19601f8301169050919050565b61469b81614459565b81146146a657600080fd5b50565b6146b28161446b565b81146146bd57600080fd5b50565b6146c981614477565b81146146d457600080fd5b50565b6146e0816144c3565b81146146eb57600080fd5b5056fea2646970667358221220b86c47e2de7665d8f0ae724d6623d50195ac4f96749bf863597878e6ed45910364736f6c63430008000033",
  "immutableReferences": {},
  "source": "pragma solidity ^0.8.0;\n\nimport \"../node_modules/@openzeppelin/contracts/token/ERC721/ERC721.sol\";\n\ncontract FrankieTexts is ERC721 {\n\n    uint256 private requestCounter;\n\n    uint256 public feedCounter;\n\n    uint256 public submitCounter;\n\n    uint256 public deckCounter;\n\n    uint256 public deckSize;\n\n    uint256 public frankieId;\n\n    address public victor;\n\n    event RequestedText(string chosenCid);\n\n    event MintedFrankie(uint nftId, string nftCid); // vai ter q ter a 5th cid tbm e indexed\n\n    event NewDeckSize(uint newDeckSize);\n\n    struct Frankie {\n      string[] cids;\n      address[] writers;\n      uint256 endedSince;\n    }\n\n    struct MiniFrankie {\n      string cid;\n      uint256 editSince;\n      uint256 deckNumber;\n    }\n\n    mapping(string => Frankie) public frankies;\n\n    mapping(uint256 => string) private cidOrder;\n\n    mapping(address => MiniFrankie) private editing;\n\n    mapping(uint256 => string) private deck;\n\n    mapping(address => string[]) public untitledTexts;\n\n    mapping(address => uint) public untitledCounter;\n\n    mapping(uint256 => string) public mintedCids;\n\n    mapping(string => bool) private plotEnded;\n\n    constructor() ERC721(\"Frankies\", \"FKE\") {\n        requestCounter = 0;\n        feedCounter = 0;\n        submitCounter = 0;\n        deckCounter = 0;\n        deckSize = 100;\n        frankieId = 0;\n        victor = msg.sender;\n    }\n\n    modifier isVictor() {\n        require(msg.sender == victor);\n        _;\n    }\n\n    modifier isValid(string calldata oldCid) {\n        require(keccak256(abi.encodePacked(editing[msg.sender].cid)) == keccak256(abi.encodePacked(oldCid)));\n        require(editing[msg.sender].editSince + 2 hours > block.timestamp);\n        _;\n    }\n\n    modifier hasUntitled() {\n        require(untitledTexts[msg.sender].length > untitledCounter[msg.sender]);\n        _;\n    }\n\n    function _startFrankie() private returns (string memory) { // talvez nem precise dessa funo\n        string memory startCid = string(abi.encodePacked('0')); // frontend checka se o cid  0\n        string[] memory cids;\n        address[] memory writers;\n        frankies[startCid] = Frankie(cids, writers, block.timestamp);\n        return startCid;\n    }\n\n    function _updateFrankie(string calldata newCid, string calldata oldCid) private {\n        frankies[newCid] = frankies[oldCid];\n        frankies[newCid].cids.push(newCid);\n        frankies[newCid].writers.push(msg.sender);\n    }\n\n    function _endFrankie(string calldata newCid) private {\n      frankies[newCid].endedSince = block.timestamp;\n      for (uint256 i = 0; i < 5; i++) {\n        untitledTexts[frankies[newCid].writers[i]].push(newCid);\n      }\n      if(!plotEnded[frankies[newCid].cids[0]]) {\n        // alimenta um cid00000 no deck\n        string memory startCid = string(abi.encodePacked(newCid, '00000'));\n        string[] memory cids;\n        address[] memory writers;\n        frankies[startCid] = Frankie(cids, writers, 0);\n        deck[editing[msg.sender].deckNumber] = startCid;\n        plotEnded[frankies[newCid].cids[0]] = true;\n      } else {\n        // alimenta o cidOrder[feedCounter] no deck e aumenta feedCounter\n        deck[editing[msg.sender].deckNumber] = cidOrder[feedCounter];\n        unchecked { feedCounter++; } \n        }\n    }\n\n    function requestText() public {\n      //-----------------------------------------------------------\n      uint256 random = uint256(keccak256(abi.encodePacked(block.difficulty, block.timestamp, cidOrder[feedCounter], cidOrder[submitCounter], requestCounter))) % 100;\n      //-----------------------------------------------------------\n      // uint256 random;\n      // if(requestCounter < 100) {\n      //   random = requestCounter;\n      //   unchecked { requestCounter++; }\n      // } else {\n      //   requestCounter = 0;\n      //   random = requestCounter;\n      //   unchecked { requestCounter++; }\n      // }\n      //----------------------------------------------------------\n      editing[msg.sender] = MiniFrankie(deck[random], block.timestamp, random);\n      emit RequestedText(deck[random]);\n    }\n\n    function submitText(string calldata oldCid, string calldata newCid) public isValid(oldCid) {\n      _updateFrankie(newCid, oldCid);\n      if (frankies[newCid].writers.length == 5) {\n        _endFrankie(newCid);\n      } else {\n        cidOrder[submitCounter] = newCid;\n        unchecked { submitCounter++; }\n        if(keccak256(abi.encodePacked(deck[editing[msg.sender].deckNumber])) == keccak256(abi.encodePacked(oldCid))) {\n          deck[editing[msg.sender].deckNumber] = cidOrder[feedCounter];\n          unchecked { feedCounter++; }\n        }\n      }\n    }\n\n    function mintFrankie(string calldata oldCid,string calldata newCid) public {\n        require(frankies[oldCid].endedSince + 3 days > block.timestamp);\n        require(keccak256(abi.encodePacked(oldCid)) == keccak256(abi.encodePacked(untitledTexts[msg.sender][untitledCounter[msg.sender]])));\n        _updateFrankie(newCid, oldCid);\n        untitledCounter[msg.sender]++;\n        _safeMint(msg.sender, frankieId);\n        mintedCids[frankieId] = newCid;\n        emit MintedFrankie(frankieId, newCid);\n        frankieId++;\n    }\n\n    function requestUntitled() public view hasUntitled() returns(string memory) {\n        return untitledTexts[msg.sender][untitledCounter[msg.sender]];\n    }\n\n    function discardUntitled() public hasUntitled() {\n        untitledCounter[msg.sender]++;\n    }\n\n    function seedPlot(string calldata cid) public isVictor() {\n        string[] memory cids;\n        address[] memory writers;\n        frankies[cid] = Frankie(cids, writers, 0);\n        frankies[cid].cids.push(cid);\n        frankies[cid].writers.push(msg.sender);\n        if(deckCounter < deckSize) {\n          deck[submitCounter] = cid;\n          unchecked { feedCounter++; }\n          deckCounter++;\n        }\n        cidOrder[submitCounter] = cid;\n        unchecked { submitCounter++; }\n    }\n\n    function mintedCidById(uint id) public view returns(string memory) {\n      require(id < frankieId);\n      return mintedCids[id];\n    }\n\n    function setDeckSize(uint newSize) public isVictor() {\n      deckSize = newSize;\n      emit NewDeckSize(deckSize);\n    }\n}",
  "sourcePath": "/home/mariomazzaferro/projects/blockchain-developer-bootcamp-final-project/contracts/FrankieTexts.sol",
  "compiler": {
    "name": "solc",
    "version": "0.8.0+commit.c7dfd78e.Emscripten.clang"
  },
  "schemaVersion": "3.4.1",
  "updatedAt": "2021-10-25T18:12:56.631Z",
  "networkType": "ethereum",
  "devdoc": {
    "kind": "dev",
    "methods": {
      "approve(address,uint256)": {
        "details": "See {IERC721-approve}."
      },
      "balanceOf(address)": {
        "details": "See {IERC721-balanceOf}."
      },
      "getApproved(uint256)": {
        "details": "See {IERC721-getApproved}."
      },
      "isApprovedForAll(address,address)": {
        "details": "See {IERC721-isApprovedForAll}."
      },
      "name()": {
        "details": "See {IERC721Metadata-name}."
      },
      "ownerOf(uint256)": {
        "details": "See {IERC721-ownerOf}."
      },
      "safeTransferFrom(address,address,uint256)": {
        "details": "See {IERC721-safeTransferFrom}."
      },
      "safeTransferFrom(address,address,uint256,bytes)": {
        "details": "See {IERC721-safeTransferFrom}."
      },
      "setApprovalForAll(address,bool)": {
        "details": "See {IERC721-setApprovalForAll}."
      },
      "supportsInterface(bytes4)": {
        "details": "See {IERC165-supportsInterface}."
      },
      "symbol()": {
        "details": "See {IERC721Metadata-symbol}."
      },
      "tokenURI(uint256)": {
        "details": "See {IERC721Metadata-tokenURI}."
      },
      "transferFrom(address,address,uint256)": {
        "details": "See {IERC721-transferFrom}."
      }
    },
    "version": 1
  },
  "userdoc": {
    "kind": "user",
    "methods": {},
    "version": 1
  }
}