{
  "contractName": "FrankieTexts",
  "abi": [
    {
      "inputs": [
        {
          "internalType": "uint256",
          "name": "_deckSize",
          "type": "uint256"
        }
      ],
      "stateMutability": "nonpayable",
      "type": "constructor"
    },
    {
      "anonymous": false,
      "inputs": [
        {
          "indexed": true,
          "internalType": "address",
          "name": "owner",
          "type": "address"
        },
        {
          "indexed": true,
          "internalType": "address",
          "name": "approved",
          "type": "address"
        },
        {
          "indexed": true,
          "internalType": "uint256",
          "name": "tokenId",
          "type": "uint256"
        }
      ],
      "name": "Approval",
      "type": "event"
    },
    {
      "anonymous": false,
      "inputs": [
        {
          "indexed": true,
          "internalType": "address",
          "name": "owner",
          "type": "address"
        },
        {
          "indexed": true,
          "internalType": "address",
          "name": "operator",
          "type": "address"
        },
        {
          "indexed": false,
          "internalType": "bool",
          "name": "approved",
          "type": "bool"
        }
      ],
      "name": "ApprovalForAll",
      "type": "event"
    },
    {
      "anonymous": false,
      "inputs": [
        {
          "indexed": true,
          "internalType": "uint256",
          "name": "nftId",
          "type": "uint256"
        },
        {
          "indexed": false,
          "internalType": "string",
          "name": "nftCid",
          "type": "string"
        },
        {
          "indexed": true,
          "internalType": "string",
          "name": "fifthCid",
          "type": "string"
        }
      ],
      "name": "MintedFrankie",
      "type": "event"
    },
    {
      "anonymous": false,
      "inputs": [
        {
          "indexed": true,
          "internalType": "address",
          "name": "previousOwner",
          "type": "address"
        },
        {
          "indexed": true,
          "internalType": "address",
          "name": "newOwner",
          "type": "address"
        }
      ],
      "name": "OwnershipTransferred",
      "type": "event"
    },
    {
      "anonymous": false,
      "inputs": [
        {
          "indexed": false,
          "internalType": "string",
          "name": "chosenCid",
          "type": "string"
        },
        {
          "indexed": false,
          "internalType": "uint256",
          "name": "writerNumber",
          "type": "uint256"
        },
        {
          "indexed": false,
          "internalType": "address",
          "name": "requester",
          "type": "address"
        }
      ],
      "name": "RequestedText",
      "type": "event"
    },
    {
      "anonymous": false,
      "inputs": [
        {
          "indexed": true,
          "internalType": "address",
          "name": "from",
          "type": "address"
        },
        {
          "indexed": true,
          "internalType": "address",
          "name": "to",
          "type": "address"
        },
        {
          "indexed": true,
          "internalType": "uint256",
          "name": "tokenId",
          "type": "uint256"
        }
      ],
      "name": "Transfer",
      "type": "event"
    },
    {
      "inputs": [
        {
          "internalType": "address",
          "name": "to",
          "type": "address"
        },
        {
          "internalType": "uint256",
          "name": "tokenId",
          "type": "uint256"
        }
      ],
      "name": "approve",
      "outputs": [],
      "stateMutability": "nonpayable",
      "type": "function"
    },
    {
      "inputs": [
        {
          "internalType": "address",
          "name": "owner",
          "type": "address"
        }
      ],
      "name": "balanceOf",
      "outputs": [
        {
          "internalType": "uint256",
          "name": "",
          "type": "uint256"
        }
      ],
      "stateMutability": "view",
      "type": "function",
      "constant": true
    },
    {
      "inputs": [],
      "name": "deckCounter",
      "outputs": [
        {
          "internalType": "uint256",
          "name": "",
          "type": "uint256"
        }
      ],
      "stateMutability": "view",
      "type": "function",
      "constant": true
    },
    {
      "inputs": [],
      "name": "deckSize",
      "outputs": [
        {
          "internalType": "uint256",
          "name": "",
          "type": "uint256"
        }
      ],
      "stateMutability": "view",
      "type": "function",
      "constant": true
    },
    {
      "inputs": [],
      "name": "feedCounter",
      "outputs": [
        {
          "internalType": "uint256",
          "name": "",
          "type": "uint256"
        }
      ],
      "stateMutability": "view",
      "type": "function",
      "constant": true
    },
    {
      "inputs": [],
      "name": "frankieId",
      "outputs": [
        {
          "internalType": "uint256",
          "name": "",
          "type": "uint256"
        }
      ],
      "stateMutability": "view",
      "type": "function",
      "constant": true
    },
    {
      "inputs": [
        {
          "internalType": "uint256",
          "name": "tokenId",
          "type": "uint256"
        }
      ],
      "name": "getApproved",
      "outputs": [
        {
          "internalType": "address",
          "name": "",
          "type": "address"
        }
      ],
      "stateMutability": "view",
      "type": "function",
      "constant": true
    },
    {
      "inputs": [
        {
          "internalType": "address",
          "name": "owner",
          "type": "address"
        },
        {
          "internalType": "address",
          "name": "operator",
          "type": "address"
        }
      ],
      "name": "isApprovedForAll",
      "outputs": [
        {
          "internalType": "bool",
          "name": "",
          "type": "bool"
        }
      ],
      "stateMutability": "view",
      "type": "function",
      "constant": true
    },
    {
      "inputs": [],
      "name": "name",
      "outputs": [
        {
          "internalType": "string",
          "name": "",
          "type": "string"
        }
      ],
      "stateMutability": "view",
      "type": "function",
      "constant": true
    },
    {
      "inputs": [],
      "name": "owner",
      "outputs": [
        {
          "internalType": "address",
          "name": "",
          "type": "address"
        }
      ],
      "stateMutability": "view",
      "type": "function",
      "constant": true
    },
    {
      "inputs": [
        {
          "internalType": "uint256",
          "name": "tokenId",
          "type": "uint256"
        }
      ],
      "name": "ownerOf",
      "outputs": [
        {
          "internalType": "address",
          "name": "",
          "type": "address"
        }
      ],
      "stateMutability": "view",
      "type": "function",
      "constant": true
    },
    {
      "inputs": [],
      "name": "renounceOwnership",
      "outputs": [],
      "stateMutability": "nonpayable",
      "type": "function"
    },
    {
      "inputs": [
        {
          "internalType": "address",
          "name": "from",
          "type": "address"
        },
        {
          "internalType": "address",
          "name": "to",
          "type": "address"
        },
        {
          "internalType": "uint256",
          "name": "tokenId",
          "type": "uint256"
        }
      ],
      "name": "safeTransferFrom",
      "outputs": [],
      "stateMutability": "nonpayable",
      "type": "function"
    },
    {
      "inputs": [
        {
          "internalType": "address",
          "name": "from",
          "type": "address"
        },
        {
          "internalType": "address",
          "name": "to",
          "type": "address"
        },
        {
          "internalType": "uint256",
          "name": "tokenId",
          "type": "uint256"
        },
        {
          "internalType": "bytes",
          "name": "_data",
          "type": "bytes"
        }
      ],
      "name": "safeTransferFrom",
      "outputs": [],
      "stateMutability": "nonpayable",
      "type": "function"
    },
    {
      "inputs": [
        {
          "internalType": "address",
          "name": "operator",
          "type": "address"
        },
        {
          "internalType": "bool",
          "name": "approved",
          "type": "bool"
        }
      ],
      "name": "setApprovalForAll",
      "outputs": [],
      "stateMutability": "nonpayable",
      "type": "function"
    },
    {
      "inputs": [],
      "name": "submitCounter",
      "outputs": [
        {
          "internalType": "uint256",
          "name": "",
          "type": "uint256"
        }
      ],
      "stateMutability": "view",
      "type": "function",
      "constant": true
    },
    {
      "inputs": [
        {
          "internalType": "bytes4",
          "name": "interfaceId",
          "type": "bytes4"
        }
      ],
      "name": "supportsInterface",
      "outputs": [
        {
          "internalType": "bool",
          "name": "",
          "type": "bool"
        }
      ],
      "stateMutability": "view",
      "type": "function",
      "constant": true
    },
    {
      "inputs": [],
      "name": "symbol",
      "outputs": [
        {
          "internalType": "string",
          "name": "",
          "type": "string"
        }
      ],
      "stateMutability": "view",
      "type": "function",
      "constant": true
    },
    {
      "inputs": [
        {
          "internalType": "uint256",
          "name": "tokenId",
          "type": "uint256"
        }
      ],
      "name": "tokenURI",
      "outputs": [
        {
          "internalType": "string",
          "name": "",
          "type": "string"
        }
      ],
      "stateMutability": "view",
      "type": "function",
      "constant": true
    },
    {
      "inputs": [
        {
          "internalType": "address",
          "name": "from",
          "type": "address"
        },
        {
          "internalType": "address",
          "name": "to",
          "type": "address"
        },
        {
          "internalType": "uint256",
          "name": "tokenId",
          "type": "uint256"
        }
      ],
      "name": "transferFrom",
      "outputs": [],
      "stateMutability": "nonpayable",
      "type": "function"
    },
    {
      "inputs": [
        {
          "internalType": "address",
          "name": "newOwner",
          "type": "address"
        }
      ],
      "name": "transferOwnership",
      "outputs": [],
      "stateMutability": "nonpayable",
      "type": "function"
    },
    {
      "inputs": [],
      "name": "requestText",
      "outputs": [],
      "stateMutability": "nonpayable",
      "type": "function"
    },
    {
      "inputs": [
        {
          "internalType": "string",
          "name": "oldCid",
          "type": "string"
        },
        {
          "internalType": "string",
          "name": "newCid",
          "type": "string"
        }
      ],
      "name": "submitText",
      "outputs": [],
      "stateMutability": "nonpayable",
      "type": "function"
    },
    {
      "inputs": [
        {
          "internalType": "string",
          "name": "oldCid",
          "type": "string"
        },
        {
          "internalType": "string",
          "name": "newCid",
          "type": "string"
        },
        {
          "internalType": "uint256",
          "name": "untitledId",
          "type": "uint256"
        }
      ],
      "name": "mintFrankie",
      "outputs": [],
      "stateMutability": "nonpayable",
      "type": "function"
    },
    {
      "inputs": [
        {
          "internalType": "uint256",
          "name": "id",
          "type": "uint256"
        }
      ],
      "name": "mintedCidById",
      "outputs": [
        {
          "internalType": "string",
          "name": "",
          "type": "string"
        }
      ],
      "stateMutability": "view",
      "type": "function",
      "constant": true
    },
    {
      "inputs": [],
      "name": "requestNewestUntitledId",
      "outputs": [
        {
          "internalType": "uint256",
          "name": "",
          "type": "uint256"
        }
      ],
      "stateMutability": "view",
      "type": "function",
      "constant": true
    },
    {
      "inputs": [
        {
          "internalType": "uint256",
          "name": "untitledId",
          "type": "uint256"
        }
      ],
      "name": "requestUntitledText",
      "outputs": [
        {
          "internalType": "string",
          "name": "",
          "type": "string"
        }
      ],
      "stateMutability": "view",
      "type": "function",
      "constant": true
    },
    {
      "inputs": [
        {
          "internalType": "string",
          "name": "cid",
          "type": "string"
        }
      ],
      "name": "seedPlot",
      "outputs": [],
      "stateMutability": "nonpayable",
      "type": "function"
    }
  ],
  "bytecode": "0x60806040523480156200001157600080fd5b50604051620049cf380380620049cf8339818101604052810190620000379190620002c2565b6040518060400160405280600881526020017f4672616e6b6965730000000000000000000000000000000000000000000000008152506040518060400160405280600381526020017f464b4500000000000000000000000000000000000000000000000000000000008152508160009080519060200190620000bb929190620001fb565b508060019080519060200190620000d4929190620001fb565b505050620000f7620000eb6200012d60201b60201c565b6200013560201b60201c565b6000600781905550600060088190555060006009819055506000600a819055506000600c8190555080600b819055505062000377565b600033905090565b6000600660009054906101000a900473ffffffffffffffffffffffffffffffffffffffff16905081600660006101000a81548173ffffffffffffffffffffffffffffffffffffffff021916908373ffffffffffffffffffffffffffffffffffffffff1602179055508173ffffffffffffffffffffffffffffffffffffffff168173ffffffffffffffffffffffffffffffffffffffff167f8be0079c531659141344cd1fd0a4f28419497f9722a3daafe3b4186f6b6457e060405160405180910390a35050565b8280546200020990620002f8565b90600052602060002090601f0160209004810192826200022d576000855562000279565b82601f106200024857805160ff191683800117855562000279565b8280016001018555821562000279579182015b82811115620002785782518255916020019190600101906200025b565b5b5090506200028891906200028c565b5090565b5b80821115620002a75760008160009055506001016200028d565b5090565b600081519050620002bc816200035d565b92915050565b600060208284031215620002d557600080fd5b6000620002e584828501620002ab565b91505092915050565b6000819050919050565b600060028204905060018216806200031157607f821691505b602082108114156200032857620003276200032e565b5b50919050565b7f4e487b7100000000000000000000000000000000000000000000000000000000600052602260045260246000fd5b6200036881620002ee565b81146200037457600080fd5b50565b61464880620003876000396000f3fe608060405234801561001057600080fd5b50600436106101c45760003560e01c80638da5cb5b116100f9578063d40cf78a11610097578063dde2ae4811610071578063dde2ae48146104e1578063e985e9c5146104ff578063f2fde38b1461052f578063f86fa77b1461054b576101c4565b8063d40cf78a14610475578063d4fb945714610493578063d812da27146104c3576101c4565b8063a22cb465116100d3578063a22cb465146103f1578063b17de4af1461040d578063b88d4fde14610429578063c87b56dd14610445576101c4565b80638da5cb5b1461039957806395d89b41146103b75780639a791cb3146103d5576101c4565b80631c0f8b59116101665780636352211e116101405780636352211e1461031157806370a0823114610341578063715018a6146103715780637403a42a1461037b576101c4565b80631c0f8b59146102a957806323b872dd146102d957806342842e0e146102f5576101c4565b8063081812fc116101a2578063081812fc14610235578063095ea7b3146102655780631243e795146102815780631415f1e71461029f576101c4565b80630148c3eb146101c957806301ffc9a7146101e757806306fdde0314610217575b600080fd5b6101d1610567565b6040516101de91906141bd565b60405180910390f35b61020160048036038101906101fc91906133bc565b61056d565b60405161020e9190613f1e565b60405180910390f35b61021f61064f565b60405161022c9190613f5d565b60405180910390f35b61024f600480360381019061024a9190613551565b6106e1565b60405161025c9190613eb7565b60405180910390f35b61027f600480360381019061027a9190613380565b610766565b005b61028961087e565b60405161029691906141bd565b60405180910390f35b6102a7610922565b005b6102c360048036038101906102be9190613551565b610b50565b6040516102d09190613f5d565b60405180910390f35b6102f360048036038101906102ee919061327a565b610c63565b005b61030f600480360381019061030a919061327a565b610cc3565b005b61032b60048036038101906103269190613551565b610ce3565b6040516103389190613eb7565b60405180910390f35b61035b60048036038101906103569190613215565b610d95565b60405161036891906141bd565b60405180910390f35b610379610e4d565b005b610383610ed5565b60405161039091906141bd565b60405180910390f35b6103a1610edb565b6040516103ae9190613eb7565b60405180910390f35b6103bf610f05565b6040516103cc9190613f5d565b60405180910390f35b6103ef60048036038101906103ea9190613453565b610f97565b005b61040b60048036038101906104069190613344565b611254565b005b6104276004803603810190610422919061340e565b6113d5565b005b610443600480360381019061043e91906132c9565b611642565b005b61045f600480360381019061045a9190613551565b6116a4565b60405161046c9190613f5d565b60405180910390f35b61047d61174b565b60405161048a91906141bd565b60405180910390f35b6104ad60048036038101906104a89190613551565b611751565b6040516104ba9190613f5d565b60405180910390f35b6104cb611804565b6040516104d891906141bd565b60405180910390f35b6104e961180a565b6040516104f691906141bd565b60405180910390f35b6105196004803603810190610514919061323e565b611810565b6040516105269190613f1e565b60405180910390f35b61054960048036038101906105449190613215565b6118a4565b005b610565600480360381019061056091906134c8565b61199c565b005b60085481565b60007f80ac58cd000000000000000000000000000000000000000000000000000000007bffffffffffffffffffffffffffffffffffffffffffffffffffffffff1916827bffffffffffffffffffffffffffffffffffffffffffffffffffffffff1916148061063857507f5b5e139f000000000000000000000000000000000000000000000000000000007bffffffffffffffffffffffffffffffffffffffffffffffffffffffff1916827bffffffffffffffffffffffffffffffffffffffffffffffffffffffff1916145b80610648575061064782611bb3565b5b9050919050565b60606000805461065e90614402565b80601f016020809104026020016040519081016040528092919081815260200182805461068a90614402565b80156106d75780601f106106ac576101008083540402835291602001916106d7565b820191906000526020600020905b8154815290600101906020018083116106ba57829003601f168201915b5050505050905090565b60006106ec82611c1d565b61072b576040517f08c379a0000000000000000000000000000000000000000000000000000000008152600401610722906140fd565b60405180910390fd5b6004600083815260200190815260200160002060009054906101000a900473ffffffffffffffffffffffffffffffffffffffff169050919050565b600061077182610ce3565b90508073ffffffffffffffffffffffffffffffffffffffff168373ffffffffffffffffffffffffffffffffffffffff1614156107e2576040517f08c379a00000000000000000000000000000000000000000000000000000000081526004016107d99061417d565b60405180910390fd5b8073ffffffffffffffffffffffffffffffffffffffff16610801611c89565b73ffffffffffffffffffffffffffffffffffffffff161480610830575061082f8161082a611c89565b611810565b5b61086f576040517f08c379a00000000000000000000000000000000000000000000000000000000081526004016108669061407d565b60405180910390fd5b6108798383611c91565b505050565b600080601160003373ffffffffffffffffffffffffffffffffffffffff1673ffffffffffffffffffffffffffffffffffffffff16815260200190815260200160002080549050116108ce57600080fd5b6001601160003373ffffffffffffffffffffffffffffffffffffffff1673ffffffffffffffffffffffffffffffffffffffff1681526020019081526020016000208054905061091d9190614318565b905090565b6000600b543344600e60006008548152602001908152602001600020600e6000600954815260200190815260200160002060075460405160200161096a959493929190613dd1565b6040516020818303038152906040528051906020012060001c61098d91906144ab565b905060076000815480929190600101919050555060405180606001604052806010600084815260200190815260200160002080546109ca90614402565b80601f01602080910402602001604051908101604052809291908181526020018280546109f690614402565b8015610a435780601f10610a1857610100808354040283529160200191610a43565b820191906000526020600020905b815481529060010190602001808311610a2657829003601f168201915b5050505050815260200142815260200182815250600f60003373ffffffffffffffffffffffffffffffffffffffff1673ffffffffffffffffffffffffffffffffffffffff1681526020019081526020016000206000820151816000019080519060200190610ab2929190612caf565b5060208201518160010155604082015181600201559050507ffa5f13952dea36141fc504baf16772cf657a35de944d66152c18e2b198aa820e60106000838152602001908152602001600020600d60106000858152602001908152602001600020604051610b209190613ea0565b90815260200160405180910390206001018054905033604051610b4593929190613f7f565b60405180910390a150565b6060601160003373ffffffffffffffffffffffffffffffffffffffff1673ffffffffffffffffffffffffffffffffffffffff1681526020019081526020016000208281548110610bc9577f4e487b7100000000000000000000000000000000000000000000000000000000600052603260045260246000fd5b906000526020600020018054610bde90614402565b80601f0160208091040260200160405190810160405280929190818152602001828054610c0a90614402565b8015610c575780601f10610c2c57610100808354040283529160200191610c57565b820191906000526020600020905b815481529060010190602001808311610c3a57829003601f168201915b50505050509050919050565b610c74610c6e611c89565b82611d4a565b610cb3576040517f08c379a0000000000000000000000000000000000000000000000000000000008152600401610caa9061419d565b60405180910390fd5b610cbe838383611e28565b505050565b610cde83838360405180602001604052806000815250611642565b505050565b6000806002600084815260200190815260200160002060009054906101000a900473ffffffffffffffffffffffffffffffffffffffff169050600073ffffffffffffffffffffffffffffffffffffffff168173ffffffffffffffffffffffffffffffffffffffff161415610d8c576040517f08c379a0000000000000000000000000000000000000000000000000000000008152600401610d83906140bd565b60405180910390fd5b80915050919050565b60008073ffffffffffffffffffffffffffffffffffffffff168273ffffffffffffffffffffffffffffffffffffffff161415610e06576040517f08c379a0000000000000000000000000000000000000000000000000000000008152600401610dfd9061409d565b60405180910390fd5b600360008373ffffffffffffffffffffffffffffffffffffffff1673ffffffffffffffffffffffffffffffffffffffff168152602001908152602001600020549050919050565b610e55611c89565b73ffffffffffffffffffffffffffffffffffffffff16610e73610edb565b73ffffffffffffffffffffffffffffffffffffffff1614610ec9576040517f08c379a0000000000000000000000000000000000000000000000000000000008152600401610ec09061411d565b60405180910390fd5b610ed36000612084565b565b600c5481565b6000600660009054906101000a900473ffffffffffffffffffffffffffffffffffffffff16905090565b606060018054610f1490614402565b80601f0160208091040260200160405190810160405280929190818152602001828054610f4090614402565b8015610f8d5780601f10610f6257610100808354040283529160200191610f8d565b820191906000526020600020905b815481529060010190602001808311610f7057829003601f168201915b5050505050905090565b42611c20600f60003373ffffffffffffffffffffffffffffffffffffffff1673ffffffffffffffffffffffffffffffffffffffff16815260200190815260200160002060010154610fe89190614291565b11610ff257600080fd5b8383604051602001611005929190613e28565b60405160208183030381529060405280519060200120600f60003373ffffffffffffffffffffffffffffffffffffffff1673ffffffffffffffffffffffffffffffffffffffff16815260200190815260200160002060000160405160200161106d9190613ea0565b604051602081830303815290604052805190602001201461108d57600080fd5b6110998282868661214a565b6003600d83836040516110ad929190613e28565b90815260200160405180910390206001018054905014156110d7576110d282826122a4565b61124e565b8181600e6000600954815260200190815260200160002091906110fb929190612d35565b506009600081548092919060010191905055508383604051602001611121929190613e28565b6040516020818303038152906040528051906020012060106000600f60003373ffffffffffffffffffffffffffffffffffffffff1673ffffffffffffffffffffffffffffffffffffffff16815260200190815260200160002060020154815260200190815260200160002060405160200161119c9190613ea0565b60405160208183030381529060405280519060200120141561124d57600e6000600854815260200190815260200160002060106000600f60003373ffffffffffffffffffffffffffffffffffffffff1673ffffffffffffffffffffffffffffffffffffffff16815260200190815260200160002060020154815260200190815260200160002090805461122e90614402565b611239929190612dbb565b506008600081548092919060010191905055505b5b50505050565b61125c611c89565b73ffffffffffffffffffffffffffffffffffffffff168273ffffffffffffffffffffffffffffffffffffffff1614156112ca576040517f08c379a00000000000000000000000000000000000000000000000000000000081526004016112c19061403d565b60405180910390fd5b80600560006112d7611c89565b73ffffffffffffffffffffffffffffffffffffffff1673ffffffffffffffffffffffffffffffffffffffff16815260200190815260200160002060008473ffffffffffffffffffffffffffffffffffffffff1673ffffffffffffffffffffffffffffffffffffffff16815260200190815260200160002060006101000a81548160ff0219169083151502179055508173ffffffffffffffffffffffffffffffffffffffff16611384611c89565b73ffffffffffffffffffffffffffffffffffffffff167f17307eab39ab6107e8899845ad3d59bd9653f200f220920489ca2b5937696c31836040516113c99190613f1e565b60405180910390a35050565b6113dd611c89565b73ffffffffffffffffffffffffffffffffffffffff166113fb610edb565b73ffffffffffffffffffffffffffffffffffffffff1614611451576040517f08c379a00000000000000000000000000000000000000000000000000000000081526004016114489061411d565b60405180910390fd5b606080604051806040016040528083815260200182815250600d858560405161147b929190613e28565b908152602001604051809103902060008201518160000190805190602001906114a5929190612e48565b5060208201518160010190805190602001906114c2929190612ea8565b50905050600d84846040516114d8929190613e28565b9081526020016040518091039020600001848490918060018154018082558091505060019003906000526020600020016000909192909192909192909192509190611524929190612d35565b50600d8484604051611537929190613e28565b9081526020016040518091039020600101339080600181540180825580915050600190039060005260206000200160009091909190916101000a81548173ffffffffffffffffffffffffffffffffffffffff021916908373ffffffffffffffffffffffffffffffffffffffff160217905550600b54600a54101561160557838360106000600a54815260200190815260200160002091906115d9929190612d35565b50600860008154809291906001019190505550600a60008154809291906115ff90614434565b91905055505b8383600e600060095481526020019081526020016000209190611629929190612d35565b5060096000815480929190600101919050555050505050565b61165361164d611c89565b83611d4a565b611692576040517f08c379a00000000000000000000000000000000000000000000000000000000081526004016116899061419d565b60405180910390fd5b61169e84848484612699565b50505050565b60606116af82611c1d565b6116ee576040517f08c379a00000000000000000000000000000000000000000000000000000000081526004016116e59061415d565b60405180910390fd5b60006116f86126f5565b905060008151116117185760405180602001604052806000815250611743565b806117228461270c565b604051602001611733929190613e7c565b6040516020818303038152906040525b915050919050565b600a5481565b6060600c54821061176157600080fd5b60126000838152602001908152602001600020805461177f90614402565b80601f01602080910402602001604051908101604052809291908181526020018280546117ab90614402565b80156117f85780601f106117cd576101008083540402835291602001916117f8565b820191906000526020600020905b8154815290600101906020018083116117db57829003601f168201915b50505050509050919050565b60095481565b600b5481565b6000600560008473ffffffffffffffffffffffffffffffffffffffff1673ffffffffffffffffffffffffffffffffffffffff16815260200190815260200160002060008373ffffffffffffffffffffffffffffffffffffffff1673ffffffffffffffffffffffffffffffffffffffff16815260200190815260200160002060009054906101000a900460ff16905092915050565b6118ac611c89565b73ffffffffffffffffffffffffffffffffffffffff166118ca610edb565b73ffffffffffffffffffffffffffffffffffffffff1614611920576040517f08c379a00000000000000000000000000000000000000000000000000000000081526004016119179061411d565b60405180910390fd5b600073ffffffffffffffffffffffffffffffffffffffff168173ffffffffffffffffffffffffffffffffffffffff161415611990576040517f08c379a000000000000000000000000000000000000000000000000000000000815260040161198790613fdd565b60405180910390fd5b61199981612084565b50565b601160003373ffffffffffffffffffffffffffffffffffffffff1673ffffffffffffffffffffffffffffffffffffffff1681526020019081526020016000208181548110611a13577f4e487b7100000000000000000000000000000000000000000000000000000000600052603260045260246000fd5b90600052602060002001604051602001611a2d9190613ea0565b604051602081830303815290604052805190602001208585604051602001611a56929190613e28565b6040516020818303038152906040528051906020012014611a7657600080fd5b611a828383878761214a565b611a8e33600c546128b9565b601160003373ffffffffffffffffffffffffffffffffffffffff1673ffffffffffffffffffffffffffffffffffffffff1681526020019081526020016000208181548110611b05577f4e487b7100000000000000000000000000000000000000000000000000000000600052603260045260246000fd5b906000526020600020016000611b1b9190612f32565b828260126000600c5481526020019081526020016000209190611b3f929190612d35565b508484604051611b50929190613e28565b6040518091039020600c547f2acd7bd8c19e16133f59b87545a8541c2cb2f98cc768abe3d15cdadd7e003d138585604051611b8c929190613f39565b60405180910390a3600c6000815480929190611ba790614434565b91905055505050505050565b60007f01ffc9a7000000000000000000000000000000000000000000000000000000007bffffffffffffffffffffffffffffffffffffffffffffffffffffffff1916827bffffffffffffffffffffffffffffffffffffffffffffffffffffffff1916149050919050565b60008073ffffffffffffffffffffffffffffffffffffffff166002600084815260200190815260200160002060009054906101000a900473ffffffffffffffffffffffffffffffffffffffff1673ffffffffffffffffffffffffffffffffffffffff1614159050919050565b600033905090565b816004600083815260200190815260200160002060006101000a81548173ffffffffffffffffffffffffffffffffffffffff021916908373ffffffffffffffffffffffffffffffffffffffff160217905550808273ffffffffffffffffffffffffffffffffffffffff16611d0483610ce3565b73ffffffffffffffffffffffffffffffffffffffff167f8c5be1e5ebec7d5bd14f71427d1e84f3dd0314c0f7b2291e5b200ac8c7c3b92560405160405180910390a45050565b6000611d5582611c1d565b611d94576040517f08c379a0000000000000000000000000000000000000000000000000000000008152600401611d8b9061405d565b60405180910390fd5b6000611d9f83610ce3565b90508073ffffffffffffffffffffffffffffffffffffffff168473ffffffffffffffffffffffffffffffffffffffff161480611e0e57508373ffffffffffffffffffffffffffffffffffffffff16611df6846106e1565b73ffffffffffffffffffffffffffffffffffffffff16145b80611e1f5750611e1e8185611810565b5b91505092915050565b8273ffffffffffffffffffffffffffffffffffffffff16611e4882610ce3565b73ffffffffffffffffffffffffffffffffffffffff1614611e9e576040517f08c379a0000000000000000000000000000000000000000000000000000000008152600401611e959061413d565b60405180910390fd5b600073ffffffffffffffffffffffffffffffffffffffff168273ffffffffffffffffffffffffffffffffffffffff161415611f0e576040517f08c379a0000000000000000000000000000000000000000000000000000000008152600401611f059061401d565b60405180910390fd5b611f198383836128d7565b611f24600082611c91565b6001600360008573ffffffffffffffffffffffffffffffffffffffff1673ffffffffffffffffffffffffffffffffffffffff1681526020019081526020016000206000828254611f749190614318565b925050819055506001600360008473ffffffffffffffffffffffffffffffffffffffff1673ffffffffffffffffffffffffffffffffffffffff1681526020019081526020016000206000828254611fcb9190614291565b92505081905550816002600083815260200190815260200160002060006101000a81548173ffffffffffffffffffffffffffffffffffffffff021916908373ffffffffffffffffffffffffffffffffffffffff160217905550808273ffffffffffffffffffffffffffffffffffffffff168473ffffffffffffffffffffffffffffffffffffffff167fddf252ad1be2c89b69c2b068fc378daa952ba7f163c4a11628f55a4df523b3ef60405160405180910390a4505050565b6000600660009054906101000a900473ffffffffffffffffffffffffffffffffffffffff16905081600660006101000a81548173ffffffffffffffffffffffffffffffffffffffff021916908373ffffffffffffffffffffffffffffffffffffffff1602179055508173ffffffffffffffffffffffffffffffffffffffff168173ffffffffffffffffffffffffffffffffffffffff167f8be0079c531659141344cd1fd0a4f28419497f9722a3daafe3b4186f6b6457e060405160405180910390a35050565b600d828260405161215c929190613e28565b9081526020016040518091039020600d858560405161217c929190613e28565b908152602001604051809103902060008201816000019080546121a0929190612f72565b5060018201816001019080546121b7929190612fda565b50905050600d84846040516121cd929190613e28565b9081526020016040518091039020600001848490918060018154018082558091505060019003906000526020600020016000909192909192909192909192509190612219929190612d35565b50600d848460405161222c929190613e28565b9081526020016040518091039020600101339080600181540180825580915050600190039060005260206000200160009091909190916101000a81548173ffffffffffffffffffffffffffffffffffffffff021916908373ffffffffffffffffffffffffffffffffffffffff16021790555050505050565b60005b60038110156123c35760116000600d85856040516122c6929190613e28565b9081526020016040518091039020600101838154811061230f577f4e487b7100000000000000000000000000000000000000000000000000000000600052603260045260246000fd5b9060005260206000200160009054906101000a900473ffffffffffffffffffffffffffffffffffffffff1673ffffffffffffffffffffffffffffffffffffffff1673ffffffffffffffffffffffffffffffffffffffff1681526020019081526020016000208383909180600181540180825580915050600190039060005260206000200160009091929091929091929091925091906123af929190612d35565b5080806123bb90614434565b9150506122a7565b506013600d83836040516123d8929190613e28565b9081526020016040518091039020600001600081548110612422577f4e487b7100000000000000000000000000000000000000000000000000000000600052603260045260246000fd5b906000526020600020016040516124399190613ea0565b908152602001604051809103902060009054906101000a900460ff16612600576000828260405160200161246e929190613e41565b6040516020818303038152906040529050606080604051806040016040528083815260200182815250600d846040516124a79190613e65565b908152602001604051809103902060008201518160000190805190602001906124d1929190612e48565b5060208201518160010190805190602001906124ee929190612ea8565b509050508260106000600f60003373ffffffffffffffffffffffffffffffffffffffff1673ffffffffffffffffffffffffffffffffffffffff168152602001908152602001600020600201548152602001908152602001600020908051906020019061255b929190612caf565b5060016013600d8787604051612572929190613e28565b90815260200160405180910390206000016000815481106125bc577f4e487b7100000000000000000000000000000000000000000000000000000000600052603260045260246000fd5b906000526020600020016040516125d39190613ea0565b908152602001604051809103902060006101000a81548160ff021916908315150217905550505050612695565b600e6000600854815260200190815260200160002060106000600f60003373ffffffffffffffffffffffffffffffffffffffff1673ffffffffffffffffffffffffffffffffffffffff16815260200190815260200160002060020154815260200190815260200160002090805461267690614402565b612681929190612dbb565b506008600081548092919060010191905055505b5050565b6126a4848484611e28565b6126b0848484846128dc565b6126ef576040517f08c379a00000000000000000000000000000000000000000000000000000000081526004016126e690613fbd565b60405180910390fd5b50505050565b606060405180602001604052806000815250905090565b60606000821415612754576040518060400160405280600181526020017f300000000000000000000000000000000000000000000000000000000000000081525090506128b4565b600082905060005b6000821461278657808061276f90614434565b915050600a8261277f91906142e7565b915061275c565b60008167ffffffffffffffff8111156127c8577f4e487b7100000000000000000000000000000000000000000000000000000000600052604160045260246000fd5b6040519080825280601f01601f1916602001820160405280156127fa5781602001600182028036833780820191505090505b5090505b600085146128ad576001826128139190614318565b9150600a8561282291906144ab565b603061282e9190614291565b60f81b81838151811061286a577f4e487b7100000000000000000000000000000000000000000000000000000000600052603260045260246000fd5b60200101907effffffffffffffffffffffffffffffffffffffffffffffffffffffffffffff1916908160001a905350600a856128a691906142e7565b94506127fe565b8093505050505b919050565b6128d3828260405180602001604052806000815250612a73565b5050565b505050565b60006128fd8473ffffffffffffffffffffffffffffffffffffffff16612ace565b15612a66578373ffffffffffffffffffffffffffffffffffffffff1663150b7a02612926611c89565b8786866040518563ffffffff1660e01b81526004016129489493929190613ed2565b602060405180830381600087803b15801561296257600080fd5b505af192505050801561299357506040513d601f19601f8201168201806040525081019061299091906133e5565b60015b612a16573d80600081146129c3576040519150601f19603f3d011682016040523d82523d6000602084013e6129c8565b606091505b50600081511415612a0e576040517f08c379a0000000000000000000000000000000000000000000000000000000008152600401612a0590613fbd565b60405180910390fd5b805181602001fd5b63150b7a0260e01b7bffffffffffffffffffffffffffffffffffffffffffffffffffffffff1916817bffffffffffffffffffffffffffffffffffffffffffffffffffffffff191614915050612a6b565b600190505b949350505050565b612a7d8383612ae1565b612a8a60008484846128dc565b612ac9576040517f08c379a0000000000000000000000000000000000000000000000000000000008152600401612ac090613fbd565b60405180910390fd5b505050565b600080823b905060008111915050919050565b600073ffffffffffffffffffffffffffffffffffffffff168273ffffffffffffffffffffffffffffffffffffffff161415612b51576040517f08c379a0000000000000000000000000000000000000000000000000000000008152600401612b48906140dd565b60405180910390fd5b612b5a81611c1d565b15612b9a576040517f08c379a0000000000000000000000000000000000000000000000000000000008152600401612b9190613ffd565b60405180910390fd5b612ba6600083836128d7565b6001600360008473ffffffffffffffffffffffffffffffffffffffff1673ffffffffffffffffffffffffffffffffffffffff1681526020019081526020016000206000828254612bf69190614291565b92505081905550816002600083815260200190815260200160002060006101000a81548173ffffffffffffffffffffffffffffffffffffffff021916908373ffffffffffffffffffffffffffffffffffffffff160217905550808273ffffffffffffffffffffffffffffffffffffffff16600073ffffffffffffffffffffffffffffffffffffffff167fddf252ad1be2c89b69c2b068fc378daa952ba7f163c4a11628f55a4df523b3ef60405160405180910390a45050565b828054612cbb90614402565b90600052602060002090601f016020900481019282612cdd5760008555612d24565b82601f10612cf657805160ff1916838001178555612d24565b82800160010185558215612d24579182015b82811115612d23578251825591602001919060010190612d08565b5b509050612d31919061302c565b5090565b828054612d4190614402565b90600052602060002090601f016020900481019282612d635760008555612daa565b82601f10612d7c57803560ff1916838001178555612daa565b82800160010185558215612daa579182015b82811115612da9578235825591602001919060010190612d8e565b5b509050612db7919061302c565b5090565b828054612dc790614402565b90600052602060002090601f016020900481019282612de95760008555612e37565b82601f10612dfa5780548555612e37565b82800160010185558215612e3757600052602060002091601f016020900482015b82811115612e36578254825591600101919060010190612e1b565b5b509050612e44919061302c565b5090565b828054828255906000526020600020908101928215612e97579160200282015b82811115612e96578251829080519060200190612e86929190612caf565b5091602001919060010190612e68565b5b509050612ea49190613049565b5090565b828054828255906000526020600020908101928215612f21579160200282015b82811115612f205782518260006101000a81548173ffffffffffffffffffffffffffffffffffffffff021916908373ffffffffffffffffffffffffffffffffffffffff16021790555091602001919060010190612ec8565b5b509050612f2e919061302c565b5090565b508054612f3e90614402565b6000825580601f10612f505750612f6f565b601f016020900490600052602060002090810190612f6e919061302c565b5b50565b828054828255906000526020600020908101928215612fc95760005260206000209182015b82811115612fc8578282908054612fad90614402565b612fb892919061306d565b5091600101919060010190612f97565b5b509050612fd69190613049565b5090565b82805482825590600052602060002090810192821561301b5760005260206000209182015b8281111561301a578254825591600101919060010190612fff565b5b509050613028919061302c565b5090565b5b8082111561304557600081600090555060010161302d565b5090565b5b8082111561306957600081816130609190612f32565b5060010161304a565b5090565b82805461307990614402565b90600052602060002090601f01602090048101928261309b57600085556130e9565b82601f106130ac57805485556130e9565b828001600101855582156130e957600052602060002091601f016020900482015b828111156130e85782548255916001019190600101906130cd565b5b5090506130f6919061302c565b5090565b600061310d61310884614209565b6141d8565b90508281526020810184848401111561312557600080fd5b6131308482856143c0565b509392505050565b600081359050613147816145b6565b92915050565b60008135905061315c816145cd565b92915050565b600081359050613171816145e4565b92915050565b600081519050613186816145e4565b92915050565b600082601f83011261319d57600080fd5b81356131ad8482602086016130fa565b91505092915050565b60008083601f8401126131c857600080fd5b8235905067ffffffffffffffff8111156131e157600080fd5b6020830191508360018202830111156131f957600080fd5b9250929050565b60008135905061320f816145fb565b92915050565b60006020828403121561322757600080fd5b600061323584828501613138565b91505092915050565b6000806040838503121561325157600080fd5b600061325f85828601613138565b925050602061327085828601613138565b9150509250929050565b60008060006060848603121561328f57600080fd5b600061329d86828701613138565b93505060206132ae86828701613138565b92505060406132bf86828701613200565b9150509250925092565b600080600080608085870312156132df57600080fd5b60006132ed87828801613138565b94505060206132fe87828801613138565b935050604061330f87828801613200565b925050606085013567ffffffffffffffff81111561332c57600080fd5b6133388782880161318c565b91505092959194509250565b6000806040838503121561335757600080fd5b600061336585828601613138565b92505060206133768582860161314d565b9150509250929050565b6000806040838503121561339357600080fd5b60006133a185828601613138565b92505060206133b285828601613200565b9150509250929050565b6000602082840312156133ce57600080fd5b60006133dc84828501613162565b91505092915050565b6000602082840312156133f757600080fd5b600061340584828501613177565b91505092915050565b6000806020838503121561342157600080fd5b600083013567ffffffffffffffff81111561343b57600080fd5b613447858286016131b6565b92509250509250929050565b6000806000806040858703121561346957600080fd5b600085013567ffffffffffffffff81111561348357600080fd5b61348f878288016131b6565b9450945050602085013567ffffffffffffffff8111156134ae57600080fd5b6134ba878288016131b6565b925092505092959194509250565b6000806000806000606086880312156134e057600080fd5b600086013567ffffffffffffffff8111156134fa57600080fd5b613506888289016131b6565b9550955050602086013567ffffffffffffffff81111561352557600080fd5b613531888289016131b6565b9350935050604061354488828901613200565b9150509295509295909350565b60006020828403121561356357600080fd5b600061357184828501613200565b91505092915050565b6135838161434c565b82525050565b61359a6135958261434c565b61447d565b82525050565b6135a98161435e565b82525050565b60006135ba8261424e565b6135c48185614264565b93506135d48185602086016143cf565b6135dd81614598565b840191505092915050565b60006135f48385614275565b93506136018385846143c0565b61360a83614598565b840190509392505050565b60006136218385614286565b935061362e8385846143c0565b82840190509392505050565b600061364582614259565b61364f8185614275565b935061365f8185602086016143cf565b61366881614598565b840191505092915050565b600061367e82614259565b6136888185614286565b93506136988185602086016143cf565b80840191505092915050565b600081546136b181614402565b6136bb8186614275565b945060018216600081146136d657600181146136e85761371b565b60ff198316865260208601935061371b565b6136f185614239565b60005b83811015613713578154818901526001820191506020810190506136f4565b808801955050505b50505092915050565b6000815461373181614402565b61373b8186614286565b9450600182166000811461375657600181146137675761379a565b60ff1983168652818601935061379a565b61377085614239565b60005b8381101561379257815481890152600182019150602081019050613773565b838801955050505b50505092915050565b60006137b0603283614275565b91507f4552433732313a207472616e7366657220746f206e6f6e20455243373231526560008301527f63656976657220696d706c656d656e74657200000000000000000000000000006020830152604082019050919050565b6000613816602683614275565b91507f4f776e61626c653a206e6577206f776e657220697320746865207a65726f206160008301527f64647265737300000000000000000000000000000000000000000000000000006020830152604082019050919050565b600061387c601c83614275565b91507f4552433732313a20746f6b656e20616c7265616479206d696e746564000000006000830152602082019050919050565b60006138bc600383614286565b91507f30303000000000000000000000000000000000000000000000000000000000006000830152600382019050919050565b60006138fc602483614275565b91507f4552433732313a207472616e7366657220746f20746865207a65726f2061646460008301527f72657373000000000000000000000000000000000000000000000000000000006020830152604082019050919050565b6000613962601983614275565b91507f4552433732313a20617070726f766520746f2063616c6c6572000000000000006000830152602082019050919050565b60006139a2602c83614275565b91507f4552433732313a206f70657261746f7220717565727920666f72206e6f6e657860008301527f697374656e7420746f6b656e00000000000000000000000000000000000000006020830152604082019050919050565b6000613a08603883614275565b91507f4552433732313a20617070726f76652063616c6c6572206973206e6f74206f7760008301527f6e6572206e6f7220617070726f76656420666f7220616c6c00000000000000006020830152604082019050919050565b6000613a6e602a83614275565b91507f4552433732313a2062616c616e636520717565727920666f7220746865207a6560008301527f726f2061646472657373000000000000000000000000000000000000000000006020830152604082019050919050565b6000613ad4602983614275565b91507f4552433732313a206f776e657220717565727920666f72206e6f6e657869737460008301527f656e7420746f6b656e00000000000000000000000000000000000000000000006020830152604082019050919050565b6000613b3a602083614275565b91507f4552433732313a206d696e7420746f20746865207a65726f20616464726573736000830152602082019050919050565b6000613b7a602c83614275565b91507f4552433732313a20617070726f76656420717565727920666f72206e6f6e657860008301527f697374656e7420746f6b656e00000000000000000000000000000000000000006020830152604082019050919050565b6000613be0602083614275565b91507f4f776e61626c653a2063616c6c6572206973206e6f7420746865206f776e65726000830152602082019050919050565b6000613c20602983614275565b91507f4552433732313a207472616e73666572206f6620746f6b656e2074686174206960008301527f73206e6f74206f776e00000000000000000000000000000000000000000000006020830152604082019050919050565b6000613c86602f83614275565b91507f4552433732314d657461646174613a2055524920717565727920666f72206e6f60008301527f6e6578697374656e7420746f6b656e00000000000000000000000000000000006020830152604082019050919050565b6000613cec602183614275565b91507f4552433732313a20617070726f76616c20746f2063757272656e74206f776e6560008301527f72000000000000000000000000000000000000000000000000000000000000006020830152604082019050919050565b6000613d52603183614275565b91507f4552433732313a207472616e736665722063616c6c6572206973206e6f74206f60008301527f776e6572206e6f7220617070726f7665640000000000000000000000000000006020830152604082019050919050565b613db4816143b6565b82525050565b613dcb613dc6826143b6565b6144a1565b82525050565b6000613ddd8288613589565b601482019150613ded8287613dba565b602082019150613dfd8286613724565b9150613e098285613724565b9150613e158284613dba565b6020820191508190509695505050505050565b6000613e35828486613615565b91508190509392505050565b6000613e4e828486613615565b9150613e59826138af565b91508190509392505050565b6000613e718284613673565b915081905092915050565b6000613e888285613673565b9150613e948284613673565b91508190509392505050565b6000613eac8284613724565b915081905092915050565b6000602082019050613ecc600083018461357a565b92915050565b6000608082019050613ee7600083018761357a565b613ef4602083018661357a565b613f016040830185613dab565b8181036060830152613f1381846135af565b905095945050505050565b6000602082019050613f3360008301846135a0565b92915050565b60006020820190508181036000830152613f548184866135e8565b90509392505050565b60006020820190508181036000830152613f77818461363a565b905092915050565b60006060820190508181036000830152613f9981866136a4565b9050613fa86020830185613dab565b613fb5604083018461357a565b949350505050565b60006020820190508181036000830152613fd6816137a3565b9050919050565b60006020820190508181036000830152613ff681613809565b9050919050565b600060208201905081810360008301526140168161386f565b9050919050565b60006020820190508181036000830152614036816138ef565b9050919050565b6000602082019050818103600083015261405681613955565b9050919050565b6000602082019050818103600083015261407681613995565b9050919050565b60006020820190508181036000830152614096816139fb565b9050919050565b600060208201905081810360008301526140b681613a61565b9050919050565b600060208201905081810360008301526140d681613ac7565b9050919050565b600060208201905081810360008301526140f681613b2d565b9050919050565b6000602082019050818103600083015261411681613b6d565b9050919050565b6000602082019050818103600083015261413681613bd3565b9050919050565b6000602082019050818103600083015261415681613c13565b9050919050565b6000602082019050818103600083015261417681613c79565b9050919050565b6000602082019050818103600083015261419681613cdf565b9050919050565b600060208201905081810360008301526141b681613d45565b9050919050565b60006020820190506141d26000830184613dab565b92915050565b6000604051905081810181811067ffffffffffffffff821117156141ff576141fe614569565b5b8060405250919050565b600067ffffffffffffffff82111561422457614223614569565b5b601f19601f8301169050602081019050919050565b60008190508160005260206000209050919050565b600081519050919050565b600081519050919050565b600082825260208201905092915050565b600082825260208201905092915050565b600081905092915050565b600061429c826143b6565b91506142a7836143b6565b9250827fffffffffffffffffffffffffffffffffffffffffffffffffffffffffffffffff038211156142dc576142db6144dc565b5b828201905092915050565b60006142f2826143b6565b91506142fd836143b6565b92508261430d5761430c61450b565b5b828204905092915050565b6000614323826143b6565b915061432e836143b6565b925082821015614341576143406144dc565b5b828203905092915050565b600061435782614396565b9050919050565b60008115159050919050565b60007fffffffff0000000000000000000000000000000000000000000000000000000082169050919050565b600073ffffffffffffffffffffffffffffffffffffffff82169050919050565b6000819050919050565b82818337600083830152505050565b60005b838110156143ed5780820151818401526020810190506143d2565b838111156143fc576000848401525b50505050565b6000600282049050600182168061441a57607f821691505b6020821081141561442e5761442d61453a565b5b50919050565b600061443f826143b6565b91507fffffffffffffffffffffffffffffffffffffffffffffffffffffffffffffffff821415614472576144716144dc565b5b600182019050919050565b60006144888261448f565b9050919050565b600061449a826145a9565b9050919050565b6000819050919050565b60006144b6826143b6565b91506144c1836143b6565b9250826144d1576144d061450b565b5b828206905092915050565b7f4e487b7100000000000000000000000000000000000000000000000000000000600052601160045260246000fd5b7f4e487b7100000000000000000000000000000000000000000000000000000000600052601260045260246000fd5b7f4e487b7100000000000000000000000000000000000000000000000000000000600052602260045260246000fd5b7f4e487b7100000000000000000000000000000000000000000000000000000000600052604160045260246000fd5b6000601f19601f8301169050919050565b60008160601b9050919050565b6145bf8161434c565b81146145ca57600080fd5b50565b6145d68161435e565b81146145e157600080fd5b50565b6145ed8161436a565b81146145f857600080fd5b50565b614604816143b6565b811461460f57600080fd5b5056fea2646970667358221220fab5c56da2aeb3d25697f188be9b6a0ffad391bd8af0fe198f13645265541dd964736f6c63430008000033",
  "immutableReferences": {},
  "source": "// SPDX-License-Identifier: MIT\npragma solidity 0.8.0;\n\nimport \"../node_modules/@openzeppelin/contracts/token/ERC721/ERC721.sol\";\nimport \"../node_modules/@openzeppelin/contracts/access/Ownable.sol\";\n\n/// @title A Frankenstein Texts writing game\n/// @author Mario Mazzaferro\ncontract FrankieTexts is ERC721, Ownable {\n\n    /// @dev Keeps track of the number of requestText() calls.\n    uint256 private requestCounter;\n\n    /// @dev Keeps track of the number of CIDs fed in the deck mapping.\n    uint256 public feedCounter;\n\n    /// @dev Keeps track of the number of valid submitText() calls.\n    uint256 public submitCounter;\n\n    /// @dev Keeps track of the number of plots seeded in the deck.\n    uint256 public deckCounter;\n\n    /// @dev Maximum size of the deck mapping.\n    uint256 public deckSize;\n\n    /// @dev Keeps track of the number of minted NFTs.\n    uint256 public frankieId;\n\n    /// @dev Fired upon requestText() call.\n    event RequestedText(string chosenCid, uint256 writerNumber, address requester);\n\n    /// @dev Fired upon mintFrankie() call.\n    event MintedFrankie(uint indexed nftId, string nftCid, string indexed fifthCid);\n\n    /// @dev Stores data of a Frankenstein Text.\n    struct Frankie {\n      string[] cids;\n      address[] writers;\n    }\n\n    /// @dev Stores temporary data of a Frankenstein Text being edited.\n    struct MiniFrankie {\n      string cid;\n      uint256 editSince;\n      uint256 deckNumber;\n    }\n\n    /// @dev Relates IPFS CIDs with Frankenstein Texts.\n    mapping(string => Frankie) private frankies;\n\n    /// @dev Cue order of IPFS CIDs from incomplete Frankenstein Texts.\n    mapping(uint256 => string) private cidOrder;\n\n    /// @dev Relates writer address and current editing Frankenstein Text.\n    mapping(address => MiniFrankie) private editing;\n\n    /// @dev Ordered IPFS CIDs that will be pseudo-randomly returned by requestText().\n    mapping(uint256 => string) private deck;\n\n    /// @dev Relates writer address with its list of finished untitled Frankenstein Text's CIDs.\n    mapping(address => string[]) private untitledTexts;\n\n    /// @dev Relates frankieId with its respective IPFS CID.\n    mapping(uint256 => string) private mintedCids;\n\n    /// @dev Keeps track of plots that have had at least one ramification finished.\n    mapping(string => bool) private plotEnded;\n\n    /// @dev Sets initial values.\n    constructor(uint _deckSize) ERC721(\"Frankies\", \"FKE\") {\n        requestCounter = 0;\n        feedCounter = 0;\n        submitCounter = 0;\n        deckCounter = 0;\n        frankieId = 0;\n        deckSize = _deckSize;\n    }\n\n    /// @dev Updates Frankenstein Text data stored in Frankie struct.\n    function _updateFrankie(string calldata newCid, string calldata oldCid) private {\n        frankies[newCid] = frankies[oldCid];\n        frankies[newCid].cids.push(newCid);\n        frankies[newCid].writers.push(msg.sender);\n    }\n\n    /// @dev Feeds finished Frankenstein Text into each writer's untitled list.\n    /// @dev Feeds a new CID into the deck to replace the finished Frankenstein Text's CID.\n    /// @dev If it's the first ramification of that plot to finish: feeds a blank plot CID.\n    /// @dev Else: feeds the next CID in the cidOrder cue.\n    function _endFrankie(string calldata newCid) private {\n      for (uint256 i = 0; i < 3; i++) {\n        untitledTexts[frankies[newCid].writers[i]].push(newCid);\n      }\n      if(!plotEnded[frankies[newCid].cids[0]]) {\n        string memory startCid = string(abi.encodePacked(newCid, '000'));\n        string[] memory cids;\n        address[] memory writers;\n        frankies[startCid] = Frankie(cids, writers);\n        deck[editing[msg.sender].deckNumber] = startCid;\n        plotEnded[frankies[newCid].cids[0]] = true;\n      } else {\n        deck[editing[msg.sender].deckNumber] = cidOrder[feedCounter];\n        unchecked { feedCounter++; } \n        }\n    }\n\n    /// @dev Draws a pseudo-random CID from deck mapping.\n    /// @dev Sets pseudo-random CID to msg.sender in editing mapping.\n    function requestText() external {\n      uint256 random = uint256(keccak256(abi.encodePacked(msg.sender, block.difficulty, cidOrder[feedCounter], cidOrder[submitCounter], requestCounter))) % deckSize;\n      unchecked { requestCounter++; }\n      editing[msg.sender] = MiniFrankie(deck[random], block.timestamp, random);\n      emit RequestedText(deck[random], frankies[deck[random]].writers.length, msg.sender);\n    }\n\n    /// @dev Updates Frankenstein Text data through _updateFrankie().\n    /// @dev If the Frankie has 5 contributions: finalizes Frankenstein Text.\n    /// @dev Else: sets newCid in the end of cidOrder cue and if it's the first submited\n    /// @dev ramification of oldCid: substitutes it (in the deck) with the first CID of cidOrder cue.\n    function submitText(string calldata oldCid, string calldata newCid) external {\n      require(editing[msg.sender].editSince + 2 hours > block.timestamp);\n      require(keccak256(abi.encodePacked(editing[msg.sender].cid)) == keccak256(abi.encodePacked(oldCid)));\n      _updateFrankie(newCid, oldCid);\n      if (frankies[newCid].writers.length == 3) {\n        _endFrankie(newCid);\n      } else {\n        cidOrder[submitCounter] = newCid;\n        unchecked { submitCounter++; }\n        if(keccak256(abi.encodePacked(deck[editing[msg.sender].deckNumber])) == keccak256(abi.encodePacked(oldCid))) {\n          deck[editing[msg.sender].deckNumber] = cidOrder[feedCounter];\n          unchecked { feedCounter++; }\n        }\n      }\n    }\n\n    /// @dev Checks if the untitled Frankenstein Text is still valid and is owned by the caller.\n    /// @dev Updates Frankenstein Text data through _updateFrankie().\n    /// @dev Mints Frankenstein Text NFT and delete respective untitled from untitledTexts.\n    function mintFrankie(string calldata oldCid, string calldata newCid, uint untitledId) external {\n        require(keccak256(abi.encodePacked(oldCid)) == keccak256(abi.encodePacked(untitledTexts[msg.sender][untitledId])));\n        _updateFrankie(newCid, oldCid);\n        _safeMint(msg.sender, frankieId);\n        delete untitledTexts[msg.sender][untitledId];\n        mintedCids[frankieId] = newCid;\n        emit MintedFrankie(frankieId, newCid, oldCid);\n        frankieId++;\n    }\n\n    /// @dev Returns NFT CID corresponding to the id parameter.\n    function mintedCidById(uint id) external view returns(string memory) {\n      require(id < frankieId);\n      return mintedCids[id];\n    }\n\n    /// @dev Returns newest untitled text id for the caller.\n    function requestNewestUntitledId() external view returns(uint) {\n        require(untitledTexts[msg.sender].length > 0);\n        return untitledTexts[msg.sender].length - 1;\n    }\n\n    /// @dev Returns caller's untitled CID with the id of the untitledId parameter.\n    function requestUntitledText(uint untitledId) external view returns(string memory) {\n        return untitledTexts[msg.sender][untitledId];\n    }\n\n    /// @dev Checks if the caller is victor.\n    /// @dev Creates an new Frankie with the cid parameter.\n    /// @dev If the deck is incomplete: feeds cid into deck.\n    /// @dev Feeds cid in the cidOrder cue.\n    function seedPlot(string calldata cid) external onlyOwner() {\n        string[] memory cids;\n        address[] memory writers;\n        frankies[cid] = Frankie(cids, writers);\n        frankies[cid].cids.push(cid);\n        frankies[cid].writers.push(msg.sender);\n        if(deckCounter < deckSize) {\n          deck[deckCounter] = cid;\n          unchecked { feedCounter++; }\n          deckCounter++;\n        }\n        cidOrder[submitCounter] = cid;\n        unchecked { submitCounter++; }\n    }\n}",
  "sourcePath": "/home/mariomazzaferro/blockchain-developer-bootcamp-final-project/contracts/FrankieTexts.sol",
  "compiler": {
    "name": "solc",
    "version": "0.8.0+commit.c7dfd78e.Emscripten.clang"
  },
  "schemaVersion": "3.4.3",
  "updatedAt": "2021-11-12T21:17:00.725Z",
  "networkType": "ethereum",
  "devdoc": {
    "author": "Mario Mazzaferro",
    "events": {
      "MintedFrankie(uint256,string,string)": {
        "details": "Fired upon mintFrankie() call."
      },
      "RequestedText(string,uint256,address)": {
        "details": "Fired upon requestText() call."
      }
    },
    "kind": "dev",
    "methods": {
      "approve(address,uint256)": {
        "details": "See {IERC721-approve}."
      },
      "balanceOf(address)": {
        "details": "See {IERC721-balanceOf}."
      },
      "constructor": {
        "details": "Sets initial values."
      },
      "getApproved(uint256)": {
        "details": "See {IERC721-getApproved}."
      },
      "isApprovedForAll(address,address)": {
        "details": "See {IERC721-isApprovedForAll}."
      },
      "mintFrankie(string,string,uint256)": {
        "details": "Checks if the untitled Frankenstein Text is still valid and is owned by the caller.Updates Frankenstein Text data through _updateFrankie().Mints Frankenstein Text NFT and delete respective untitled from untitledTexts."
      },
      "mintedCidById(uint256)": {
        "details": "Returns NFT CID corresponding to the id parameter."
      },
      "name()": {
        "details": "See {IERC721Metadata-name}."
      },
      "owner()": {
        "details": "Returns the address of the current owner."
      },
      "ownerOf(uint256)": {
        "details": "See {IERC721-ownerOf}."
      },
      "renounceOwnership()": {
        "details": "Leaves the contract without owner. It will not be possible to call `onlyOwner` functions anymore. Can only be called by the current owner. NOTE: Renouncing ownership will leave the contract without an owner, thereby removing any functionality that is only available to the owner."
      },
      "requestNewestUntitledId()": {
        "details": "Returns newest untitled text id for the caller."
      },
      "requestText()": {
        "details": "Draws a pseudo-random CID from deck mapping.Sets pseudo-random CID to msg.sender in editing mapping."
      },
      "requestUntitledText(uint256)": {
        "details": "Returns caller's untitled CID with the id of the untitledId parameter."
      },
      "safeTransferFrom(address,address,uint256)": {
        "details": "See {IERC721-safeTransferFrom}."
      },
      "safeTransferFrom(address,address,uint256,bytes)": {
        "details": "See {IERC721-safeTransferFrom}."
      },
      "seedPlot(string)": {
        "details": "Checks if the caller is victor.Creates an new Frankie with the cid parameter.If the deck is incomplete: feeds cid into deck.Feeds cid in the cidOrder cue."
      },
      "setApprovalForAll(address,bool)": {
        "details": "See {IERC721-setApprovalForAll}."
      },
      "submitText(string,string)": {
        "details": "Updates Frankenstein Text data through _updateFrankie().If the Frankie has 5 contributions: finalizes Frankenstein Text.Else: sets newCid in the end of cidOrder cue and if it's the first submitedramification of oldCid: substitutes it (in the deck) with the first CID of cidOrder cue."
      },
      "supportsInterface(bytes4)": {
        "details": "See {IERC165-supportsInterface}."
      },
      "symbol()": {
        "details": "See {IERC721Metadata-symbol}."
      },
      "tokenURI(uint256)": {
        "details": "See {IERC721Metadata-tokenURI}."
      },
      "transferFrom(address,address,uint256)": {
        "details": "See {IERC721-transferFrom}."
      },
      "transferOwnership(address)": {
        "details": "Transfers ownership of the contract to a new account (`newOwner`). Can only be called by the current owner."
      }
    },
    "stateVariables": {
      "cidOrder": {
        "details": "Cue order of IPFS CIDs from incomplete Frankenstein Texts."
      },
      "deck": {
        "details": "Ordered IPFS CIDs that will be pseudo-randomly returned by requestText()."
      },
      "deckCounter": {
        "details": "Keeps track of the number of plots seeded in the deck."
      },
      "deckSize": {
        "details": "Maximum size of the deck mapping."
      },
      "editing": {
        "details": "Relates writer address and current editing Frankenstein Text."
      },
      "feedCounter": {
        "details": "Keeps track of the number of CIDs fed in the deck mapping."
      },
      "frankieId": {
        "details": "Keeps track of the number of minted NFTs."
      },
      "frankies": {
        "details": "Relates IPFS CIDs with Frankenstein Texts."
      },
      "mintedCids": {
        "details": "Relates frankieId with its respective IPFS CID."
      },
      "plotEnded": {
        "details": "Keeps track of plots that have had at least one ramification finished."
      },
      "requestCounter": {
        "details": "Keeps track of the number of requestText() calls."
      },
      "submitCounter": {
        "details": "Keeps track of the number of valid submitText() calls."
      },
      "untitledTexts": {
        "details": "Relates writer address with its list of finished untitled Frankenstein Text's CIDs."
      }
    },
    "title": "A Frankenstein Texts writing game",
    "version": 1
  },
  "userdoc": {
    "kind": "user",
    "methods": {},
    "version": 1
  }
}