{
  "contractName": "FrankieTexts",
  "abi": [
    {
      "inputs": [],
      "stateMutability": "nonpayable",
      "type": "constructor"
    },
    {
      "anonymous": false,
      "inputs": [
        {
          "indexed": true,
          "internalType": "address",
          "name": "owner",
          "type": "address"
        },
        {
          "indexed": true,
          "internalType": "address",
          "name": "approved",
          "type": "address"
        },
        {
          "indexed": true,
          "internalType": "uint256",
          "name": "tokenId",
          "type": "uint256"
        }
      ],
      "name": "Approval",
      "type": "event"
    },
    {
      "anonymous": false,
      "inputs": [
        {
          "indexed": true,
          "internalType": "address",
          "name": "owner",
          "type": "address"
        },
        {
          "indexed": true,
          "internalType": "address",
          "name": "operator",
          "type": "address"
        },
        {
          "indexed": false,
          "internalType": "bool",
          "name": "approved",
          "type": "bool"
        }
      ],
      "name": "ApprovalForAll",
      "type": "event"
    },
    {
      "anonymous": false,
      "inputs": [
        {
          "indexed": true,
          "internalType": "uint256",
          "name": "nftId",
          "type": "uint256"
        },
        {
          "indexed": false,
          "internalType": "string",
          "name": "nftCid",
          "type": "string"
        },
        {
          "indexed": true,
          "internalType": "string",
          "name": "fifthCid",
          "type": "string"
        }
      ],
      "name": "MintedFrankie",
      "type": "event"
    },
    {
      "anonymous": false,
      "inputs": [
        {
          "indexed": true,
          "internalType": "address",
          "name": "previousOwner",
          "type": "address"
        },
        {
          "indexed": true,
          "internalType": "address",
          "name": "newOwner",
          "type": "address"
        }
      ],
      "name": "OwnershipTransferred",
      "type": "event"
    },
    {
      "anonymous": false,
      "inputs": [
        {
          "indexed": false,
          "internalType": "string",
          "name": "chosenCid",
          "type": "string"
        },
        {
          "indexed": false,
          "internalType": "address",
          "name": "requester",
          "type": "address"
        }
      ],
      "name": "RequestedText",
      "type": "event"
    },
    {
      "anonymous": false,
      "inputs": [
        {
          "indexed": true,
          "internalType": "address",
          "name": "from",
          "type": "address"
        },
        {
          "indexed": true,
          "internalType": "address",
          "name": "to",
          "type": "address"
        },
        {
          "indexed": true,
          "internalType": "uint256",
          "name": "tokenId",
          "type": "uint256"
        }
      ],
      "name": "Transfer",
      "type": "event"
    },
    {
      "inputs": [
        {
          "internalType": "address",
          "name": "to",
          "type": "address"
        },
        {
          "internalType": "uint256",
          "name": "tokenId",
          "type": "uint256"
        }
      ],
      "name": "approve",
      "outputs": [],
      "stateMutability": "nonpayable",
      "type": "function"
    },
    {
      "inputs": [
        {
          "internalType": "address",
          "name": "owner",
          "type": "address"
        }
      ],
      "name": "balanceOf",
      "outputs": [
        {
          "internalType": "uint256",
          "name": "",
          "type": "uint256"
        }
      ],
      "stateMutability": "view",
      "type": "function",
      "constant": true
    },
    {
      "inputs": [],
      "name": "deckCounter",
      "outputs": [
        {
          "internalType": "uint256",
          "name": "",
          "type": "uint256"
        }
      ],
      "stateMutability": "view",
      "type": "function",
      "constant": true
    },
    {
      "inputs": [],
      "name": "deckSize",
      "outputs": [
        {
          "internalType": "uint256",
          "name": "",
          "type": "uint256"
        }
      ],
      "stateMutability": "view",
      "type": "function",
      "constant": true
    },
    {
      "inputs": [],
      "name": "feedCounter",
      "outputs": [
        {
          "internalType": "uint256",
          "name": "",
          "type": "uint256"
        }
      ],
      "stateMutability": "view",
      "type": "function",
      "constant": true
    },
    {
      "inputs": [],
      "name": "frankieId",
      "outputs": [
        {
          "internalType": "uint256",
          "name": "",
          "type": "uint256"
        }
      ],
      "stateMutability": "view",
      "type": "function",
      "constant": true
    },
    {
      "inputs": [
        {
          "internalType": "uint256",
          "name": "tokenId",
          "type": "uint256"
        }
      ],
      "name": "getApproved",
      "outputs": [
        {
          "internalType": "address",
          "name": "",
          "type": "address"
        }
      ],
      "stateMutability": "view",
      "type": "function",
      "constant": true
    },
    {
      "inputs": [
        {
          "internalType": "address",
          "name": "owner",
          "type": "address"
        },
        {
          "internalType": "address",
          "name": "operator",
          "type": "address"
        }
      ],
      "name": "isApprovedForAll",
      "outputs": [
        {
          "internalType": "bool",
          "name": "",
          "type": "bool"
        }
      ],
      "stateMutability": "view",
      "type": "function",
      "constant": true
    },
    {
      "inputs": [],
      "name": "name",
      "outputs": [
        {
          "internalType": "string",
          "name": "",
          "type": "string"
        }
      ],
      "stateMutability": "view",
      "type": "function",
      "constant": true
    },
    {
      "inputs": [],
      "name": "owner",
      "outputs": [
        {
          "internalType": "address",
          "name": "",
          "type": "address"
        }
      ],
      "stateMutability": "view",
      "type": "function",
      "constant": true
    },
    {
      "inputs": [
        {
          "internalType": "uint256",
          "name": "tokenId",
          "type": "uint256"
        }
      ],
      "name": "ownerOf",
      "outputs": [
        {
          "internalType": "address",
          "name": "",
          "type": "address"
        }
      ],
      "stateMutability": "view",
      "type": "function",
      "constant": true
    },
    {
      "inputs": [],
      "name": "renounceOwnership",
      "outputs": [],
      "stateMutability": "nonpayable",
      "type": "function"
    },
    {
      "inputs": [
        {
          "internalType": "address",
          "name": "from",
          "type": "address"
        },
        {
          "internalType": "address",
          "name": "to",
          "type": "address"
        },
        {
          "internalType": "uint256",
          "name": "tokenId",
          "type": "uint256"
        }
      ],
      "name": "safeTransferFrom",
      "outputs": [],
      "stateMutability": "nonpayable",
      "type": "function"
    },
    {
      "inputs": [
        {
          "internalType": "address",
          "name": "from",
          "type": "address"
        },
        {
          "internalType": "address",
          "name": "to",
          "type": "address"
        },
        {
          "internalType": "uint256",
          "name": "tokenId",
          "type": "uint256"
        },
        {
          "internalType": "bytes",
          "name": "_data",
          "type": "bytes"
        }
      ],
      "name": "safeTransferFrom",
      "outputs": [],
      "stateMutability": "nonpayable",
      "type": "function"
    },
    {
      "inputs": [
        {
          "internalType": "address",
          "name": "operator",
          "type": "address"
        },
        {
          "internalType": "bool",
          "name": "approved",
          "type": "bool"
        }
      ],
      "name": "setApprovalForAll",
      "outputs": [],
      "stateMutability": "nonpayable",
      "type": "function"
    },
    {
      "inputs": [],
      "name": "submitCounter",
      "outputs": [
        {
          "internalType": "uint256",
          "name": "",
          "type": "uint256"
        }
      ],
      "stateMutability": "view",
      "type": "function",
      "constant": true
    },
    {
      "inputs": [
        {
          "internalType": "bytes4",
          "name": "interfaceId",
          "type": "bytes4"
        }
      ],
      "name": "supportsInterface",
      "outputs": [
        {
          "internalType": "bool",
          "name": "",
          "type": "bool"
        }
      ],
      "stateMutability": "view",
      "type": "function",
      "constant": true
    },
    {
      "inputs": [],
      "name": "symbol",
      "outputs": [
        {
          "internalType": "string",
          "name": "",
          "type": "string"
        }
      ],
      "stateMutability": "view",
      "type": "function",
      "constant": true
    },
    {
      "inputs": [
        {
          "internalType": "uint256",
          "name": "tokenId",
          "type": "uint256"
        }
      ],
      "name": "tokenURI",
      "outputs": [
        {
          "internalType": "string",
          "name": "",
          "type": "string"
        }
      ],
      "stateMutability": "view",
      "type": "function",
      "constant": true
    },
    {
      "inputs": [
        {
          "internalType": "address",
          "name": "from",
          "type": "address"
        },
        {
          "internalType": "address",
          "name": "to",
          "type": "address"
        },
        {
          "internalType": "uint256",
          "name": "tokenId",
          "type": "uint256"
        }
      ],
      "name": "transferFrom",
      "outputs": [],
      "stateMutability": "nonpayable",
      "type": "function"
    },
    {
      "inputs": [
        {
          "internalType": "address",
          "name": "newOwner",
          "type": "address"
        }
      ],
      "name": "transferOwnership",
      "outputs": [],
      "stateMutability": "nonpayable",
      "type": "function"
    },
    {
      "inputs": [],
      "name": "requestText",
      "outputs": [],
      "stateMutability": "nonpayable",
      "type": "function"
    },
    {
      "inputs": [
        {
          "internalType": "string",
          "name": "oldCid",
          "type": "string"
        },
        {
          "internalType": "string",
          "name": "newCid",
          "type": "string"
        }
      ],
      "name": "submitText",
      "outputs": [],
      "stateMutability": "nonpayable",
      "type": "function"
    },
    {
      "inputs": [
        {
          "internalType": "string",
          "name": "oldCid",
          "type": "string"
        },
        {
          "internalType": "string",
          "name": "newCid",
          "type": "string"
        },
        {
          "internalType": "uint256",
          "name": "untitledId",
          "type": "uint256"
        }
      ],
      "name": "mintFrankie",
      "outputs": [],
      "stateMutability": "nonpayable",
      "type": "function"
    },
    {
      "inputs": [
        {
          "internalType": "uint256",
          "name": "id",
          "type": "uint256"
        }
      ],
      "name": "mintedCidById",
      "outputs": [
        {
          "internalType": "string",
          "name": "",
          "type": "string"
        }
      ],
      "stateMutability": "view",
      "type": "function",
      "constant": true
    },
    {
      "inputs": [],
      "name": "requestNewestUntitledId",
      "outputs": [
        {
          "internalType": "uint256",
          "name": "",
          "type": "uint256"
        }
      ],
      "stateMutability": "view",
      "type": "function",
      "constant": true
    },
    {
      "inputs": [
        {
          "internalType": "uint256",
          "name": "untitledId",
          "type": "uint256"
        }
      ],
      "name": "requestUntitledText",
      "outputs": [
        {
          "internalType": "string",
          "name": "",
          "type": "string"
        }
      ],
      "stateMutability": "view",
      "type": "function",
      "constant": true
    },
    {
      "inputs": [
        {
          "internalType": "uint256",
          "name": "untitledId",
          "type": "uint256"
        }
      ],
      "name": "requestUntitledEndedSince",
      "outputs": [
        {
          "internalType": "uint256",
          "name": "",
          "type": "uint256"
        }
      ],
      "stateMutability": "view",
      "type": "function",
      "constant": true
    },
    {
      "inputs": [
        {
          "internalType": "string",
          "name": "cid",
          "type": "string"
        }
      ],
      "name": "seedPlot",
      "outputs": [],
      "stateMutability": "nonpayable",
      "type": "function"
    }
  ],
  "bytecode": "0x60806040523480156200001157600080fd5b506040518060400160405280600881526020017f4672616e6b6965730000000000000000000000000000000000000000000000008152506040518060400160405280600381526020017f464b450000000000000000000000000000000000000000000000000000000000815250816000908051906020019062000096929190620001d6565b508060019080519060200190620000af929190620001d6565b505050620000d2620000c66200010860201b60201c565b6200011060201b60201c565b6000600781905550600060088190555060006009819055506000600a81905550600a600b819055506000600c81905550620002eb565b600033905090565b6000600660009054906101000a900473ffffffffffffffffffffffffffffffffffffffff16905081600660006101000a81548173ffffffffffffffffffffffffffffffffffffffff021916908373ffffffffffffffffffffffffffffffffffffffff1602179055508173ffffffffffffffffffffffffffffffffffffffff168173ffffffffffffffffffffffffffffffffffffffff167f8be0079c531659141344cd1fd0a4f28419497f9722a3daafe3b4186f6b6457e060405160405180910390a35050565b828054620001e49062000286565b90600052602060002090601f01602090048101928262000208576000855562000254565b82601f106200022357805160ff191683800117855562000254565b8280016001018555821562000254579182015b828111156200025357825182559160200191906001019062000236565b5b50905062000263919062000267565b5090565b5b808211156200028257600081600090555060010162000268565b5090565b600060028204905060018216806200029f57607f821691505b60208210811415620002b657620002b5620002bc565b5b50919050565b7f4e487b7100000000000000000000000000000000000000000000000000000000600052602260045260246000fd5b61478880620002fb6000396000f3fe608060405234801561001057600080fd5b50600436106101cf5760003560e01c806383be9c8511610104578063c87b56dd116100a2578063dde2ae4811610071578063dde2ae481461051c578063e985e9c51461053a578063f2fde38b1461056a578063f86fa77b14610586576101cf565b8063c87b56dd14610480578063d40cf78a146104b0578063d4fb9457146104ce578063d812da27146104fe576101cf565b80639a791cb3116100de5780639a791cb314610410578063a22cb4651461042c578063b17de4af14610448578063b88d4fde14610464576101cf565b806383be9c85146103a45780638da5cb5b146103d457806395d89b41146103f2576101cf565b80631c0f8b59116101715780636352211e1161014b5780636352211e1461031c57806370a082311461034c578063715018a61461037c5780637403a42a14610386576101cf565b80631c0f8b59146102b457806323b872dd146102e457806342842e0e14610300576101cf565b8063081812fc116101ad578063081812fc14610240578063095ea7b3146102705780631243e7951461028c5780631415f1e7146102aa576101cf565b80630148c3eb146101d457806301ffc9a7146101f257806306fdde0314610222575b600080fd5b6101dc6105a2565b6040516101e991906142fd565b60405180910390f35b61020c6004803603810190610207919061350a565b6105a8565b604051610219919061406c565b60405180910390f35b61022a61068a565b60405161023791906140ab565b60405180910390f35b61025a6004803603810190610255919061369f565b61071c565b6040516102679190614005565b60405180910390f35b61028a600480360381019061028591906134ce565b6107a1565b005b6102946108b9565b6040516102a191906142fd565b60405180910390f35b6102b261095d565b005b6102ce60048036038101906102c9919061369f565b610b53565b6040516102db91906140ab565b60405180910390f35b6102fe60048036038101906102f991906133c8565b610c66565b005b61031a600480360381019061031591906133c8565b610cc6565b005b6103366004803603810190610331919061369f565b610ce6565b6040516103439190614005565b60405180910390f35b61036660048036038101906103619190613363565b610d98565b60405161037391906142fd565b60405180910390f35b610384610e50565b005b61038e610ed8565b60405161039b91906142fd565b60405180910390f35b6103be60048036038101906103b9919061369f565b610ede565b6040516103cb91906142fd565b60405180910390f35b6103dc610f94565b6040516103e99190614005565b60405180910390f35b6103fa610fbe565b60405161040791906140ab565b60405180910390f35b61042a600480360381019061042591906135a1565b611050565b005b61044660048036038101906104419190613492565b611311565b005b610462600480360381019061045d919061355c565b611492565b005b61047e60048036038101906104799190613417565b611710565b005b61049a6004803603810190610495919061369f565b611772565b6040516104a791906140ab565b60405180910390f35b6104b8611819565b6040516104c591906142fd565b60405180910390f35b6104e860048036038101906104e3919061369f565b61181f565b6040516104f591906140ab565b60405180910390f35b6105066118d2565b60405161051391906142fd565b60405180910390f35b6105246118d8565b60405161053191906142fd565b60405180910390f35b610554600480360381019061054f919061338c565b6118de565b604051610561919061406c565b60405180910390f35b610584600480360381019061057f9190613363565b611972565b005b6105a0600480360381019061059b9190613616565b611a6a565b005b60085481565b60007f80ac58cd000000000000000000000000000000000000000000000000000000007bffffffffffffffffffffffffffffffffffffffffffffffffffffffff1916827bffffffffffffffffffffffffffffffffffffffffffffffffffffffff1916148061067357507f5b5e139f000000000000000000000000000000000000000000000000000000007bffffffffffffffffffffffffffffffffffffffffffffffffffffffff1916827bffffffffffffffffffffffffffffffffffffffffffffffffffffffff1916145b80610683575061068282611cbe565b5b9050919050565b60606000805461069990614542565b80601f01602080910402602001604051908101604052809291908181526020018280546106c590614542565b80156107125780601f106106e757610100808354040283529160200191610712565b820191906000526020600020905b8154815290600101906020018083116106f557829003601f168201915b5050505050905090565b600061072782611d28565b610766576040517f08c379a000000000000000000000000000000000000000000000000000000000815260040161075d9061423d565b60405180910390fd5b6004600083815260200190815260200160002060009054906101000a900473ffffffffffffffffffffffffffffffffffffffff169050919050565b60006107ac82610ce6565b90508073ffffffffffffffffffffffffffffffffffffffff168373ffffffffffffffffffffffffffffffffffffffff16141561081d576040517f08c379a0000000000000000000000000000000000000000000000000000000008152600401610814906142bd565b60405180910390fd5b8073ffffffffffffffffffffffffffffffffffffffff1661083c611d94565b73ffffffffffffffffffffffffffffffffffffffff16148061086b575061086a81610865611d94565b6118de565b5b6108aa576040517f08c379a00000000000000000000000000000000000000000000000000000000081526004016108a1906141bd565b60405180910390fd5b6108b48383611d9c565b505050565b600080601160003373ffffffffffffffffffffffffffffffffffffffff1673ffffffffffffffffffffffffffffffffffffffff168152602001908152602001600020805490501161090957600080fd5b6001601160003373ffffffffffffffffffffffffffffffffffffffff1673ffffffffffffffffffffffffffffffffffffffff168152602001908152602001600020805490506109589190614458565b905090565b6000600b543344600e60006008548152602001908152602001600020600e600060095481526020019081526020016000206007546040516020016109a5959493929190613f1f565b6040516020818303038152906040528051906020012060001c6109c891906145eb565b90506007600081548092919060010191905055506040518060600160405280601060008481526020019081526020016000208054610a0590614542565b80601f0160208091040260200160405190810160405280929190818152602001828054610a3190614542565b8015610a7e5780601f10610a5357610100808354040283529160200191610a7e565b820191906000526020600020905b815481529060010190602001808311610a6157829003601f168201915b5050505050815260200142815260200182815250600f60003373ffffffffffffffffffffffffffffffffffffffff1673ffffffffffffffffffffffffffffffffffffffff1681526020019081526020016000206000820151816000019080519060200190610aed929190612dfd565b5060208201518160010155604082015181600201559050507fc677725654589e374ce4a6401099c2b2cb85914769d283cdfcdec623e2cc00116010600083815260200190815260200160002033604051610b489291906140cd565b60405180910390a150565b6060601160003373ffffffffffffffffffffffffffffffffffffffff1673ffffffffffffffffffffffffffffffffffffffff1681526020019081526020016000208281548110610bcc577f4e487b7100000000000000000000000000000000000000000000000000000000600052603260045260246000fd5b906000526020600020018054610be190614542565b80601f0160208091040260200160405190810160405280929190818152602001828054610c0d90614542565b8015610c5a5780601f10610c2f57610100808354040283529160200191610c5a565b820191906000526020600020905b815481529060010190602001808311610c3d57829003601f168201915b50505050509050919050565b610c77610c71611d94565b82611e55565b610cb6576040517f08c379a0000000000000000000000000000000000000000000000000000000008152600401610cad906142dd565b60405180910390fd5b610cc1838383611f33565b505050565b610ce183838360405180602001604052806000815250611710565b505050565b6000806002600084815260200190815260200160002060009054906101000a900473ffffffffffffffffffffffffffffffffffffffff169050600073ffffffffffffffffffffffffffffffffffffffff168173ffffffffffffffffffffffffffffffffffffffff161415610d8f576040517f08c379a0000000000000000000000000000000000000000000000000000000008152600401610d86906141fd565b60405180910390fd5b80915050919050565b60008073ffffffffffffffffffffffffffffffffffffffff168273ffffffffffffffffffffffffffffffffffffffff161415610e09576040517f08c379a0000000000000000000000000000000000000000000000000000000008152600401610e00906141dd565b60405180910390fd5b600360008373ffffffffffffffffffffffffffffffffffffffff1673ffffffffffffffffffffffffffffffffffffffff168152602001908152602001600020549050919050565b610e58611d94565b73ffffffffffffffffffffffffffffffffffffffff16610e76610f94565b73ffffffffffffffffffffffffffffffffffffffff1614610ecc576040517f08c379a0000000000000000000000000000000000000000000000000000000008152600401610ec39061425d565b60405180910390fd5b610ed6600061218f565b565b600c5481565b6000600d601160003373ffffffffffffffffffffffffffffffffffffffff1673ffffffffffffffffffffffffffffffffffffffff1681526020019081526020016000208381548110610f59577f4e487b7100000000000000000000000000000000000000000000000000000000600052603260045260246000fd5b90600052602060002001604051610f709190613fee565b90815260200160405180910390206002015442610f8d9190614458565b9050919050565b6000600660009054906101000a900473ffffffffffffffffffffffffffffffffffffffff16905090565b606060018054610fcd90614542565b80601f0160208091040260200160405190810160405280929190818152602001828054610ff990614542565b80156110465780601f1061101b57610100808354040283529160200191611046565b820191906000526020600020905b81548152906001019060200180831161102957829003601f168201915b5050505050905090565b83838181604051602001611065929190613f76565b60405160208183030381529060405280519060200120600f60003373ffffffffffffffffffffffffffffffffffffffff1673ffffffffffffffffffffffffffffffffffffffff1681526020019081526020016000206000016040516020016110cd9190613fee565b60405160208183030381529060405280519060200120146110ed57600080fd5b42611c20600f60003373ffffffffffffffffffffffffffffffffffffffff1673ffffffffffffffffffffffffffffffffffffffff1681526020019081526020016000206001015461113e91906143d1565b1161114857600080fd5b61115484848888612255565b6005600d8585604051611168929190613f76565b90815260200160405180910390206001018054905014156111925761118d84846123b9565b611309565b8383600e6000600954815260200190815260200160002091906111b6929190612e83565b5060096000815480929190600101919050555085856040516020016111dc929190613f76565b6040516020818303038152906040528051906020012060106000600f60003373ffffffffffffffffffffffffffffffffffffffff1673ffffffffffffffffffffffffffffffffffffffff1681526020019081526020016000206002015481526020019081526020016000206040516020016112579190613fee565b60405160208183030381529060405280519060200120141561130857600e6000600854815260200190815260200160002060106000600f60003373ffffffffffffffffffffffffffffffffffffffff1673ffffffffffffffffffffffffffffffffffffffff1681526020019081526020016000206002015481526020019081526020016000209080546112e990614542565b6112f4929190612f09565b506008600081548092919060010191905055505b5b505050505050565b611319611d94565b73ffffffffffffffffffffffffffffffffffffffff168273ffffffffffffffffffffffffffffffffffffffff161415611387576040517f08c379a000000000000000000000000000000000000000000000000000000000815260040161137e9061417d565b60405180910390fd5b8060056000611394611d94565b73ffffffffffffffffffffffffffffffffffffffff1673ffffffffffffffffffffffffffffffffffffffff16815260200190815260200160002060008473ffffffffffffffffffffffffffffffffffffffff1673ffffffffffffffffffffffffffffffffffffffff16815260200190815260200160002060006101000a81548160ff0219169083151502179055508173ffffffffffffffffffffffffffffffffffffffff16611441611d94565b73ffffffffffffffffffffffffffffffffffffffff167f17307eab39ab6107e8899845ad3d59bd9653f200f220920489ca2b5937696c3183604051611486919061406c565b60405180910390a35050565b61149a611d94565b73ffffffffffffffffffffffffffffffffffffffff166114b8610f94565b73ffffffffffffffffffffffffffffffffffffffff161461150e576040517f08c379a00000000000000000000000000000000000000000000000000000000081526004016115059061425d565b60405180910390fd5b60608060405180606001604052808381526020018281526020016000815250600d858560405161153f929190613f76565b90815260200160405180910390206000820151816000019080519060200190611569929190612f96565b506020820151816001019080519060200190611586929190612ff6565b5060408201518160020155905050600d84846040516115a6929190613f76565b90815260200160405180910390206000018484909180600181540180825580915050600190039060005260206000200160009091929091929091929091925091906115f2929190612e83565b50600d8484604051611605929190613f76565b9081526020016040518091039020600101339080600181540180825580915050600190039060005260206000200160009091909190916101000a81548173ffffffffffffffffffffffffffffffffffffffff021916908373ffffffffffffffffffffffffffffffffffffffff160217905550600b54600a5410156116d357838360106000600a54815260200190815260200160002091906116a7929190612e83565b50600860008154809291906001019190505550600a60008154809291906116cd90614574565b91905055505b8383600e6000600954815260200190815260200160002091906116f7929190612e83565b5060096000815480929190600101919050555050505050565b61172161171b611d94565b83611e55565b611760576040517f08c379a0000000000000000000000000000000000000000000000000000000008152600401611757906142dd565b60405180910390fd5b61176c848484846127e7565b50505050565b606061177d82611d28565b6117bc576040517f08c379a00000000000000000000000000000000000000000000000000000000081526004016117b39061429d565b60405180910390fd5b60006117c6612843565b905060008151116117e65760405180602001604052806000815250611811565b806117f08461285a565b604051602001611801929190613fca565b6040516020818303038152906040525b915050919050565b600a5481565b6060600c54821061182f57600080fd5b60126000838152602001908152602001600020805461184d90614542565b80601f016020809104026020016040519081016040528092919081815260200182805461187990614542565b80156118c65780601f1061189b576101008083540402835291602001916118c6565b820191906000526020600020905b8154815290600101906020018083116118a957829003601f168201915b50505050509050919050565b60095481565b600b5481565b6000600560008473ffffffffffffffffffffffffffffffffffffffff1673ffffffffffffffffffffffffffffffffffffffff16815260200190815260200160002060008373ffffffffffffffffffffffffffffffffffffffff1673ffffffffffffffffffffffffffffffffffffffff16815260200190815260200160002060009054906101000a900460ff16905092915050565b61197a611d94565b73ffffffffffffffffffffffffffffffffffffffff16611998610f94565b73ffffffffffffffffffffffffffffffffffffffff16146119ee576040517f08c379a00000000000000000000000000000000000000000000000000000000081526004016119e59061425d565b60405180910390fd5b600073ffffffffffffffffffffffffffffffffffffffff168173ffffffffffffffffffffffffffffffffffffffff161415611a5e576040517f08c379a0000000000000000000000000000000000000000000000000000000008152600401611a559061411d565b60405180910390fd5b611a678161218f565b50565b4262093a80600d8787604051611a81929190613f76565b908152602001604051809103902060020154611a9d91906143d1565b11611aa757600080fd5b601160003373ffffffffffffffffffffffffffffffffffffffff1673ffffffffffffffffffffffffffffffffffffffff1681526020019081526020016000208181548110611b1e577f4e487b7100000000000000000000000000000000000000000000000000000000600052603260045260246000fd5b90600052602060002001604051602001611b389190613fee565b604051602081830303815290604052805190602001208585604051602001611b61929190613f76565b6040516020818303038152906040528051906020012014611b8157600080fd5b611b8d83838787612255565b611b9933600c54612a07565b601160003373ffffffffffffffffffffffffffffffffffffffff1673ffffffffffffffffffffffffffffffffffffffff1681526020019081526020016000208181548110611c10577f4e487b7100000000000000000000000000000000000000000000000000000000600052603260045260246000fd5b906000526020600020016000611c269190613080565b828260126000600c5481526020019081526020016000209190611c4a929190612e83565b508484604051611c5b929190613f76565b6040518091039020600c547f2acd7bd8c19e16133f59b87545a8541c2cb2f98cc768abe3d15cdadd7e003d138585604051611c97929190614087565b60405180910390a3600c6000815480929190611cb290614574565b91905055505050505050565b60007f01ffc9a7000000000000000000000000000000000000000000000000000000007bffffffffffffffffffffffffffffffffffffffffffffffffffffffff1916827bffffffffffffffffffffffffffffffffffffffffffffffffffffffff1916149050919050565b60008073ffffffffffffffffffffffffffffffffffffffff166002600084815260200190815260200160002060009054906101000a900473ffffffffffffffffffffffffffffffffffffffff1673ffffffffffffffffffffffffffffffffffffffff1614159050919050565b600033905090565b816004600083815260200190815260200160002060006101000a81548173ffffffffffffffffffffffffffffffffffffffff021916908373ffffffffffffffffffffffffffffffffffffffff160217905550808273ffffffffffffffffffffffffffffffffffffffff16611e0f83610ce6565b73ffffffffffffffffffffffffffffffffffffffff167f8c5be1e5ebec7d5bd14f71427d1e84f3dd0314c0f7b2291e5b200ac8c7c3b92560405160405180910390a45050565b6000611e6082611d28565b611e9f576040517f08c379a0000000000000000000000000000000000000000000000000000000008152600401611e969061419d565b60405180910390fd5b6000611eaa83610ce6565b90508073ffffffffffffffffffffffffffffffffffffffff168473ffffffffffffffffffffffffffffffffffffffff161480611f1957508373ffffffffffffffffffffffffffffffffffffffff16611f018461071c565b73ffffffffffffffffffffffffffffffffffffffff16145b80611f2a5750611f2981856118de565b5b91505092915050565b8273ffffffffffffffffffffffffffffffffffffffff16611f5382610ce6565b73ffffffffffffffffffffffffffffffffffffffff1614611fa9576040517f08c379a0000000000000000000000000000000000000000000000000000000008152600401611fa09061427d565b60405180910390fd5b600073ffffffffffffffffffffffffffffffffffffffff168273ffffffffffffffffffffffffffffffffffffffff161415612019576040517f08c379a00000000000000000000000000000000000000000000000000000000081526004016120109061415d565b60405180910390fd5b612024838383612a25565b61202f600082611d9c565b6001600360008573ffffffffffffffffffffffffffffffffffffffff1673ffffffffffffffffffffffffffffffffffffffff168152602001908152602001600020600082825461207f9190614458565b925050819055506001600360008473ffffffffffffffffffffffffffffffffffffffff1673ffffffffffffffffffffffffffffffffffffffff16815260200190815260200160002060008282546120d691906143d1565b92505081905550816002600083815260200190815260200160002060006101000a81548173ffffffffffffffffffffffffffffffffffffffff021916908373ffffffffffffffffffffffffffffffffffffffff160217905550808273ffffffffffffffffffffffffffffffffffffffff168473ffffffffffffffffffffffffffffffffffffffff167fddf252ad1be2c89b69c2b068fc378daa952ba7f163c4a11628f55a4df523b3ef60405160405180910390a4505050565b6000600660009054906101000a900473ffffffffffffffffffffffffffffffffffffffff16905081600660006101000a81548173ffffffffffffffffffffffffffffffffffffffff021916908373ffffffffffffffffffffffffffffffffffffffff1602179055508173ffffffffffffffffffffffffffffffffffffffff168173ffffffffffffffffffffffffffffffffffffffff167f8be0079c531659141344cd1fd0a4f28419497f9722a3daafe3b4186f6b6457e060405160405180910390a35050565b600d8282604051612267929190613f76565b9081526020016040518091039020600d8585604051612287929190613f76565b908152602001604051809103902060008201816000019080546122ab9291906130c0565b5060018201816001019080546122c2929190613128565b5060028201548160020155905050600d84846040516122e2929190613f76565b908152602001604051809103902060000184849091806001815401808255809150506001900390600052602060002001600090919290919290919290919250919061232e929190612e83565b50600d8484604051612341929190613f76565b9081526020016040518091039020600101339080600181540180825580915050600190039060005260206000200160009091909190916101000a81548173ffffffffffffffffffffffffffffffffffffffff021916908373ffffffffffffffffffffffffffffffffffffffff16021790555050505050565b42600d83836040516123cc929190613f76565b90815260200160405180910390206002018190555060005b60058110156125005760116000600d8585604051612403929190613f76565b9081526020016040518091039020600101838154811061244c577f4e487b7100000000000000000000000000000000000000000000000000000000600052603260045260246000fd5b9060005260206000200160009054906101000a900473ffffffffffffffffffffffffffffffffffffffff1673ffffffffffffffffffffffffffffffffffffffff1673ffffffffffffffffffffffffffffffffffffffff1681526020019081526020016000208383909180600181540180825580915050600190039060005260206000200160009091929091929091929091925091906124ec929190612e83565b5080806124f890614574565b9150506123e4565b506013600d8383604051612515929190613f76565b908152602001604051809103902060000160008154811061255f577f4e487b7100000000000000000000000000000000000000000000000000000000600052603260045260246000fd5b906000526020600020016040516125769190613fee565b908152602001604051809103902060009054906101000a900460ff1661274e57600082826040516020016125ab929190613f8f565b604051602081830303815290604052905060608060405180606001604052808381526020018281526020016000815250600d846040516125eb9190613fb3565b90815260200160405180910390206000820151816000019080519060200190612615929190612f96565b506020820151816001019080519060200190612632929190612ff6565b50604082015181600201559050508260106000600f60003373ffffffffffffffffffffffffffffffffffffffff1673ffffffffffffffffffffffffffffffffffffffff16815260200190815260200160002060020154815260200190815260200160002090805190602001906126a9929190612dfd565b5060016013600d87876040516126c0929190613f76565b908152602001604051809103902060000160008154811061270a577f4e487b7100000000000000000000000000000000000000000000000000000000600052603260045260246000fd5b906000526020600020016040516127219190613fee565b908152602001604051809103902060006101000a81548160ff0219169083151502179055505050506127e3565b600e6000600854815260200190815260200160002060106000600f60003373ffffffffffffffffffffffffffffffffffffffff1673ffffffffffffffffffffffffffffffffffffffff1681526020019081526020016000206002015481526020019081526020016000209080546127c490614542565b6127cf929190612f09565b506008600081548092919060010191905055505b5050565b6127f2848484611f33565b6127fe84848484612a2a565b61283d576040517f08c379a0000000000000000000000000000000000000000000000000000000008152600401612834906140fd565b60405180910390fd5b50505050565b606060405180602001604052806000815250905090565b606060008214156128a2576040518060400160405280600181526020017f30000000000000000000000000000000000000000000000000000000000000008152509050612a02565b600082905060005b600082146128d45780806128bd90614574565b915050600a826128cd9190614427565b91506128aa565b60008167ffffffffffffffff811115612916577f4e487b7100000000000000000000000000000000000000000000000000000000600052604160045260246000fd5b6040519080825280601f01601f1916602001820160405280156129485781602001600182028036833780820191505090505b5090505b600085146129fb576001826129619190614458565b9150600a8561297091906145eb565b603061297c91906143d1565b60f81b8183815181106129b8577f4e487b7100000000000000000000000000000000000000000000000000000000600052603260045260246000fd5b60200101907effffffffffffffffffffffffffffffffffffffffffffffffffffffffffffff1916908160001a905350600a856129f49190614427565b945061294c565b8093505050505b919050565b612a21828260405180602001604052806000815250612bc1565b5050565b505050565b6000612a4b8473ffffffffffffffffffffffffffffffffffffffff16612c1c565b15612bb4578373ffffffffffffffffffffffffffffffffffffffff1663150b7a02612a74611d94565b8786866040518563ffffffff1660e01b8152600401612a969493929190614020565b602060405180830381600087803b158015612ab057600080fd5b505af1925050508015612ae157506040513d601f19601f82011682018060405250810190612ade9190613533565b60015b612b64573d8060008114612b11576040519150601f19603f3d011682016040523d82523d6000602084013e612b16565b606091505b50600081511415612b5c576040517f08c379a0000000000000000000000000000000000000000000000000000000008152600401612b53906140fd565b60405180910390fd5b805181602001fd5b63150b7a0260e01b7bffffffffffffffffffffffffffffffffffffffffffffffffffffffff1916817bffffffffffffffffffffffffffffffffffffffffffffffffffffffff191614915050612bb9565b600190505b949350505050565b612bcb8383612c2f565b612bd86000848484612a2a565b612c17576040517f08c379a0000000000000000000000000000000000000000000000000000000008152600401612c0e906140fd565b60405180910390fd5b505050565b600080823b905060008111915050919050565b600073ffffffffffffffffffffffffffffffffffffffff168273ffffffffffffffffffffffffffffffffffffffff161415612c9f576040517f08c379a0000000000000000000000000000000000000000000000000000000008152600401612c969061421d565b60405180910390fd5b612ca881611d28565b15612ce8576040517f08c379a0000000000000000000000000000000000000000000000000000000008152600401612cdf9061413d565b60405180910390fd5b612cf460008383612a25565b6001600360008473ffffffffffffffffffffffffffffffffffffffff1673ffffffffffffffffffffffffffffffffffffffff1681526020019081526020016000206000828254612d4491906143d1565b92505081905550816002600083815260200190815260200160002060006101000a81548173ffffffffffffffffffffffffffffffffffffffff021916908373ffffffffffffffffffffffffffffffffffffffff160217905550808273ffffffffffffffffffffffffffffffffffffffff16600073ffffffffffffffffffffffffffffffffffffffff167fddf252ad1be2c89b69c2b068fc378daa952ba7f163c4a11628f55a4df523b3ef60405160405180910390a45050565b828054612e0990614542565b90600052602060002090601f016020900481019282612e2b5760008555612e72565b82601f10612e4457805160ff1916838001178555612e72565b82800160010185558215612e72579182015b82811115612e71578251825591602001919060010190612e56565b5b509050612e7f919061317a565b5090565b828054612e8f90614542565b90600052602060002090601f016020900481019282612eb15760008555612ef8565b82601f10612eca57803560ff1916838001178555612ef8565b82800160010185558215612ef8579182015b82811115612ef7578235825591602001919060010190612edc565b5b509050612f05919061317a565b5090565b828054612f1590614542565b90600052602060002090601f016020900481019282612f375760008555612f85565b82601f10612f485780548555612f85565b82800160010185558215612f8557600052602060002091601f016020900482015b82811115612f84578254825591600101919060010190612f69565b5b509050612f92919061317a565b5090565b828054828255906000526020600020908101928215612fe5579160200282015b82811115612fe4578251829080519060200190612fd4929190612dfd565b5091602001919060010190612fb6565b5b509050612ff29190613197565b5090565b82805482825590600052602060002090810192821561306f579160200282015b8281111561306e5782518260006101000a81548173ffffffffffffffffffffffffffffffffffffffff021916908373ffffffffffffffffffffffffffffffffffffffff16021790555091602001919060010190613016565b5b50905061307c919061317a565b5090565b50805461308c90614542565b6000825580601f1061309e57506130bd565b601f0160209004906000526020600020908101906130bc919061317a565b5b50565b8280548282559060005260206000209081019282156131175760005260206000209182015b828111156131165782829080546130fb90614542565b6131069291906131bb565b50916001019190600101906130e5565b5b5090506131249190613197565b5090565b8280548282559060005260206000209081019282156131695760005260206000209182015b8281111561316857825482559160010191906001019061314d565b5b509050613176919061317a565b5090565b5b8082111561319357600081600090555060010161317b565b5090565b5b808211156131b757600081816131ae9190613080565b50600101613198565b5090565b8280546131c790614542565b90600052602060002090601f0160209004810192826131e95760008555613237565b82601f106131fa5780548555613237565b8280016001018555821561323757600052602060002091601f016020900482015b8281111561323657825482559160010191906001019061321b565b5b509050613244919061317a565b5090565b600061325b61325684614349565b614318565b90508281526020810184848401111561327357600080fd5b61327e848285614500565b509392505050565b600081359050613295816146f6565b92915050565b6000813590506132aa8161470d565b92915050565b6000813590506132bf81614724565b92915050565b6000815190506132d481614724565b92915050565b600082601f8301126132eb57600080fd5b81356132fb848260208601613248565b91505092915050565b60008083601f84011261331657600080fd5b8235905067ffffffffffffffff81111561332f57600080fd5b60208301915083600182028301111561334757600080fd5b9250929050565b60008135905061335d8161473b565b92915050565b60006020828403121561337557600080fd5b600061338384828501613286565b91505092915050565b6000806040838503121561339f57600080fd5b60006133ad85828601613286565b92505060206133be85828601613286565b9150509250929050565b6000806000606084860312156133dd57600080fd5b60006133eb86828701613286565b93505060206133fc86828701613286565b925050604061340d8682870161334e565b9150509250925092565b6000806000806080858703121561342d57600080fd5b600061343b87828801613286565b945050602061344c87828801613286565b935050604061345d8782880161334e565b925050606085013567ffffffffffffffff81111561347a57600080fd5b613486878288016132da565b91505092959194509250565b600080604083850312156134a557600080fd5b60006134b385828601613286565b92505060206134c48582860161329b565b9150509250929050565b600080604083850312156134e157600080fd5b60006134ef85828601613286565b92505060206135008582860161334e565b9150509250929050565b60006020828403121561351c57600080fd5b600061352a848285016132b0565b91505092915050565b60006020828403121561354557600080fd5b6000613553848285016132c5565b91505092915050565b6000806020838503121561356f57600080fd5b600083013567ffffffffffffffff81111561358957600080fd5b61359585828601613304565b92509250509250929050565b600080600080604085870312156135b757600080fd5b600085013567ffffffffffffffff8111156135d157600080fd5b6135dd87828801613304565b9450945050602085013567ffffffffffffffff8111156135fc57600080fd5b61360887828801613304565b925092505092959194509250565b60008060008060006060868803121561362e57600080fd5b600086013567ffffffffffffffff81111561364857600080fd5b61365488828901613304565b9550955050602086013567ffffffffffffffff81111561367357600080fd5b61367f88828901613304565b935093505060406136928882890161334e565b9150509295509295909350565b6000602082840312156136b157600080fd5b60006136bf8482850161334e565b91505092915050565b6136d18161448c565b82525050565b6136e86136e38261448c565b6145bd565b82525050565b6136f78161449e565b82525050565b60006137088261438e565b61371281856143a4565b935061372281856020860161450f565b61372b816146d8565b840191505092915050565b600061374283856143b5565b935061374f838584614500565b613758836146d8565b840190509392505050565b600061376f83856143c6565b935061377c838584614500565b82840190509392505050565b600061379382614399565b61379d81856143b5565b93506137ad81856020860161450f565b6137b6816146d8565b840191505092915050565b60006137cc82614399565b6137d681856143c6565b93506137e681856020860161450f565b80840191505092915050565b600081546137ff81614542565b61380981866143b5565b94506001821660008114613824576001811461383657613869565b60ff1983168652602086019350613869565b61383f85614379565b60005b8381101561386157815481890152600182019150602081019050613842565b808801955050505b50505092915050565b6000815461387f81614542565b61388981866143c6565b945060018216600081146138a457600181146138b5576138e8565b60ff198316865281860193506138e8565b6138be85614379565b60005b838110156138e0578154818901526001820191506020810190506138c1565b838801955050505b50505092915050565b60006138fe6032836143b5565b91507f4552433732313a207472616e7366657220746f206e6f6e20455243373231526560008301527f63656976657220696d706c656d656e74657200000000000000000000000000006020830152604082019050919050565b60006139646026836143b5565b91507f4f776e61626c653a206e6577206f776e657220697320746865207a65726f206160008301527f64647265737300000000000000000000000000000000000000000000000000006020830152604082019050919050565b60006139ca601c836143b5565b91507f4552433732313a20746f6b656e20616c7265616479206d696e746564000000006000830152602082019050919050565b6000613a0a6024836143b5565b91507f4552433732313a207472616e7366657220746f20746865207a65726f2061646460008301527f72657373000000000000000000000000000000000000000000000000000000006020830152604082019050919050565b6000613a706019836143b5565b91507f4552433732313a20617070726f766520746f2063616c6c6572000000000000006000830152602082019050919050565b6000613ab0602c836143b5565b91507f4552433732313a206f70657261746f7220717565727920666f72206e6f6e657860008301527f697374656e7420746f6b656e00000000000000000000000000000000000000006020830152604082019050919050565b6000613b166038836143b5565b91507f4552433732313a20617070726f76652063616c6c6572206973206e6f74206f7760008301527f6e6572206e6f7220617070726f76656420666f7220616c6c00000000000000006020830152604082019050919050565b6000613b7c602a836143b5565b91507f4552433732313a2062616c616e636520717565727920666f7220746865207a6560008301527f726f2061646472657373000000000000000000000000000000000000000000006020830152604082019050919050565b6000613be26029836143b5565b91507f4552433732313a206f776e657220717565727920666f72206e6f6e657869737460008301527f656e7420746f6b656e00000000000000000000000000000000000000000000006020830152604082019050919050565b6000613c486020836143b5565b91507f4552433732313a206d696e7420746f20746865207a65726f20616464726573736000830152602082019050919050565b6000613c886005836143c6565b91507f30303030300000000000000000000000000000000000000000000000000000006000830152600582019050919050565b6000613cc8602c836143b5565b91507f4552433732313a20617070726f76656420717565727920666f72206e6f6e657860008301527f697374656e7420746f6b656e00000000000000000000000000000000000000006020830152604082019050919050565b6000613d2e6020836143b5565b91507f4f776e61626c653a2063616c6c6572206973206e6f7420746865206f776e65726000830152602082019050919050565b6000613d6e6029836143b5565b91507f4552433732313a207472616e73666572206f6620746f6b656e2074686174206960008301527f73206e6f74206f776e00000000000000000000000000000000000000000000006020830152604082019050919050565b6000613dd4602f836143b5565b91507f4552433732314d657461646174613a2055524920717565727920666f72206e6f60008301527f6e6578697374656e7420746f6b656e00000000000000000000000000000000006020830152604082019050919050565b6000613e3a6021836143b5565b91507f4552433732313a20617070726f76616c20746f2063757272656e74206f776e6560008301527f72000000000000000000000000000000000000000000000000000000000000006020830152604082019050919050565b6000613ea06031836143b5565b91507f4552433732313a207472616e736665722063616c6c6572206973206e6f74206f60008301527f776e6572206e6f7220617070726f7665640000000000000000000000000000006020830152604082019050919050565b613f02816144f6565b82525050565b613f19613f14826144f6565b6145e1565b82525050565b6000613f2b82886136d7565b601482019150613f3b8287613f08565b602082019150613f4b8286613872565b9150613f578285613872565b9150613f638284613f08565b6020820191508190509695505050505050565b6000613f83828486613763565b91508190509392505050565b6000613f9c828486613763565b9150613fa782613c7b565b91508190509392505050565b6000613fbf82846137c1565b915081905092915050565b6000613fd682856137c1565b9150613fe282846137c1565b91508190509392505050565b6000613ffa8284613872565b915081905092915050565b600060208201905061401a60008301846136c8565b92915050565b600060808201905061403560008301876136c8565b61404260208301866136c8565b61404f6040830185613ef9565b818103606083015261406181846136fd565b905095945050505050565b600060208201905061408160008301846136ee565b92915050565b600060208201905081810360008301526140a2818486613736565b90509392505050565b600060208201905081810360008301526140c58184613788565b905092915050565b600060408201905081810360008301526140e781856137f2565b90506140f660208301846136c8565b9392505050565b60006020820190508181036000830152614116816138f1565b9050919050565b6000602082019050818103600083015261413681613957565b9050919050565b60006020820190508181036000830152614156816139bd565b9050919050565b60006020820190508181036000830152614176816139fd565b9050919050565b6000602082019050818103600083015261419681613a63565b9050919050565b600060208201905081810360008301526141b681613aa3565b9050919050565b600060208201905081810360008301526141d681613b09565b9050919050565b600060208201905081810360008301526141f681613b6f565b9050919050565b6000602082019050818103600083015261421681613bd5565b9050919050565b6000602082019050818103600083015261423681613c3b565b9050919050565b6000602082019050818103600083015261425681613cbb565b9050919050565b6000602082019050818103600083015261427681613d21565b9050919050565b6000602082019050818103600083015261429681613d61565b9050919050565b600060208201905081810360008301526142b681613dc7565b9050919050565b600060208201905081810360008301526142d681613e2d565b9050919050565b600060208201905081810360008301526142f681613e93565b9050919050565b60006020820190506143126000830184613ef9565b92915050565b6000604051905081810181811067ffffffffffffffff8211171561433f5761433e6146a9565b5b8060405250919050565b600067ffffffffffffffff821115614364576143636146a9565b5b601f19601f8301169050602081019050919050565b60008190508160005260206000209050919050565b600081519050919050565b600081519050919050565b600082825260208201905092915050565b600082825260208201905092915050565b600081905092915050565b60006143dc826144f6565b91506143e7836144f6565b9250827fffffffffffffffffffffffffffffffffffffffffffffffffffffffffffffffff0382111561441c5761441b61461c565b5b828201905092915050565b6000614432826144f6565b915061443d836144f6565b92508261444d5761444c61464b565b5b828204905092915050565b6000614463826144f6565b915061446e836144f6565b9250828210156144815761448061461c565b5b828203905092915050565b6000614497826144d6565b9050919050565b60008115159050919050565b60007fffffffff0000000000000000000000000000000000000000000000000000000082169050919050565b600073ffffffffffffffffffffffffffffffffffffffff82169050919050565b6000819050919050565b82818337600083830152505050565b60005b8381101561452d578082015181840152602081019050614512565b8381111561453c576000848401525b50505050565b6000600282049050600182168061455a57607f821691505b6020821081141561456e5761456d61467a565b5b50919050565b600061457f826144f6565b91507fffffffffffffffffffffffffffffffffffffffffffffffffffffffffffffffff8214156145b2576145b161461c565b5b600182019050919050565b60006145c8826145cf565b9050919050565b60006145da826146e9565b9050919050565b6000819050919050565b60006145f6826144f6565b9150614601836144f6565b9250826146115761461061464b565b5b828206905092915050565b7f4e487b7100000000000000000000000000000000000000000000000000000000600052601160045260246000fd5b7f4e487b7100000000000000000000000000000000000000000000000000000000600052601260045260246000fd5b7f4e487b7100000000000000000000000000000000000000000000000000000000600052602260045260246000fd5b7f4e487b7100000000000000000000000000000000000000000000000000000000600052604160045260246000fd5b6000601f19601f8301169050919050565b60008160601b9050919050565b6146ff8161448c565b811461470a57600080fd5b50565b6147168161449e565b811461472157600080fd5b50565b61472d816144aa565b811461473857600080fd5b50565b614744816144f6565b811461474f57600080fd5b5056fea26469706673582212207dcd02595e22ec89392694c00c4e77ab7eaa259ebee4bf7bc858b8f69030b70964736f6c63430008000033",
  "immutableReferences": {},
  "source": "// SPDX-License-Identifier: MIT\npragma solidity 0.8.0;\n\nimport \"../node_modules/@openzeppelin/contracts/token/ERC721/ERC721.sol\";\nimport \"../node_modules/@openzeppelin/contracts/access/Ownable.sol\";\n\n/// @title A Frankenstein Texts writing game\n/// @author Mario Mazzaferro\ncontract FrankieTexts is ERC721, Ownable {\n\n    /// @dev Keeps track of the number of requestText() calls.\n    uint256 private requestCounter;\n\n    /// @dev Keeps track of the number of CIDs fed in the deck mapping.\n    uint256 public feedCounter;\n\n    /// @dev Keeps track of the number of valid submitText() calls.\n    uint256 public submitCounter;\n\n    /// @dev Keeps track of the number of plots seeded in the deck.\n    uint256 public deckCounter;\n\n    /// @dev Maximum size of the deck mapping.\n    uint256 public deckSize;\n\n    /// @dev Keeps track of the number of minted NFTs.\n    uint256 public frankieId;\n\n    /// @dev Fired upon requestText() call.\n    event RequestedText(string chosenCid, address requester);\n\n    /// @dev Fired upon mintFrankie() call.\n    event MintedFrankie(uint indexed nftId, string nftCid, string indexed fifthCid);\n\n    /// @dev Stores data of a Frankenstein Text.\n    struct Frankie {\n      string[] cids;\n      address[] writers;\n      uint256 endedSince;\n    }\n\n    /// @dev Stores temporary data of a Frankenstein Text being edited.\n    struct MiniFrankie {\n      string cid;\n      uint256 editSince;\n      uint256 deckNumber;\n    }\n\n    /// @dev Relates IPFS CIDs with Frankenstein Texts.\n    mapping(string => Frankie) private frankies;\n\n    /// @dev Cue order of IPFS CIDs from incomplete Frankenstein Texts.\n    mapping(uint256 => string) private cidOrder;\n\n    /// @dev Relates writer address and current editing Frankenstein Text.\n    mapping(address => MiniFrankie) private editing;\n\n    /// @dev Ordered IPFS CIDs that will be pseudo-randomly returned by requestText().\n    mapping(uint256 => string) private deck;\n\n    /// @dev Relates writer address with its list of finished untitled Frankenstein Text's CIDs.\n    mapping(address => string[]) private untitledTexts;\n\n    /// @dev Relates frankieId with its respective IPFS CID.\n    mapping(uint256 => string) private mintedCids;\n\n    /// @dev Keeps track of plots that have had at least one ramification finished.\n    mapping(string => bool) private plotEnded;\n\n    /// @dev Sets initial values.\n    constructor() ERC721(\"Frankies\", \"FKE\") {\n        requestCounter = 0;\n        feedCounter = 0;\n        submitCounter = 0;\n        deckCounter = 0;\n        deckSize = 10;\n        frankieId = 0;\n    }\n\n    /// @dev Guarantees that the submitText() caller had previously received that CID less than 2 hours ago.\n    modifier isValid(string calldata oldCid) {\n        require(keccak256(abi.encodePacked(editing[msg.sender].cid)) == keccak256(abi.encodePacked(oldCid)));\n        require(editing[msg.sender].editSince + 2 hours > block.timestamp);\n        _;\n    }\n\n    /// @dev Updates Frankenstein Text data stored in Frankie struct.\n    function _updateFrankie(string calldata newCid, string calldata oldCid) private {\n        frankies[newCid] = frankies[oldCid];\n        frankies[newCid].cids.push(newCid);\n        frankies[newCid].writers.push(msg.sender);\n    }\n\n    /// @dev Feeds finished Frankenstein Text into each writer's untitled list.\n    /// @dev Feeds a new CID into the deck to replace the finished Frankenstein Text's CID.\n    /// @dev If it's the first ramification of that plot to finish: feeds a blank plot CID.\n    /// @dev Else: feeds the next CID in the cidOrder cue.\n    function _endFrankie(string calldata newCid) private {\n      frankies[newCid].endedSince = block.timestamp;\n      for (uint256 i = 0; i < 5; i++) {\n        untitledTexts[frankies[newCid].writers[i]].push(newCid);\n      }\n      if(!plotEnded[frankies[newCid].cids[0]]) {\n        string memory startCid = string(abi.encodePacked(newCid, '00000'));\n        string[] memory cids;\n        address[] memory writers;\n        frankies[startCid] = Frankie(cids, writers, 0);\n        deck[editing[msg.sender].deckNumber] = startCid;\n        plotEnded[frankies[newCid].cids[0]] = true;\n      } else {\n        deck[editing[msg.sender].deckNumber] = cidOrder[feedCounter];\n        unchecked { feedCounter++; } \n        }\n    }\n\n    /// @dev Draws a pseudo-random CID from deck mapping.\n    /// @dev Sets pseudo-random CID to msg.sender in editing mapping.\n    function requestText() external {\n      uint256 random = uint256(keccak256(abi.encodePacked(msg.sender, block.difficulty, cidOrder[feedCounter], cidOrder[submitCounter], requestCounter))) % deckSize;\n      unchecked { requestCounter++; }\n      editing[msg.sender] = MiniFrankie(deck[random], block.timestamp, random);\n      emit RequestedText(deck[random], msg.sender);\n    }\n\n    /// @dev Updates Frankenstein Text data through _updateFrankie().\n    /// @dev If the Frankie has 5 contributions: finalizes Frankenstein Text.\n    /// @dev Else: sets newCid in the end of cidOrder cue and if it's the first submited\n    /// @dev ramification of oldCid: substitutes it (in the deck) with the first CID of cidOrder cue.\n    function submitText(string calldata oldCid, string calldata newCid) external isValid(oldCid) {\n      _updateFrankie(newCid, oldCid);\n      if (frankies[newCid].writers.length == 5) {\n        _endFrankie(newCid);\n      } else {\n        cidOrder[submitCounter] = newCid;\n        unchecked { submitCounter++; }\n        if(keccak256(abi.encodePacked(deck[editing[msg.sender].deckNumber])) == keccak256(abi.encodePacked(oldCid))) {\n          deck[editing[msg.sender].deckNumber] = cidOrder[feedCounter];\n          unchecked { feedCounter++; }\n        }\n      }\n    }\n\n    /// @dev Checks if the untitled Frankenstein Text is still valid and is owned by the caller.\n    /// @dev Updates Frankenstein Text data through _updateFrankie().\n    /// @dev Mints Frankenstein Text NFT and delete respective untitled from untitledTexts.\n    function mintFrankie(string calldata oldCid, string calldata newCid, uint untitledId) external {\n        require(frankies[oldCid].endedSince + 7 days > block.timestamp);\n        require(keccak256(abi.encodePacked(oldCid)) == keccak256(abi.encodePacked(untitledTexts[msg.sender][untitledId])));\n        _updateFrankie(newCid, oldCid);\n        _safeMint(msg.sender, frankieId);\n        delete untitledTexts[msg.sender][untitledId];\n        mintedCids[frankieId] = newCid;\n        emit MintedFrankie(frankieId, newCid, oldCid);\n        frankieId++;\n    }\n\n    /// @dev Returns NFT CID corresponding to the id parameter.\n    function mintedCidById(uint id) external view returns(string memory) {\n      require(id < frankieId);\n      return mintedCids[id];\n    }\n\n    /// @dev Returns newest untitled text id for the caller.\n    function requestNewestUntitledId() external view returns(uint) {\n        require(untitledTexts[msg.sender].length > 0);\n        return untitledTexts[msg.sender].length - 1;\n    }\n\n    /// @dev Returns caller's untitled CID with the id of the untitledId parameter.\n    function requestUntitledText(uint untitledId) external view returns(string memory) {\n        return untitledTexts[msg.sender][untitledId];\n    }\n\n    /// @dev Returns seconds passed since 5th contribution of the \n    /// @dev untitledTexts[msg.sender][untitledId].\n    function requestUntitledEndedSince(uint untitledId) external view returns(uint) {\n        return (block.timestamp - frankies[untitledTexts[msg.sender][untitledId]].endedSince);\n    }\n\n    /// @dev Checks if the caller is victor.\n    /// @dev Creates an new Frankie with the cid parameter.\n    /// @dev If the deck is incomplete: feeds cid into deck.\n    /// @dev Feeds cid in the cidOrder cue.\n    function seedPlot(string calldata cid) external onlyOwner() {\n        string[] memory cids;\n        address[] memory writers;\n        frankies[cid] = Frankie(cids, writers, 0);\n        frankies[cid].cids.push(cid);\n        frankies[cid].writers.push(msg.sender);\n        if(deckCounter < deckSize) {\n          deck[deckCounter] = cid;\n          unchecked { feedCounter++; }\n          deckCounter++;\n        }\n        cidOrder[submitCounter] = cid;\n        unchecked { submitCounter++; }\n    }\n}",
  "sourcePath": "/home/mariomazzaferro/blockchain-developer-bootcamp-final-project/contracts/FrankieTexts.sol",
  "compiler": {
    "name": "solc",
    "version": "0.8.0+commit.c7dfd78e.Emscripten.clang"
  },
  "schemaVersion": "3.4.3",
  "updatedAt": "2021-11-04T14:54:20.330Z",
  "networkType": "ethereum",
  "devdoc": {
    "author": "Mario Mazzaferro",
    "events": {
      "MintedFrankie(uint256,string,string)": {
        "details": "Fired upon mintFrankie() call."
      },
      "RequestedText(string,address)": {
        "details": "Fired upon requestText() call."
      }
    },
    "kind": "dev",
    "methods": {
      "approve(address,uint256)": {
        "details": "See {IERC721-approve}."
      },
      "balanceOf(address)": {
        "details": "See {IERC721-balanceOf}."
      },
      "constructor": {
        "details": "Sets initial values."
      },
      "getApproved(uint256)": {
        "details": "See {IERC721-getApproved}."
      },
      "isApprovedForAll(address,address)": {
        "details": "See {IERC721-isApprovedForAll}."
      },
      "mintFrankie(string,string,uint256)": {
        "details": "Checks if the untitled Frankenstein Text is still valid and is owned by the caller.Updates Frankenstein Text data through _updateFrankie().Mints Frankenstein Text NFT and delete respective untitled from untitledTexts."
      },
      "mintedCidById(uint256)": {
        "details": "Returns NFT CID corresponding to the id parameter."
      },
      "name()": {
        "details": "See {IERC721Metadata-name}."
      },
      "owner()": {
        "details": "Returns the address of the current owner."
      },
      "ownerOf(uint256)": {
        "details": "See {IERC721-ownerOf}."
      },
      "renounceOwnership()": {
        "details": "Leaves the contract without owner. It will not be possible to call `onlyOwner` functions anymore. Can only be called by the current owner. NOTE: Renouncing ownership will leave the contract without an owner, thereby removing any functionality that is only available to the owner."
      },
      "requestNewestUntitledId()": {
        "details": "Returns newest untitled text id for the caller."
      },
      "requestText()": {
        "details": "Draws a pseudo-random CID from deck mapping.Sets pseudo-random CID to msg.sender in editing mapping."
      },
      "requestUntitledEndedSince(uint256)": {
        "details": "Returns seconds passed since 5th contribution of the untitledTexts[msg.sender][untitledId]."
      },
      "requestUntitledText(uint256)": {
        "details": "Returns caller's untitled CID with the id of the untitledId parameter."
      },
      "safeTransferFrom(address,address,uint256)": {
        "details": "See {IERC721-safeTransferFrom}."
      },
      "safeTransferFrom(address,address,uint256,bytes)": {
        "details": "See {IERC721-safeTransferFrom}."
      },
      "seedPlot(string)": {
        "details": "Checks if the caller is victor.Creates an new Frankie with the cid parameter.If the deck is incomplete: feeds cid into deck.Feeds cid in the cidOrder cue."
      },
      "setApprovalForAll(address,bool)": {
        "details": "See {IERC721-setApprovalForAll}."
      },
      "submitText(string,string)": {
        "details": "Updates Frankenstein Text data through _updateFrankie().If the Frankie has 5 contributions: finalizes Frankenstein Text.Else: sets newCid in the end of cidOrder cue and if it's the first submitedramification of oldCid: substitutes it (in the deck) with the first CID of cidOrder cue."
      },
      "supportsInterface(bytes4)": {
        "details": "See {IERC165-supportsInterface}."
      },
      "symbol()": {
        "details": "See {IERC721Metadata-symbol}."
      },
      "tokenURI(uint256)": {
        "details": "See {IERC721Metadata-tokenURI}."
      },
      "transferFrom(address,address,uint256)": {
        "details": "See {IERC721-transferFrom}."
      },
      "transferOwnership(address)": {
        "details": "Transfers ownership of the contract to a new account (`newOwner`). Can only be called by the current owner."
      }
    },
    "stateVariables": {
      "cidOrder": {
        "details": "Cue order of IPFS CIDs from incomplete Frankenstein Texts."
      },
      "deck": {
        "details": "Ordered IPFS CIDs that will be pseudo-randomly returned by requestText()."
      },
      "deckCounter": {
        "details": "Keeps track of the number of plots seeded in the deck."
      },
      "deckSize": {
        "details": "Maximum size of the deck mapping."
      },
      "editing": {
        "details": "Relates writer address and current editing Frankenstein Text."
      },
      "feedCounter": {
        "details": "Keeps track of the number of CIDs fed in the deck mapping."
      },
      "frankieId": {
        "details": "Keeps track of the number of minted NFTs."
      },
      "frankies": {
        "details": "Relates IPFS CIDs with Frankenstein Texts."
      },
      "mintedCids": {
        "details": "Relates frankieId with its respective IPFS CID."
      },
      "plotEnded": {
        "details": "Keeps track of plots that have had at least one ramification finished."
      },
      "requestCounter": {
        "details": "Keeps track of the number of requestText() calls."
      },
      "submitCounter": {
        "details": "Keeps track of the number of valid submitText() calls."
      },
      "untitledTexts": {
        "details": "Relates writer address with its list of finished untitled Frankenstein Text's CIDs."
      }
    },
    "title": "A Frankenstein Texts writing game",
    "version": 1
  },
  "userdoc": {
    "kind": "user",
    "methods": {},
    "version": 1
  }
}