{
  "contractName": "FrankieTexts",
  "abi": [
    {
      "inputs": [
        {
          "internalType": "uint256",
          "name": "_deckSize",
          "type": "uint256"
        }
      ],
      "stateMutability": "nonpayable",
      "type": "constructor"
    },
    {
      "anonymous": false,
      "inputs": [
        {
          "indexed": true,
          "internalType": "address",
          "name": "owner",
          "type": "address"
        },
        {
          "indexed": true,
          "internalType": "address",
          "name": "approved",
          "type": "address"
        },
        {
          "indexed": true,
          "internalType": "uint256",
          "name": "tokenId",
          "type": "uint256"
        }
      ],
      "name": "Approval",
      "type": "event"
    },
    {
      "anonymous": false,
      "inputs": [
        {
          "indexed": true,
          "internalType": "address",
          "name": "owner",
          "type": "address"
        },
        {
          "indexed": true,
          "internalType": "address",
          "name": "operator",
          "type": "address"
        },
        {
          "indexed": false,
          "internalType": "bool",
          "name": "approved",
          "type": "bool"
        }
      ],
      "name": "ApprovalForAll",
      "type": "event"
    },
    {
      "anonymous": false,
      "inputs": [
        {
          "indexed": false,
          "internalType": "uint256",
          "name": "nftId",
          "type": "uint256"
        },
        {
          "indexed": false,
          "internalType": "string",
          "name": "nftCid",
          "type": "string"
        },
        {
          "indexed": true,
          "internalType": "string",
          "name": "thirdCid",
          "type": "string"
        }
      ],
      "name": "MintedFrankie",
      "type": "event"
    },
    {
      "anonymous": false,
      "inputs": [
        {
          "indexed": true,
          "internalType": "address",
          "name": "previousOwner",
          "type": "address"
        },
        {
          "indexed": true,
          "internalType": "address",
          "name": "newOwner",
          "type": "address"
        }
      ],
      "name": "OwnershipTransferred",
      "type": "event"
    },
    {
      "anonymous": false,
      "inputs": [
        {
          "indexed": false,
          "internalType": "string",
          "name": "chosenCid",
          "type": "string"
        },
        {
          "indexed": false,
          "internalType": "uint256",
          "name": "writerNumber",
          "type": "uint256"
        },
        {
          "indexed": false,
          "internalType": "address",
          "name": "requester",
          "type": "address"
        }
      ],
      "name": "RequestedCid",
      "type": "event"
    },
    {
      "anonymous": false,
      "inputs": [
        {
          "indexed": true,
          "internalType": "address",
          "name": "from",
          "type": "address"
        },
        {
          "indexed": true,
          "internalType": "address",
          "name": "to",
          "type": "address"
        },
        {
          "indexed": true,
          "internalType": "uint256",
          "name": "tokenId",
          "type": "uint256"
        }
      ],
      "name": "Transfer",
      "type": "event"
    },
    {
      "inputs": [
        {
          "internalType": "address",
          "name": "to",
          "type": "address"
        },
        {
          "internalType": "uint256",
          "name": "tokenId",
          "type": "uint256"
        }
      ],
      "name": "approve",
      "outputs": [],
      "stateMutability": "nonpayable",
      "type": "function"
    },
    {
      "inputs": [
        {
          "internalType": "address",
          "name": "owner",
          "type": "address"
        }
      ],
      "name": "balanceOf",
      "outputs": [
        {
          "internalType": "uint256",
          "name": "",
          "type": "uint256"
        }
      ],
      "stateMutability": "view",
      "type": "function",
      "constant": true
    },
    {
      "inputs": [],
      "name": "deckCounter",
      "outputs": [
        {
          "internalType": "uint256",
          "name": "",
          "type": "uint256"
        }
      ],
      "stateMutability": "view",
      "type": "function",
      "constant": true
    },
    {
      "inputs": [],
      "name": "deckSize",
      "outputs": [
        {
          "internalType": "uint256",
          "name": "",
          "type": "uint256"
        }
      ],
      "stateMutability": "view",
      "type": "function",
      "constant": true
    },
    {
      "inputs": [],
      "name": "feedCounter",
      "outputs": [
        {
          "internalType": "uint256",
          "name": "",
          "type": "uint256"
        }
      ],
      "stateMutability": "view",
      "type": "function",
      "constant": true
    },
    {
      "inputs": [],
      "name": "frankieId",
      "outputs": [
        {
          "internalType": "uint256",
          "name": "",
          "type": "uint256"
        }
      ],
      "stateMutability": "view",
      "type": "function",
      "constant": true
    },
    {
      "inputs": [
        {
          "internalType": "uint256",
          "name": "tokenId",
          "type": "uint256"
        }
      ],
      "name": "getApproved",
      "outputs": [
        {
          "internalType": "address",
          "name": "",
          "type": "address"
        }
      ],
      "stateMutability": "view",
      "type": "function",
      "constant": true
    },
    {
      "inputs": [
        {
          "internalType": "address",
          "name": "owner",
          "type": "address"
        },
        {
          "internalType": "address",
          "name": "operator",
          "type": "address"
        }
      ],
      "name": "isApprovedForAll",
      "outputs": [
        {
          "internalType": "bool",
          "name": "",
          "type": "bool"
        }
      ],
      "stateMutability": "view",
      "type": "function",
      "constant": true
    },
    {
      "inputs": [],
      "name": "name",
      "outputs": [
        {
          "internalType": "string",
          "name": "",
          "type": "string"
        }
      ],
      "stateMutability": "view",
      "type": "function",
      "constant": true
    },
    {
      "inputs": [],
      "name": "owner",
      "outputs": [
        {
          "internalType": "address",
          "name": "",
          "type": "address"
        }
      ],
      "stateMutability": "view",
      "type": "function",
      "constant": true
    },
    {
      "inputs": [
        {
          "internalType": "uint256",
          "name": "tokenId",
          "type": "uint256"
        }
      ],
      "name": "ownerOf",
      "outputs": [
        {
          "internalType": "address",
          "name": "",
          "type": "address"
        }
      ],
      "stateMutability": "view",
      "type": "function",
      "constant": true
    },
    {
      "inputs": [],
      "name": "renounceOwnership",
      "outputs": [],
      "stateMutability": "nonpayable",
      "type": "function"
    },
    {
      "inputs": [
        {
          "internalType": "address",
          "name": "from",
          "type": "address"
        },
        {
          "internalType": "address",
          "name": "to",
          "type": "address"
        },
        {
          "internalType": "uint256",
          "name": "tokenId",
          "type": "uint256"
        }
      ],
      "name": "safeTransferFrom",
      "outputs": [],
      "stateMutability": "nonpayable",
      "type": "function"
    },
    {
      "inputs": [
        {
          "internalType": "address",
          "name": "from",
          "type": "address"
        },
        {
          "internalType": "address",
          "name": "to",
          "type": "address"
        },
        {
          "internalType": "uint256",
          "name": "tokenId",
          "type": "uint256"
        },
        {
          "internalType": "bytes",
          "name": "_data",
          "type": "bytes"
        }
      ],
      "name": "safeTransferFrom",
      "outputs": [],
      "stateMutability": "nonpayable",
      "type": "function"
    },
    {
      "inputs": [
        {
          "internalType": "address",
          "name": "operator",
          "type": "address"
        },
        {
          "internalType": "bool",
          "name": "approved",
          "type": "bool"
        }
      ],
      "name": "setApprovalForAll",
      "outputs": [],
      "stateMutability": "nonpayable",
      "type": "function"
    },
    {
      "inputs": [],
      "name": "submitCounter",
      "outputs": [
        {
          "internalType": "uint256",
          "name": "",
          "type": "uint256"
        }
      ],
      "stateMutability": "view",
      "type": "function",
      "constant": true
    },
    {
      "inputs": [
        {
          "internalType": "bytes4",
          "name": "interfaceId",
          "type": "bytes4"
        }
      ],
      "name": "supportsInterface",
      "outputs": [
        {
          "internalType": "bool",
          "name": "",
          "type": "bool"
        }
      ],
      "stateMutability": "view",
      "type": "function",
      "constant": true
    },
    {
      "inputs": [],
      "name": "symbol",
      "outputs": [
        {
          "internalType": "string",
          "name": "",
          "type": "string"
        }
      ],
      "stateMutability": "view",
      "type": "function",
      "constant": true
    },
    {
      "inputs": [
        {
          "internalType": "uint256",
          "name": "tokenId",
          "type": "uint256"
        }
      ],
      "name": "tokenURI",
      "outputs": [
        {
          "internalType": "string",
          "name": "",
          "type": "string"
        }
      ],
      "stateMutability": "view",
      "type": "function",
      "constant": true
    },
    {
      "inputs": [
        {
          "internalType": "address",
          "name": "from",
          "type": "address"
        },
        {
          "internalType": "address",
          "name": "to",
          "type": "address"
        },
        {
          "internalType": "uint256",
          "name": "tokenId",
          "type": "uint256"
        }
      ],
      "name": "transferFrom",
      "outputs": [],
      "stateMutability": "nonpayable",
      "type": "function"
    },
    {
      "inputs": [
        {
          "internalType": "address",
          "name": "newOwner",
          "type": "address"
        }
      ],
      "name": "transferOwnership",
      "outputs": [],
      "stateMutability": "nonpayable",
      "type": "function"
    },
    {
      "inputs": [],
      "name": "requestCid",
      "outputs": [],
      "stateMutability": "nonpayable",
      "type": "function"
    },
    {
      "inputs": [
        {
          "internalType": "string",
          "name": "oldCid",
          "type": "string"
        },
        {
          "internalType": "string",
          "name": "newCid",
          "type": "string"
        }
      ],
      "name": "submitCid",
      "outputs": [],
      "stateMutability": "nonpayable",
      "type": "function"
    },
    {
      "inputs": [
        {
          "internalType": "string",
          "name": "oldCid",
          "type": "string"
        },
        {
          "internalType": "string",
          "name": "newCid",
          "type": "string"
        },
        {
          "internalType": "uint256",
          "name": "untitledId",
          "type": "uint256"
        }
      ],
      "name": "mintFrankie",
      "outputs": [],
      "stateMutability": "nonpayable",
      "type": "function"
    },
    {
      "inputs": [
        {
          "internalType": "uint256",
          "name": "nftId",
          "type": "uint256"
        }
      ],
      "name": "mintedCidById",
      "outputs": [
        {
          "internalType": "string",
          "name": "",
          "type": "string"
        }
      ],
      "stateMutability": "view",
      "type": "function",
      "constant": true
    },
    {
      "inputs": [
        {
          "internalType": "uint256",
          "name": "nftId",
          "type": "uint256"
        }
      ],
      "name": "starsById",
      "outputs": [
        {
          "internalType": "uint256",
          "name": "",
          "type": "uint256"
        }
      ],
      "stateMutability": "view",
      "type": "function",
      "constant": true
    },
    {
      "inputs": [],
      "name": "requestNewestUntitledId",
      "outputs": [
        {
          "internalType": "uint256",
          "name": "",
          "type": "uint256"
        }
      ],
      "stateMutability": "view",
      "type": "function",
      "constant": true
    },
    {
      "inputs": [
        {
          "internalType": "uint256",
          "name": "untitledId",
          "type": "uint256"
        }
      ],
      "name": "requestUntitledCid",
      "outputs": [
        {
          "internalType": "string",
          "name": "",
          "type": "string"
        }
      ],
      "stateMutability": "view",
      "type": "function",
      "constant": true
    },
    {
      "inputs": [
        {
          "internalType": "uint256",
          "name": "untitledId",
          "type": "uint256"
        }
      ],
      "name": "requestUntitledStars",
      "outputs": [
        {
          "internalType": "uint256",
          "name": "",
          "type": "uint256"
        }
      ],
      "stateMutability": "view",
      "type": "function",
      "constant": true
    },
    {
      "inputs": [
        {
          "internalType": "string",
          "name": "cid",
          "type": "string"
        }
      ],
      "name": "seedPlot",
      "outputs": [],
      "stateMutability": "nonpayable",
      "type": "function"
    }
  ],
  "bytecode": "0x60806040523480156200001157600080fd5b5060405162004bdd38038062004bdd8339818101604052810190620000379190620002c2565b6040518060400160405280600881526020017f4672616e6b6965730000000000000000000000000000000000000000000000008152506040518060400160405280600381526020017f464b4500000000000000000000000000000000000000000000000000000000008152508160009080519060200190620000bb929190620001fb565b508060019080519060200190620000d4929190620001fb565b505050620000f7620000eb6200012d60201b60201c565b6200013560201b60201c565b6000600781905550600060088190555060006009819055506000600a819055506000600c8190555080600b819055505062000377565b600033905090565b6000600660009054906101000a900473ffffffffffffffffffffffffffffffffffffffff16905081600660006101000a81548173ffffffffffffffffffffffffffffffffffffffff021916908373ffffffffffffffffffffffffffffffffffffffff1602179055508173ffffffffffffffffffffffffffffffffffffffff168173ffffffffffffffffffffffffffffffffffffffff167f8be0079c531659141344cd1fd0a4f28419497f9722a3daafe3b4186f6b6457e060405160405180910390a35050565b8280546200020990620002f8565b90600052602060002090601f0160209004810192826200022d576000855562000279565b82601f106200024857805160ff191683800117855562000279565b8280016001018555821562000279579182015b82811115620002785782518255916020019190600101906200025b565b5b5090506200028891906200028c565b5090565b5b80821115620002a75760008160009055506001016200028d565b5090565b600081519050620002bc816200035d565b92915050565b600060208284031215620002d557600080fd5b6000620002e584828501620002ab565b91505092915050565b6000819050919050565b600060028204905060018216806200031157607f821691505b602082108114156200032857620003276200032e565b5b50919050565b7f4e487b7100000000000000000000000000000000000000000000000000000000600052602260045260246000fd5b6200036881620002ee565b81146200037457600080fd5b50565b61485680620003876000396000f3fe608060405234801561001057600080fd5b50600436106101da5760003560e01c80638da5cb5b11610104578063d40cf78a116100a2578063e985e9c511610071578063e985e9c514610545578063f2fde38b14610575578063f86fa77b14610591578063fe6d405a146105ad576101da565b8063d40cf78a146104bb578063d4fb9457146104d9578063d812da2714610509578063dde2ae4814610527576101da565b8063b17de4af116100de578063b17de4af14610423578063b853bca41461043f578063b88d4fde1461046f578063c87b56dd1461048b576101da565b80638da5cb5b146103cb57806395d89b41146103e9578063a22cb46514610407576101da565b806323b872dd1161017c578063715018a61161014b578063715018a61461035757806372cd640b146103615780637403a42a1461039157806378176064146103af576101da565b806323b872dd146102bf57806342842e0e146102db5780636352211e146102f757806370a0823114610327576101da565b8063081812fc116101b8578063081812fc1461024b578063095ea7b31461027b57806309b55be1146102975780631243e795146102a1576101da565b80630148c3eb146101df57806301ffc9a7146101fd57806306fdde031461022d575b600080fd5b6101e76105dd565b6040516101f49190614399565b60405180910390f35b610217600480360381019061021291906135bc565b6105e3565b604051610224919061411e565b60405180910390f35b6102356106c5565b6040516102429190614139565b60405180910390f35b61026560048036038101906102609190613751565b610757565b60405161027291906140b7565b60405180910390f35b61029560048036038101906102909190613580565b6107dc565b005b61029f6108f4565b005b6102a9610b22565b6040516102b69190614399565b60405180910390f35b6102d960048036038101906102d4919061347a565b610bc6565b005b6102f560048036038101906102f0919061347a565b610c26565b005b610311600480360381019061030c9190613751565b610c46565b60405161031e91906140b7565b60405180910390f35b610341600480360381019061033c9190613415565b610cf8565b60405161034e9190614399565b60405180910390f35b61035f610db0565b005b61037b60048036038101906103769190613751565b610e38565b6040516103889190614399565b60405180910390f35b610399610ee0565b6040516103a69190614399565b60405180910390f35b6103c960048036038101906103c49190613653565b610ee6565b005b6103d36111a3565b6040516103e091906140b7565b60405180910390f35b6103f16111cd565b6040516103fe9190614139565b60405180910390f35b610421600480360381019061041c9190613544565b61125f565b005b61043d6004803603810190610438919061360e565b6113e0565b005b61045960048036038101906104549190613751565b61164d565b6040516104669190614139565b60405180910390f35b610489600480360381019061048491906134c9565b611760565b005b6104a560048036038101906104a09190613751565b6117c2565b6040516104b29190614139565b60405180910390f35b6104c3611869565b6040516104d09190614399565b60405180910390f35b6104f360048036038101906104ee9190613751565b61186f565b6040516105009190614139565b60405180910390f35b610511611922565b60405161051e9190614399565b60405180910390f35b61052f611928565b60405161053c9190614399565b60405180910390f35b61055f600480360381019061055a919061343e565b61192e565b60405161056c919061411e565b60405180910390f35b61058f600480360381019061058a9190613415565b6119c2565b005b6105ab60048036038101906105a691906136c8565b611aba565b005b6105c760048036038101906105c29190613751565b611d08565b6040516105d49190614399565b60405180910390f35b60085481565b60007f80ac58cd000000000000000000000000000000000000000000000000000000007bffffffffffffffffffffffffffffffffffffffffffffffffffffffff1916827bffffffffffffffffffffffffffffffffffffffffffffffffffffffff191614806106ae57507f5b5e139f000000000000000000000000000000000000000000000000000000007bffffffffffffffffffffffffffffffffffffffffffffffffffffffff1916827bffffffffffffffffffffffffffffffffffffffffffffffffffffffff1916145b806106be57506106bd82611db3565b5b9050919050565b6060600080546106d490614610565b80601f016020809104026020016040519081016040528092919081815260200182805461070090614610565b801561074d5780601f106107225761010080835404028352916020019161074d565b820191906000526020600020905b81548152906001019060200180831161073057829003601f168201915b5050505050905090565b600061076282611e1d565b6107a1576040517f08c379a0000000000000000000000000000000000000000000000000000000008152600401610798906142d9565b60405180910390fd5b6004600083815260200190815260200160002060009054906101000a900473ffffffffffffffffffffffffffffffffffffffff169050919050565b60006107e782610c46565b90508073ffffffffffffffffffffffffffffffffffffffff168373ffffffffffffffffffffffffffffffffffffffff161415610858576040517f08c379a000000000000000000000000000000000000000000000000000000000815260040161084f90614359565b60405180910390fd5b8073ffffffffffffffffffffffffffffffffffffffff16610877611e89565b73ffffffffffffffffffffffffffffffffffffffff1614806108a657506108a5816108a0611e89565b61192e565b5b6108e5576040517f08c379a00000000000000000000000000000000000000000000000000000000081526004016108dc90614259565b60405180910390fd5b6108ef8383611e91565b505050565b6000600b543344600e60006008548152602001908152602001600020600e6000600954815260200190815260200160002060075460405160200161093c959493929190613fd1565b6040516020818303038152906040528051906020012060001c61095f91906146b9565b9050600760008154809291906001019190505550604051806060016040528060106000848152602001908152602001600020805461099c90614610565b80601f01602080910402602001604051908101604052809291908181526020018280546109c890614610565b8015610a155780601f106109ea57610100808354040283529160200191610a15565b820191906000526020600020905b8154815290600101906020018083116109f857829003601f168201915b5050505050815260200142815260200182815250600f60003373ffffffffffffffffffffffffffffffffffffffff1673ffffffffffffffffffffffffffffffffffffffff1681526020019081526020016000206000820151816000019080519060200190610a84929190612eaf565b5060208201518160010155604082015181600201559050507f327d6a374f8090b23091020c38b12cfaaa21db5794125eb27cd26e122926871960106000838152602001908152602001600020600d60106000858152602001908152602001600020604051610af291906140a0565b90815260200160405180910390206001018054905033604051610b179392919061415b565b60405180910390a150565b600080601160003373ffffffffffffffffffffffffffffffffffffffff1673ffffffffffffffffffffffffffffffffffffffff1681526020019081526020016000208054905011610b7257600080fd5b6001601160003373ffffffffffffffffffffffffffffffffffffffff1673ffffffffffffffffffffffffffffffffffffffff16815260200190815260200160002080549050610bc19190614526565b905090565b610bd7610bd1611e89565b82611f4a565b610c16576040517f08c379a0000000000000000000000000000000000000000000000000000000008152600401610c0d90614379565b60405180910390fd5b610c21838383612028565b505050565b610c4183838360405180602001604052806000815250611760565b505050565b6000806002600084815260200190815260200160002060009054906101000a900473ffffffffffffffffffffffffffffffffffffffff169050600073ffffffffffffffffffffffffffffffffffffffff168173ffffffffffffffffffffffffffffffffffffffff161415610cef576040517f08c379a0000000000000000000000000000000000000000000000000000000008152600401610ce690614299565b60405180910390fd5b80915050919050565b60008073ffffffffffffffffffffffffffffffffffffffff168273ffffffffffffffffffffffffffffffffffffffff161415610d69576040517f08c379a0000000000000000000000000000000000000000000000000000000008152600401610d6090614279565b60405180910390fd5b600360008373ffffffffffffffffffffffffffffffffffffffff1673ffffffffffffffffffffffffffffffffffffffff168152602001908152602001600020549050919050565b610db8611e89565b73ffffffffffffffffffffffffffffffffffffffff16610dd66111a3565b73ffffffffffffffffffffffffffffffffffffffff1614610e2c576040517f08c379a0000000000000000000000000000000000000000000000000000000008152600401610e23906142f9565b60405180910390fd5b610e366000612284565b565b60006014601160003373ffffffffffffffffffffffffffffffffffffffff1673ffffffffffffffffffffffffffffffffffffffff1681526020019081526020016000208381548110610eb3577f4e487b7100000000000000000000000000000000000000000000000000000000600052603260045260246000fd5b90600052602060002001604051610eca91906140a0565b9081526020016040518091039020549050919050565b600c5481565b42611c20600f60003373ffffffffffffffffffffffffffffffffffffffff1673ffffffffffffffffffffffffffffffffffffffff16815260200190815260200160002060010154610f37919061449f565b11610f4157600080fd5b8383604051602001610f54929190614028565b60405160208183030381529060405280519060200120600f60003373ffffffffffffffffffffffffffffffffffffffff1673ffffffffffffffffffffffffffffffffffffffff168152602001908152602001600020600001604051602001610fbc91906140a0565b6040516020818303038152906040528051906020012014610fdc57600080fd5b610fe88282868661234a565b6003600d8383604051610ffc929190614028565b90815260200160405180910390206001018054905014156110265761102182826124a4565b61119d565b8181600e60006009548152602001908152602001600020919061104a929190612f35565b506009600081548092919060010191905055508383604051602001611070929190614028565b6040516020818303038152906040528051906020012060106000600f60003373ffffffffffffffffffffffffffffffffffffffff1673ffffffffffffffffffffffffffffffffffffffff1681526020019081526020016000206002015481526020019081526020016000206040516020016110eb91906140a0565b60405160208183030381529060405280519060200120141561119c57600e6000600854815260200190815260200160002060106000600f60003373ffffffffffffffffffffffffffffffffffffffff1673ffffffffffffffffffffffffffffffffffffffff16815260200190815260200160002060020154815260200190815260200160002090805461117d90614610565b611188929190612fbb565b506008600081548092919060010191905055505b5b50505050565b6000600660009054906101000a900473ffffffffffffffffffffffffffffffffffffffff16905090565b6060600180546111dc90614610565b80601f016020809104026020016040519081016040528092919081815260200182805461120890614610565b80156112555780601f1061122a57610100808354040283529160200191611255565b820191906000526020600020905b81548152906001019060200180831161123857829003601f168201915b5050505050905090565b611267611e89565b73ffffffffffffffffffffffffffffffffffffffff168273ffffffffffffffffffffffffffffffffffffffff1614156112d5576040517f08c379a00000000000000000000000000000000000000000000000000000000081526004016112cc90614219565b60405180910390fd5b80600560006112e2611e89565b73ffffffffffffffffffffffffffffffffffffffff1673ffffffffffffffffffffffffffffffffffffffff16815260200190815260200160002060008473ffffffffffffffffffffffffffffffffffffffff1673ffffffffffffffffffffffffffffffffffffffff16815260200190815260200160002060006101000a81548160ff0219169083151502179055508173ffffffffffffffffffffffffffffffffffffffff1661138f611e89565b73ffffffffffffffffffffffffffffffffffffffff167f17307eab39ab6107e8899845ad3d59bd9653f200f220920489ca2b5937696c31836040516113d4919061411e565b60405180910390a35050565b6113e8611e89565b73ffffffffffffffffffffffffffffffffffffffff166114066111a3565b73ffffffffffffffffffffffffffffffffffffffff161461145c576040517f08c379a0000000000000000000000000000000000000000000000000000000008152600401611453906142f9565b60405180910390fd5b606080604051806040016040528083815260200182815250600d8585604051611486929190614028565b908152602001604051809103902060008201518160000190805190602001906114b0929190613048565b5060208201518160010190805190602001906114cd9291906130a8565b50905050600d84846040516114e3929190614028565b908152602001604051809103902060000184849091806001815401808255809150506001900390600052602060002001600090919290919290919290919250919061152f929190612f35565b50600d8484604051611542929190614028565b9081526020016040518091039020600101339080600181540180825580915050600190039060005260206000200160009091909190916101000a81548173ffffffffffffffffffffffffffffffffffffffff021916908373ffffffffffffffffffffffffffffffffffffffff160217905550600b54600a54101561161057838360106000600a54815260200190815260200160002091906115e4929190612f35565b50600860008154809291906001019190505550600a600081548092919061160a90614642565b91905055505b8383600e600060095481526020019081526020016000209190611634929190612f35565b5060096000815480929190600101919050555050505050565b6060601160003373ffffffffffffffffffffffffffffffffffffffff1673ffffffffffffffffffffffffffffffffffffffff16815260200190815260200160002082815481106116c6577f4e487b7100000000000000000000000000000000000000000000000000000000600052603260045260246000fd5b9060005260206000200180546116db90614610565b80601f016020809104026020016040519081016040528092919081815260200182805461170790614610565b80156117545780601f1061172957610100808354040283529160200191611754565b820191906000526020600020905b81548152906001019060200180831161173757829003601f168201915b50505050509050919050565b61177161176b611e89565b83611f4a565b6117b0576040517f08c379a00000000000000000000000000000000000000000000000000000000081526004016117a790614379565b60405180910390fd5b6117bc84848484612899565b50505050565b60606117cd82611e1d565b61180c576040517f08c379a000000000000000000000000000000000000000000000000000000000815260040161180390614339565b60405180910390fd5b60006118166128f5565b905060008151116118365760405180602001604052806000815250611861565b806118408461290c565b60405160200161185192919061407c565b6040516020818303038152906040525b915050919050565b600a5481565b6060600c54821061187f57600080fd5b60126000838152602001908152602001600020805461189d90614610565b80601f01602080910402602001604051908101604052809291908181526020018280546118c990614610565b80156119165780601f106118eb57610100808354040283529160200191611916565b820191906000526020600020905b8154815290600101906020018083116118f957829003601f168201915b50505050509050919050565b60095481565b600b5481565b6000600560008473ffffffffffffffffffffffffffffffffffffffff1673ffffffffffffffffffffffffffffffffffffffff16815260200190815260200160002060008373ffffffffffffffffffffffffffffffffffffffff1673ffffffffffffffffffffffffffffffffffffffff16815260200190815260200160002060009054906101000a900460ff16905092915050565b6119ca611e89565b73ffffffffffffffffffffffffffffffffffffffff166119e86111a3565b73ffffffffffffffffffffffffffffffffffffffff1614611a3e576040517f08c379a0000000000000000000000000000000000000000000000000000000008152600401611a35906142f9565b60405180910390fd5b600073ffffffffffffffffffffffffffffffffffffffff168173ffffffffffffffffffffffffffffffffffffffff161415611aae576040517f08c379a0000000000000000000000000000000000000000000000000000000008152600401611aa5906141b9565b60405180910390fd5b611ab781612284565b50565b601160003373ffffffffffffffffffffffffffffffffffffffff1673ffffffffffffffffffffffffffffffffffffffff1681526020019081526020016000208181548110611b31577f4e487b7100000000000000000000000000000000000000000000000000000000600052603260045260246000fd5b90600052602060002001604051602001611b4b91906140a0565b604051602081830303815290604052805190602001208585604051602001611b74929190614028565b6040516020818303038152906040528051906020012014611b9457600080fd5b611ba08383878761234a565b611bac33600c54612ab9565b601160003373ffffffffffffffffffffffffffffffffffffffff1673ffffffffffffffffffffffffffffffffffffffff1681526020019081526020016000208181548110611c23577f4e487b7100000000000000000000000000000000000000000000000000000000600052603260045260246000fd5b906000526020600020016000611c399190613132565b828260126000600c5481526020019081526020016000209190611c5d929190612f35565b5060148585604051611c70929190614028565b90815260200160405180910390206000815480929190611c8f90614642565b91905055508484604051611ca4929190614028565b60405180910390207f2acd7bd8c19e16133f59b87545a8541c2cb2f98cc768abe3d15cdadd7e003d13600c548585604051611ce1939291906143b4565b60405180910390a2600c6000815480929190611cfc90614642565b91905055505050505050565b6000600c548210611d1857600080fd5b6014600d60126000858152602001908152602001600020604051611d3c91906140a0565b9081526020016040518091039020600001600281548110611d86577f4e487b7100000000000000000000000000000000000000000000000000000000600052603260045260246000fd5b90600052602060002001604051611d9d91906140a0565b9081526020016040518091039020549050919050565b60007f01ffc9a7000000000000000000000000000000000000000000000000000000007bffffffffffffffffffffffffffffffffffffffffffffffffffffffff1916827bffffffffffffffffffffffffffffffffffffffffffffffffffffffff1916149050919050565b60008073ffffffffffffffffffffffffffffffffffffffff166002600084815260200190815260200160002060009054906101000a900473ffffffffffffffffffffffffffffffffffffffff1673ffffffffffffffffffffffffffffffffffffffff1614159050919050565b600033905090565b816004600083815260200190815260200160002060006101000a81548173ffffffffffffffffffffffffffffffffffffffff021916908373ffffffffffffffffffffffffffffffffffffffff160217905550808273ffffffffffffffffffffffffffffffffffffffff16611f0483610c46565b73ffffffffffffffffffffffffffffffffffffffff167f8c5be1e5ebec7d5bd14f71427d1e84f3dd0314c0f7b2291e5b200ac8c7c3b92560405160405180910390a45050565b6000611f5582611e1d565b611f94576040517f08c379a0000000000000000000000000000000000000000000000000000000008152600401611f8b90614239565b60405180910390fd5b6000611f9f83610c46565b90508073ffffffffffffffffffffffffffffffffffffffff168473ffffffffffffffffffffffffffffffffffffffff16148061200e57508373ffffffffffffffffffffffffffffffffffffffff16611ff684610757565b73ffffffffffffffffffffffffffffffffffffffff16145b8061201f575061201e818561192e565b5b91505092915050565b8273ffffffffffffffffffffffffffffffffffffffff1661204882610c46565b73ffffffffffffffffffffffffffffffffffffffff161461209e576040517f08c379a000000000000000000000000000000000000000000000000000000000815260040161209590614319565b60405180910390fd5b600073ffffffffffffffffffffffffffffffffffffffff168273ffffffffffffffffffffffffffffffffffffffff16141561210e576040517f08c379a0000000000000000000000000000000000000000000000000000000008152600401612105906141f9565b60405180910390fd5b612119838383612ad7565b612124600082611e91565b6001600360008573ffffffffffffffffffffffffffffffffffffffff1673ffffffffffffffffffffffffffffffffffffffff16815260200190815260200160002060008282546121749190614526565b925050819055506001600360008473ffffffffffffffffffffffffffffffffffffffff1673ffffffffffffffffffffffffffffffffffffffff16815260200190815260200160002060008282546121cb919061449f565b92505081905550816002600083815260200190815260200160002060006101000a81548173ffffffffffffffffffffffffffffffffffffffff021916908373ffffffffffffffffffffffffffffffffffffffff160217905550808273ffffffffffffffffffffffffffffffffffffffff168473ffffffffffffffffffffffffffffffffffffffff167fddf252ad1be2c89b69c2b068fc378daa952ba7f163c4a11628f55a4df523b3ef60405160405180910390a4505050565b6000600660009054906101000a900473ffffffffffffffffffffffffffffffffffffffff16905081600660006101000a81548173ffffffffffffffffffffffffffffffffffffffff021916908373ffffffffffffffffffffffffffffffffffffffff1602179055508173ffffffffffffffffffffffffffffffffffffffff168173ffffffffffffffffffffffffffffffffffffffff167f8be0079c531659141344cd1fd0a4f28419497f9722a3daafe3b4186f6b6457e060405160405180910390a35050565b600d828260405161235c929190614028565b9081526020016040518091039020600d858560405161237c929190614028565b908152602001604051809103902060008201816000019080546123a0929190613172565b5060018201816001019080546123b79291906131da565b50905050600d84846040516123cd929190614028565b9081526020016040518091039020600001848490918060018154018082558091505060019003906000526020600020016000909192909192909192909192509190612419929190612f35565b50600d848460405161242c929190614028565b9081526020016040518091039020600101339080600181540180825580915050600190039060005260206000200160009091909190916101000a81548173ffffffffffffffffffffffffffffffffffffffff021916908373ffffffffffffffffffffffffffffffffffffffff16021790555050505050565b60005b60038110156125c35760116000600d85856040516124c6929190614028565b9081526020016040518091039020600101838154811061250f577f4e487b7100000000000000000000000000000000000000000000000000000000600052603260045260246000fd5b9060005260206000200160009054906101000a900473ffffffffffffffffffffffffffffffffffffffff1673ffffffffffffffffffffffffffffffffffffffff1673ffffffffffffffffffffffffffffffffffffffff1681526020019081526020016000208383909180600181540180825580915050600190039060005260206000200160009091929091929091929091925091906125af929190612f35565b5080806125bb90614642565b9150506124a7565b506013600d83836040516125d8929190614028565b9081526020016040518091039020600001600081548110612622577f4e487b7100000000000000000000000000000000000000000000000000000000600052603260045260246000fd5b9060005260206000200160405161263991906140a0565b908152602001604051809103902060009054906101000a900460ff16612800576000828260405160200161266e929190614041565b6040516020818303038152906040529050606080604051806040016040528083815260200182815250600d846040516126a79190614065565b908152602001604051809103902060008201518160000190805190602001906126d1929190613048565b5060208201518160010190805190602001906126ee9291906130a8565b509050508260106000600f60003373ffffffffffffffffffffffffffffffffffffffff1673ffffffffffffffffffffffffffffffffffffffff168152602001908152602001600020600201548152602001908152602001600020908051906020019061275b929190612eaf565b5060016013600d8787604051612772929190614028565b90815260200160405180910390206000016000815481106127bc577f4e487b7100000000000000000000000000000000000000000000000000000000600052603260045260246000fd5b906000526020600020016040516127d391906140a0565b908152602001604051809103902060006101000a81548160ff021916908315150217905550505050612895565b600e6000600854815260200190815260200160002060106000600f60003373ffffffffffffffffffffffffffffffffffffffff1673ffffffffffffffffffffffffffffffffffffffff16815260200190815260200160002060020154815260200190815260200160002090805461287690614610565b612881929190612fbb565b506008600081548092919060010191905055505b5050565b6128a4848484612028565b6128b084848484612adc565b6128ef576040517f08c379a00000000000000000000000000000000000000000000000000000000081526004016128e690614199565b60405180910390fd5b50505050565b606060405180602001604052806000815250905090565b60606000821415612954576040518060400160405280600181526020017f30000000000000000000000000000000000000000000000000000000000000008152509050612ab4565b600082905060005b6000821461298657808061296f90614642565b915050600a8261297f91906144f5565b915061295c565b60008167ffffffffffffffff8111156129c8577f4e487b7100000000000000000000000000000000000000000000000000000000600052604160045260246000fd5b6040519080825280601f01601f1916602001820160405280156129fa5781602001600182028036833780820191505090505b5090505b60008514612aad57600182612a139190614526565b9150600a85612a2291906146b9565b6030612a2e919061449f565b60f81b818381518110612a6a577f4e487b7100000000000000000000000000000000000000000000000000000000600052603260045260246000fd5b60200101907effffffffffffffffffffffffffffffffffffffffffffffffffffffffffffff1916908160001a905350600a85612aa691906144f5565b94506129fe565b8093505050505b919050565b612ad3828260405180602001604052806000815250612c73565b5050565b505050565b6000612afd8473ffffffffffffffffffffffffffffffffffffffff16612cce565b15612c66578373ffffffffffffffffffffffffffffffffffffffff1663150b7a02612b26611e89565b8786866040518563ffffffff1660e01b8152600401612b4894939291906140d2565b602060405180830381600087803b158015612b6257600080fd5b505af1925050508015612b9357506040513d601f19601f82011682018060405250810190612b9091906135e5565b60015b612c16573d8060008114612bc3576040519150601f19603f3d011682016040523d82523d6000602084013e612bc8565b606091505b50600081511415612c0e576040517f08c379a0000000000000000000000000000000000000000000000000000000008152600401612c0590614199565b60405180910390fd5b805181602001fd5b63150b7a0260e01b7bffffffffffffffffffffffffffffffffffffffffffffffffffffffff1916817bffffffffffffffffffffffffffffffffffffffffffffffffffffffff191614915050612c6b565b600190505b949350505050565b612c7d8383612ce1565b612c8a6000848484612adc565b612cc9576040517f08c379a0000000000000000000000000000000000000000000000000000000008152600401612cc090614199565b60405180910390fd5b505050565b600080823b905060008111915050919050565b600073ffffffffffffffffffffffffffffffffffffffff168273ffffffffffffffffffffffffffffffffffffffff161415612d51576040517f08c379a0000000000000000000000000000000000000000000000000000000008152600401612d48906142b9565b60405180910390fd5b612d5a81611e1d565b15612d9a576040517f08c379a0000000000000000000000000000000000000000000000000000000008152600401612d91906141d9565b60405180910390fd5b612da660008383612ad7565b6001600360008473ffffffffffffffffffffffffffffffffffffffff1673ffffffffffffffffffffffffffffffffffffffff1681526020019081526020016000206000828254612df6919061449f565b92505081905550816002600083815260200190815260200160002060006101000a81548173ffffffffffffffffffffffffffffffffffffffff021916908373ffffffffffffffffffffffffffffffffffffffff160217905550808273ffffffffffffffffffffffffffffffffffffffff16600073ffffffffffffffffffffffffffffffffffffffff167fddf252ad1be2c89b69c2b068fc378daa952ba7f163c4a11628f55a4df523b3ef60405160405180910390a45050565b828054612ebb90614610565b90600052602060002090601f016020900481019282612edd5760008555612f24565b82601f10612ef657805160ff1916838001178555612f24565b82800160010185558215612f24579182015b82811115612f23578251825591602001919060010190612f08565b5b509050612f31919061322c565b5090565b828054612f4190614610565b90600052602060002090601f016020900481019282612f635760008555612faa565b82601f10612f7c57803560ff1916838001178555612faa565b82800160010185558215612faa579182015b82811115612fa9578235825591602001919060010190612f8e565b5b509050612fb7919061322c565b5090565b828054612fc790614610565b90600052602060002090601f016020900481019282612fe95760008555613037565b82601f10612ffa5780548555613037565b8280016001018555821561303757600052602060002091601f016020900482015b8281111561303657825482559160010191906001019061301b565b5b509050613044919061322c565b5090565b828054828255906000526020600020908101928215613097579160200282015b82811115613096578251829080519060200190613086929190612eaf565b5091602001919060010190613068565b5b5090506130a49190613249565b5090565b828054828255906000526020600020908101928215613121579160200282015b828111156131205782518260006101000a81548173ffffffffffffffffffffffffffffffffffffffff021916908373ffffffffffffffffffffffffffffffffffffffff160217905550916020019190600101906130c8565b5b50905061312e919061322c565b5090565b50805461313e90614610565b6000825580601f10613150575061316f565b601f01602090049060005260206000209081019061316e919061322c565b5b50565b8280548282559060005260206000209081019282156131c95760005260206000209182015b828111156131c85782829080546131ad90614610565b6131b892919061326d565b5091600101919060010190613197565b5b5090506131d69190613249565b5090565b82805482825590600052602060002090810192821561321b5760005260206000209182015b8281111561321a5782548255916001019190600101906131ff565b5b509050613228919061322c565b5090565b5b8082111561324557600081600090555060010161322d565b5090565b5b8082111561326957600081816132609190613132565b5060010161324a565b5090565b82805461327990614610565b90600052602060002090601f01602090048101928261329b57600085556132e9565b82601f106132ac57805485556132e9565b828001600101855582156132e957600052602060002091601f016020900482015b828111156132e85782548255916001019190600101906132cd565b5b5090506132f6919061322c565b5090565b600061330d61330884614417565b6143e6565b90508281526020810184848401111561332557600080fd5b6133308482856145ce565b509392505050565b600081359050613347816147c4565b92915050565b60008135905061335c816147db565b92915050565b600081359050613371816147f2565b92915050565b600081519050613386816147f2565b92915050565b600082601f83011261339d57600080fd5b81356133ad8482602086016132fa565b91505092915050565b60008083601f8401126133c857600080fd5b8235905067ffffffffffffffff8111156133e157600080fd5b6020830191508360018202830111156133f957600080fd5b9250929050565b60008135905061340f81614809565b92915050565b60006020828403121561342757600080fd5b600061343584828501613338565b91505092915050565b6000806040838503121561345157600080fd5b600061345f85828601613338565b925050602061347085828601613338565b9150509250929050565b60008060006060848603121561348f57600080fd5b600061349d86828701613338565b93505060206134ae86828701613338565b92505060406134bf86828701613400565b9150509250925092565b600080600080608085870312156134df57600080fd5b60006134ed87828801613338565b94505060206134fe87828801613338565b935050604061350f87828801613400565b925050606085013567ffffffffffffffff81111561352c57600080fd5b6135388782880161338c565b91505092959194509250565b6000806040838503121561355757600080fd5b600061356585828601613338565b92505060206135768582860161334d565b9150509250929050565b6000806040838503121561359357600080fd5b60006135a185828601613338565b92505060206135b285828601613400565b9150509250929050565b6000602082840312156135ce57600080fd5b60006135dc84828501613362565b91505092915050565b6000602082840312156135f757600080fd5b600061360584828501613377565b91505092915050565b6000806020838503121561362157600080fd5b600083013567ffffffffffffffff81111561363b57600080fd5b613647858286016133b6565b92509250509250929050565b6000806000806040858703121561366957600080fd5b600085013567ffffffffffffffff81111561368357600080fd5b61368f878288016133b6565b9450945050602085013567ffffffffffffffff8111156136ae57600080fd5b6136ba878288016133b6565b925092505092959194509250565b6000806000806000606086880312156136e057600080fd5b600086013567ffffffffffffffff8111156136fa57600080fd5b613706888289016133b6565b9550955050602086013567ffffffffffffffff81111561372557600080fd5b613731888289016133b6565b9350935050604061374488828901613400565b9150509295509295909350565b60006020828403121561376357600080fd5b600061377184828501613400565b91505092915050565b6137838161455a565b82525050565b61379a6137958261455a565b61468b565b82525050565b6137a98161456c565b82525050565b60006137ba8261445c565b6137c48185614472565b93506137d48185602086016145dd565b6137dd816147a6565b840191505092915050565b60006137f48385614483565b93506138018385846145ce565b61380a836147a6565b840190509392505050565b60006138218385614494565b935061382e8385846145ce565b82840190509392505050565b600061384582614467565b61384f8185614483565b935061385f8185602086016145dd565b613868816147a6565b840191505092915050565b600061387e82614467565b6138888185614494565b93506138988185602086016145dd565b80840191505092915050565b600081546138b181614610565b6138bb8186614483565b945060018216600081146138d657600181146138e85761391b565b60ff198316865260208601935061391b565b6138f185614447565b60005b83811015613913578154818901526001820191506020810190506138f4565b808801955050505b50505092915050565b6000815461393181614610565b61393b8186614494565b9450600182166000811461395657600181146139675761399a565b60ff1983168652818601935061399a565b61397085614447565b60005b8381101561399257815481890152600182019150602081019050613973565b838801955050505b50505092915050565b60006139b0603283614483565b91507f4552433732313a207472616e7366657220746f206e6f6e20455243373231526560008301527f63656976657220696d706c656d656e74657200000000000000000000000000006020830152604082019050919050565b6000613a16602683614483565b91507f4f776e61626c653a206e6577206f776e657220697320746865207a65726f206160008301527f64647265737300000000000000000000000000000000000000000000000000006020830152604082019050919050565b6000613a7c601c83614483565b91507f4552433732313a20746f6b656e20616c7265616479206d696e746564000000006000830152602082019050919050565b6000613abc600383614494565b91507f30303000000000000000000000000000000000000000000000000000000000006000830152600382019050919050565b6000613afc602483614483565b91507f4552433732313a207472616e7366657220746f20746865207a65726f2061646460008301527f72657373000000000000000000000000000000000000000000000000000000006020830152604082019050919050565b6000613b62601983614483565b91507f4552433732313a20617070726f766520746f2063616c6c6572000000000000006000830152602082019050919050565b6000613ba2602c83614483565b91507f4552433732313a206f70657261746f7220717565727920666f72206e6f6e657860008301527f697374656e7420746f6b656e00000000000000000000000000000000000000006020830152604082019050919050565b6000613c08603883614483565b91507f4552433732313a20617070726f76652063616c6c6572206973206e6f74206f7760008301527f6e6572206e6f7220617070726f76656420666f7220616c6c00000000000000006020830152604082019050919050565b6000613c6e602a83614483565b91507f4552433732313a2062616c616e636520717565727920666f7220746865207a6560008301527f726f2061646472657373000000000000000000000000000000000000000000006020830152604082019050919050565b6000613cd4602983614483565b91507f4552433732313a206f776e657220717565727920666f72206e6f6e657869737460008301527f656e7420746f6b656e00000000000000000000000000000000000000000000006020830152604082019050919050565b6000613d3a602083614483565b91507f4552433732313a206d696e7420746f20746865207a65726f20616464726573736000830152602082019050919050565b6000613d7a602c83614483565b91507f4552433732313a20617070726f76656420717565727920666f72206e6f6e657860008301527f697374656e7420746f6b656e00000000000000000000000000000000000000006020830152604082019050919050565b6000613de0602083614483565b91507f4f776e61626c653a2063616c6c6572206973206e6f7420746865206f776e65726000830152602082019050919050565b6000613e20602983614483565b91507f4552433732313a207472616e73666572206f6620746f6b656e2074686174206960008301527f73206e6f74206f776e00000000000000000000000000000000000000000000006020830152604082019050919050565b6000613e86602f83614483565b91507f4552433732314d657461646174613a2055524920717565727920666f72206e6f60008301527f6e6578697374656e7420746f6b656e00000000000000000000000000000000006020830152604082019050919050565b6000613eec602183614483565b91507f4552433732313a20617070726f76616c20746f2063757272656e74206f776e6560008301527f72000000000000000000000000000000000000000000000000000000000000006020830152604082019050919050565b6000613f52603183614483565b91507f4552433732313a207472616e736665722063616c6c6572206973206e6f74206f60008301527f776e6572206e6f7220617070726f7665640000000000000000000000000000006020830152604082019050919050565b613fb4816145c4565b82525050565b613fcb613fc6826145c4565b6146af565b82525050565b6000613fdd8288613789565b601482019150613fed8287613fba565b602082019150613ffd8286613924565b91506140098285613924565b91506140158284613fba565b6020820191508190509695505050505050565b6000614035828486613815565b91508190509392505050565b600061404e828486613815565b915061405982613aaf565b91508190509392505050565b60006140718284613873565b915081905092915050565b60006140888285613873565b91506140948284613873565b91508190509392505050565b60006140ac8284613924565b915081905092915050565b60006020820190506140cc600083018461377a565b92915050565b60006080820190506140e7600083018761377a565b6140f4602083018661377a565b6141016040830185613fab565b818103606083015261411381846137af565b905095945050505050565b600060208201905061413360008301846137a0565b92915050565b60006020820190508181036000830152614153818461383a565b905092915050565b6000606082019050818103600083015261417581866138a4565b90506141846020830185613fab565b614191604083018461377a565b949350505050565b600060208201905081810360008301526141b2816139a3565b9050919050565b600060208201905081810360008301526141d281613a09565b9050919050565b600060208201905081810360008301526141f281613a6f565b9050919050565b6000602082019050818103600083015261421281613aef565b9050919050565b6000602082019050818103600083015261423281613b55565b9050919050565b6000602082019050818103600083015261425281613b95565b9050919050565b6000602082019050818103600083015261427281613bfb565b9050919050565b6000602082019050818103600083015261429281613c61565b9050919050565b600060208201905081810360008301526142b281613cc7565b9050919050565b600060208201905081810360008301526142d281613d2d565b9050919050565b600060208201905081810360008301526142f281613d6d565b9050919050565b6000602082019050818103600083015261431281613dd3565b9050919050565b6000602082019050818103600083015261433281613e13565b9050919050565b6000602082019050818103600083015261435281613e79565b9050919050565b6000602082019050818103600083015261437281613edf565b9050919050565b6000602082019050818103600083015261439281613f45565b9050919050565b60006020820190506143ae6000830184613fab565b92915050565b60006040820190506143c96000830186613fab565b81810360208301526143dc8184866137e8565b9050949350505050565b6000604051905081810181811067ffffffffffffffff8211171561440d5761440c614777565b5b8060405250919050565b600067ffffffffffffffff82111561443257614431614777565b5b601f19601f8301169050602081019050919050565b60008190508160005260206000209050919050565b600081519050919050565b600081519050919050565b600082825260208201905092915050565b600082825260208201905092915050565b600081905092915050565b60006144aa826145c4565b91506144b5836145c4565b9250827fffffffffffffffffffffffffffffffffffffffffffffffffffffffffffffffff038211156144ea576144e96146ea565b5b828201905092915050565b6000614500826145c4565b915061450b836145c4565b92508261451b5761451a614719565b5b828204905092915050565b6000614531826145c4565b915061453c836145c4565b92508282101561454f5761454e6146ea565b5b828203905092915050565b6000614565826145a4565b9050919050565b60008115159050919050565b60007fffffffff0000000000000000000000000000000000000000000000000000000082169050919050565b600073ffffffffffffffffffffffffffffffffffffffff82169050919050565b6000819050919050565b82818337600083830152505050565b60005b838110156145fb5780820151818401526020810190506145e0565b8381111561460a576000848401525b50505050565b6000600282049050600182168061462857607f821691505b6020821081141561463c5761463b614748565b5b50919050565b600061464d826145c4565b91507fffffffffffffffffffffffffffffffffffffffffffffffffffffffffffffffff8214156146805761467f6146ea565b5b600182019050919050565b60006146968261469d565b9050919050565b60006146a8826147b7565b9050919050565b6000819050919050565b60006146c4826145c4565b91506146cf836145c4565b9250826146df576146de614719565b5b828206905092915050565b7f4e487b7100000000000000000000000000000000000000000000000000000000600052601160045260246000fd5b7f4e487b7100000000000000000000000000000000000000000000000000000000600052601260045260246000fd5b7f4e487b7100000000000000000000000000000000000000000000000000000000600052602260045260246000fd5b7f4e487b7100000000000000000000000000000000000000000000000000000000600052604160045260246000fd5b6000601f19601f8301169050919050565b60008160601b9050919050565b6147cd8161455a565b81146147d857600080fd5b50565b6147e48161456c565b81146147ef57600080fd5b50565b6147fb81614578565b811461480657600080fd5b50565b614812816145c4565b811461481d57600080fd5b5056fea2646970667358221220bf1c9a7eb70aa531674fdf53ae76eb950dfc93c0640e3df9021a9e301a25205364736f6c63430008000033",
  "immutableReferences": {},
  "source": "// SPDX-License-Identifier: MIT\npragma solidity 0.8.0;\n\nimport \"../node_modules/@openzeppelin/contracts/token/ERC721/ERC721.sol\";\nimport \"../node_modules/@openzeppelin/contracts/access/Ownable.sol\";\n\n/// @title A writing game\n/// @author Mario Mazzaferro\ncontract FrankieTexts is ERC721, Ownable {\n\n    /// @dev Keeps track of the number of requestCid() calls.\n    uint256 private requestCounter;\n\n    /// @dev Keeps track of the number of CIDs fed in the deck mapping.\n    uint256 public feedCounter;\n\n    /// @dev Keeps track of the number of valid submitCid() calls.\n    uint256 public submitCounter;\n\n    /// @dev Keeps track of the number of plots seeded in the deck.\n    uint256 public deckCounter;\n\n    /// @dev Maximum size of the deck mapping.\n    uint256 public deckSize;\n\n    /// @dev Keeps track of the number of minted NFTs.\n    uint256 public frankieId;\n\n    /// @dev Fired upon requestText() call.\n    event RequestedCid(string chosenCid, uint256 writerNumber, address requester);\n\n    /// @dev Fired upon mintFrankie() call.\n    event MintedFrankie(uint nftId, string nftCid, string indexed thirdCid);\n\n    /// @dev Stores data of a Frankenstein Text.\n    struct Frankie {\n      string[] cids;\n      address[] writers;\n    }\n\n    /// @dev Stores temporary data of a Frankenstein Text being edited.\n    struct MiniFrankie {\n      string cid;\n      uint256 editSince;\n      uint256 deckNumber;\n    }\n\n    /// @dev Relates IPFS CIDs with Frankenstein Texts.\n    mapping(string => Frankie) private frankies;\n\n    /// @dev Cue order of IPFS CIDs from incomplete Frankenstein Texts.\n    mapping(uint256 => string) private cidOrder;\n\n    /// @dev Relates writer address and current editing Frankenstein Text.\n    mapping(address => MiniFrankie) private editing;\n\n    /// @dev Ordered IPFS CIDs that will be pseudo-randomly returned by requestCid().\n    mapping(uint256 => string) private deck;\n\n    /// @dev Relates writer address with its list of finished untitled Frankenstein Text's CIDs.\n    mapping(address => string[]) private untitledCids;\n\n    /// @dev Relates frankieId with its respective IPFS CID.\n    mapping(uint256 => string) private mintedCids;\n\n    /// @dev Keeps track of plots that have had at least one ramification finished.\n    mapping(string => bool) private plotEnded;\n\n    /// @dev Keeps track of 3rd CID's star number.\n    mapping(string => uint) private stars;\n\n    /// @dev Sets initial values.\n    constructor(uint _deckSize) ERC721(\"Frankies\", \"FKE\") {\n        requestCounter = 0;\n        feedCounter = 0;\n        submitCounter = 0;\n        deckCounter = 0;\n        frankieId = 0;\n        deckSize = _deckSize;\n    }\n\n    /// @dev Updates Frankenstein Text data stored in Frankie struct.\n    function _updateFrankie(string calldata newCid, string calldata oldCid) private {\n        frankies[newCid] = frankies[oldCid];\n        frankies[newCid].cids.push(newCid);\n        frankies[newCid].writers.push(msg.sender);\n    }\n\n    /// @dev Feeds finished Frankenstein Text into each writer's untitled list.\n    /// @dev Feeds a new CID into the deck to replace the finished Frankenstein Text's CID.\n    /// @dev If it's the first ramification of that plot to finish: feeds a blank plot CID.\n    /// @dev Else: feeds the next CID in the cidOrder cue.\n    function _endFrankie(string calldata newCid) private {\n      for (uint256 i = 0; i < 3; i++) {\n        untitledCids[frankies[newCid].writers[i]].push(newCid);\n      }\n      if(!plotEnded[frankies[newCid].cids[0]]) {\n        string memory startCid = string(abi.encodePacked(newCid, '000'));\n        string[] memory cids;\n        address[] memory writers;\n        frankies[startCid] = Frankie(cids, writers);\n        deck[editing[msg.sender].deckNumber] = startCid;\n        plotEnded[frankies[newCid].cids[0]] = true;\n      } else {\n        deck[editing[msg.sender].deckNumber] = cidOrder[feedCounter];\n        unchecked { feedCounter++; } \n        }\n    }\n\n    /// @dev Draws a pseudo-random CID from deck mapping.\n    /// @dev Sets pseudo-random CID to msg.sender in editing mapping.\n    function requestCid() external {\n      uint256 random = uint256(keccak256(abi.encodePacked(msg.sender, block.difficulty, cidOrder[feedCounter], cidOrder[submitCounter], requestCounter))) % deckSize;\n      unchecked { requestCounter++; }\n      editing[msg.sender] = MiniFrankie(deck[random], block.timestamp, random);\n      emit RequestedCid(deck[random], frankies[deck[random]].writers.length, msg.sender);\n    }\n\n    /// @dev Updates Frankenstein Text data through _updateFrankie().\n    /// @dev If the Frankie has 5 contributions: finalizes Frankenstein Text.\n    /// @dev Else: sets newCid in the end of cidOrder cue and if it's the first submited\n    /// @dev ramification of oldCid: substitutes it (in the deck) with the first CID of cidOrder cue.\n    function submitCid(string calldata oldCid, string calldata newCid) external {\n      require(editing[msg.sender].editSince + 2 hours > block.timestamp);\n      require(keccak256(abi.encodePacked(editing[msg.sender].cid)) == keccak256(abi.encodePacked(oldCid)));\n      _updateFrankie(newCid, oldCid);\n      if (frankies[newCid].writers.length == 3) {\n        _endFrankie(newCid);\n      } else {\n        cidOrder[submitCounter] = newCid;\n        unchecked { submitCounter++; }\n        if(keccak256(abi.encodePacked(deck[editing[msg.sender].deckNumber])) == keccak256(abi.encodePacked(oldCid))) {\n          deck[editing[msg.sender].deckNumber] = cidOrder[feedCounter];\n          unchecked { feedCounter++; }\n        }\n      }\n    }\n\n    /// @dev Checks if the untitled Frankenstein Text is still valid and is owned by the caller.\n    /// @dev Updates Frankenstein Text data through _updateFrankie().\n    /// @dev Mints Frankenstein Text NFT and delete respective untitled from untitledCids.\n    function mintFrankie(string calldata oldCid, string calldata newCid, uint untitledId) external {\n        require(keccak256(abi.encodePacked(oldCid)) == keccak256(abi.encodePacked(untitledCids[msg.sender][untitledId])));\n        _updateFrankie(newCid, oldCid);\n        _safeMint(msg.sender, frankieId);\n        delete untitledCids[msg.sender][untitledId];\n        mintedCids[frankieId] = newCid;\n        stars[oldCid]++;\n        emit MintedFrankie(frankieId, newCid, oldCid);\n        frankieId++;\n    }\n\n    /// @dev Returns NFT CID corresponding to the nftId parameter.\n    function mintedCidById(uint nftId) external view returns(string memory) {\n      require(nftId < frankieId);\n      return mintedCids[nftId];\n    }\n\n    /// @dev Returns NFT stars corresponding to the nftId parameter.\n    function starsById(uint nftId) external view returns(uint) {\n      require(nftId < frankieId);\n      return stars[frankies[mintedCids[nftId]].cids[2]];\n    }\n\n    /// @dev Returns newest untitledCid id for the caller.\n    function requestNewestUntitledId() external view returns(uint) {\n        require(untitledCids[msg.sender].length > 0);\n        return untitledCids[msg.sender].length - 1;\n    }\n\n    /// @dev Returns caller's untitled CID for that specific untitledId.\n    function requestUntitledCid(uint untitledId) external view returns(string memory) {\n        return untitledCids[msg.sender][untitledId];\n    }\n\n    /// @dev Returns caller's untitled stars for that specific untitledId.\n    function requestUntitledStars(uint untitledId) external view returns(uint) {\n        return stars[untitledCids[msg.sender][untitledId]];\n    }\n\n    /// @dev Checks if the caller is victor.\n    /// @dev Creates an new Frankie with the cid parameter.\n    /// @dev If the deck is incomplete: feeds cid into deck.\n    /// @dev Feeds cid in the cidOrder cue.\n    function seedPlot(string calldata cid) external onlyOwner() {\n        string[] memory cids;\n        address[] memory writers;\n        frankies[cid] = Frankie(cids, writers);\n        frankies[cid].cids.push(cid);\n        frankies[cid].writers.push(msg.sender);\n        if(deckCounter < deckSize) {\n          deck[deckCounter] = cid;\n          unchecked { feedCounter++; }\n          deckCounter++;\n        }\n        cidOrder[submitCounter] = cid;\n        unchecked { submitCounter++; }\n    }\n}",
  "sourcePath": "/home/mariomazzaferro/blockchain-developer-bootcamp-final-project/contracts/FrankieTexts.sol",
  "compiler": {
    "name": "solc",
    "version": "0.8.0+commit.c7dfd78e.Emscripten.clang"
  },
  "schemaVersion": "3.4.3",
  "updatedAt": "2021-11-13T18:50:35.489Z",
  "networkType": "ethereum",
  "devdoc": {
    "author": "Mario Mazzaferro",
    "events": {
      "MintedFrankie(uint256,string,string)": {
        "details": "Fired upon mintFrankie() call."
      },
      "RequestedCid(string,uint256,address)": {
        "details": "Fired upon requestText() call."
      }
    },
    "kind": "dev",
    "methods": {
      "approve(address,uint256)": {
        "details": "See {IERC721-approve}."
      },
      "balanceOf(address)": {
        "details": "See {IERC721-balanceOf}."
      },
      "constructor": {
        "details": "Sets initial values."
      },
      "getApproved(uint256)": {
        "details": "See {IERC721-getApproved}."
      },
      "isApprovedForAll(address,address)": {
        "details": "See {IERC721-isApprovedForAll}."
      },
      "mintFrankie(string,string,uint256)": {
        "details": "Checks if the untitled Frankenstein Text is still valid and is owned by the caller.Updates Frankenstein Text data through _updateFrankie().Mints Frankenstein Text NFT and delete respective untitled from untitledCids."
      },
      "mintedCidById(uint256)": {
        "details": "Returns NFT CID corresponding to the nftId parameter."
      },
      "name()": {
        "details": "See {IERC721Metadata-name}."
      },
      "owner()": {
        "details": "Returns the address of the current owner."
      },
      "ownerOf(uint256)": {
        "details": "See {IERC721-ownerOf}."
      },
      "renounceOwnership()": {
        "details": "Leaves the contract without owner. It will not be possible to call `onlyOwner` functions anymore. Can only be called by the current owner. NOTE: Renouncing ownership will leave the contract without an owner, thereby removing any functionality that is only available to the owner."
      },
      "requestCid()": {
        "details": "Draws a pseudo-random CID from deck mapping.Sets pseudo-random CID to msg.sender in editing mapping."
      },
      "requestNewestUntitledId()": {
        "details": "Returns newest untitledCid id for the caller."
      },
      "requestUntitledCid(uint256)": {
        "details": "Returns caller's untitled CID for that specific untitledId."
      },
      "requestUntitledStars(uint256)": {
        "details": "Returns caller's untitled stars for that specific untitledId."
      },
      "safeTransferFrom(address,address,uint256)": {
        "details": "See {IERC721-safeTransferFrom}."
      },
      "safeTransferFrom(address,address,uint256,bytes)": {
        "details": "See {IERC721-safeTransferFrom}."
      },
      "seedPlot(string)": {
        "details": "Checks if the caller is victor.Creates an new Frankie with the cid parameter.If the deck is incomplete: feeds cid into deck.Feeds cid in the cidOrder cue."
      },
      "setApprovalForAll(address,bool)": {
        "details": "See {IERC721-setApprovalForAll}."
      },
      "starsById(uint256)": {
        "details": "Returns NFT stars corresponding to the nftId parameter."
      },
      "submitCid(string,string)": {
        "details": "Updates Frankenstein Text data through _updateFrankie().If the Frankie has 5 contributions: finalizes Frankenstein Text.Else: sets newCid in the end of cidOrder cue and if it's the first submitedramification of oldCid: substitutes it (in the deck) with the first CID of cidOrder cue."
      },
      "supportsInterface(bytes4)": {
        "details": "See {IERC165-supportsInterface}."
      },
      "symbol()": {
        "details": "See {IERC721Metadata-symbol}."
      },
      "tokenURI(uint256)": {
        "details": "See {IERC721Metadata-tokenURI}."
      },
      "transferFrom(address,address,uint256)": {
        "details": "See {IERC721-transferFrom}."
      },
      "transferOwnership(address)": {
        "details": "Transfers ownership of the contract to a new account (`newOwner`). Can only be called by the current owner."
      }
    },
    "stateVariables": {
      "cidOrder": {
        "details": "Cue order of IPFS CIDs from incomplete Frankenstein Texts."
      },
      "deck": {
        "details": "Ordered IPFS CIDs that will be pseudo-randomly returned by requestCid()."
      },
      "deckCounter": {
        "details": "Keeps track of the number of plots seeded in the deck."
      },
      "deckSize": {
        "details": "Maximum size of the deck mapping."
      },
      "editing": {
        "details": "Relates writer address and current editing Frankenstein Text."
      },
      "feedCounter": {
        "details": "Keeps track of the number of CIDs fed in the deck mapping."
      },
      "frankieId": {
        "details": "Keeps track of the number of minted NFTs."
      },
      "frankies": {
        "details": "Relates IPFS CIDs with Frankenstein Texts."
      },
      "mintedCids": {
        "details": "Relates frankieId with its respective IPFS CID."
      },
      "plotEnded": {
        "details": "Keeps track of plots that have had at least one ramification finished."
      },
      "requestCounter": {
        "details": "Keeps track of the number of requestCid() calls."
      },
      "stars": {
        "details": "Keeps track of 3rd CID's star number."
      },
      "submitCounter": {
        "details": "Keeps track of the number of valid submitCid() calls."
      },
      "untitledCids": {
        "details": "Relates writer address with its list of finished untitled Frankenstein Text's CIDs."
      }
    },
    "title": "A writing game",
    "version": 1
  },
  "userdoc": {
    "kind": "user",
    "methods": {},
    "version": 1
  }
}