{
  "contractName": "FrankieTexts",
  "abi": [
    {
      "inputs": [],
      "stateMutability": "nonpayable",
      "type": "constructor"
    },
    {
      "anonymous": false,
      "inputs": [
        {
          "indexed": true,
          "internalType": "address",
          "name": "owner",
          "type": "address"
        },
        {
          "indexed": true,
          "internalType": "address",
          "name": "approved",
          "type": "address"
        },
        {
          "indexed": true,
          "internalType": "uint256",
          "name": "tokenId",
          "type": "uint256"
        }
      ],
      "name": "Approval",
      "type": "event"
    },
    {
      "anonymous": false,
      "inputs": [
        {
          "indexed": true,
          "internalType": "address",
          "name": "owner",
          "type": "address"
        },
        {
          "indexed": true,
          "internalType": "address",
          "name": "operator",
          "type": "address"
        },
        {
          "indexed": false,
          "internalType": "bool",
          "name": "approved",
          "type": "bool"
        }
      ],
      "name": "ApprovalForAll",
      "type": "event"
    },
    {
      "anonymous": false,
      "inputs": [
        {
          "indexed": false,
          "internalType": "uint256",
          "name": "nftId",
          "type": "uint256"
        },
        {
          "indexed": false,
          "internalType": "string",
          "name": "nftCid",
          "type": "string"
        }
      ],
      "name": "MintedFrankie",
      "type": "event"
    },
    {
      "anonymous": false,
      "inputs": [
        {
          "indexed": false,
          "internalType": "string",
          "name": "chosenCid",
          "type": "string"
        }
      ],
      "name": "RequestedText",
      "type": "event"
    },
    {
      "anonymous": false,
      "inputs": [
        {
          "indexed": true,
          "internalType": "address",
          "name": "from",
          "type": "address"
        },
        {
          "indexed": true,
          "internalType": "address",
          "name": "to",
          "type": "address"
        },
        {
          "indexed": true,
          "internalType": "uint256",
          "name": "tokenId",
          "type": "uint256"
        }
      ],
      "name": "Transfer",
      "type": "event"
    },
    {
      "inputs": [
        {
          "internalType": "address",
          "name": "to",
          "type": "address"
        },
        {
          "internalType": "uint256",
          "name": "tokenId",
          "type": "uint256"
        }
      ],
      "name": "approve",
      "outputs": [],
      "stateMutability": "nonpayable",
      "type": "function"
    },
    {
      "inputs": [
        {
          "internalType": "address",
          "name": "owner",
          "type": "address"
        }
      ],
      "name": "balanceOf",
      "outputs": [
        {
          "internalType": "uint256",
          "name": "",
          "type": "uint256"
        }
      ],
      "stateMutability": "view",
      "type": "function",
      "constant": true
    },
    {
      "inputs": [],
      "name": "deckCounter",
      "outputs": [
        {
          "internalType": "uint256",
          "name": "",
          "type": "uint256"
        }
      ],
      "stateMutability": "view",
      "type": "function",
      "constant": true
    },
    {
      "inputs": [],
      "name": "deckSize",
      "outputs": [
        {
          "internalType": "uint256",
          "name": "",
          "type": "uint256"
        }
      ],
      "stateMutability": "view",
      "type": "function",
      "constant": true
    },
    {
      "inputs": [],
      "name": "feedCounter",
      "outputs": [
        {
          "internalType": "uint256",
          "name": "",
          "type": "uint256"
        }
      ],
      "stateMutability": "view",
      "type": "function",
      "constant": true
    },
    {
      "inputs": [],
      "name": "frankieId",
      "outputs": [
        {
          "internalType": "uint256",
          "name": "",
          "type": "uint256"
        }
      ],
      "stateMutability": "view",
      "type": "function",
      "constant": true
    },
    {
      "inputs": [
        {
          "internalType": "string",
          "name": "",
          "type": "string"
        }
      ],
      "name": "frankies",
      "outputs": [
        {
          "internalType": "uint256",
          "name": "endedSince",
          "type": "uint256"
        }
      ],
      "stateMutability": "view",
      "type": "function",
      "constant": true
    },
    {
      "inputs": [
        {
          "internalType": "uint256",
          "name": "tokenId",
          "type": "uint256"
        }
      ],
      "name": "getApproved",
      "outputs": [
        {
          "internalType": "address",
          "name": "",
          "type": "address"
        }
      ],
      "stateMutability": "view",
      "type": "function",
      "constant": true
    },
    {
      "inputs": [
        {
          "internalType": "address",
          "name": "owner",
          "type": "address"
        },
        {
          "internalType": "address",
          "name": "operator",
          "type": "address"
        }
      ],
      "name": "isApprovedForAll",
      "outputs": [
        {
          "internalType": "bool",
          "name": "",
          "type": "bool"
        }
      ],
      "stateMutability": "view",
      "type": "function",
      "constant": true
    },
    {
      "inputs": [
        {
          "internalType": "uint256",
          "name": "",
          "type": "uint256"
        }
      ],
      "name": "mintedCids",
      "outputs": [
        {
          "internalType": "string",
          "name": "",
          "type": "string"
        }
      ],
      "stateMutability": "view",
      "type": "function",
      "constant": true
    },
    {
      "inputs": [],
      "name": "name",
      "outputs": [
        {
          "internalType": "string",
          "name": "",
          "type": "string"
        }
      ],
      "stateMutability": "view",
      "type": "function",
      "constant": true
    },
    {
      "inputs": [
        {
          "internalType": "uint256",
          "name": "tokenId",
          "type": "uint256"
        }
      ],
      "name": "ownerOf",
      "outputs": [
        {
          "internalType": "address",
          "name": "",
          "type": "address"
        }
      ],
      "stateMutability": "view",
      "type": "function",
      "constant": true
    },
    {
      "inputs": [
        {
          "internalType": "address",
          "name": "from",
          "type": "address"
        },
        {
          "internalType": "address",
          "name": "to",
          "type": "address"
        },
        {
          "internalType": "uint256",
          "name": "tokenId",
          "type": "uint256"
        }
      ],
      "name": "safeTransferFrom",
      "outputs": [],
      "stateMutability": "nonpayable",
      "type": "function"
    },
    {
      "inputs": [
        {
          "internalType": "address",
          "name": "from",
          "type": "address"
        },
        {
          "internalType": "address",
          "name": "to",
          "type": "address"
        },
        {
          "internalType": "uint256",
          "name": "tokenId",
          "type": "uint256"
        },
        {
          "internalType": "bytes",
          "name": "_data",
          "type": "bytes"
        }
      ],
      "name": "safeTransferFrom",
      "outputs": [],
      "stateMutability": "nonpayable",
      "type": "function"
    },
    {
      "inputs": [
        {
          "internalType": "address",
          "name": "operator",
          "type": "address"
        },
        {
          "internalType": "bool",
          "name": "approved",
          "type": "bool"
        }
      ],
      "name": "setApprovalForAll",
      "outputs": [],
      "stateMutability": "nonpayable",
      "type": "function"
    },
    {
      "inputs": [],
      "name": "submitCounter",
      "outputs": [
        {
          "internalType": "uint256",
          "name": "",
          "type": "uint256"
        }
      ],
      "stateMutability": "view",
      "type": "function",
      "constant": true
    },
    {
      "inputs": [
        {
          "internalType": "bytes4",
          "name": "interfaceId",
          "type": "bytes4"
        }
      ],
      "name": "supportsInterface",
      "outputs": [
        {
          "internalType": "bool",
          "name": "",
          "type": "bool"
        }
      ],
      "stateMutability": "view",
      "type": "function",
      "constant": true
    },
    {
      "inputs": [],
      "name": "symbol",
      "outputs": [
        {
          "internalType": "string",
          "name": "",
          "type": "string"
        }
      ],
      "stateMutability": "view",
      "type": "function",
      "constant": true
    },
    {
      "inputs": [
        {
          "internalType": "uint256",
          "name": "tokenId",
          "type": "uint256"
        }
      ],
      "name": "tokenURI",
      "outputs": [
        {
          "internalType": "string",
          "name": "",
          "type": "string"
        }
      ],
      "stateMutability": "view",
      "type": "function",
      "constant": true
    },
    {
      "inputs": [
        {
          "internalType": "address",
          "name": "from",
          "type": "address"
        },
        {
          "internalType": "address",
          "name": "to",
          "type": "address"
        },
        {
          "internalType": "uint256",
          "name": "tokenId",
          "type": "uint256"
        }
      ],
      "name": "transferFrom",
      "outputs": [],
      "stateMutability": "nonpayable",
      "type": "function"
    },
    {
      "inputs": [
        {
          "internalType": "address",
          "name": "",
          "type": "address"
        }
      ],
      "name": "untitledCounter",
      "outputs": [
        {
          "internalType": "uint256",
          "name": "",
          "type": "uint256"
        }
      ],
      "stateMutability": "view",
      "type": "function",
      "constant": true
    },
    {
      "inputs": [
        {
          "internalType": "address",
          "name": "",
          "type": "address"
        },
        {
          "internalType": "uint256",
          "name": "",
          "type": "uint256"
        }
      ],
      "name": "untitledTexts",
      "outputs": [
        {
          "internalType": "string",
          "name": "",
          "type": "string"
        }
      ],
      "stateMutability": "view",
      "type": "function",
      "constant": true
    },
    {
      "inputs": [],
      "name": "victor",
      "outputs": [
        {
          "internalType": "address",
          "name": "",
          "type": "address"
        }
      ],
      "stateMutability": "view",
      "type": "function",
      "constant": true
    },
    {
      "inputs": [],
      "name": "requestText",
      "outputs": [],
      "stateMutability": "nonpayable",
      "type": "function"
    },
    {
      "inputs": [
        {
          "internalType": "string",
          "name": "oldCid",
          "type": "string"
        },
        {
          "internalType": "string",
          "name": "newCid",
          "type": "string"
        }
      ],
      "name": "submitText",
      "outputs": [],
      "stateMutability": "nonpayable",
      "type": "function"
    },
    {
      "inputs": [
        {
          "internalType": "string",
          "name": "oldCid",
          "type": "string"
        },
        {
          "internalType": "string",
          "name": "newCid",
          "type": "string"
        }
      ],
      "name": "mintFrankie",
      "outputs": [],
      "stateMutability": "nonpayable",
      "type": "function"
    },
    {
      "inputs": [],
      "name": "requestUntitled",
      "outputs": [
        {
          "internalType": "string",
          "name": "",
          "type": "string"
        }
      ],
      "stateMutability": "view",
      "type": "function",
      "constant": true
    },
    {
      "inputs": [],
      "name": "discardUntitled",
      "outputs": [],
      "stateMutability": "nonpayable",
      "type": "function"
    },
    {
      "inputs": [
        {
          "internalType": "string",
          "name": "cid",
          "type": "string"
        }
      ],
      "name": "seedPlot",
      "outputs": [],
      "stateMutability": "nonpayable",
      "type": "function"
    },
    {
      "inputs": [
        {
          "internalType": "uint256",
          "name": "newSize",
          "type": "uint256"
        }
      ],
      "name": "setDeckSize",
      "outputs": [],
      "stateMutability": "nonpayable",
      "type": "function"
    }
  ],
  "bytecode": "0x60806040523480156200001157600080fd5b506040518060400160405280600881526020017f4672616e6b6965730000000000000000000000000000000000000000000000008152506040518060400160405280600381526020017f464b45000000000000000000000000000000000000000000000000000000000081525081600090805190602001906200009692919062000121565b508060019080519060200190620000af92919062000121565b50505060006006819055506000600781905550600060088190555060646009819055506000600a8190555033600b60006101000a81548173ffffffffffffffffffffffffffffffffffffffff021916908373ffffffffffffffffffffffffffffffffffffffff16021790555062000236565b8280546200012f90620001d1565b90600052602060002090601f0160209004810192826200015357600085556200019f565b82601f106200016e57805160ff19168380011785556200019f565b828001600101855582156200019f579182015b828111156200019e57825182559160200191906001019062000181565b5b509050620001ae9190620001b2565b5090565b5b80821115620001cd576000816000905550600101620001b3565b5090565b60006002820490506001821680620001ea57607f821691505b6020821081141562000201576200020062000207565b5b50919050565b7f4e487b7100000000000000000000000000000000000000000000000000000000600052602260045260246000fd5b61459d80620002466000396000f3fe608060405234801561001057600080fd5b50600436106101da5760003560e01c806384478ad311610104578063b88d4fde116100a2578063dde2ae4811610071578063dde2ae4814610555578063e985e9c514610573578063ef06b902146105a3578063fb5556b9146105ad576101da565b8063b88d4fde146104cd578063c87b56dd146104e9578063d40cf78a14610519578063d812da2714610537576101da565b80639a791cb3116100de5780639a791cb31461045b578063a22cb46514610477578063ae52bc9714610493578063b17de4af146104b1576101da565b806384478ad3146103dd5780638ffd2b771461040d57806395d89b411461043d576101da565b80631e0ddc2a1161017c5780634ee069b81161014b5780634ee069b81461032f5780636352211e1461035f57806370a082311461038f5780637403a42a146103bf576101da565b80631e0ddc2a146102bd57806323b872dd146102d95780632c5bbc5c146102f557806342842e0e14610313576101da565b8063081812fc116101b8578063081812fc1461024b578063095ea7b31461027b5780631415f1e7146102975780631d10b430146102a1576101da565b80630148c3eb146101df57806301ffc9a7146101fd57806306fdde031461022d575b600080fd5b6101e76105dd565b6040516101f491906140e1565b60405180910390f35b61021760048036038101906102129190613476565b6105e3565b6040516102249190613ec2565b60405180910390f35b6102356106c5565b6040516102429190613edd565b60405180910390f35b610265600480360381019061026091906135c3565b610757565b6040516102729190613e5b565b60405180910390f35b6102956004803603810190610290919061343a565b6107dc565b005b61029f6108f4565b005b6102bb60048036038101906102b6919061350d565b610ad1565b005b6102d760048036038101906102d291906135c3565b610ced565b005b6102f360048036038101906102ee9190613334565b610d51565b005b6102fd610db1565b60405161030a9190613edd565b60405180910390f35b61032d60048036038101906103289190613334565b610f8e565b005b610349600480360381019061034491906135c3565b610fae565b6040516103569190613edd565b60405180910390f35b610379600480360381019061037491906135c3565b61104e565b6040516103869190613e5b565b60405180910390f35b6103a960048036038101906103a491906132cf565b611100565b6040516103b691906140e1565b60405180910390f35b6103c76111b8565b6040516103d491906140e1565b60405180910390f35b6103f760048036038101906103f2919061343a565b6111be565b6040516104049190613edd565b60405180910390f35b61042760048036038101906104229190613582565b611277565b60405161043491906140e1565b60405180910390f35b6104456112ab565b6040516104529190613edd565b60405180910390f35b6104756004803603810190610470919061350d565b61133d565b005b610491600480360381019061048c91906133fe565b6115fe565b005b61049b61177f565b6040516104a89190613e5b565b60405180910390f35b6104cb60048036038101906104c691906134c8565b6117a5565b005b6104e760048036038101906104e29190613383565b6119dd565b005b61050360048036038101906104fe91906135c3565b611a3f565b6040516105109190613edd565b60405180910390f35b610521611ae6565b60405161052e91906140e1565b60405180910390f35b61053f611aec565b60405161054c91906140e1565b60405180910390f35b61055d611af2565b60405161056a91906140e1565b60405180910390f35b61058d600480360381019061058891906132f8565b611af8565b60405161059a9190613ec2565b60405180910390f35b6105ab611b8c565b005b6105c760048036038101906105c291906132cf565b611c70565b6040516105d491906140e1565b60405180910390f35b60065481565b60007f80ac58cd000000000000000000000000000000000000000000000000000000007bffffffffffffffffffffffffffffffffffffffffffffffffffffffff1916827bffffffffffffffffffffffffffffffffffffffffffffffffffffffff191614806106ae57507f5b5e139f000000000000000000000000000000000000000000000000000000007bffffffffffffffffffffffffffffffffffffffffffffffffffffffff1916827bffffffffffffffffffffffffffffffffffffffffffffffffffffffff1916145b806106be57506106bd82611c88565b5b9050919050565b6060600080546106d490614388565b80601f016020809104026020016040519081016040528092919081815260200182805461070090614388565b801561074d5780601f106107225761010080835404028352916020019161074d565b820191906000526020600020905b81548152906001019060200180831161073057829003601f168201915b5050505050905090565b600061076282611cf2565b6107a1576040517f08c379a000000000000000000000000000000000000000000000000000000000815260040161079890614041565b60405180910390fd5b6004600083815260200190815260200160002060009054906101000a900473ffffffffffffffffffffffffffffffffffffffff169050919050565b60006107e78261104e565b90508073ffffffffffffffffffffffffffffffffffffffff168373ffffffffffffffffffffffffffffffffffffffff161415610858576040517f08c379a000000000000000000000000000000000000000000000000000000000815260040161084f906140a1565b60405180910390fd5b8073ffffffffffffffffffffffffffffffffffffffff16610877611d5e565b73ffffffffffffffffffffffffffffffffffffffff1614806108a657506108a5816108a0611d5e565b611af8565b5b6108e5576040517f08c379a00000000000000000000000000000000000000000000000000000000081526004016108dc90613fc1565b60405180910390fd5b6108ef8383611d66565b505050565b600060644442600d60006006548152602001908152602001600020600d600060075481526020019081526020016000206040516020016109379493929190613e15565b6040516020818303038152906040528051906020012060001c61095a919061440d565b90506040518060600160405280600f6000848152602001908152602001600020805461098590614388565b80601f01602080910402602001604051908101604052809291908181526020018280546109b190614388565b80156109fe5780601f106109d3576101008083540402835291602001916109fe565b820191906000526020600020905b8154815290600101906020018083116109e157829003601f168201915b5050505050815260200142815260200182815250600e60003373ffffffffffffffffffffffffffffffffffffffff1673ffffffffffffffffffffffffffffffffffffffff1681526020019081526020016000206000820151816000019080519060200190610a6d929190612d01565b5060208201518160010155604082015181600201559050507fe067647a4b2d21f4376d40bbedfcd7a79c39f8ada5141f685ad509fb07749c8c600f6000838152602001908152602001600020604051610ac69190613eff565b60405180910390a150565b426203f480600c8686604051610ae8929190613d86565b908152602001604051809103902060020154610b049190614217565b11610b0e57600080fd5b600080600090505b6005811015610bf057600c8686604051610b31929190613d86565b90815260200160405180910390206001018181548110610b7a577f4e487b7100000000000000000000000000000000000000000000000000000000600052603260045260246000fd5b9060005260206000200160009054906101000a900473ffffffffffffffffffffffffffffffffffffffff1673ffffffffffffffffffffffffffffffffffffffff163373ffffffffffffffffffffffffffffffffffffffff161415610bdd57600191505b8080610be8906143ba565b915050610b16565b506001905080610bff57600080fd5b610c0b83838787611e1f565b601160003373ffffffffffffffffffffffffffffffffffffffff1673ffffffffffffffffffffffffffffffffffffffff1681526020019081526020016000206000815480929190610c5b906143ba565b9190505550600a6000815480929190610c73906143ba565b9190505550610c8433600a54611f83565b828260126000600a5481526020019081526020016000209190610ca8929190612d87565b507f22f1a4c231d55f64bab6355b1f1f7137edc522fea2f774a252ba1a0219eac206600a548484604051610cde939291906140fc565b60405180910390a15050505050565b600b60009054906101000a900473ffffffffffffffffffffffffffffffffffffffff1673ffffffffffffffffffffffffffffffffffffffff163373ffffffffffffffffffffffffffffffffffffffff1614610d4757600080fd5b8060098190555050565b610d62610d5c611d5e565b82611fa1565b610da1576040517f08c379a0000000000000000000000000000000000000000000000000000000008152600401610d98906140c1565b60405180910390fd5b610dac83838361207f565b505050565b6060601160003373ffffffffffffffffffffffffffffffffffffffff1673ffffffffffffffffffffffffffffffffffffffff16815260200190815260200160002054601060003373ffffffffffffffffffffffffffffffffffffffff1673ffffffffffffffffffffffffffffffffffffffff1681526020019081526020016000208054905011610e4057600080fd5b601060003373ffffffffffffffffffffffffffffffffffffffff1673ffffffffffffffffffffffffffffffffffffffff168152602001908152602001600020601160003373ffffffffffffffffffffffffffffffffffffffff1673ffffffffffffffffffffffffffffffffffffffff1681526020019081526020016000205481548110610ef6577f4e487b7100000000000000000000000000000000000000000000000000000000600052603260045260246000fd5b906000526020600020018054610f0b90614388565b80601f0160208091040260200160405190810160405280929190818152602001828054610f3790614388565b8015610f845780601f10610f5957610100808354040283529160200191610f84565b820191906000526020600020905b815481529060010190602001808311610f6757829003601f168201915b5050505050905090565b610fa9838383604051806020016040528060008152506119dd565b505050565b60126020528060005260406000206000915090508054610fcd90614388565b80601f0160208091040260200160405190810160405280929190818152602001828054610ff990614388565b80156110465780601f1061101b57610100808354040283529160200191611046565b820191906000526020600020905b81548152906001019060200180831161102957829003601f168201915b505050505081565b6000806002600084815260200190815260200160002060009054906101000a900473ffffffffffffffffffffffffffffffffffffffff169050600073ffffffffffffffffffffffffffffffffffffffff168173ffffffffffffffffffffffffffffffffffffffff1614156110f7576040517f08c379a00000000000000000000000000000000000000000000000000000000081526004016110ee90614001565b60405180910390fd5b80915050919050565b60008073ffffffffffffffffffffffffffffffffffffffff168273ffffffffffffffffffffffffffffffffffffffff161415611171576040517f08c379a000000000000000000000000000000000000000000000000000000000815260040161116890613fe1565b60405180910390fd5b600360008373ffffffffffffffffffffffffffffffffffffffff1673ffffffffffffffffffffffffffffffffffffffff168152602001908152602001600020549050919050565b600a5481565b601060205281600052604060002081815481106111da57600080fd5b906000526020600020016000915091505080546111f690614388565b80601f016020809104026020016040519081016040528092919081815260200182805461122290614388565b801561126f5780601f106112445761010080835404028352916020019161126f565b820191906000526020600020905b81548152906001019060200180831161125257829003601f168201915b505050505081565b600c818051602081018201805184825260208301602085012081835280955050505050506000915090508060020154905081565b6060600180546112ba90614388565b80601f01602080910402602001604051908101604052809291908181526020018280546112e690614388565b80156113335780601f1061130857610100808354040283529160200191611333565b820191906000526020600020905b81548152906001019060200180831161131657829003601f168201915b5050505050905090565b83838181604051602001611352929190613d86565b60405160208183030381529060405280519060200120600e60003373ffffffffffffffffffffffffffffffffffffffff1673ffffffffffffffffffffffffffffffffffffffff1681526020019081526020016000206000016040516020016113ba9190613dfe565b60405160208183030381529060405280519060200120146113da57600080fd5b42611c20600e60003373ffffffffffffffffffffffffffffffffffffffff1673ffffffffffffffffffffffffffffffffffffffff1681526020019081526020016000206001015461142b9190614217565b1161143557600080fd5b61144184848888611e1f565b6005600c8585604051611455929190613d86565b908152602001604051809103902060010180549050141561147f5761147a84846122db565b6115f6565b8383600d6000600754815260200190815260200160002091906114a3929190612d87565b5060076000815480929190600101919050555085856040516020016114c9929190613d86565b60405160208183030381529060405280519060200120600f6000600e60003373ffffffffffffffffffffffffffffffffffffffff1673ffffffffffffffffffffffffffffffffffffffff1681526020019081526020016000206002015481526020019081526020016000206040516020016115449190613dfe565b6040516020818303038152906040528051906020012014156115f557600d60006006548152602001908152602001600020600f6000600e60003373ffffffffffffffffffffffffffffffffffffffff1673ffffffffffffffffffffffffffffffffffffffff1681526020019081526020016000206002015481526020019081526020016000209080546115d690614388565b6115e1929190612e0d565b506006600081548092919060010191905055505b5b505050505050565b611606611d5e565b73ffffffffffffffffffffffffffffffffffffffff168273ffffffffffffffffffffffffffffffffffffffff161415611674576040517f08c379a000000000000000000000000000000000000000000000000000000000815260040161166b90613f81565b60405180910390fd5b8060056000611681611d5e565b73ffffffffffffffffffffffffffffffffffffffff1673ffffffffffffffffffffffffffffffffffffffff16815260200190815260200160002060008473ffffffffffffffffffffffffffffffffffffffff1673ffffffffffffffffffffffffffffffffffffffff16815260200190815260200160002060006101000a81548160ff0219169083151502179055508173ffffffffffffffffffffffffffffffffffffffff1661172e611d5e565b73ffffffffffffffffffffffffffffffffffffffff167f17307eab39ab6107e8899845ad3d59bd9653f200f220920489ca2b5937696c31836040516117739190613ec2565b60405180910390a35050565b600b60009054906101000a900473ffffffffffffffffffffffffffffffffffffffff1681565b600b60009054906101000a900473ffffffffffffffffffffffffffffffffffffffff1673ffffffffffffffffffffffffffffffffffffffff163373ffffffffffffffffffffffffffffffffffffffff16146117ff57600080fd5b60608060405180606001604052808381526020018281526020016000815250600c8585604051611830929190613d86565b9081526020016040518091039020600082015181600001908051906020019061185a929190612e9a565b506020820151816001019080519060200190611877929190612efa565b5060408201518160020155905050600c8484604051611897929190613d86565b90815260200160405180910390206000018484909180600181540180825580915050600190039060005260206000200160009091929091929091929091925091906118e3929190612d87565b50600c84846040516118f6929190613d86565b9081526020016040518091039020600101339080600181540180825580915050600190039060005260206000200160009091909190916101000a81548173ffffffffffffffffffffffffffffffffffffffff021916908373ffffffffffffffffffffffffffffffffffffffff160217905550600954600854101561199a578383600f600060075481526020019081526020016000209190611998929190612d87565b505b8383600d6000600754815260200190815260200160002091906119be929190612d87565b50600760008154809291906119d2906143ba565b919050555050505050565b6119ee6119e8611d5e565b83611fa1565b611a2d576040517f08c379a0000000000000000000000000000000000000000000000000000000008152600401611a24906140c1565b60405180910390fd5b611a3984848484612709565b50505050565b6060611a4a82611cf2565b611a89576040517f08c379a0000000000000000000000000000000000000000000000000000000008152600401611a8090614081565b60405180910390fd5b6000611a93612765565b90506000815111611ab35760405180602001604052806000815250611ade565b80611abd8461277c565b604051602001611ace929190613dda565b6040516020818303038152906040525b915050919050565b60085481565b60075481565b60095481565b6000600560008473ffffffffffffffffffffffffffffffffffffffff1673ffffffffffffffffffffffffffffffffffffffff16815260200190815260200160002060008373ffffffffffffffffffffffffffffffffffffffff1673ffffffffffffffffffffffffffffffffffffffff16815260200190815260200160002060009054906101000a900460ff16905092915050565b601160003373ffffffffffffffffffffffffffffffffffffffff1673ffffffffffffffffffffffffffffffffffffffff16815260200190815260200160002054601060003373ffffffffffffffffffffffffffffffffffffffff1673ffffffffffffffffffffffffffffffffffffffff1681526020019081526020016000208054905011611c1957600080fd5b601160003373ffffffffffffffffffffffffffffffffffffffff1673ffffffffffffffffffffffffffffffffffffffff1681526020019081526020016000206000815480929190611c69906143ba565b9190505550565b60116020528060005260406000206000915090505481565b60007f01ffc9a7000000000000000000000000000000000000000000000000000000007bffffffffffffffffffffffffffffffffffffffffffffffffffffffff1916827bffffffffffffffffffffffffffffffffffffffffffffffffffffffff1916149050919050565b60008073ffffffffffffffffffffffffffffffffffffffff166002600084815260200190815260200160002060009054906101000a900473ffffffffffffffffffffffffffffffffffffffff1673ffffffffffffffffffffffffffffffffffffffff1614159050919050565b600033905090565b816004600083815260200190815260200160002060006101000a81548173ffffffffffffffffffffffffffffffffffffffff021916908373ffffffffffffffffffffffffffffffffffffffff160217905550808273ffffffffffffffffffffffffffffffffffffffff16611dd98361104e565b73ffffffffffffffffffffffffffffffffffffffff167f8c5be1e5ebec7d5bd14f71427d1e84f3dd0314c0f7b2291e5b200ac8c7c3b92560405160405180910390a45050565b600c8282604051611e31929190613d86565b9081526020016040518091039020600c8585604051611e51929190613d86565b90815260200160405180910390206000820181600001908054611e75929190612f84565b506001820181600101908054611e8c929190612fec565b5060028201548160020155905050600c8484604051611eac929190613d86565b9081526020016040518091039020600001848490918060018154018082558091505060019003906000526020600020016000909192909192909192909192509190611ef8929190612d87565b50600c8484604051611f0b929190613d86565b9081526020016040518091039020600101339080600181540180825580915050600190039060005260206000200160009091909190916101000a81548173ffffffffffffffffffffffffffffffffffffffff021916908373ffffffffffffffffffffffffffffffffffffffff16021790555050505050565b611f9d828260405180602001604052806000815250612929565b5050565b6000611fac82611cf2565b611feb576040517f08c379a0000000000000000000000000000000000000000000000000000000008152600401611fe290613fa1565b60405180910390fd5b6000611ff68361104e565b90508073ffffffffffffffffffffffffffffffffffffffff168473ffffffffffffffffffffffffffffffffffffffff16148061206557508373ffffffffffffffffffffffffffffffffffffffff1661204d84610757565b73ffffffffffffffffffffffffffffffffffffffff16145b8061207657506120758185611af8565b5b91505092915050565b8273ffffffffffffffffffffffffffffffffffffffff1661209f8261104e565b73ffffffffffffffffffffffffffffffffffffffff16146120f5576040517f08c379a00000000000000000000000000000000000000000000000000000000081526004016120ec90614061565b60405180910390fd5b600073ffffffffffffffffffffffffffffffffffffffff168273ffffffffffffffffffffffffffffffffffffffff161415612165576040517f08c379a000000000000000000000000000000000000000000000000000000000815260040161215c90613f61565b60405180910390fd5b612170838383612984565b61217b600082611d66565b6001600360008573ffffffffffffffffffffffffffffffffffffffff1673ffffffffffffffffffffffffffffffffffffffff16815260200190815260200160002060008282546121cb919061429e565b925050819055506001600360008473ffffffffffffffffffffffffffffffffffffffff1673ffffffffffffffffffffffffffffffffffffffff16815260200190815260200160002060008282546122229190614217565b92505081905550816002600083815260200190815260200160002060006101000a81548173ffffffffffffffffffffffffffffffffffffffff021916908373ffffffffffffffffffffffffffffffffffffffff160217905550808273ffffffffffffffffffffffffffffffffffffffff168473ffffffffffffffffffffffffffffffffffffffff167fddf252ad1be2c89b69c2b068fc378daa952ba7f163c4a11628f55a4df523b3ef60405160405180910390a4505050565b42600c83836040516122ee929190613d86565b90815260200160405180910390206002018190555060005b60058110156124225760106000600c8585604051612325929190613d86565b9081526020016040518091039020600101838154811061236e577f4e487b7100000000000000000000000000000000000000000000000000000000600052603260045260246000fd5b9060005260206000200160009054906101000a900473ffffffffffffffffffffffffffffffffffffffff1673ffffffffffffffffffffffffffffffffffffffff1673ffffffffffffffffffffffffffffffffffffffff16815260200190815260200160002083839091806001815401808255809150506001900390600052602060002001600090919290919290919290919250919061240e929190612d87565b50808061241a906143ba565b915050612306565b506013600c8383604051612437929190613d86565b9081526020016040518091039020600001600081548110612481577f4e487b7100000000000000000000000000000000000000000000000000000000600052603260045260246000fd5b906000526020600020016040516124989190613dfe565b908152602001604051809103902060009054906101000a900460ff1661267057600082826040516020016124cd929190613d9f565b604051602081830303815290604052905060608060405180606001604052808381526020018281526020016000815250600c8460405161250d9190613dc3565b90815260200160405180910390206000820151816000019080519060200190612537929190612e9a565b506020820151816001019080519060200190612554929190612efa565b506040820151816002015590505082600f6000600e60003373ffffffffffffffffffffffffffffffffffffffff1673ffffffffffffffffffffffffffffffffffffffff16815260200190815260200160002060020154815260200190815260200160002090805190602001906125cb929190612d01565b5060016013600c87876040516125e2929190613d86565b908152602001604051809103902060000160008154811061262c577f4e487b7100000000000000000000000000000000000000000000000000000000600052603260045260246000fd5b906000526020600020016040516126439190613dfe565b908152602001604051809103902060006101000a81548160ff021916908315150217905550505050612705565b600d60006006548152602001908152602001600020600f6000600e60003373ffffffffffffffffffffffffffffffffffffffff1673ffffffffffffffffffffffffffffffffffffffff1681526020019081526020016000206002015481526020019081526020016000209080546126e690614388565b6126f1929190612e0d565b506006600081548092919060010191905055505b5050565b61271484848461207f565b61272084848484612989565b61275f576040517f08c379a000000000000000000000000000000000000000000000000000000000815260040161275690613f21565b60405180910390fd5b50505050565b606060405180602001604052806000815250905090565b606060008214156127c4576040518060400160405280600181526020017f30000000000000000000000000000000000000000000000000000000000000008152509050612924565b600082905060005b600082146127f65780806127df906143ba565b915050600a826127ef919061426d565b91506127cc565b60008167ffffffffffffffff811115612838577f4e487b7100000000000000000000000000000000000000000000000000000000600052604160045260246000fd5b6040519080825280601f01601f19166020018201604052801561286a5781602001600182028036833780820191505090505b5090505b6000851461291d57600182612883919061429e565b9150600a85612892919061440d565b603061289e9190614217565b60f81b8183815181106128da577f4e487b7100000000000000000000000000000000000000000000000000000000600052603260045260246000fd5b60200101907effffffffffffffffffffffffffffffffffffffffffffffffffffffffffffff1916908160001a905350600a85612916919061426d565b945061286e565b8093505050505b919050565b6129338383612b20565b6129406000848484612989565b61297f576040517f08c379a000000000000000000000000000000000000000000000000000000000815260040161297690613f21565b60405180910390fd5b505050565b505050565b60006129aa8473ffffffffffffffffffffffffffffffffffffffff16612cee565b15612b13578373ffffffffffffffffffffffffffffffffffffffff1663150b7a026129d3611d5e565b8786866040518563ffffffff1660e01b81526004016129f59493929190613e76565b602060405180830381600087803b158015612a0f57600080fd5b505af1925050508015612a4057506040513d601f19601f82011682018060405250810190612a3d919061349f565b60015b612ac3573d8060008114612a70576040519150601f19603f3d011682016040523d82523d6000602084013e612a75565b606091505b50600081511415612abb576040517f08c379a0000000000000000000000000000000000000000000000000000000008152600401612ab290613f21565b60405180910390fd5b805181602001fd5b63150b7a0260e01b7bffffffffffffffffffffffffffffffffffffffffffffffffffffffff1916817bffffffffffffffffffffffffffffffffffffffffffffffffffffffff191614915050612b18565b600190505b949350505050565b600073ffffffffffffffffffffffffffffffffffffffff168273ffffffffffffffffffffffffffffffffffffffff161415612b90576040517f08c379a0000000000000000000000000000000000000000000000000000000008152600401612b8790614021565b60405180910390fd5b612b9981611cf2565b15612bd9576040517f08c379a0000000000000000000000000000000000000000000000000000000008152600401612bd090613f41565b60405180910390fd5b612be560008383612984565b6001600360008473ffffffffffffffffffffffffffffffffffffffff1673ffffffffffffffffffffffffffffffffffffffff1681526020019081526020016000206000828254612c359190614217565b92505081905550816002600083815260200190815260200160002060006101000a81548173ffffffffffffffffffffffffffffffffffffffff021916908373ffffffffffffffffffffffffffffffffffffffff160217905550808273ffffffffffffffffffffffffffffffffffffffff16600073ffffffffffffffffffffffffffffffffffffffff167fddf252ad1be2c89b69c2b068fc378daa952ba7f163c4a11628f55a4df523b3ef60405160405180910390a45050565b600080823b905060008111915050919050565b828054612d0d90614388565b90600052602060002090601f016020900481019282612d2f5760008555612d76565b82601f10612d4857805160ff1916838001178555612d76565b82800160010185558215612d76579182015b82811115612d75578251825591602001919060010190612d5a565b5b509050612d83919061303e565b5090565b828054612d9390614388565b90600052602060002090601f016020900481019282612db55760008555612dfc565b82601f10612dce57803560ff1916838001178555612dfc565b82800160010185558215612dfc579182015b82811115612dfb578235825591602001919060010190612de0565b5b509050612e09919061303e565b5090565b828054612e1990614388565b90600052602060002090601f016020900481019282612e3b5760008555612e89565b82601f10612e4c5780548555612e89565b82800160010185558215612e8957600052602060002091601f016020900482015b82811115612e88578254825591600101919060010190612e6d565b5b509050612e96919061303e565b5090565b828054828255906000526020600020908101928215612ee9579160200282015b82811115612ee8578251829080519060200190612ed8929190612d01565b5091602001919060010190612eba565b5b509050612ef6919061305b565b5090565b828054828255906000526020600020908101928215612f73579160200282015b82811115612f725782518260006101000a81548173ffffffffffffffffffffffffffffffffffffffff021916908373ffffffffffffffffffffffffffffffffffffffff16021790555091602001919060010190612f1a565b5b509050612f80919061303e565b5090565b828054828255906000526020600020908101928215612fdb5760005260206000209182015b82811115612fda578282908054612fbf90614388565b612fca92919061307f565b5091600101919060010190612fa9565b5b509050612fe8919061305b565b5090565b82805482825590600052602060002090810192821561302d5760005260206000209182015b8281111561302c578254825591600101919060010190613011565b5b50905061303a919061303e565b5090565b5b8082111561305757600081600090555060010161303f565b5090565b5b8082111561307b5760008181613072919061310c565b5060010161305c565b5090565b82805461308b90614388565b90600052602060002090601f0160209004810192826130ad57600085556130fb565b82601f106130be57805485556130fb565b828001600101855582156130fb57600052602060002091601f016020900482015b828111156130fa5782548255916001019190600101906130df565b5b509050613108919061303e565b5090565b50805461311890614388565b6000825580601f1061312a5750613149565b601f016020900490600052602060002090810190613148919061303e565b5b50565b600061315f61315a8461415f565b61412e565b90508281526020810184848401111561317757600080fd5b613182848285614346565b509392505050565b600061319d6131988461418f565b61412e565b9050828152602081018484840111156131b557600080fd5b6131c0848285614346565b509392505050565b6000813590506131d78161450b565b92915050565b6000813590506131ec81614522565b92915050565b60008135905061320181614539565b92915050565b60008151905061321681614539565b92915050565b600082601f83011261322d57600080fd5b813561323d84826020860161314c565b91505092915050565b60008083601f84011261325857600080fd5b8235905067ffffffffffffffff81111561327157600080fd5b60208301915083600182028301111561328957600080fd5b9250929050565b600082601f8301126132a157600080fd5b81356132b184826020860161318a565b91505092915050565b6000813590506132c981614550565b92915050565b6000602082840312156132e157600080fd5b60006132ef848285016131c8565b91505092915050565b6000806040838503121561330b57600080fd5b6000613319858286016131c8565b925050602061332a858286016131c8565b9150509250929050565b60008060006060848603121561334957600080fd5b6000613357868287016131c8565b9350506020613368868287016131c8565b9250506040613379868287016132ba565b9150509250925092565b6000806000806080858703121561339957600080fd5b60006133a7878288016131c8565b94505060206133b8878288016131c8565b93505060406133c9878288016132ba565b925050606085013567ffffffffffffffff8111156133e657600080fd5b6133f28782880161321c565b91505092959194509250565b6000806040838503121561341157600080fd5b600061341f858286016131c8565b9250506020613430858286016131dd565b9150509250929050565b6000806040838503121561344d57600080fd5b600061345b858286016131c8565b925050602061346c858286016132ba565b9150509250929050565b60006020828403121561348857600080fd5b6000613496848285016131f2565b91505092915050565b6000602082840312156134b157600080fd5b60006134bf84828501613207565b91505092915050565b600080602083850312156134db57600080fd5b600083013567ffffffffffffffff8111156134f557600080fd5b61350185828601613246565b92509250509250929050565b6000806000806040858703121561352357600080fd5b600085013567ffffffffffffffff81111561353d57600080fd5b61354987828801613246565b9450945050602085013567ffffffffffffffff81111561356857600080fd5b61357487828801613246565b925092505092959194509250565b60006020828403121561359457600080fd5b600082013567ffffffffffffffff8111156135ae57600080fd5b6135ba84828501613290565b91505092915050565b6000602082840312156135d557600080fd5b60006135e3848285016132ba565b91505092915050565b6135f5816142d2565b82525050565b613604816142e4565b82525050565b6000613615826141d4565b61361f81856141ea565b935061362f818560208601614355565b613638816144fa565b840191505092915050565b600061364f83856141fb565b935061365c838584614346565b613665836144fa565b840190509392505050565b600061367c838561420c565b9350613689838584614346565b82840190509392505050565b60006136a0826141df565b6136aa81856141fb565b93506136ba818560208601614355565b6136c3816144fa565b840191505092915050565b60006136d9826141df565b6136e3818561420c565b93506136f3818560208601614355565b80840191505092915050565b6000815461370c81614388565b61371681866141fb565b94506001821660008114613731576001811461374357613776565b60ff1983168652602086019350613776565b61374c856141bf565b60005b8381101561376e5781548189015260018201915060208101905061374f565b808801955050505b50505092915050565b6000815461378c81614388565b613796818661420c565b945060018216600081146137b157600181146137c2576137f5565b60ff198316865281860193506137f5565b6137cb856141bf565b60005b838110156137ed578154818901526001820191506020810190506137ce565b838801955050505b50505092915050565b600061380b6032836141fb565b91507f4552433732313a207472616e7366657220746f206e6f6e20455243373231526560008301527f63656976657220696d706c656d656e74657200000000000000000000000000006020830152604082019050919050565b6000613871601c836141fb565b91507f4552433732313a20746f6b656e20616c7265616479206d696e746564000000006000830152602082019050919050565b60006138b16024836141fb565b91507f4552433732313a207472616e7366657220746f20746865207a65726f2061646460008301527f72657373000000000000000000000000000000000000000000000000000000006020830152604082019050919050565b60006139176019836141fb565b91507f4552433732313a20617070726f766520746f2063616c6c6572000000000000006000830152602082019050919050565b6000613957602c836141fb565b91507f4552433732313a206f70657261746f7220717565727920666f72206e6f6e657860008301527f697374656e7420746f6b656e00000000000000000000000000000000000000006020830152604082019050919050565b60006139bd6038836141fb565b91507f4552433732313a20617070726f76652063616c6c6572206973206e6f74206f7760008301527f6e6572206e6f7220617070726f76656420666f7220616c6c00000000000000006020830152604082019050919050565b6000613a23602a836141fb565b91507f4552433732313a2062616c616e636520717565727920666f7220746865207a6560008301527f726f2061646472657373000000000000000000000000000000000000000000006020830152604082019050919050565b6000613a896029836141fb565b91507f4552433732313a206f776e657220717565727920666f72206e6f6e657869737460008301527f656e7420746f6b656e00000000000000000000000000000000000000000000006020830152604082019050919050565b6000613aef6020836141fb565b91507f4552433732313a206d696e7420746f20746865207a65726f20616464726573736000830152602082019050919050565b6000613b2f60058361420c565b91507f30303030300000000000000000000000000000000000000000000000000000006000830152600582019050919050565b6000613b6f602c836141fb565b91507f4552433732313a20617070726f76656420717565727920666f72206e6f6e657860008301527f697374656e7420746f6b656e00000000000000000000000000000000000000006020830152604082019050919050565b6000613bd56029836141fb565b91507f4552433732313a207472616e73666572206f6620746f6b656e2074686174206960008301527f73206e6f74206f776e00000000000000000000000000000000000000000000006020830152604082019050919050565b6000613c3b602f836141fb565b91507f4552433732314d657461646174613a2055524920717565727920666f72206e6f60008301527f6e6578697374656e7420746f6b656e00000000000000000000000000000000006020830152604082019050919050565b6000613ca16021836141fb565b91507f4552433732313a20617070726f76616c20746f2063757272656e74206f776e6560008301527f72000000000000000000000000000000000000000000000000000000000000006020830152604082019050919050565b6000613d076031836141fb565b91507f4552433732313a207472616e736665722063616c6c6572206973206e6f74206f60008301527f776e6572206e6f7220617070726f7665640000000000000000000000000000006020830152604082019050919050565b613d698161433c565b82525050565b613d80613d7b8261433c565b614403565b82525050565b6000613d93828486613670565b91508190509392505050565b6000613dac828486613670565b9150613db782613b22565b91508190509392505050565b6000613dcf82846136ce565b915081905092915050565b6000613de682856136ce565b9150613df282846136ce565b91508190509392505050565b6000613e0a828461377f565b915081905092915050565b6000613e218287613d6f565b602082019150613e318286613d6f565b602082019150613e41828561377f565b9150613e4d828461377f565b915081905095945050505050565b6000602082019050613e7060008301846135ec565b92915050565b6000608082019050613e8b60008301876135ec565b613e9860208301866135ec565b613ea56040830185613d60565b8181036060830152613eb7818461360a565b905095945050505050565b6000602082019050613ed760008301846135fb565b92915050565b60006020820190508181036000830152613ef78184613695565b905092915050565b60006020820190508181036000830152613f1981846136ff565b905092915050565b60006020820190508181036000830152613f3a816137fe565b9050919050565b60006020820190508181036000830152613f5a81613864565b9050919050565b60006020820190508181036000830152613f7a816138a4565b9050919050565b60006020820190508181036000830152613f9a8161390a565b9050919050565b60006020820190508181036000830152613fba8161394a565b9050919050565b60006020820190508181036000830152613fda816139b0565b9050919050565b60006020820190508181036000830152613ffa81613a16565b9050919050565b6000602082019050818103600083015261401a81613a7c565b9050919050565b6000602082019050818103600083015261403a81613ae2565b9050919050565b6000602082019050818103600083015261405a81613b62565b9050919050565b6000602082019050818103600083015261407a81613bc8565b9050919050565b6000602082019050818103600083015261409a81613c2e565b9050919050565b600060208201905081810360008301526140ba81613c94565b9050919050565b600060208201905081810360008301526140da81613cfa565b9050919050565b60006020820190506140f66000830184613d60565b92915050565b60006040820190506141116000830186613d60565b8181036020830152614124818486613643565b9050949350505050565b6000604051905081810181811067ffffffffffffffff82111715614155576141546144cb565b5b8060405250919050565b600067ffffffffffffffff82111561417a576141796144cb565b5b601f19601f8301169050602081019050919050565b600067ffffffffffffffff8211156141aa576141a96144cb565b5b601f19601f8301169050602081019050919050565b60008190508160005260206000209050919050565b600081519050919050565b600081519050919050565b600082825260208201905092915050565b600082825260208201905092915050565b600081905092915050565b60006142228261433c565b915061422d8361433c565b9250827fffffffffffffffffffffffffffffffffffffffffffffffffffffffffffffffff038211156142625761426161443e565b5b828201905092915050565b60006142788261433c565b91506142838361433c565b9250826142935761429261446d565b5b828204905092915050565b60006142a98261433c565b91506142b48361433c565b9250828210156142c7576142c661443e565b5b828203905092915050565b60006142dd8261431c565b9050919050565b60008115159050919050565b60007fffffffff0000000000000000000000000000000000000000000000000000000082169050919050565b600073ffffffffffffffffffffffffffffffffffffffff82169050919050565b6000819050919050565b82818337600083830152505050565b60005b83811015614373578082015181840152602081019050614358565b83811115614382576000848401525b50505050565b600060028204905060018216806143a057607f821691505b602082108114156143b4576143b361449c565b5b50919050565b60006143c58261433c565b91507fffffffffffffffffffffffffffffffffffffffffffffffffffffffffffffffff8214156143f8576143f761443e565b5b600182019050919050565b6000819050919050565b60006144188261433c565b91506144238361433c565b9250826144335761443261446d565b5b828206905092915050565b7f4e487b7100000000000000000000000000000000000000000000000000000000600052601160045260246000fd5b7f4e487b7100000000000000000000000000000000000000000000000000000000600052601260045260246000fd5b7f4e487b7100000000000000000000000000000000000000000000000000000000600052602260045260246000fd5b7f4e487b7100000000000000000000000000000000000000000000000000000000600052604160045260246000fd5b6000601f19601f8301169050919050565b614514816142d2565b811461451f57600080fd5b50565b61452b816142e4565b811461453657600080fd5b50565b614542816142f0565b811461454d57600080fd5b50565b6145598161433c565b811461456457600080fd5b5056fea2646970667358221220b99bf0dd23eb0876bf6e99eec38d21b04f71f54a1ff6bb9df28b9d9300ec003e64736f6c63430008000033",
  "immutableReferences": {},
  "source": "pragma solidity ^0.8.0;\n\nimport \"../node_modules/@openzeppelin/contracts/token/ERC721/ERC721.sol\";\n\ncontract FrankieTexts is ERC721 {\n\n    uint256 public feedCounter;\n\n    uint256 public submitCounter;\n\n    uint256 public deckCounter;\n\n    uint256 public deckSize;\n\n    uint256 public frankieId;\n\n    address public victor;\n\n    event RequestedText(string chosenCid);\n\n    event MintedFrankie(uint nftId, string nftCid); // vai ter q ter a 5th cid tbm e indexed\n\n    struct Frankie {\n      string[] cids;\n      address[] writers;\n      uint256 endedSince;\n    }\n\n    struct MiniFrankie {\n      string cid;\n      uint256 editSince;\n      uint256 deckNumber;\n    }\n\n    mapping(string => Frankie) public frankies;\n\n    mapping(uint256 => string) private cidOrder;\n\n    mapping(address => MiniFrankie) private editing;\n\n    mapping(uint256 => string) private deck;\n\n    mapping(address => string[]) public untitledTexts;\n\n    mapping(address => uint) public untitledCounter;\n\n    mapping(uint256 => string) public mintedCids;\n\n    mapping(string => bool) private plotEnded;\n\n    constructor() ERC721(\"Frankies\", \"FKE\") {\n        feedCounter = 0;\n        submitCounter = 0;\n        deckCounter = 0;\n        deckSize = 100;\n        frankieId = 0;\n        victor = msg.sender;\n    }\n\n    modifier isVictor() {\n        require(msg.sender == victor);\n        _;\n    }\n\n    modifier isValid(string calldata oldCid) {\n        require(keccak256(abi.encodePacked(editing[msg.sender].cid)) == keccak256(abi.encodePacked(oldCid)));\n        require(editing[msg.sender].editSince + 2 hours > block.timestamp);\n        _;\n    }\n\n    modifier hasUntitled() {\n        require(untitledTexts[msg.sender].length > untitledCounter[msg.sender]);\n        _;\n    }\n\n    function _startFrankie() private returns (string memory) { // talvez nem precise dessa funo\n        string memory startCid = string(abi.encodePacked('0')); // frontend checka se o cid  0\n        string[] memory cids;\n        address[] memory writers;\n        frankies[startCid] = Frankie(cids, writers, block.timestamp);\n        return startCid;\n    }\n\n    function _updateFrankie(string calldata newCid, string calldata oldCid) private {\n        frankies[newCid] = frankies[oldCid];\n        frankies[newCid].cids.push(newCid);\n        frankies[newCid].writers.push(msg.sender);\n    }\n\n    function _endFrankie(string calldata newCid) private {\n      frankies[newCid].endedSince = block.timestamp;\n      for (uint256 i = 0; i < 5; i++) {\n        untitledTexts[frankies[newCid].writers[i]].push(newCid);\n      }\n      if(!plotEnded[frankies[newCid].cids[0]]) {\n        // alimenta um cid00000 no deck\n        string memory startCid = string(abi.encodePacked(newCid, '00000'));\n        string[] memory cids;\n        address[] memory writers;\n        frankies[startCid] = Frankie(cids, writers, 0);\n        deck[editing[msg.sender].deckNumber] = startCid;\n        plotEnded[frankies[newCid].cids[0]] = true;\n      } else {\n        // alimenta o cidOrder[feedCounter] no deck e aumenta feedCounter\n        deck[editing[msg.sender].deckNumber] = cidOrder[feedCounter];\n        unchecked { feedCounter++; } \n        }\n    }\n\n    function requestText() public {\n      uint256 random = uint256(keccak256(abi.encodePacked(block.difficulty, block.timestamp, cidOrder[feedCounter], cidOrder[submitCounter]))) % 100;\n      editing[msg.sender] = MiniFrankie(deck[random], block.timestamp, random);\n      emit RequestedText(deck[random]);\n    }\n\n    function submitText(string calldata oldCid, string calldata newCid) public isValid(oldCid) {\n      _updateFrankie(newCid, oldCid);\n      if (frankies[newCid].writers.length == 5) {\n        _endFrankie(newCid);\n      } else {\n        cidOrder[submitCounter] = newCid;\n        unchecked { submitCounter++; }\n        if(keccak256(abi.encodePacked(deck[editing[msg.sender].deckNumber])) == keccak256(abi.encodePacked(oldCid))) {\n          deck[editing[msg.sender].deckNumber] = cidOrder[feedCounter];\n          unchecked { feedCounter++; }\n        }\n      }\n    }\n\n    function mintFrankie(string calldata oldCid,string calldata newCid) public {\n        require(frankies[oldCid].endedSince + 3 days > block.timestamp);\n        bool isWriter;\n        for(uint i=0; i < 5; i++) {\n          if(msg.sender == frankies[oldCid].writers[i]) {\n            isWriter = true;\n          }\n        }\n        require(isWriter = true);\n        _updateFrankie(newCid, oldCid);\n        untitledCounter[msg.sender]++;\n        frankieId++;\n        _safeMint(msg.sender, frankieId);\n        mintedCids[frankieId] = newCid;\n        emit MintedFrankie(frankieId, newCid);\n    }\n\n    function requestUntitled() public view hasUntitled() returns(string memory) {\n        return untitledTexts[msg.sender][untitledCounter[msg.sender]];\n    }\n\n    function discardUntitled() public hasUntitled() {\n        untitledCounter[msg.sender]++;\n    }\n\n    function seedPlot(string calldata cid) public isVictor() {\n        string[] memory cids;\n        address[] memory writers;\n        frankies[cid] = Frankie(cids, writers, 0);\n        frankies[cid].cids.push(cid);\n        frankies[cid].writers.push(msg.sender);\n        if(deckCounter < deckSize) {\n          deck[submitCounter] = cid;\n        }\n        cidOrder[submitCounter] = cid;\n        submitCounter++;\n    }\n\n    function setDeckSize(uint newSize) public isVictor() {\n      deckSize = newSize;\n    }\n}",
  "sourcePath": "/home/mariomazzaferro/projects/blockchain-developer-bootcamp-final-project/contracts/FrankieTexts.sol",
  "compiler": {
    "name": "solc",
    "version": "0.8.0+commit.c7dfd78e.Emscripten.clang"
  },
  "schemaVersion": "3.4.1",
  "updatedAt": "2021-10-25T01:04:57.582Z",
  "networkType": "ethereum",
  "devdoc": {
    "kind": "dev",
    "methods": {
      "approve(address,uint256)": {
        "details": "See {IERC721-approve}."
      },
      "balanceOf(address)": {
        "details": "See {IERC721-balanceOf}."
      },
      "getApproved(uint256)": {
        "details": "See {IERC721-getApproved}."
      },
      "isApprovedForAll(address,address)": {
        "details": "See {IERC721-isApprovedForAll}."
      },
      "name()": {
        "details": "See {IERC721Metadata-name}."
      },
      "ownerOf(uint256)": {
        "details": "See {IERC721-ownerOf}."
      },
      "safeTransferFrom(address,address,uint256)": {
        "details": "See {IERC721-safeTransferFrom}."
      },
      "safeTransferFrom(address,address,uint256,bytes)": {
        "details": "See {IERC721-safeTransferFrom}."
      },
      "setApprovalForAll(address,bool)": {
        "details": "See {IERC721-setApprovalForAll}."
      },
      "supportsInterface(bytes4)": {
        "details": "See {IERC165-supportsInterface}."
      },
      "symbol()": {
        "details": "See {IERC721Metadata-symbol}."
      },
      "tokenURI(uint256)": {
        "details": "See {IERC721Metadata-tokenURI}."
      },
      "transferFrom(address,address,uint256)": {
        "details": "See {IERC721-transferFrom}."
      }
    },
    "version": 1
  },
  "userdoc": {
    "kind": "user",
    "methods": {},
    "version": 1
  }
}