{
  "contractName": "FrankensteinTexts",
  "abi": [
    {
      "inputs": [],
      "stateMutability": "nonpayable",
      "type": "constructor"
    },
    {
      "anonymous": false,
      "inputs": [
        {
          "indexed": true,
          "internalType": "address",
          "name": "owner",
          "type": "address"
        },
        {
          "indexed": true,
          "internalType": "address",
          "name": "approved",
          "type": "address"
        },
        {
          "indexed": true,
          "internalType": "uint256",
          "name": "tokenId",
          "type": "uint256"
        }
      ],
      "name": "Approval",
      "type": "event"
    },
    {
      "anonymous": false,
      "inputs": [
        {
          "indexed": true,
          "internalType": "address",
          "name": "owner",
          "type": "address"
        },
        {
          "indexed": true,
          "internalType": "address",
          "name": "operator",
          "type": "address"
        },
        {
          "indexed": false,
          "internalType": "bool",
          "name": "approved",
          "type": "bool"
        }
      ],
      "name": "ApprovalForAll",
      "type": "event"
    },
    {
      "anonymous": false,
      "inputs": [
        {
          "indexed": false,
          "internalType": "string",
          "name": "cid",
          "type": "string"
        },
        {
          "indexed": false,
          "internalType": "bool",
          "name": "isPlot",
          "type": "bool"
        }
      ],
      "name": "RequestedText",
      "type": "event"
    },
    {
      "anonymous": false,
      "inputs": [
        {
          "indexed": true,
          "internalType": "address",
          "name": "from",
          "type": "address"
        },
        {
          "indexed": true,
          "internalType": "address",
          "name": "to",
          "type": "address"
        },
        {
          "indexed": true,
          "internalType": "uint256",
          "name": "tokenId",
          "type": "uint256"
        }
      ],
      "name": "Transfer",
      "type": "event"
    },
    {
      "inputs": [
        {
          "internalType": "address",
          "name": "to",
          "type": "address"
        },
        {
          "internalType": "uint256",
          "name": "tokenId",
          "type": "uint256"
        }
      ],
      "name": "approve",
      "outputs": [],
      "stateMutability": "nonpayable",
      "type": "function"
    },
    {
      "inputs": [
        {
          "internalType": "address",
          "name": "owner",
          "type": "address"
        }
      ],
      "name": "balanceOf",
      "outputs": [
        {
          "internalType": "uint256",
          "name": "",
          "type": "uint256"
        }
      ],
      "stateMutability": "view",
      "type": "function",
      "constant": true
    },
    {
      "inputs": [],
      "name": "firstTime",
      "outputs": [
        {
          "internalType": "bool",
          "name": "",
          "type": "bool"
        }
      ],
      "stateMutability": "view",
      "type": "function",
      "constant": true
    },
    {
      "inputs": [],
      "name": "frankieId",
      "outputs": [
        {
          "internalType": "uint256",
          "name": "",
          "type": "uint256"
        }
      ],
      "stateMutability": "view",
      "type": "function",
      "constant": true
    },
    {
      "inputs": [
        {
          "internalType": "string",
          "name": "",
          "type": "string"
        }
      ],
      "name": "frankies",
      "outputs": [
        {
          "internalType": "uint256",
          "name": "editSince",
          "type": "uint256"
        },
        {
          "internalType": "address",
          "name": "editor",
          "type": "address"
        }
      ],
      "stateMutability": "view",
      "type": "function",
      "constant": true
    },
    {
      "inputs": [
        {
          "internalType": "uint256",
          "name": "tokenId",
          "type": "uint256"
        }
      ],
      "name": "getApproved",
      "outputs": [
        {
          "internalType": "address",
          "name": "",
          "type": "address"
        }
      ],
      "stateMutability": "view",
      "type": "function",
      "constant": true
    },
    {
      "inputs": [],
      "name": "green",
      "outputs": [
        {
          "internalType": "bool",
          "name": "",
          "type": "bool"
        }
      ],
      "stateMutability": "view",
      "type": "function",
      "constant": true
    },
    {
      "inputs": [
        {
          "internalType": "address",
          "name": "owner",
          "type": "address"
        },
        {
          "internalType": "address",
          "name": "operator",
          "type": "address"
        }
      ],
      "name": "isApprovedForAll",
      "outputs": [
        {
          "internalType": "bool",
          "name": "",
          "type": "bool"
        }
      ],
      "stateMutability": "view",
      "type": "function",
      "constant": true
    },
    {
      "inputs": [
        {
          "internalType": "uint256",
          "name": "",
          "type": "uint256"
        }
      ],
      "name": "mintedCids",
      "outputs": [
        {
          "internalType": "string",
          "name": "",
          "type": "string"
        }
      ],
      "stateMutability": "view",
      "type": "function",
      "constant": true
    },
    {
      "inputs": [],
      "name": "name",
      "outputs": [
        {
          "internalType": "string",
          "name": "",
          "type": "string"
        }
      ],
      "stateMutability": "view",
      "type": "function",
      "constant": true
    },
    {
      "inputs": [
        {
          "internalType": "uint256",
          "name": "tokenId",
          "type": "uint256"
        }
      ],
      "name": "ownerOf",
      "outputs": [
        {
          "internalType": "address",
          "name": "",
          "type": "address"
        }
      ],
      "stateMutability": "view",
      "type": "function",
      "constant": true
    },
    {
      "inputs": [],
      "name": "requestCounter",
      "outputs": [
        {
          "internalType": "uint256",
          "name": "",
          "type": "uint256"
        }
      ],
      "stateMutability": "view",
      "type": "function",
      "constant": true
    },
    {
      "inputs": [
        {
          "internalType": "address",
          "name": "from",
          "type": "address"
        },
        {
          "internalType": "address",
          "name": "to",
          "type": "address"
        },
        {
          "internalType": "uint256",
          "name": "tokenId",
          "type": "uint256"
        }
      ],
      "name": "safeTransferFrom",
      "outputs": [],
      "stateMutability": "nonpayable",
      "type": "function"
    },
    {
      "inputs": [
        {
          "internalType": "address",
          "name": "from",
          "type": "address"
        },
        {
          "internalType": "address",
          "name": "to",
          "type": "address"
        },
        {
          "internalType": "uint256",
          "name": "tokenId",
          "type": "uint256"
        },
        {
          "internalType": "bytes",
          "name": "_data",
          "type": "bytes"
        }
      ],
      "name": "safeTransferFrom",
      "outputs": [],
      "stateMutability": "nonpayable",
      "type": "function"
    },
    {
      "inputs": [
        {
          "internalType": "address",
          "name": "operator",
          "type": "address"
        },
        {
          "internalType": "bool",
          "name": "approved",
          "type": "bool"
        }
      ],
      "name": "setApprovalForAll",
      "outputs": [],
      "stateMutability": "nonpayable",
      "type": "function"
    },
    {
      "inputs": [],
      "name": "submitCounter",
      "outputs": [
        {
          "internalType": "uint256",
          "name": "",
          "type": "uint256"
        }
      ],
      "stateMutability": "view",
      "type": "function",
      "constant": true
    },
    {
      "inputs": [
        {
          "internalType": "bytes4",
          "name": "interfaceId",
          "type": "bytes4"
        }
      ],
      "name": "supportsInterface",
      "outputs": [
        {
          "internalType": "bool",
          "name": "",
          "type": "bool"
        }
      ],
      "stateMutability": "view",
      "type": "function",
      "constant": true
    },
    {
      "inputs": [],
      "name": "symbol",
      "outputs": [
        {
          "internalType": "string",
          "name": "",
          "type": "string"
        }
      ],
      "stateMutability": "view",
      "type": "function",
      "constant": true
    },
    {
      "inputs": [
        {
          "internalType": "uint256",
          "name": "tokenId",
          "type": "uint256"
        }
      ],
      "name": "tokenURI",
      "outputs": [
        {
          "internalType": "string",
          "name": "",
          "type": "string"
        }
      ],
      "stateMutability": "view",
      "type": "function",
      "constant": true
    },
    {
      "inputs": [
        {
          "internalType": "address",
          "name": "from",
          "type": "address"
        },
        {
          "internalType": "address",
          "name": "to",
          "type": "address"
        },
        {
          "internalType": "uint256",
          "name": "tokenId",
          "type": "uint256"
        }
      ],
      "name": "transferFrom",
      "outputs": [],
      "stateMutability": "nonpayable",
      "type": "function"
    },
    {
      "inputs": [
        {
          "internalType": "address",
          "name": "",
          "type": "address"
        },
        {
          "internalType": "uint256",
          "name": "",
          "type": "uint256"
        }
      ],
      "name": "untitledTexts",
      "outputs": [
        {
          "internalType": "string",
          "name": "",
          "type": "string"
        }
      ],
      "stateMutability": "view",
      "type": "function",
      "constant": true
    },
    {
      "inputs": [],
      "name": "victor",
      "outputs": [
        {
          "internalType": "address",
          "name": "",
          "type": "address"
        }
      ],
      "stateMutability": "view",
      "type": "function",
      "constant": true
    },
    {
      "inputs": [],
      "name": "requestText",
      "outputs": [
        {
          "internalType": "string",
          "name": "",
          "type": "string"
        }
      ],
      "stateMutability": "nonpayable",
      "type": "function"
    },
    {
      "inputs": [
        {
          "internalType": "string",
          "name": "oldCid",
          "type": "string"
        },
        {
          "internalType": "string",
          "name": "newCid",
          "type": "string"
        }
      ],
      "name": "submitText",
      "outputs": [],
      "stateMutability": "nonpayable",
      "type": "function"
    },
    {
      "inputs": [
        {
          "internalType": "string",
          "name": "newCid",
          "type": "string"
        },
        {
          "internalType": "string",
          "name": "oldCid",
          "type": "string"
        },
        {
          "internalType": "uint256",
          "name": "untitledId",
          "type": "uint256"
        }
      ],
      "name": "mintFrankie",
      "outputs": [
        {
          "internalType": "uint256",
          "name": "",
          "type": "uint256"
        }
      ],
      "stateMutability": "nonpayable",
      "type": "function"
    },
    {
      "inputs": [
        {
          "internalType": "string",
          "name": "cid",
          "type": "string"
        }
      ],
      "name": "seedPlot",
      "outputs": [],
      "stateMutability": "nonpayable",
      "type": "function"
    }
  ],
  "bytecode": "0x60806040523480156200001157600080fd5b506040518060400160405280600881526020017f4672616e6b6965730000000000000000000000000000000000000000000000008152506040518060400160405280600381526020017f464b45000000000000000000000000000000000000000000000000000000000081525081600090805190602001906200009692919062000147565b508060019080519060200190620000af92919062000147565b50505060006006819055506000600781905550600060088190555033600960026101000a81548173ffffffffffffffffffffffffffffffffffffffff021916908373ffffffffffffffffffffffffffffffffffffffff1602179055506001600960006101000a81548160ff0219169083151502179055506001600960016101000a81548160ff0219169083151502179055506200025c565b8280546200015590620001f7565b90600052602060002090601f016020900481019282620001795760008555620001c5565b82601f106200019457805160ff1916838001178555620001c5565b82800160010185558215620001c5579182015b82811115620001c4578251825591602001919060010190620001a7565b5b509050620001d49190620001d8565b5090565b5b80821115620001f3576000816000905550600101620001d9565b5090565b600060028204905060018216806200021057607f821691505b602082108114156200022757620002266200022d565b5b50919050565b7f4e487b7100000000000000000000000000000000000000000000000000000000600052602260045260246000fd5b6142cf806200026c6000396000f3fe608060405234801561001057600080fd5b506004361061018e5760003560e01c80638ffd2b77116100de578063b17de4af11610097578063d812da2711610071578063d812da27146104aa578063e985e9c5146104c8578063f2f1e132146104f8578063f86fa77b146105165761018e565b8063b17de4af14610442578063b88d4fde1461045e578063c87b56dd1461047a5761018e565b80638ffd2b771461037f57806395d89b41146103b0578063973a814e146103ce5780639a791cb3146103ec578063a22cb46514610408578063ae52bc97146104245761018e565b806341d76a9c1161014b5780636352211e116101255780636352211e146102d157806370a08231146103015780637403a42a1461033157806384478ad31461034f5761018e565b806341d76a9c1461026757806342842e0e146102855780634ee069b8146102a15761018e565b806301ffc9a71461019357806306fdde03146101c3578063081812fc146101e1578063095ea7b3146102115780631415f1e71461022d57806323b872dd1461024b575b600080fd5b6101ad60048036038101906101a89190613119565b610546565b6040516101ba9190613bbf565b60405180910390f35b6101cb610628565b6040516101d89190613bda565b60405180910390f35b6101fb60048036038101906101f691906132ef565b6106ba565b6040516102089190613b58565b60405180910390f35b61022b600480360381019061022691906130dd565b61073f565b005b610235610857565b6040516102429190613bda565b60405180910390f35b61026560048036038101906102609190612fd7565b610b1c565b005b61026f610b7c565b60405161027c9190613bbf565b60405180910390f35b61029f600480360381019061029a9190612fd7565b610b8f565b005b6102bb60048036038101906102b691906132ef565b610baf565b6040516102c89190613bda565b60405180910390f35b6102eb60048036038101906102e691906132ef565b610c4f565b6040516102f89190613b58565b60405180910390f35b61031b60048036038101906103169190612f72565b610d01565b6040516103289190613e1c565b60405180910390f35b610339610db9565b6040516103469190613e1c565b60405180910390f35b610369600480360381019061036491906130dd565b610dbf565b6040516103769190613bda565b60405180910390f35b610399600480360381019061039491906132ae565b610e78565b6040516103a7929190613e37565b60405180910390f35b6103b8610ed2565b6040516103c59190613bda565b60405180910390f35b6103d6610f64565b6040516103e39190613e1c565b60405180910390f35b610406600480360381019061040191906131b0565b610f6a565b005b610422600480360381019061041d91906130a1565b611204565b005b61042c611385565b6040516104399190613b58565b60405180910390f35b61045c6004803603810190610457919061316b565b6113ab565b005b61047860048036038101906104739190613026565b61161b565b005b610494600480360381019061048f91906132ef565b61167d565b6040516104a19190613bda565b60405180910390f35b6104b2611724565b6040516104bf9190613e1c565b60405180910390f35b6104e260048036038101906104dd9190612f9b565b61172a565b6040516104ef9190613bbf565b60405180910390f35b6105006117be565b60405161050d9190613bbf565b60405180910390f35b610530600480360381019061052b9190613225565b6117d1565b60405161053d9190613e1c565b60405180910390f35b60007f80ac58cd000000000000000000000000000000000000000000000000000000007bffffffffffffffffffffffffffffffffffffffffffffffffffffffff1916827bffffffffffffffffffffffffffffffffffffffffffffffffffffffff1916148061061157507f5b5e139f000000000000000000000000000000000000000000000000000000007bffffffffffffffffffffffffffffffffffffffffffffffffffffffff1916827bffffffffffffffffffffffffffffffffffffffffffffffffffffffff1916145b806106215750610620826119f2565b5b9050919050565b606060008054610637906140ba565b80601f0160208091040260200160405190810160405280929190818152602001828054610663906140ba565b80156106b05780601f10610685576101008083540402835291602001916106b0565b820191906000526020600020905b81548152906001019060200180831161069357829003601f168201915b5050505050905090565b60006106c582611a5c565b610704576040517f08c379a00000000000000000000000000000000000000000000000000000000081526004016106fb90613d7c565b60405180910390fd5b6004600083815260200190815260200160002060009054906101000a900473ffffffffffffffffffffffffffffffffffffffff169050919050565b600061074a82610c4f565b90508073ffffffffffffffffffffffffffffffffffffffff168373ffffffffffffffffffffffffffffffffffffffff1614156107bb576040517f08c379a00000000000000000000000000000000000000000000000000000000081526004016107b290613ddc565b60405180910390fd5b8073ffffffffffffffffffffffffffffffffffffffff166107da611ac8565b73ffffffffffffffffffffffffffffffffffffffff161480610809575061080881610803611ac8565b61172a565b5b610848576040517f08c379a000000000000000000000000000000000000000000000000000000000815260040161083f90613cfc565b60405180910390fd5b6108528383611ad0565b505050565b606060011515600960019054906101000a900460ff1615151461087957600080fd5b6000610883611b89565b600060065490506000600582610899919061413f565b14156109435760011515600960009054906101000a900460ff16151514156109275760006108c5611ca3565b90506000600960006101000a81548160ff0219169083151502179055507f4d23f7784a9808f0d61aaf785193abb3226d4f33a5a3574f776b4f8d48bffb16816001604051610914929190613bfc565b60405180910390a1809350505050610b19565b6001600960006101000a81548160ff0219169083151502179055505b60066000815480929190600101919050555060065460075403915081606410610982576000600960016101000a81548160ff0219169083151502179055505b42600a600b60008481526020019081526020016000206040516109a59190613ad9565b90815260200160405180910390206002018190555033600a600b60008481526020019081526020016000206040516109dd9190613ad9565b908152602001604051809103902060030160006101000a81548173ffffffffffffffffffffffffffffffffffffffff021916908373ffffffffffffffffffffffffffffffffffffffff1602179055507f4d23f7784a9808f0d61aaf785193abb3226d4f33a5a3574f776b4f8d48bffb16600b60008381526020019081526020016000206000604051610a70929190613c2c565b60405180910390a1600b60008281526020019081526020016000208054610a96906140ba565b80601f0160208091040260200160405190810160405280929190818152602001828054610ac2906140ba565b8015610b0f5780601f10610ae457610100808354040283529160200191610b0f565b820191906000526020600020905b815481529060010190602001808311610af257829003601f168201915b5050505050925050505b90565b610b2d610b27611ac8565b82611dcc565b610b6c576040517f08c379a0000000000000000000000000000000000000000000000000000000008152600401610b6390613dfc565b60405180910390fd5b610b77838383611eaa565b505050565b600960009054906101000a900460ff1681565b610baa8383836040518060200160405280600081525061161b565b505050565b600d6020528060005260406000206000915090508054610bce906140ba565b80601f0160208091040260200160405190810160405280929190818152602001828054610bfa906140ba565b8015610c475780601f10610c1c57610100808354040283529160200191610c47565b820191906000526020600020905b815481529060010190602001808311610c2a57829003601f168201915b505050505081565b6000806002600084815260200190815260200160002060009054906101000a900473ffffffffffffffffffffffffffffffffffffffff169050600073ffffffffffffffffffffffffffffffffffffffff168173ffffffffffffffffffffffffffffffffffffffff161415610cf8576040517f08c379a0000000000000000000000000000000000000000000000000000000008152600401610cef90613d3c565b60405180910390fd5b80915050919050565b60008073ffffffffffffffffffffffffffffffffffffffff168273ffffffffffffffffffffffffffffffffffffffff161415610d72576040517f08c379a0000000000000000000000000000000000000000000000000000000008152600401610d6990613d1c565b60405180910390fd5b600360008373ffffffffffffffffffffffffffffffffffffffff1673ffffffffffffffffffffffffffffffffffffffff168152602001908152602001600020549050919050565b60085481565b600c6020528160005260406000208181548110610ddb57600080fd5b90600052602060002001600091509150508054610df7906140ba565b80601f0160208091040260200160405190810160405280929190818152602001828054610e23906140ba565b8015610e705780601f10610e4557610100808354040283529160200191610e70565b820191906000526020600020905b815481529060010190602001808311610e5357829003601f168201915b505050505081565b600a818051602081018201805184825260208301602085012081835280955050505050506000915090508060020154908060030160009054906101000a900473ffffffffffffffffffffffffffffffffffffffff16905082565b606060018054610ee1906140ba565b80601f0160208091040260200160405190810160405280929190818152602001828054610f0d906140ba565b8015610f5a5780601f10610f2f57610100808354040283529160200191610f5a565b820191906000526020600020905b815481529060010190602001808311610f3d57829003601f168201915b5050505050905090565b60065481565b83833373ffffffffffffffffffffffffffffffffffffffff16600a8383604051610f95929190613a85565b908152602001604051809103902060030160009054906101000a900473ffffffffffffffffffffffffffffffffffffffff1673ffffffffffffffffffffffffffffffffffffffff1614610fe757600080fd5b42610e10600a8888604051610ffd929190613a85565b9081526020016040518091039020600201546110199190613f49565b10156111bc5761102b84848888612106565b6005600a858560405161103f929190613a85565b908152602001604051809103902060010180549050141561117f5760005b600581101561117957600c6000600a878760405161107c929190613a85565b908152602001604051809103902060010183815481106110c5577f4e487b7100000000000000000000000000000000000000000000000000000000600052603260045260246000fd5b9060005260206000200160009054906101000a900473ffffffffffffffffffffffffffffffffffffffff1673ffffffffffffffffffffffffffffffffffffffff1673ffffffffffffffffffffffffffffffffffffffff1681526020019081526020016000208585909180600181540180825580915050600190039060005260206000200160009091929091929091929091925091906111659291906129a4565b508080611171906140ec565b91505061105d565b506111b7565b8383600b6000600754815260200190815260200160002091906111a39291906129a4565b506007600081548092919060010191905055505b6111f4565b8585600b6000600754815260200190815260200160002091906111e09291906129a4565b506007600081548092919060010191905055505b6111fc6122d1565b505050505050565b61120c611ac8565b73ffffffffffffffffffffffffffffffffffffffff168273ffffffffffffffffffffffffffffffffffffffff16141561127a576040517f08c379a000000000000000000000000000000000000000000000000000000000815260040161127190613cbc565b60405180910390fd5b8060056000611287611ac8565b73ffffffffffffffffffffffffffffffffffffffff1673ffffffffffffffffffffffffffffffffffffffff16815260200190815260200160002060008473ffffffffffffffffffffffffffffffffffffffff1673ffffffffffffffffffffffffffffffffffffffff16815260200190815260200160002060006101000a81548160ff0219169083151502179055508173ffffffffffffffffffffffffffffffffffffffff16611334611ac8565b73ffffffffffffffffffffffffffffffffffffffff167f17307eab39ab6107e8899845ad3d59bd9653f200f220920489ca2b5937696c31836040516113799190613bbf565b60405180910390a35050565b600960029054906101000a900473ffffffffffffffffffffffffffffffffffffffff1681565b600960029054906101000a900473ffffffffffffffffffffffffffffffffffffffff1673ffffffffffffffffffffffffffffffffffffffff163373ffffffffffffffffffffffffffffffffffffffff161461140557600080fd5b60608060405180608001604052808381526020018281526020014281526020013373ffffffffffffffffffffffffffffffffffffffff16815250600a8585604051611451929190613a85565b9081526020016040518091039020600082015181600001908051906020019061147b929190612a2a565b506020820151816001019080519060200190611498929190612a8a565b506040820151816002015560608201518160030160006101000a81548173ffffffffffffffffffffffffffffffffffffffff021916908373ffffffffffffffffffffffffffffffffffffffff160217905550905050600a84846040516114ff929190613a85565b908152602001604051809103902060000184849091806001815401808255809150506001900390600052602060002001600090919290919290919290919250919061154b9291906129a4565b50600a848460405161155e929190613a85565b9081526020016040518091039020600101339080600181540180825580915050600190039060005260206000200160009091909190916101000a81548173ffffffffffffffffffffffffffffffffffffffff021916908373ffffffffffffffffffffffffffffffffffffffff1602179055508383600b6000600754815260200190815260200160002091906115f49291906129a4565b5060076000815480929190611608906140ec565b91905055506116156122d1565b50505050565b61162c611626611ac8565b83611dcc565b61166b576040517f08c379a000000000000000000000000000000000000000000000000000000000815260040161166290613dfc565b60405180910390fd5b61167784848484612323565b50505050565b606061168882611a5c565b6116c7576040517f08c379a00000000000000000000000000000000000000000000000000000000081526004016116be90613dbc565b60405180910390fd5b60006116d161237f565b905060008151116116f1576040518060200160405280600081525061171c565b806116fb84612396565b60405160200161170c929190613ab5565b6040516020818303038152906040525b915050919050565b60075481565b6000600560008473ffffffffffffffffffffffffffffffffffffffff1673ffffffffffffffffffffffffffffffffffffffff16815260200190815260200160002060008373ffffffffffffffffffffffffffffffffffffffff1673ffffffffffffffffffffffffffffffffffffffff16815260200190815260200160002060009054906101000a900460ff16905092915050565b600960019054906101000a900460ff1681565b6000426203f480600a86866040516117ea929190613a85565b9081526020016040518091039020600201546118069190613f49565b1061181057600080fd5b600080600090505b60058110156118f257600a8686604051611833929190613a85565b9081526020016040518091039020600101818154811061187c577f4e487b7100000000000000000000000000000000000000000000000000000000600052603260045260246000fd5b9060005260206000200160009054906101000a900473ffffffffffffffffffffffffffffffffffffffff1673ffffffffffffffffffffffffffffffffffffffff163373ffffffffffffffffffffffffffffffffffffffff1614156118df57600191505b80806118ea906140ec565b915050611818565b50600190508061190157600080fd5b61190d87878787612106565b600c60003373ffffffffffffffffffffffffffffffffffffffff1673ffffffffffffffffffffffffffffffffffffffff1681526020019081526020016000208381548110611984577f4e487b7100000000000000000000000000000000000000000000000000000000600052603260045260246000fd5b90600052602060002001600061199a9190612b14565b600860008154809291906119ad906140ec565b91905055506119be33600854612543565b8686600d6000600854815260200190815260200160002091906119e29291906129a4565b5060085491505095945050505050565b60007f01ffc9a7000000000000000000000000000000000000000000000000000000007bffffffffffffffffffffffffffffffffffffffffffffffffffffffff1916827bffffffffffffffffffffffffffffffffffffffffffffffffffffffff1916149050919050565b60008073ffffffffffffffffffffffffffffffffffffffff166002600084815260200190815260200160002060009054906101000a900473ffffffffffffffffffffffffffffffffffffffff1673ffffffffffffffffffffffffffffffffffffffff1614159050919050565b600033905090565b816004600083815260200190815260200160002060006101000a81548173ffffffffffffffffffffffffffffffffffffffff021916908373ffffffffffffffffffffffffffffffffffffffff160217905550808273ffffffffffffffffffffffffffffffffffffffff16611b4383610c4f565b73ffffffffffffffffffffffffffffffffffffffff167f8c5be1e5ebec7d5bd14f71427d1e84f3dd0314c0f7b2291e5b200ac8c7c3b92560405160405180910390a45050565b6000611b93612561565b90506000600b60008381526020019081526020016000208054611bb5906140ba565b80601f0160208091040260200160405190810160405280929190818152602001828054611be1906140ba565b8015611c2e5780601f10611c0357610100808354040283529160200191611c2e565b820191906000526020600020905b815481529060010190602001808311611c1157829003601f168201915b50505050509050600b60006006548152602001908152602001600020600b6000848152602001908152602001600020908054611c69906140ba565b611c74929190612b54565b5080600b600060065481526020019081526020016000209080519060200190611c9e929190612be1565b505050565b60606000600b60006006548152602001908152602001600020604051602001611ccc9190613af0565b604051602081830303815290604052905060608060405180608001604052808381526020018281526020014281526020013373ffffffffffffffffffffffffffffffffffffffff16815250600a84604051611d279190613a9e565b90815260200160405180910390206000820151816000019080519060200190611d51929190612a2a565b506020820151816001019080519060200190611d6e929190612a8a565b506040820151816002015560608201518160030160006101000a81548173ffffffffffffffffffffffffffffffffffffffff021916908373ffffffffffffffffffffffffffffffffffffffff16021790555090505082935050505090565b6000611dd782611a5c565b611e16576040517f08c379a0000000000000000000000000000000000000000000000000000000008152600401611e0d90613cdc565b60405180910390fd5b6000611e2183610c4f565b90508073ffffffffffffffffffffffffffffffffffffffff168473ffffffffffffffffffffffffffffffffffffffff161480611e9057508373ffffffffffffffffffffffffffffffffffffffff16611e78846106ba565b73ffffffffffffffffffffffffffffffffffffffff16145b80611ea15750611ea0818561172a565b5b91505092915050565b8273ffffffffffffffffffffffffffffffffffffffff16611eca82610c4f565b73ffffffffffffffffffffffffffffffffffffffff1614611f20576040517f08c379a0000000000000000000000000000000000000000000000000000000008152600401611f1790613d9c565b60405180910390fd5b600073ffffffffffffffffffffffffffffffffffffffff168273ffffffffffffffffffffffffffffffffffffffff161415611f90576040517f08c379a0000000000000000000000000000000000000000000000000000000008152600401611f8790613c9c565b60405180910390fd5b611f9b8383836125cc565b611fa6600082611ad0565b6001600360008573ffffffffffffffffffffffffffffffffffffffff1673ffffffffffffffffffffffffffffffffffffffff1681526020019081526020016000206000828254611ff69190613fd0565b925050819055506001600360008473ffffffffffffffffffffffffffffffffffffffff1673ffffffffffffffffffffffffffffffffffffffff168152602001908152602001600020600082825461204d9190613f49565b92505081905550816002600083815260200190815260200160002060006101000a81548173ffffffffffffffffffffffffffffffffffffffff021916908373ffffffffffffffffffffffffffffffffffffffff160217905550808273ffffffffffffffffffffffffffffffffffffffff168473ffffffffffffffffffffffffffffffffffffffff167fddf252ad1be2c89b69c2b068fc378daa952ba7f163c4a11628f55a4df523b3ef60405160405180910390a4505050565b600a8282604051612118929190613a85565b9081526020016040518091039020600a8585604051612138929190613a85565b9081526020016040518091039020600082018160000190805461215c929190612c67565b506001820181600101908054612173929190612ccf565b50600282015481600201556003820160009054906101000a900473ffffffffffffffffffffffffffffffffffffffff168160030160006101000a81548173ffffffffffffffffffffffffffffffffffffffff021916908373ffffffffffffffffffffffffffffffffffffffff160217905550905050600a84846040516121fa929190613a85565b90815260200160405180910390206000018484909180600181540180825580915050600190039060005260206000200160009091929091929091929091925091906122469291906129a4565b50600a8484604051612259929190613a85565b9081526020016040518091039020600101339080600181540180825580915050600190039060005260206000200160009091909190916101000a81548173ffffffffffffffffffffffffffffffffffffffff021916908373ffffffffffffffffffffffffffffffffffffffff16021790555050505050565b600060065460075403905060001515600960019054906101000a900460ff1615151480156122ff5750806064105b15612320576001600960016101000a81548160ff0219169083151502179055505b50565b61232e848484611eaa565b61233a848484846125d1565b612379576040517f08c379a000000000000000000000000000000000000000000000000000000000815260040161237090613c5c565b60405180910390fd5b50505050565b606060405180602001604052806000815250905090565b606060008214156123de576040518060400160405280600181526020017f3000000000000000000000000000000000000000000000000000000000000000815250905061253e565b600082905060005b600082146124105780806123f9906140ec565b915050600a826124099190613f9f565b91506123e6565b60008167ffffffffffffffff811115612452577f4e487b7100000000000000000000000000000000000000000000000000000000600052604160045260246000fd5b6040519080825280601f01601f1916602001820160405280156124845781602001600182028036833780820191505090505b5090505b600085146125375760018261249d9190613fd0565b9150600a856124ac919061413f565b60306124b89190613f49565b60f81b8183815181106124f4577f4e487b7100000000000000000000000000000000000000000000000000000000600052603260045260246000fd5b60200101907effffffffffffffffffffffffffffffffffffffffffffffffffffffffffffff1916908160001a905350600a856125309190613f9f565b9450612488565b8093505050505b919050565b61255d828260405180602001604052806000815250612768565b5050565b600060644442600b60006006548152602001908152602001600020600b600060075481526020019081526020016000206040516020016125a49493929190613b12565b6040516020818303038152906040528051906020012060001c6125c7919061413f565b905090565b505050565b60006125f28473ffffffffffffffffffffffffffffffffffffffff166127c3565b1561275b578373ffffffffffffffffffffffffffffffffffffffff1663150b7a0261261b611ac8565b8786866040518563ffffffff1660e01b815260040161263d9493929190613b73565b602060405180830381600087803b15801561265757600080fd5b505af192505050801561268857506040513d601f19601f820116820180604052508101906126859190613142565b60015b61270b573d80600081146126b8576040519150601f19603f3d011682016040523d82523d6000602084013e6126bd565b606091505b50600081511415612703576040517f08c379a00000000000000000000000000000000000000000000000000000000081526004016126fa90613c5c565b60405180910390fd5b805181602001fd5b63150b7a0260e01b7bffffffffffffffffffffffffffffffffffffffffffffffffffffffff1916817bffffffffffffffffffffffffffffffffffffffffffffffffffffffff191614915050612760565b600190505b949350505050565b61277283836127d6565b61277f60008484846125d1565b6127be576040517f08c379a00000000000000000000000000000000000000000000000000000000081526004016127b590613c5c565b60405180910390fd5b505050565b600080823b905060008111915050919050565b600073ffffffffffffffffffffffffffffffffffffffff168273ffffffffffffffffffffffffffffffffffffffff161415612846576040517f08c379a000000000000000000000000000000000000000000000000000000000815260040161283d90613d5c565b60405180910390fd5b61284f81611a5c565b1561288f576040517f08c379a000000000000000000000000000000000000000000000000000000000815260040161288690613c7c565b60405180910390fd5b61289b600083836125cc565b6001600360008473ffffffffffffffffffffffffffffffffffffffff1673ffffffffffffffffffffffffffffffffffffffff16815260200190815260200160002060008282546128eb9190613f49565b92505081905550816002600083815260200190815260200160002060006101000a81548173ffffffffffffffffffffffffffffffffffffffff021916908373ffffffffffffffffffffffffffffffffffffffff160217905550808273ffffffffffffffffffffffffffffffffffffffff16600073ffffffffffffffffffffffffffffffffffffffff167fddf252ad1be2c89b69c2b068fc378daa952ba7f163c4a11628f55a4df523b3ef60405160405180910390a45050565b8280546129b0906140ba565b90600052602060002090601f0160209004810192826129d25760008555612a19565b82601f106129eb57803560ff1916838001178555612a19565b82800160010185558215612a19579182015b82811115612a185782358255916020019190600101906129fd565b5b509050612a269190612d21565b5090565b828054828255906000526020600020908101928215612a79579160200282015b82811115612a78578251829080519060200190612a68929190612be1565b5091602001919060010190612a4a565b5b509050612a869190612d3e565b5090565b828054828255906000526020600020908101928215612b03579160200282015b82811115612b025782518260006101000a81548173ffffffffffffffffffffffffffffffffffffffff021916908373ffffffffffffffffffffffffffffffffffffffff16021790555091602001919060010190612aaa565b5b509050612b109190612d21565b5090565b508054612b20906140ba565b6000825580601f10612b325750612b51565b601f016020900490600052602060002090810190612b509190612d21565b5b50565b828054612b60906140ba565b90600052602060002090601f016020900481019282612b825760008555612bd0565b82601f10612b935780548555612bd0565b82800160010185558215612bd057600052602060002091601f016020900482015b82811115612bcf578254825591600101919060010190612bb4565b5b509050612bdd9190612d21565b5090565b828054612bed906140ba565b90600052602060002090601f016020900481019282612c0f5760008555612c56565b82601f10612c2857805160ff1916838001178555612c56565b82800160010185558215612c56579182015b82811115612c55578251825591602001919060010190612c3a565b5b509050612c639190612d21565b5090565b828054828255906000526020600020908101928215612cbe5760005260206000209182015b82811115612cbd578282908054612ca2906140ba565b612cad929190612d62565b5091600101919060010190612c8c565b5b509050612ccb9190612d3e565b5090565b828054828255906000526020600020908101928215612d105760005260206000209182015b82811115612d0f578254825591600101919060010190612cf4565b5b509050612d1d9190612d21565b5090565b5b80821115612d3a576000816000905550600101612d22565b5090565b5b80821115612d5e5760008181612d559190612b14565b50600101612d3f565b5090565b828054612d6e906140ba565b90600052602060002090601f016020900481019282612d905760008555612dde565b82601f10612da15780548555612dde565b82800160010185558215612dde57600052602060002091601f016020900482015b82811115612ddd578254825591600101919060010190612dc2565b5b509050612deb9190612d21565b5090565b6000612e02612dfd84613e91565b613e60565b905082815260208101848484011115612e1a57600080fd5b612e25848285614078565b509392505050565b6000612e40612e3b84613ec1565b613e60565b905082815260208101848484011115612e5857600080fd5b612e63848285614078565b509392505050565b600081359050612e7a8161423d565b92915050565b600081359050612e8f81614254565b92915050565b600081359050612ea48161426b565b92915050565b600081519050612eb98161426b565b92915050565b600082601f830112612ed057600080fd5b8135612ee0848260208601612def565b91505092915050565b60008083601f840112612efb57600080fd5b8235905067ffffffffffffffff811115612f1457600080fd5b602083019150836001820283011115612f2c57600080fd5b9250929050565b600082601f830112612f4457600080fd5b8135612f54848260208601612e2d565b91505092915050565b600081359050612f6c81614282565b92915050565b600060208284031215612f8457600080fd5b6000612f9284828501612e6b565b91505092915050565b60008060408385031215612fae57600080fd5b6000612fbc85828601612e6b565b9250506020612fcd85828601612e6b565b9150509250929050565b600080600060608486031215612fec57600080fd5b6000612ffa86828701612e6b565b935050602061300b86828701612e6b565b925050604061301c86828701612f5d565b9150509250925092565b6000806000806080858703121561303c57600080fd5b600061304a87828801612e6b565b945050602061305b87828801612e6b565b935050604061306c87828801612f5d565b925050606085013567ffffffffffffffff81111561308957600080fd5b61309587828801612ebf565b91505092959194509250565b600080604083850312156130b457600080fd5b60006130c285828601612e6b565b92505060206130d385828601612e80565b9150509250929050565b600080604083850312156130f057600080fd5b60006130fe85828601612e6b565b925050602061310f85828601612f5d565b9150509250929050565b60006020828403121561312b57600080fd5b600061313984828501612e95565b91505092915050565b60006020828403121561315457600080fd5b600061316284828501612eaa565b91505092915050565b6000806020838503121561317e57600080fd5b600083013567ffffffffffffffff81111561319857600080fd5b6131a485828601612ee9565b92509250509250929050565b600080600080604085870312156131c657600080fd5b600085013567ffffffffffffffff8111156131e057600080fd5b6131ec87828801612ee9565b9450945050602085013567ffffffffffffffff81111561320b57600080fd5b61321787828801612ee9565b925092505092959194509250565b60008060008060006060868803121561323d57600080fd5b600086013567ffffffffffffffff81111561325757600080fd5b61326388828901612ee9565b9550955050602086013567ffffffffffffffff81111561328257600080fd5b61328e88828901612ee9565b935093505060406132a188828901612f5d565b9150509295509295909350565b6000602082840312156132c057600080fd5b600082013567ffffffffffffffff8111156132da57600080fd5b6132e684828501612f33565b91505092915050565b60006020828403121561330157600080fd5b600061330f84828501612f5d565b91505092915050565b61332181614004565b82525050565b61333081614016565b82525050565b600061334182613f06565b61334b8185613f1c565b935061335b818560208601614087565b6133648161422c565b840191505092915050565b600061337b8385613f3e565b9350613388838584614078565b82840190509392505050565b600061339f82613f11565b6133a98185613f2d565b93506133b9818560208601614087565b6133c28161422c565b840191505092915050565b60006133d882613f11565b6133e28185613f3e565b93506133f2818560208601614087565b80840191505092915050565b6000815461340b816140ba565b6134158186613f2d565b94506001821660008114613430576001811461344257613475565b60ff1983168652602086019350613475565b61344b85613ef1565b60005b8381101561346d5781548189015260018201915060208101905061344e565b808801955050505b50505092915050565b6000815461348b816140ba565b6134958186613f3e565b945060018216600081146134b057600181146134c1576134f4565b60ff198316865281860193506134f4565b6134ca85613ef1565b60005b838110156134ec578154818901526001820191506020810190506134cd565b838801955050505b50505092915050565b600061350a600183613f3e565b91507f30000000000000000000000000000000000000000000000000000000000000006000830152600182019050919050565b600061354a603283613f2d565b91507f4552433732313a207472616e7366657220746f206e6f6e20455243373231526560008301527f63656976657220696d706c656d656e74657200000000000000000000000000006020830152604082019050919050565b60006135b0601c83613f2d565b91507f4552433732313a20746f6b656e20616c7265616479206d696e746564000000006000830152602082019050919050565b60006135f0602483613f2d565b91507f4552433732313a207472616e7366657220746f20746865207a65726f2061646460008301527f72657373000000000000000000000000000000000000000000000000000000006020830152604082019050919050565b6000613656601983613f2d565b91507f4552433732313a20617070726f766520746f2063616c6c6572000000000000006000830152602082019050919050565b6000613696602c83613f2d565b91507f4552433732313a206f70657261746f7220717565727920666f72206e6f6e657860008301527f697374656e7420746f6b656e00000000000000000000000000000000000000006020830152604082019050919050565b60006136fc603883613f2d565b91507f4552433732313a20617070726f76652063616c6c6572206973206e6f74206f7760008301527f6e6572206e6f7220617070726f76656420666f7220616c6c00000000000000006020830152604082019050919050565b6000613762602a83613f2d565b91507f4552433732313a2062616c616e636520717565727920666f7220746865207a6560008301527f726f2061646472657373000000000000000000000000000000000000000000006020830152604082019050919050565b60006137c8602983613f2d565b91507f4552433732313a206f776e657220717565727920666f72206e6f6e657869737460008301527f656e7420746f6b656e00000000000000000000000000000000000000000000006020830152604082019050919050565b600061382e602083613f2d565b91507f4552433732313a206d696e7420746f20746865207a65726f20616464726573736000830152602082019050919050565b600061386e602c83613f2d565b91507f4552433732313a20617070726f76656420717565727920666f72206e6f6e657860008301527f697374656e7420746f6b656e00000000000000000000000000000000000000006020830152604082019050919050565b60006138d4602983613f2d565b91507f4552433732313a207472616e73666572206f6620746f6b656e2074686174206960008301527f73206e6f74206f776e00000000000000000000000000000000000000000000006020830152604082019050919050565b600061393a602f83613f2d565b91507f4552433732314d657461646174613a2055524920717565727920666f72206e6f60008301527f6e6578697374656e7420746f6b656e00000000000000000000000000000000006020830152604082019050919050565b60006139a0602183613f2d565b91507f4552433732313a20617070726f76616c20746f2063757272656e74206f776e6560008301527f72000000000000000000000000000000000000000000000000000000000000006020830152604082019050919050565b6000613a06603183613f2d565b91507f4552433732313a207472616e736665722063616c6c6572206973206e6f74206f60008301527f776e6572206e6f7220617070726f7665640000000000000000000000000000006020830152604082019050919050565b613a688161406e565b82525050565b613a7f613a7a8261406e565b614135565b82525050565b6000613a9282848661336f565b91508190509392505050565b6000613aaa82846133cd565b915081905092915050565b6000613ac182856133cd565b9150613acd82846133cd565b91508190509392505050565b6000613ae5828461347e565b915081905092915050565b6000613afc828461347e565b9150613b07826134fd565b915081905092915050565b6000613b1e8287613a6e565b602082019150613b2e8286613a6e565b602082019150613b3e828561347e565b9150613b4a828461347e565b915081905095945050505050565b6000602082019050613b6d6000830184613318565b92915050565b6000608082019050613b886000830187613318565b613b956020830186613318565b613ba26040830185613a5f565b8181036060830152613bb48184613336565b905095945050505050565b6000602082019050613bd46000830184613327565b92915050565b60006020820190508181036000830152613bf48184613394565b905092915050565b60006040820190508181036000830152613c168185613394565b9050613c256020830184613327565b9392505050565b60006040820190508181036000830152613c4681856133fe565b9050613c556020830184613327565b9392505050565b60006020820190508181036000830152613c758161353d565b9050919050565b60006020820190508181036000830152613c95816135a3565b9050919050565b60006020820190508181036000830152613cb5816135e3565b9050919050565b60006020820190508181036000830152613cd581613649565b9050919050565b60006020820190508181036000830152613cf581613689565b9050919050565b60006020820190508181036000830152613d15816136ef565b9050919050565b60006020820190508181036000830152613d3581613755565b9050919050565b60006020820190508181036000830152613d55816137bb565b9050919050565b60006020820190508181036000830152613d7581613821565b9050919050565b60006020820190508181036000830152613d9581613861565b9050919050565b60006020820190508181036000830152613db5816138c7565b9050919050565b60006020820190508181036000830152613dd58161392d565b9050919050565b60006020820190508181036000830152613df581613993565b9050919050565b60006020820190508181036000830152613e15816139f9565b9050919050565b6000602082019050613e316000830184613a5f565b92915050565b6000604082019050613e4c6000830185613a5f565b613e596020830184613318565b9392505050565b6000604051905081810181811067ffffffffffffffff82111715613e8757613e866141fd565b5b8060405250919050565b600067ffffffffffffffff821115613eac57613eab6141fd565b5b601f19601f8301169050602081019050919050565b600067ffffffffffffffff821115613edc57613edb6141fd565b5b601f19601f8301169050602081019050919050565b60008190508160005260206000209050919050565b600081519050919050565b600081519050919050565b600082825260208201905092915050565b600082825260208201905092915050565b600081905092915050565b6000613f548261406e565b9150613f5f8361406e565b9250827fffffffffffffffffffffffffffffffffffffffffffffffffffffffffffffffff03821115613f9457613f93614170565b5b828201905092915050565b6000613faa8261406e565b9150613fb58361406e565b925082613fc557613fc461419f565b5b828204905092915050565b6000613fdb8261406e565b9150613fe68361406e565b925082821015613ff957613ff8614170565b5b828203905092915050565b600061400f8261404e565b9050919050565b60008115159050919050565b60007fffffffff0000000000000000000000000000000000000000000000000000000082169050919050565b600073ffffffffffffffffffffffffffffffffffffffff82169050919050565b6000819050919050565b82818337600083830152505050565b60005b838110156140a557808201518184015260208101905061408a565b838111156140b4576000848401525b50505050565b600060028204905060018216806140d257607f821691505b602082108114156140e6576140e56141ce565b5b50919050565b60006140f78261406e565b91507fffffffffffffffffffffffffffffffffffffffffffffffffffffffffffffffff82141561412a57614129614170565b5b600182019050919050565b6000819050919050565b600061414a8261406e565b91506141558361406e565b9250826141655761416461419f565b5b828206905092915050565b7f4e487b7100000000000000000000000000000000000000000000000000000000600052601160045260246000fd5b7f4e487b7100000000000000000000000000000000000000000000000000000000600052601260045260246000fd5b7f4e487b7100000000000000000000000000000000000000000000000000000000600052602260045260246000fd5b7f4e487b7100000000000000000000000000000000000000000000000000000000600052604160045260246000fd5b6000601f19601f8301169050919050565b61424681614004565b811461425157600080fd5b50565b61425d81614016565b811461426857600080fd5b50565b61427481614022565b811461427f57600080fd5b50565b61428b8161406e565b811461429657600080fd5b5056fea26469706673582212207576c4f65041afe27b9f2b6227578a07706d807c2394117c629b89b1fab047f464736f6c63430008000033",
  "immutableReferences": {},
  "source": "pragma solidity ^0.8.0;\n\nimport \"../node_modules/@openzeppelin/contracts/token/ERC721/ERC721.sol\";\n\ncontract FrankensteinTexts is ERC721 {\n    uint256 public requestCounter;\n\n    uint256 public submitCounter;\n\n    uint256 public frankieId;\n\n    bool public firstTime;\n\n    bool public green;\n\n    address public victor;\n\n    event RequestedText(string cid, bool isPlot);\n\n    struct Frankie {\n        string[] cids;\n        address[] writers;\n        uint256 editSince;\n        address editor;\n    }\n\n    mapping(string => Frankie) public frankies;\n\n    mapping(uint256 => string) private cidOrder;\n\n    mapping(address => string[]) public untitledTexts;\n\n    mapping(uint256 => string) public mintedCids;\n\n    constructor() ERC721(\"Frankies\", \"FKE\") {\n        requestCounter = 0;\n        submitCounter = 0;\n        frankieId = 0;\n        victor = msg.sender;\n        firstTime = true;\n        green = true;\n    }\n\n    modifier isVictor() {\n        require(msg.sender == victor);\n        _;\n    }\n\n    modifier isGreen() {\n        require(green == true);\n        _;\n    }\n\n    modifier isEditor(string calldata oldCid) {\n        require(frankies[oldCid].editor == msg.sender);\n        _;\n    }\n\n    function _setGreenTrue() private {\n      uint256 distance;\n      unchecked { distance = submitCounter - requestCounter; }\n      if (green == false && 100 < distance) {\n        green = true;\n      }\n    }\n\n    function _shuffle() private view returns (uint256) {\n        return\n            uint256(\n                keccak256(\n                    abi.encodePacked(\n                        block.difficulty,\n                        block.timestamp,\n                        cidOrder[requestCounter],\n                        cidOrder[submitCounter]\n                    )\n                )\n            ) % 100;\n    }\n\n    function _dealer() private {\n        uint256 random = _shuffle();\n        string memory chosen = cidOrder[random];\n        cidOrder[random] = cidOrder[requestCounter];\n        cidOrder[requestCounter] = chosen;\n    }\n\n    function _startFrankie() private returns (string memory) {\n        string memory startCid = string(abi.encodePacked(cidOrder[requestCounter], '0'));\n        string[] memory cids;\n        address[] memory writers;\n        frankies[startCid] = Frankie(cids, writers, block.timestamp, msg.sender);\n        return startCid;\n    }\n\n    function _updateFrankie(string calldata newCid, string calldata oldCid) private {\n        frankies[newCid] = frankies[oldCid];\n        frankies[newCid].cids.push(newCid);\n        frankies[newCid].writers.push(msg.sender);\n    }\n\n    function requestText() public isGreen() returns (string memory) {\n        uint256 distance;\n        _dealer();\n        uint256 rc = requestCounter;\n        if (rc % 5 == 0) {\n            if (firstTime == true) {\n                string memory startCid = _startFrankie();\n                firstTime = false;\n                emit RequestedText(startCid, true);\n                return startCid;\n            } else {\n                firstTime = true;\n            }\n        }\n        unchecked {\n            requestCounter++;\n            distance = submitCounter - requestCounter;\n        }\n        if (100 >= distance) {\n            green = false;\n        }\n        frankies[cidOrder[rc]].editSince = block.timestamp;\n        frankies[cidOrder[rc]].editor = msg.sender;\n        emit RequestedText(cidOrder[rc], false);\n        return cidOrder[rc];\n    }\n\n    function submitText(string calldata oldCid, string calldata newCid) public isEditor(oldCid) {\n        if (frankies[oldCid].editSince + 1 hours < block.timestamp) {\n            _updateFrankie(newCid, oldCid);\n            if (frankies[newCid].writers.length == 5) {\n                for (uint256 i = 0; i < 5; i++) {\n                    untitledTexts[frankies[newCid].writers[i]].push(newCid);\n                }\n            } else {\n                cidOrder[submitCounter] = newCid;\n                unchecked { submitCounter++; }\n            }\n        } else {\n            cidOrder[submitCounter] = oldCid;\n            unchecked { submitCounter++; }\n        }\n        _setGreenTrue();\n    }\n\n    function mintFrankie(\n        string calldata newCid,\n        string calldata oldCid,\n        uint256 untitledId\n    ) public returns (uint256) {\n        require(frankies[oldCid].editSince + 3 days < block.timestamp);\n        bool isWriter;\n        for(uint i=0; i < 5; i++) {\n          if(msg.sender == frankies[oldCid].writers[i]) {\n            isWriter = true;\n          }\n        }\n        require(isWriter = true);\n\n        _updateFrankie(newCid, oldCid);\n        delete untitledTexts[msg.sender][untitledId];\n        frankieId++;\n        _safeMint(msg.sender, frankieId);\n        mintedCids[frankieId] = newCid;\n        return frankieId;\n    }\n\n    function seedPlot(string calldata cid) public isVictor() {\n        string[] memory cids;\n        address[] memory writers;\n        frankies[cid] = Frankie(cids, writers, block.timestamp, msg.sender);\n        frankies[cid].cids.push(cid);\n        frankies[cid].writers.push(msg.sender);\n        cidOrder[submitCounter] = cid;\n        submitCounter++;\n        _setGreenTrue();\n    }\n}\n",
  "sourcePath": "/home/mariomazzaferro/projects/blockchain-developer-bootcamp-final-project/contracts/FrankensteinTexts.sol",
  "compiler": {
    "name": "solc",
    "version": "0.8.0+commit.c7dfd78e.Emscripten.clang"
  },
  "schemaVersion": "3.4.1",
  "updatedAt": "2021-10-21T14:38:16.035Z",
  "networkType": "ethereum",
  "devdoc": {
    "kind": "dev",
    "methods": {
      "approve(address,uint256)": {
        "details": "See {IERC721-approve}."
      },
      "balanceOf(address)": {
        "details": "See {IERC721-balanceOf}."
      },
      "getApproved(uint256)": {
        "details": "See {IERC721-getApproved}."
      },
      "isApprovedForAll(address,address)": {
        "details": "See {IERC721-isApprovedForAll}."
      },
      "name()": {
        "details": "See {IERC721Metadata-name}."
      },
      "ownerOf(uint256)": {
        "details": "See {IERC721-ownerOf}."
      },
      "safeTransferFrom(address,address,uint256)": {
        "details": "See {IERC721-safeTransferFrom}."
      },
      "safeTransferFrom(address,address,uint256,bytes)": {
        "details": "See {IERC721-safeTransferFrom}."
      },
      "setApprovalForAll(address,bool)": {
        "details": "See {IERC721-setApprovalForAll}."
      },
      "supportsInterface(bytes4)": {
        "details": "See {IERC165-supportsInterface}."
      },
      "symbol()": {
        "details": "See {IERC721Metadata-symbol}."
      },
      "tokenURI(uint256)": {
        "details": "See {IERC721Metadata-tokenURI}."
      },
      "transferFrom(address,address,uint256)": {
        "details": "See {IERC721-transferFrom}."
      }
    },
    "version": 1
  },
  "userdoc": {
    "kind": "user",
    "methods": {},
    "version": 1
  }
}