{
  "contractName": "FrankensteinTexts",
  "abi": [
    {
      "inputs": [],
      "stateMutability": "nonpayable",
      "type": "constructor"
    },
    {
      "anonymous": false,
      "inputs": [
        {
          "indexed": true,
          "internalType": "address",
          "name": "owner",
          "type": "address"
        },
        {
          "indexed": true,
          "internalType": "address",
          "name": "approved",
          "type": "address"
        },
        {
          "indexed": true,
          "internalType": "uint256",
          "name": "tokenId",
          "type": "uint256"
        }
      ],
      "name": "Approval",
      "type": "event"
    },
    {
      "anonymous": false,
      "inputs": [
        {
          "indexed": true,
          "internalType": "address",
          "name": "owner",
          "type": "address"
        },
        {
          "indexed": true,
          "internalType": "address",
          "name": "operator",
          "type": "address"
        },
        {
          "indexed": false,
          "internalType": "bool",
          "name": "approved",
          "type": "bool"
        }
      ],
      "name": "ApprovalForAll",
      "type": "event"
    },
    {
      "anonymous": false,
      "inputs": [
        {
          "indexed": false,
          "internalType": "uint256",
          "name": "nftId",
          "type": "uint256"
        },
        {
          "indexed": false,
          "internalType": "string",
          "name": "nftCid",
          "type": "string"
        }
      ],
      "name": "MintedFrankie",
      "type": "event"
    },
    {
      "anonymous": false,
      "inputs": [
        {
          "indexed": false,
          "internalType": "string",
          "name": "cid",
          "type": "string"
        },
        {
          "indexed": false,
          "internalType": "bool",
          "name": "isPlot",
          "type": "bool"
        }
      ],
      "name": "RequestedText",
      "type": "event"
    },
    {
      "anonymous": false,
      "inputs": [
        {
          "indexed": true,
          "internalType": "address",
          "name": "from",
          "type": "address"
        },
        {
          "indexed": true,
          "internalType": "address",
          "name": "to",
          "type": "address"
        },
        {
          "indexed": true,
          "internalType": "uint256",
          "name": "tokenId",
          "type": "uint256"
        }
      ],
      "name": "Transfer",
      "type": "event"
    },
    {
      "inputs": [
        {
          "internalType": "address",
          "name": "to",
          "type": "address"
        },
        {
          "internalType": "uint256",
          "name": "tokenId",
          "type": "uint256"
        }
      ],
      "name": "approve",
      "outputs": [],
      "stateMutability": "nonpayable",
      "type": "function"
    },
    {
      "inputs": [
        {
          "internalType": "address",
          "name": "owner",
          "type": "address"
        }
      ],
      "name": "balanceOf",
      "outputs": [
        {
          "internalType": "uint256",
          "name": "",
          "type": "uint256"
        }
      ],
      "stateMutability": "view",
      "type": "function",
      "constant": true
    },
    {
      "inputs": [],
      "name": "firstTime",
      "outputs": [
        {
          "internalType": "bool",
          "name": "",
          "type": "bool"
        }
      ],
      "stateMutability": "view",
      "type": "function",
      "constant": true
    },
    {
      "inputs": [],
      "name": "frankieId",
      "outputs": [
        {
          "internalType": "uint256",
          "name": "",
          "type": "uint256"
        }
      ],
      "stateMutability": "view",
      "type": "function",
      "constant": true
    },
    {
      "inputs": [
        {
          "internalType": "string",
          "name": "",
          "type": "string"
        }
      ],
      "name": "frankies",
      "outputs": [
        {
          "internalType": "uint256",
          "name": "editSince",
          "type": "uint256"
        },
        {
          "internalType": "address",
          "name": "editor",
          "type": "address"
        }
      ],
      "stateMutability": "view",
      "type": "function",
      "constant": true
    },
    {
      "inputs": [
        {
          "internalType": "uint256",
          "name": "tokenId",
          "type": "uint256"
        }
      ],
      "name": "getApproved",
      "outputs": [
        {
          "internalType": "address",
          "name": "",
          "type": "address"
        }
      ],
      "stateMutability": "view",
      "type": "function",
      "constant": true
    },
    {
      "inputs": [],
      "name": "green",
      "outputs": [
        {
          "internalType": "bool",
          "name": "",
          "type": "bool"
        }
      ],
      "stateMutability": "view",
      "type": "function",
      "constant": true
    },
    {
      "inputs": [
        {
          "internalType": "address",
          "name": "owner",
          "type": "address"
        },
        {
          "internalType": "address",
          "name": "operator",
          "type": "address"
        }
      ],
      "name": "isApprovedForAll",
      "outputs": [
        {
          "internalType": "bool",
          "name": "",
          "type": "bool"
        }
      ],
      "stateMutability": "view",
      "type": "function",
      "constant": true
    },
    {
      "inputs": [
        {
          "internalType": "uint256",
          "name": "",
          "type": "uint256"
        }
      ],
      "name": "mintedCids",
      "outputs": [
        {
          "internalType": "string",
          "name": "",
          "type": "string"
        }
      ],
      "stateMutability": "view",
      "type": "function",
      "constant": true
    },
    {
      "inputs": [],
      "name": "name",
      "outputs": [
        {
          "internalType": "string",
          "name": "",
          "type": "string"
        }
      ],
      "stateMutability": "view",
      "type": "function",
      "constant": true
    },
    {
      "inputs": [
        {
          "internalType": "uint256",
          "name": "tokenId",
          "type": "uint256"
        }
      ],
      "name": "ownerOf",
      "outputs": [
        {
          "internalType": "address",
          "name": "",
          "type": "address"
        }
      ],
      "stateMutability": "view",
      "type": "function",
      "constant": true
    },
    {
      "inputs": [],
      "name": "requestCounter",
      "outputs": [
        {
          "internalType": "uint256",
          "name": "",
          "type": "uint256"
        }
      ],
      "stateMutability": "view",
      "type": "function",
      "constant": true
    },
    {
      "inputs": [
        {
          "internalType": "address",
          "name": "from",
          "type": "address"
        },
        {
          "internalType": "address",
          "name": "to",
          "type": "address"
        },
        {
          "internalType": "uint256",
          "name": "tokenId",
          "type": "uint256"
        }
      ],
      "name": "safeTransferFrom",
      "outputs": [],
      "stateMutability": "nonpayable",
      "type": "function"
    },
    {
      "inputs": [
        {
          "internalType": "address",
          "name": "from",
          "type": "address"
        },
        {
          "internalType": "address",
          "name": "to",
          "type": "address"
        },
        {
          "internalType": "uint256",
          "name": "tokenId",
          "type": "uint256"
        },
        {
          "internalType": "bytes",
          "name": "_data",
          "type": "bytes"
        }
      ],
      "name": "safeTransferFrom",
      "outputs": [],
      "stateMutability": "nonpayable",
      "type": "function"
    },
    {
      "inputs": [
        {
          "internalType": "address",
          "name": "operator",
          "type": "address"
        },
        {
          "internalType": "bool",
          "name": "approved",
          "type": "bool"
        }
      ],
      "name": "setApprovalForAll",
      "outputs": [],
      "stateMutability": "nonpayable",
      "type": "function"
    },
    {
      "inputs": [],
      "name": "submitCounter",
      "outputs": [
        {
          "internalType": "uint256",
          "name": "",
          "type": "uint256"
        }
      ],
      "stateMutability": "view",
      "type": "function",
      "constant": true
    },
    {
      "inputs": [
        {
          "internalType": "bytes4",
          "name": "interfaceId",
          "type": "bytes4"
        }
      ],
      "name": "supportsInterface",
      "outputs": [
        {
          "internalType": "bool",
          "name": "",
          "type": "bool"
        }
      ],
      "stateMutability": "view",
      "type": "function",
      "constant": true
    },
    {
      "inputs": [],
      "name": "symbol",
      "outputs": [
        {
          "internalType": "string",
          "name": "",
          "type": "string"
        }
      ],
      "stateMutability": "view",
      "type": "function",
      "constant": true
    },
    {
      "inputs": [
        {
          "internalType": "uint256",
          "name": "tokenId",
          "type": "uint256"
        }
      ],
      "name": "tokenURI",
      "outputs": [
        {
          "internalType": "string",
          "name": "",
          "type": "string"
        }
      ],
      "stateMutability": "view",
      "type": "function",
      "constant": true
    },
    {
      "inputs": [
        {
          "internalType": "address",
          "name": "from",
          "type": "address"
        },
        {
          "internalType": "address",
          "name": "to",
          "type": "address"
        },
        {
          "internalType": "uint256",
          "name": "tokenId",
          "type": "uint256"
        }
      ],
      "name": "transferFrom",
      "outputs": [],
      "stateMutability": "nonpayable",
      "type": "function"
    },
    {
      "inputs": [
        {
          "internalType": "address",
          "name": "",
          "type": "address"
        }
      ],
      "name": "untitledCounter",
      "outputs": [
        {
          "internalType": "uint256",
          "name": "",
          "type": "uint256"
        }
      ],
      "stateMutability": "view",
      "type": "function",
      "constant": true
    },
    {
      "inputs": [
        {
          "internalType": "address",
          "name": "",
          "type": "address"
        },
        {
          "internalType": "uint256",
          "name": "",
          "type": "uint256"
        }
      ],
      "name": "untitledTexts",
      "outputs": [
        {
          "internalType": "string",
          "name": "",
          "type": "string"
        }
      ],
      "stateMutability": "view",
      "type": "function",
      "constant": true
    },
    {
      "inputs": [],
      "name": "victor",
      "outputs": [
        {
          "internalType": "address",
          "name": "",
          "type": "address"
        }
      ],
      "stateMutability": "view",
      "type": "function",
      "constant": true
    },
    {
      "inputs": [],
      "name": "requestText",
      "outputs": [
        {
          "internalType": "string",
          "name": "",
          "type": "string"
        }
      ],
      "stateMutability": "nonpayable",
      "type": "function"
    },
    {
      "inputs": [
        {
          "internalType": "string",
          "name": "oldCid",
          "type": "string"
        },
        {
          "internalType": "string",
          "name": "newCid",
          "type": "string"
        }
      ],
      "name": "submitText",
      "outputs": [],
      "stateMutability": "nonpayable",
      "type": "function"
    },
    {
      "inputs": [
        {
          "internalType": "string",
          "name": "oldCid",
          "type": "string"
        },
        {
          "internalType": "string",
          "name": "newCid",
          "type": "string"
        }
      ],
      "name": "mintFrankie",
      "outputs": [
        {
          "internalType": "uint256",
          "name": "",
          "type": "uint256"
        }
      ],
      "stateMutability": "nonpayable",
      "type": "function"
    },
    {
      "inputs": [],
      "name": "requestUntitled",
      "outputs": [
        {
          "internalType": "string",
          "name": "",
          "type": "string"
        }
      ],
      "stateMutability": "view",
      "type": "function",
      "constant": true
    },
    {
      "inputs": [],
      "name": "discardUntitled",
      "outputs": [],
      "stateMutability": "nonpayable",
      "type": "function"
    },
    {
      "inputs": [
        {
          "internalType": "string",
          "name": "cid",
          "type": "string"
        }
      ],
      "name": "seedPlot",
      "outputs": [],
      "stateMutability": "nonpayable",
      "type": "function"
    }
  ],
  "bytecode": "0x60806040523480156200001157600080fd5b506040518060400160405280600881526020017f4672616e6b6965730000000000000000000000000000000000000000000000008152506040518060400160405280600381526020017f464b45000000000000000000000000000000000000000000000000000000000081525081600090805190602001906200009692919062000147565b508060019080519060200190620000af92919062000147565b50505060006006819055506000600781905550600060088190555033600960026101000a81548173ffffffffffffffffffffffffffffffffffffffff021916908373ffffffffffffffffffffffffffffffffffffffff1602179055506001600960006101000a81548160ff0219169083151502179055506000600960016101000a81548160ff0219169083151502179055506200025c565b8280546200015590620001f7565b90600052602060002090601f016020900481019282620001795760008555620001c5565b82601f106200019457805160ff1916838001178555620001c5565b82800160010185558215620001c5579182015b82811115620001c4578251825591602001919060010190620001a7565b5b509050620001d49190620001d8565b5090565b5b80821115620001f3576000816000905550600101620001d9565b5090565b600060028204905060018216806200021057607f821691505b602082108114156200022757620002266200022d565b5b50919050565b7f4e487b7100000000000000000000000000000000000000000000000000000000600052602260045260246000fd5b61467d806200026c6000396000f3fe608060405234801561001057600080fd5b50600436106101cf5760003560e01c806384478ad311610104578063b17de4af116100a2578063e985e9c511610071578063e985e9c514610557578063ef06b90214610587578063f2f1e13214610591578063fb5556b9146105af576101cf565b8063b17de4af146104d1578063b88d4fde146104ed578063c87b56dd14610509578063d812da2714610539576101cf565b8063973a814e116100de578063973a814e1461045d5780639a791cb31461047b578063a22cb46514610497578063ae52bc97146104b3576101cf565b806384478ad3146103de5780638ffd2b771461040e57806395d89b411461043f576101cf565b80632c5bbc5c116101715780634ee069b81161014b5780634ee069b8146103305780636352211e1461036057806370a08231146103905780637403a42a146103c0576101cf565b80632c5bbc5c146102d857806341d76a9c146102f657806342842e0e14610314576101cf565b8063095ea7b3116101ad578063095ea7b3146102525780631415f1e71461026e5780631d10b4301461028c57806323b872dd146102bc576101cf565b806301ffc9a7146101d457806306fdde0314610204578063081812fc14610222575b600080fd5b6101ee60048036038101906101e991906134f1565b6105df565b6040516101fb9190613f3b565b60405180910390f35b61020c6106c1565b6040516102199190613f56565b60405180910390f35b61023c6004803603810190610237919061363e565b610753565b6040516102499190613ed4565b60405180910390f35b61026c600480360381019061026791906134b5565b6107d8565b005b6102766108f0565b6040516102839190613f56565b60405180910390f35b6102a660048036038101906102a19190613588565b610bb4565b6040516102b39190614198565b60405180910390f35b6102d660048036038101906102d191906133af565b610dd9565b005b6102e0610e39565b6040516102ed9190613f56565b60405180910390f35b6102fe611016565b60405161030b9190613f3b565b60405180910390f35b61032e600480360381019061032991906133af565b611029565b005b61034a6004803603810190610345919061363e565b611049565b6040516103579190613f56565b60405180910390f35b61037a6004803603810190610375919061363e565b6110e9565b6040516103879190613ed4565b60405180910390f35b6103aa60048036038101906103a5919061334a565b61119b565b6040516103b79190614198565b60405180910390f35b6103c8611253565b6040516103d59190614198565b60405180910390f35b6103f860048036038101906103f391906134b5565b611259565b6040516104059190613f56565b60405180910390f35b610428600480360381019061042391906135fd565b611312565b6040516104369291906141b3565b60405180910390f35b61044761136c565b6040516104549190613f56565b60405180910390f35b6104656113fe565b6040516104729190614198565b60405180910390f35b61049560048036038101906104909190613588565b611404565b005b6104b160048036038101906104ac9190613479565b61169e565b005b6104bb61181f565b6040516104c89190613ed4565b60405180910390f35b6104eb60048036038101906104e69190613543565b611845565b005b610507600480360381019061050291906133fe565b611ab5565b005b610523600480360381019061051e919061363e565b611b17565b6040516105309190613f56565b60405180910390f35b610541611bbe565b60405161054e9190614198565b60405180910390f35b610571600480360381019061056c9190613373565b611bc4565b60405161057e9190613f3b565b60405180910390f35b61058f611c58565b005b610599611d3c565b6040516105a69190613f3b565b60405180910390f35b6105c960048036038101906105c4919061334a565b611d4f565b6040516105d69190614198565b60405180910390f35b60007f80ac58cd000000000000000000000000000000000000000000000000000000007bffffffffffffffffffffffffffffffffffffffffffffffffffffffff1916827bffffffffffffffffffffffffffffffffffffffffffffffffffffffff191614806106aa57507f5b5e139f000000000000000000000000000000000000000000000000000000007bffffffffffffffffffffffffffffffffffffffffffffffffffffffff1916827bffffffffffffffffffffffffffffffffffffffffffffffffffffffff1916145b806106ba57506106b982611d67565b5b9050919050565b6060600080546106d090614468565b80601f01602080910402602001604051908101604052809291908181526020018280546106fc90614468565b80156107495780601f1061071e57610100808354040283529160200191610749565b820191906000526020600020905b81548152906001019060200180831161072c57829003601f168201915b5050505050905090565b600061075e82611dd1565b61079d576040517f08c379a0000000000000000000000000000000000000000000000000000000008152600401610794906140f8565b60405180910390fd5b6004600083815260200190815260200160002060009054906101000a900473ffffffffffffffffffffffffffffffffffffffff169050919050565b60006107e3826110e9565b90508073ffffffffffffffffffffffffffffffffffffffff168373ffffffffffffffffffffffffffffffffffffffff161415610854576040517f08c379a000000000000000000000000000000000000000000000000000000000815260040161084b90614158565b60405180910390fd5b8073ffffffffffffffffffffffffffffffffffffffff16610873611e3d565b73ffffffffffffffffffffffffffffffffffffffff1614806108a257506108a18161089c611e3d565b611bc4565b5b6108e1576040517f08c379a00000000000000000000000000000000000000000000000000000000081526004016108d890614078565b60405180910390fd5b6108eb8383611e45565b505050565b606060011515600960019054906101000a900460ff1615151461091257600080fd5b61091a611efe565b60006006549050600060048261093091906144ed565b14156109d95760011515600960009054906101000a900460ff16151514156109bd57600061095c612018565b90506000600960006101000a81548160ff0219169083151502179055507f4d23f7784a9808f0d61aaf785193abb3226d4f33a5a3574f776b4f8d48bffb168160016040516109ab929190613f78565b60405180910390a18092505050610bb1565b6001600960006101000a81548160ff0219169083151502179055505b600060066000815480929190600101919050555060065460075403905080606410610a1a576000600960016101000a81548160ff0219169083151502179055505b42600a600b6000858152602001908152602001600020604051610a3d9190613e55565b90815260200160405180910390206002018190555033600a600b6000858152602001908152602001600020604051610a759190613e55565b908152602001604051809103902060030160006101000a81548173ffffffffffffffffffffffffffffffffffffffff021916908373ffffffffffffffffffffffffffffffffffffffff1602179055507f4d23f7784a9808f0d61aaf785193abb3226d4f33a5a3574f776b4f8d48bffb16600b60008481526020019081526020016000206000604051610b08929190613fa8565b60405180910390a1600b60008381526020019081526020016000208054610b2e90614468565b80601f0160208091040260200160405190810160405280929190818152602001828054610b5a90614468565b8015610ba75780601f10610b7c57610100808354040283529160200191610ba7565b820191906000526020600020905b815481529060010190602001808311610b8a57829003601f168201915b5050505050925050505b90565b6000426203f480600a8787604051610bcd929190613e01565b908152602001604051809103902060020154610be991906142f7565b11610bf357600080fd5b600080600090505b6005811015610cd557600a8787604051610c16929190613e01565b90815260200160405180910390206001018181548110610c5f577f4e487b7100000000000000000000000000000000000000000000000000000000600052603260045260246000fd5b9060005260206000200160009054906101000a900473ffffffffffffffffffffffffffffffffffffffff1673ffffffffffffffffffffffffffffffffffffffff163373ffffffffffffffffffffffffffffffffffffffff161415610cc257600191505b8080610ccd9061449a565b915050610bfb565b506001905080610ce457600080fd5b610cf084848888612141565b600d60003373ffffffffffffffffffffffffffffffffffffffff1673ffffffffffffffffffffffffffffffffffffffff1681526020019081526020016000206000815480929190610d409061449a565b919050555060086000815480929190610d589061449a565b9190505550610d693360085461236f565b8383600e600060085481526020019081526020016000209190610d8d929190612d7c565b507f22f1a4c231d55f64bab6355b1f1f7137edc522fea2f774a252ba1a0219eac2066008548585604051610dc3939291906141dc565b60405180910390a1600854915050949350505050565b610dea610de4611e3d565b8261238d565b610e29576040517f08c379a0000000000000000000000000000000000000000000000000000000008152600401610e2090614178565b60405180910390fd5b610e3483838361246b565b505050565b6060600d60003373ffffffffffffffffffffffffffffffffffffffff1673ffffffffffffffffffffffffffffffffffffffff16815260200190815260200160002054600c60003373ffffffffffffffffffffffffffffffffffffffff1673ffffffffffffffffffffffffffffffffffffffff1681526020019081526020016000208054905011610ec857600080fd5b600c60003373ffffffffffffffffffffffffffffffffffffffff1673ffffffffffffffffffffffffffffffffffffffff168152602001908152602001600020600d60003373ffffffffffffffffffffffffffffffffffffffff1673ffffffffffffffffffffffffffffffffffffffff1681526020019081526020016000205481548110610f7e577f4e487b7100000000000000000000000000000000000000000000000000000000600052603260045260246000fd5b906000526020600020018054610f9390614468565b80601f0160208091040260200160405190810160405280929190818152602001828054610fbf90614468565b801561100c5780601f10610fe15761010080835404028352916020019161100c565b820191906000526020600020905b815481529060010190602001808311610fef57829003601f168201915b5050505050905090565b600960009054906101000a900460ff1681565b61104483838360405180602001604052806000815250611ab5565b505050565b600e602052806000526040600020600091509050805461106890614468565b80601f016020809104026020016040519081016040528092919081815260200182805461109490614468565b80156110e15780601f106110b6576101008083540402835291602001916110e1565b820191906000526020600020905b8154815290600101906020018083116110c457829003601f168201915b505050505081565b6000806002600084815260200190815260200160002060009054906101000a900473ffffffffffffffffffffffffffffffffffffffff169050600073ffffffffffffffffffffffffffffffffffffffff168173ffffffffffffffffffffffffffffffffffffffff161415611192576040517f08c379a0000000000000000000000000000000000000000000000000000000008152600401611189906140b8565b60405180910390fd5b80915050919050565b60008073ffffffffffffffffffffffffffffffffffffffff168273ffffffffffffffffffffffffffffffffffffffff16141561120c576040517f08c379a000000000000000000000000000000000000000000000000000000000815260040161120390614098565b60405180910390fd5b600360008373ffffffffffffffffffffffffffffffffffffffff1673ffffffffffffffffffffffffffffffffffffffff168152602001908152602001600020549050919050565b60085481565b600c602052816000526040600020818154811061127557600080fd5b9060005260206000200160009150915050805461129190614468565b80601f01602080910402602001604051908101604052809291908181526020018280546112bd90614468565b801561130a5780601f106112df5761010080835404028352916020019161130a565b820191906000526020600020905b8154815290600101906020018083116112ed57829003601f168201915b505050505081565b600a818051602081018201805184825260208301602085012081835280955050505050506000915090508060020154908060030160009054906101000a900473ffffffffffffffffffffffffffffffffffffffff16905082565b60606001805461137b90614468565b80601f01602080910402602001604051908101604052809291908181526020018280546113a790614468565b80156113f45780601f106113c9576101008083540402835291602001916113f4565b820191906000526020600020905b8154815290600101906020018083116113d757829003601f168201915b5050505050905090565b60065481565b83833373ffffffffffffffffffffffffffffffffffffffff16600a838360405161142f929190613e01565b908152602001604051809103902060030160009054906101000a900473ffffffffffffffffffffffffffffffffffffffff1673ffffffffffffffffffffffffffffffffffffffff161461148157600080fd5b42610e10600a8888604051611497929190613e01565b9081526020016040518091039020600201546114b391906142f7565b1115611656576114c584848888612141565b6005600a85856040516114d9929190613e01565b90815260200160405180910390206001018054905014156116195760005b600581101561161357600c6000600a8787604051611516929190613e01565b9081526020016040518091039020600101838154811061155f577f4e487b7100000000000000000000000000000000000000000000000000000000600052603260045260246000fd5b9060005260206000200160009054906101000a900473ffffffffffffffffffffffffffffffffffffffff1673ffffffffffffffffffffffffffffffffffffffff1673ffffffffffffffffffffffffffffffffffffffff1681526020019081526020016000208585909180600181540180825580915050600190039060005260206000200160009091929091929091929091925091906115ff929190612d7c565b50808061160b9061449a565b9150506114f7565b50611651565b8383600b60006007548152602001908152602001600020919061163d929190612d7c565b506007600081548092919060010191905055505b61168e565b8585600b60006007548152602001908152602001600020919061167a929190612d7c565b506007600081548092919060010191905055505b6116966126c7565b505050505050565b6116a6611e3d565b73ffffffffffffffffffffffffffffffffffffffff168273ffffffffffffffffffffffffffffffffffffffff161415611714576040517f08c379a000000000000000000000000000000000000000000000000000000000815260040161170b90614038565b60405180910390fd5b8060056000611721611e3d565b73ffffffffffffffffffffffffffffffffffffffff1673ffffffffffffffffffffffffffffffffffffffff16815260200190815260200160002060008473ffffffffffffffffffffffffffffffffffffffff1673ffffffffffffffffffffffffffffffffffffffff16815260200190815260200160002060006101000a81548160ff0219169083151502179055508173ffffffffffffffffffffffffffffffffffffffff166117ce611e3d565b73ffffffffffffffffffffffffffffffffffffffff167f17307eab39ab6107e8899845ad3d59bd9653f200f220920489ca2b5937696c31836040516118139190613f3b565b60405180910390a35050565b600960029054906101000a900473ffffffffffffffffffffffffffffffffffffffff1681565b600960029054906101000a900473ffffffffffffffffffffffffffffffffffffffff1673ffffffffffffffffffffffffffffffffffffffff163373ffffffffffffffffffffffffffffffffffffffff161461189f57600080fd5b60608060405180608001604052808381526020018281526020014281526020013373ffffffffffffffffffffffffffffffffffffffff16815250600a85856040516118eb929190613e01565b90815260200160405180910390206000820151816000019080519060200190611915929190612e02565b506020820151816001019080519060200190611932929190612e62565b506040820151816002015560608201518160030160006101000a81548173ffffffffffffffffffffffffffffffffffffffff021916908373ffffffffffffffffffffffffffffffffffffffff160217905550905050600a8484604051611999929190613e01565b90815260200160405180910390206000018484909180600181540180825580915050600190039060005260206000200160009091929091929091929091925091906119e5929190612d7c565b50600a84846040516119f8929190613e01565b9081526020016040518091039020600101339080600181540180825580915050600190039060005260206000200160009091909190916101000a81548173ffffffffffffffffffffffffffffffffffffffff021916908373ffffffffffffffffffffffffffffffffffffffff1602179055508383600b600060075481526020019081526020016000209190611a8e929190612d7c565b5060076000815480929190611aa29061449a565b9190505550611aaf6126c7565b50505050565b611ac6611ac0611e3d565b8361238d565b611b05576040517f08c379a0000000000000000000000000000000000000000000000000000000008152600401611afc90614178565b60405180910390fd5b611b1184848484612719565b50505050565b6060611b2282611dd1565b611b61576040517f08c379a0000000000000000000000000000000000000000000000000000000008152600401611b5890614138565b60405180910390fd5b6000611b6b612775565b90506000815111611b8b5760405180602001604052806000815250611bb6565b80611b958461278c565b604051602001611ba6929190613e31565b6040516020818303038152906040525b915050919050565b60075481565b6000600560008473ffffffffffffffffffffffffffffffffffffffff1673ffffffffffffffffffffffffffffffffffffffff16815260200190815260200160002060008373ffffffffffffffffffffffffffffffffffffffff1673ffffffffffffffffffffffffffffffffffffffff16815260200190815260200160002060009054906101000a900460ff16905092915050565b600d60003373ffffffffffffffffffffffffffffffffffffffff1673ffffffffffffffffffffffffffffffffffffffff16815260200190815260200160002054600c60003373ffffffffffffffffffffffffffffffffffffffff1673ffffffffffffffffffffffffffffffffffffffff1681526020019081526020016000208054905011611ce557600080fd5b600d60003373ffffffffffffffffffffffffffffffffffffffff1673ffffffffffffffffffffffffffffffffffffffff1681526020019081526020016000206000815480929190611d359061449a565b9190505550565b600960019054906101000a900460ff1681565b600d6020528060005260406000206000915090505481565b60007f01ffc9a7000000000000000000000000000000000000000000000000000000007bffffffffffffffffffffffffffffffffffffffffffffffffffffffff1916827bffffffffffffffffffffffffffffffffffffffffffffffffffffffff1916149050919050565b60008073ffffffffffffffffffffffffffffffffffffffff166002600084815260200190815260200160002060009054906101000a900473ffffffffffffffffffffffffffffffffffffffff1673ffffffffffffffffffffffffffffffffffffffff1614159050919050565b600033905090565b816004600083815260200190815260200160002060006101000a81548173ffffffffffffffffffffffffffffffffffffffff021916908373ffffffffffffffffffffffffffffffffffffffff160217905550808273ffffffffffffffffffffffffffffffffffffffff16611eb8836110e9565b73ffffffffffffffffffffffffffffffffffffffff167f8c5be1e5ebec7d5bd14f71427d1e84f3dd0314c0f7b2291e5b200ac8c7c3b92560405160405180910390a45050565b6000611f08612939565b90506000600b60008381526020019081526020016000208054611f2a90614468565b80601f0160208091040260200160405190810160405280929190818152602001828054611f5690614468565b8015611fa35780601f10611f7857610100808354040283529160200191611fa3565b820191906000526020600020905b815481529060010190602001808311611f8657829003601f168201915b50505050509050600b60006006548152602001908152602001600020600b6000848152602001908152602001600020908054611fde90614468565b611fe9929190612eec565b5080600b600060065481526020019081526020016000209080519060200190612013929190612f79565b505050565b60606000600b600060065481526020019081526020016000206040516020016120419190613e6c565b604051602081830303815290604052905060608060405180608001604052808381526020018281526020014281526020013373ffffffffffffffffffffffffffffffffffffffff16815250600a8460405161209c9190613e1a565b908152602001604051809103902060008201518160000190805190602001906120c6929190612e02565b5060208201518160010190805190602001906120e3929190612e62565b506040820151816002015560608201518160030160006101000a81548173ffffffffffffffffffffffffffffffffffffffff021916908373ffffffffffffffffffffffffffffffffffffffff16021790555090505082935050505090565b600a8282604051612153929190613e01565b9081526020016040518091039020600a8585604051612173929190613e01565b90815260200160405180910390206000820181600001908054612197929190612fff565b5060018201816001019080546121ae929190613067565b50600282015481600201556003820160009054906101000a900473ffffffffffffffffffffffffffffffffffffffff168160030160006101000a81548173ffffffffffffffffffffffffffffffffffffffff021916908373ffffffffffffffffffffffffffffffffffffffff160217905550905050600a8484604051612235929190613e01565b9081526020016040518091039020600001848490918060018154018082558091505060019003906000526020600020016000909192909192909192909192509190612281929190612d7c565b50600a8484604051612294929190613e01565b9081526020016040518091039020600101339080600181540180825580915050600190039060005260206000200160009091909190916101000a81548173ffffffffffffffffffffffffffffffffffffffff021916908373ffffffffffffffffffffffffffffffffffffffff1602179055506000600a858560405161231a929190613e01565b908152602001604051809103902060030160006101000a81548173ffffffffffffffffffffffffffffffffffffffff021916908373ffffffffffffffffffffffffffffffffffffffff16021790555050505050565b6123898282604051806020016040528060008152506129a4565b5050565b600061239882611dd1565b6123d7576040517f08c379a00000000000000000000000000000000000000000000000000000000081526004016123ce90614058565b60405180910390fd5b60006123e2836110e9565b90508073ffffffffffffffffffffffffffffffffffffffff168473ffffffffffffffffffffffffffffffffffffffff16148061245157508373ffffffffffffffffffffffffffffffffffffffff1661243984610753565b73ffffffffffffffffffffffffffffffffffffffff16145b8061246257506124618185611bc4565b5b91505092915050565b8273ffffffffffffffffffffffffffffffffffffffff1661248b826110e9565b73ffffffffffffffffffffffffffffffffffffffff16146124e1576040517f08c379a00000000000000000000000000000000000000000000000000000000081526004016124d890614118565b60405180910390fd5b600073ffffffffffffffffffffffffffffffffffffffff168273ffffffffffffffffffffffffffffffffffffffff161415612551576040517f08c379a000000000000000000000000000000000000000000000000000000000815260040161254890614018565b60405180910390fd5b61255c8383836129ff565b612567600082611e45565b6001600360008573ffffffffffffffffffffffffffffffffffffffff1673ffffffffffffffffffffffffffffffffffffffff16815260200190815260200160002060008282546125b7919061437e565b925050819055506001600360008473ffffffffffffffffffffffffffffffffffffffff1673ffffffffffffffffffffffffffffffffffffffff168152602001908152602001600020600082825461260e91906142f7565b92505081905550816002600083815260200190815260200160002060006101000a81548173ffffffffffffffffffffffffffffffffffffffff021916908373ffffffffffffffffffffffffffffffffffffffff160217905550808273ffffffffffffffffffffffffffffffffffffffff168473ffffffffffffffffffffffffffffffffffffffff167fddf252ad1be2c89b69c2b068fc378daa952ba7f163c4a11628f55a4df523b3ef60405160405180910390a4505050565b600060065460075403905060001515600960019054906101000a900460ff1615151480156126f55750806064105b15612716576001600960016101000a81548160ff0219169083151502179055505b50565b61272484848461246b565b61273084848484612a04565b61276f576040517f08c379a000000000000000000000000000000000000000000000000000000000815260040161276690613fd8565b60405180910390fd5b50505050565b606060405180602001604052806000815250905090565b606060008214156127d4576040518060400160405280600181526020017f30000000000000000000000000000000000000000000000000000000000000008152509050612934565b600082905060005b600082146128065780806127ef9061449a565b915050600a826127ff919061434d565b91506127dc565b60008167ffffffffffffffff811115612848577f4e487b7100000000000000000000000000000000000000000000000000000000600052604160045260246000fd5b6040519080825280601f01601f19166020018201604052801561287a5781602001600182028036833780820191505090505b5090505b6000851461292d57600182612893919061437e565b9150600a856128a291906144ed565b60306128ae91906142f7565b60f81b8183815181106128ea577f4e487b7100000000000000000000000000000000000000000000000000000000600052603260045260246000fd5b60200101907effffffffffffffffffffffffffffffffffffffffffffffffffffffffffffff1916908160001a905350600a85612926919061434d565b945061287e565b8093505050505b919050565b600060644442600b60006006548152602001908152602001600020600b6000600754815260200190815260200160002060405160200161297c9493929190613e8e565b6040516020818303038152906040528051906020012060001c61299f91906144ed565b905090565b6129ae8383612b9b565b6129bb6000848484612a04565b6129fa576040517f08c379a00000000000000000000000000000000000000000000000000000000081526004016129f190613fd8565b60405180910390fd5b505050565b505050565b6000612a258473ffffffffffffffffffffffffffffffffffffffff16612d69565b15612b8e578373ffffffffffffffffffffffffffffffffffffffff1663150b7a02612a4e611e3d565b8786866040518563ffffffff1660e01b8152600401612a709493929190613eef565b602060405180830381600087803b158015612a8a57600080fd5b505af1925050508015612abb57506040513d601f19601f82011682018060405250810190612ab8919061351a565b60015b612b3e573d8060008114612aeb576040519150601f19603f3d011682016040523d82523d6000602084013e612af0565b606091505b50600081511415612b36576040517f08c379a0000000000000000000000000000000000000000000000000000000008152600401612b2d90613fd8565b60405180910390fd5b805181602001fd5b63150b7a0260e01b7bffffffffffffffffffffffffffffffffffffffffffffffffffffffff1916817bffffffffffffffffffffffffffffffffffffffffffffffffffffffff191614915050612b93565b600190505b949350505050565b600073ffffffffffffffffffffffffffffffffffffffff168273ffffffffffffffffffffffffffffffffffffffff161415612c0b576040517f08c379a0000000000000000000000000000000000000000000000000000000008152600401612c02906140d8565b60405180910390fd5b612c1481611dd1565b15612c54576040517f08c379a0000000000000000000000000000000000000000000000000000000008152600401612c4b90613ff8565b60405180910390fd5b612c60600083836129ff565b6001600360008473ffffffffffffffffffffffffffffffffffffffff1673ffffffffffffffffffffffffffffffffffffffff1681526020019081526020016000206000828254612cb091906142f7565b92505081905550816002600083815260200190815260200160002060006101000a81548173ffffffffffffffffffffffffffffffffffffffff021916908373ffffffffffffffffffffffffffffffffffffffff160217905550808273ffffffffffffffffffffffffffffffffffffffff16600073ffffffffffffffffffffffffffffffffffffffff167fddf252ad1be2c89b69c2b068fc378daa952ba7f163c4a11628f55a4df523b3ef60405160405180910390a45050565b600080823b905060008111915050919050565b828054612d8890614468565b90600052602060002090601f016020900481019282612daa5760008555612df1565b82601f10612dc357803560ff1916838001178555612df1565b82800160010185558215612df1579182015b82811115612df0578235825591602001919060010190612dd5565b5b509050612dfe91906130b9565b5090565b828054828255906000526020600020908101928215612e51579160200282015b82811115612e50578251829080519060200190612e40929190612f79565b5091602001919060010190612e22565b5b509050612e5e91906130d6565b5090565b828054828255906000526020600020908101928215612edb579160200282015b82811115612eda5782518260006101000a81548173ffffffffffffffffffffffffffffffffffffffff021916908373ffffffffffffffffffffffffffffffffffffffff16021790555091602001919060010190612e82565b5b509050612ee891906130b9565b5090565b828054612ef890614468565b90600052602060002090601f016020900481019282612f1a5760008555612f68565b82601f10612f2b5780548555612f68565b82800160010185558215612f6857600052602060002091601f016020900482015b82811115612f67578254825591600101919060010190612f4c565b5b509050612f7591906130b9565b5090565b828054612f8590614468565b90600052602060002090601f016020900481019282612fa75760008555612fee565b82601f10612fc057805160ff1916838001178555612fee565b82800160010185558215612fee579182015b82811115612fed578251825591602001919060010190612fd2565b5b509050612ffb91906130b9565b5090565b8280548282559060005260206000209081019282156130565760005260206000209182015b8281111561305557828290805461303a90614468565b6130459291906130fa565b5091600101919060010190613024565b5b50905061306391906130d6565b5090565b8280548282559060005260206000209081019282156130a85760005260206000209182015b828111156130a757825482559160010191906001019061308c565b5b5090506130b591906130b9565b5090565b5b808211156130d25760008160009055506001016130ba565b5090565b5b808211156130f657600081816130ed9190613187565b506001016130d7565b5090565b82805461310690614468565b90600052602060002090601f0160209004810192826131285760008555613176565b82601f106131395780548555613176565b8280016001018555821561317657600052602060002091601f016020900482015b8281111561317557825482559160010191906001019061315a565b5b50905061318391906130b9565b5090565b50805461319390614468565b6000825580601f106131a557506131c4565b601f0160209004906000526020600020908101906131c391906130b9565b5b50565b60006131da6131d58461423f565b61420e565b9050828152602081018484840111156131f257600080fd5b6131fd848285614426565b509392505050565b60006132186132138461426f565b61420e565b90508281526020810184848401111561323057600080fd5b61323b848285614426565b509392505050565b600081359050613252816145eb565b92915050565b60008135905061326781614602565b92915050565b60008135905061327c81614619565b92915050565b60008151905061329181614619565b92915050565b600082601f8301126132a857600080fd5b81356132b88482602086016131c7565b91505092915050565b60008083601f8401126132d357600080fd5b8235905067ffffffffffffffff8111156132ec57600080fd5b60208301915083600182028301111561330457600080fd5b9250929050565b600082601f83011261331c57600080fd5b813561332c848260208601613205565b91505092915050565b60008135905061334481614630565b92915050565b60006020828403121561335c57600080fd5b600061336a84828501613243565b91505092915050565b6000806040838503121561338657600080fd5b600061339485828601613243565b92505060206133a585828601613243565b9150509250929050565b6000806000606084860312156133c457600080fd5b60006133d286828701613243565b93505060206133e386828701613243565b92505060406133f486828701613335565b9150509250925092565b6000806000806080858703121561341457600080fd5b600061342287828801613243565b945050602061343387828801613243565b935050604061344487828801613335565b925050606085013567ffffffffffffffff81111561346157600080fd5b61346d87828801613297565b91505092959194509250565b6000806040838503121561348c57600080fd5b600061349a85828601613243565b92505060206134ab85828601613258565b9150509250929050565b600080604083850312156134c857600080fd5b60006134d685828601613243565b92505060206134e785828601613335565b9150509250929050565b60006020828403121561350357600080fd5b60006135118482850161326d565b91505092915050565b60006020828403121561352c57600080fd5b600061353a84828501613282565b91505092915050565b6000806020838503121561355657600080fd5b600083013567ffffffffffffffff81111561357057600080fd5b61357c858286016132c1565b92509250509250929050565b6000806000806040858703121561359e57600080fd5b600085013567ffffffffffffffff8111156135b857600080fd5b6135c4878288016132c1565b9450945050602085013567ffffffffffffffff8111156135e357600080fd5b6135ef878288016132c1565b925092505092959194509250565b60006020828403121561360f57600080fd5b600082013567ffffffffffffffff81111561362957600080fd5b6136358482850161330b565b91505092915050565b60006020828403121561365057600080fd5b600061365e84828501613335565b91505092915050565b613670816143b2565b82525050565b61367f816143c4565b82525050565b6000613690826142b4565b61369a81856142ca565b93506136aa818560208601614435565b6136b3816145da565b840191505092915050565b60006136ca83856142db565b93506136d7838584614426565b6136e0836145da565b840190509392505050565b60006136f783856142ec565b9350613704838584614426565b82840190509392505050565b600061371b826142bf565b61372581856142db565b9350613735818560208601614435565b61373e816145da565b840191505092915050565b6000613754826142bf565b61375e81856142ec565b935061376e818560208601614435565b80840191505092915050565b6000815461378781614468565b61379181866142db565b945060018216600081146137ac57600181146137be576137f1565b60ff19831686526020860193506137f1565b6137c78561429f565b60005b838110156137e9578154818901526001820191506020810190506137ca565b808801955050505b50505092915050565b6000815461380781614468565b61381181866142ec565b9450600182166000811461382c576001811461383d57613870565b60ff19831686528186019350613870565b6138468561429f565b60005b8381101561386857815481890152600182019150602081019050613849565b838801955050505b50505092915050565b60006138866032836142db565b91507f4552433732313a207472616e7366657220746f206e6f6e20455243373231526560008301527f63656976657220696d706c656d656e74657200000000000000000000000000006020830152604082019050919050565b60006138ec601c836142db565b91507f4552433732313a20746f6b656e20616c7265616479206d696e746564000000006000830152602082019050919050565b600061392c6003836142ec565b91507f30303000000000000000000000000000000000000000000000000000000000006000830152600382019050919050565b600061396c6024836142db565b91507f4552433732313a207472616e7366657220746f20746865207a65726f2061646460008301527f72657373000000000000000000000000000000000000000000000000000000006020830152604082019050919050565b60006139d26019836142db565b91507f4552433732313a20617070726f766520746f2063616c6c6572000000000000006000830152602082019050919050565b6000613a12602c836142db565b91507f4552433732313a206f70657261746f7220717565727920666f72206e6f6e657860008301527f697374656e7420746f6b656e00000000000000000000000000000000000000006020830152604082019050919050565b6000613a786038836142db565b91507f4552433732313a20617070726f76652063616c6c6572206973206e6f74206f7760008301527f6e6572206e6f7220617070726f76656420666f7220616c6c00000000000000006020830152604082019050919050565b6000613ade602a836142db565b91507f4552433732313a2062616c616e636520717565727920666f7220746865207a6560008301527f726f2061646472657373000000000000000000000000000000000000000000006020830152604082019050919050565b6000613b446029836142db565b91507f4552433732313a206f776e657220717565727920666f72206e6f6e657869737460008301527f656e7420746f6b656e00000000000000000000000000000000000000000000006020830152604082019050919050565b6000613baa6020836142db565b91507f4552433732313a206d696e7420746f20746865207a65726f20616464726573736000830152602082019050919050565b6000613bea602c836142db565b91507f4552433732313a20617070726f76656420717565727920666f72206e6f6e657860008301527f697374656e7420746f6b656e00000000000000000000000000000000000000006020830152604082019050919050565b6000613c506029836142db565b91507f4552433732313a207472616e73666572206f6620746f6b656e2074686174206960008301527f73206e6f74206f776e00000000000000000000000000000000000000000000006020830152604082019050919050565b6000613cb6602f836142db565b91507f4552433732314d657461646174613a2055524920717565727920666f72206e6f60008301527f6e6578697374656e7420746f6b656e00000000000000000000000000000000006020830152604082019050919050565b6000613d1c6021836142db565b91507f4552433732313a20617070726f76616c20746f2063757272656e74206f776e6560008301527f72000000000000000000000000000000000000000000000000000000000000006020830152604082019050919050565b6000613d826031836142db565b91507f4552433732313a207472616e736665722063616c6c6572206973206e6f74206f60008301527f776e6572206e6f7220617070726f7665640000000000000000000000000000006020830152604082019050919050565b613de48161441c565b82525050565b613dfb613df68261441c565b6144e3565b82525050565b6000613e0e8284866136eb565b91508190509392505050565b6000613e268284613749565b915081905092915050565b6000613e3d8285613749565b9150613e498284613749565b91508190509392505050565b6000613e6182846137fa565b915081905092915050565b6000613e7882846137fa565b9150613e838261391f565b915081905092915050565b6000613e9a8287613dea565b602082019150613eaa8286613dea565b602082019150613eba82856137fa565b9150613ec682846137fa565b915081905095945050505050565b6000602082019050613ee96000830184613667565b92915050565b6000608082019050613f046000830187613667565b613f116020830186613667565b613f1e6040830185613ddb565b8181036060830152613f308184613685565b905095945050505050565b6000602082019050613f506000830184613676565b92915050565b60006020820190508181036000830152613f708184613710565b905092915050565b60006040820190508181036000830152613f928185613710565b9050613fa16020830184613676565b9392505050565b60006040820190508181036000830152613fc2818561377a565b9050613fd16020830184613676565b9392505050565b60006020820190508181036000830152613ff181613879565b9050919050565b60006020820190508181036000830152614011816138df565b9050919050565b600060208201905081810360008301526140318161395f565b9050919050565b60006020820190508181036000830152614051816139c5565b9050919050565b6000602082019050818103600083015261407181613a05565b9050919050565b6000602082019050818103600083015261409181613a6b565b9050919050565b600060208201905081810360008301526140b181613ad1565b9050919050565b600060208201905081810360008301526140d181613b37565b9050919050565b600060208201905081810360008301526140f181613b9d565b9050919050565b6000602082019050818103600083015261411181613bdd565b9050919050565b6000602082019050818103600083015261413181613c43565b9050919050565b6000602082019050818103600083015261415181613ca9565b9050919050565b6000602082019050818103600083015261417181613d0f565b9050919050565b6000602082019050818103600083015261419181613d75565b9050919050565b60006020820190506141ad6000830184613ddb565b92915050565b60006040820190506141c86000830185613ddb565b6141d56020830184613667565b9392505050565b60006040820190506141f16000830186613ddb565b81810360208301526142048184866136be565b9050949350505050565b6000604051905081810181811067ffffffffffffffff82111715614235576142346145ab565b5b8060405250919050565b600067ffffffffffffffff82111561425a576142596145ab565b5b601f19601f8301169050602081019050919050565b600067ffffffffffffffff82111561428a576142896145ab565b5b601f19601f8301169050602081019050919050565b60008190508160005260206000209050919050565b600081519050919050565b600081519050919050565b600082825260208201905092915050565b600082825260208201905092915050565b600081905092915050565b60006143028261441c565b915061430d8361441c565b9250827fffffffffffffffffffffffffffffffffffffffffffffffffffffffffffffffff038211156143425761434161451e565b5b828201905092915050565b60006143588261441c565b91506143638361441c565b9250826143735761437261454d565b5b828204905092915050565b60006143898261441c565b91506143948361441c565b9250828210156143a7576143a661451e565b5b828203905092915050565b60006143bd826143fc565b9050919050565b60008115159050919050565b60007fffffffff0000000000000000000000000000000000000000000000000000000082169050919050565b600073ffffffffffffffffffffffffffffffffffffffff82169050919050565b6000819050919050565b82818337600083830152505050565b60005b83811015614453578082015181840152602081019050614438565b83811115614462576000848401525b50505050565b6000600282049050600182168061448057607f821691505b602082108114156144945761449361457c565b5b50919050565b60006144a58261441c565b91507fffffffffffffffffffffffffffffffffffffffffffffffffffffffffffffffff8214156144d8576144d761451e565b5b600182019050919050565b6000819050919050565b60006144f88261441c565b91506145038361441c565b9250826145135761451261454d565b5b828206905092915050565b7f4e487b7100000000000000000000000000000000000000000000000000000000600052601160045260246000fd5b7f4e487b7100000000000000000000000000000000000000000000000000000000600052601260045260246000fd5b7f4e487b7100000000000000000000000000000000000000000000000000000000600052602260045260246000fd5b7f4e487b7100000000000000000000000000000000000000000000000000000000600052604160045260246000fd5b6000601f19601f8301169050919050565b6145f4816143b2565b81146145ff57600080fd5b50565b61460b816143c4565b811461461657600080fd5b50565b614622816143d0565b811461462d57600080fd5b50565b6146398161441c565b811461464457600080fd5b5056fea26469706673582212209e9c6570c30d2e9845c4107a63ec68126fb355df59d8a844593236934374dd2964736f6c63430008000033",
  "immutableReferences": {},
  "source": "pragma solidity ^0.8.0;\n\nimport \"../node_modules/@openzeppelin/contracts/token/ERC721/ERC721.sol\";\n\ncontract FrankensteinTexts is ERC721 {\n\n    uint256 public requestCounter;\n\n    uint256 public submitCounter;\n\n    uint256 public frankieId;\n\n    bool public firstTime;\n\n    bool public green;\n\n    address public victor;\n\n    event RequestedText(string cid, bool isPlot);\n\n    event MintedFrankie(uint nftId, string nftCid);\n\n    struct Frankie {\n        string[] cids;\n        address[] writers;\n        uint256 editSince;\n        address editor;\n    }\n\n    mapping(string => Frankie) public frankies;\n\n    mapping(uint256 => string) private cidOrder;\n\n    mapping(address => string[]) public untitledTexts;\n\n    mapping(address => uint) public untitledCounter;\n\n    mapping(uint256 => string) public mintedCids;\n\n    constructor() ERC721(\"Frankies\", \"FKE\") {\n        requestCounter = 0;\n        submitCounter = 0;\n        frankieId = 0;\n        victor = msg.sender;\n        firstTime = true;\n        green = false;\n    }\n\n    modifier isVictor() {\n        require(msg.sender == victor);\n        _;\n    }\n\n    modifier isGreen() {\n        require(green == true);\n        _;\n    }\n\n    modifier isEditor(string calldata oldCid) {\n        require(frankies[oldCid].editor == msg.sender);\n        _;\n    }\n\n    modifier hasUntitled() {\n        require(untitledTexts[msg.sender].length > untitledCounter[msg.sender]);\n        _;\n    }\n\n    function _setGreenTrue() private {\n        uint256 distance;\n        unchecked { distance = submitCounter - requestCounter; }\n        if (green == false && 100 < distance) {\n            green = true;\n        }\n    }\n\n    function _shuffle() private view returns (uint256) {\n        return\n            uint256(\n                keccak256(\n                    abi.encodePacked(\n                        block.difficulty,\n                        block.timestamp,\n                        cidOrder[requestCounter],\n                        cidOrder[submitCounter]\n                    )\n                )\n            ) % 100;\n    }\n\n    function _dealer() private {\n        uint256 random = _shuffle();\n        string memory chosen = cidOrder[random];\n        cidOrder[random] = cidOrder[requestCounter];\n        cidOrder[requestCounter] = chosen;\n    }\n\n    function _startFrankie() private returns (string memory) {\n        string memory startCid = string(abi.encodePacked(cidOrder[requestCounter], '000'));\n        string[] memory cids;\n        address[] memory writers;\n        frankies[startCid] = Frankie(cids, writers, block.timestamp, msg.sender);\n        return startCid;\n    }\n\n    function _updateFrankie(string calldata newCid, string calldata oldCid) private {\n        frankies[newCid] = frankies[oldCid];\n        frankies[newCid].cids.push(newCid);\n        frankies[newCid].writers.push(msg.sender);\n        frankies[newCid].editor = address(0);\n    }\n\n    function requestText() public isGreen() returns (string memory) {\n        _dealer();\n        uint256 rc = requestCounter;\n        if (rc % 4 == 0) {\n            if (firstTime == true) {\n                string memory startCid = _startFrankie();\n                firstTime = false;\n                emit RequestedText(startCid, true);\n                return startCid;\n            } else {\n                firstTime = true;\n            }\n        }\n        uint256 distance;\n        unchecked {\n            requestCounter++;\n            distance = submitCounter - requestCounter;\n        }\n        if (100 >= distance) {\n            green = false;\n        }\n        frankies[cidOrder[rc]].editSince = block.timestamp;\n        frankies[cidOrder[rc]].editor = msg.sender;\n        emit RequestedText(cidOrder[rc], false);\n        return cidOrder[rc];\n    }\n\n    function submitText(string calldata oldCid, string calldata newCid) public isEditor(oldCid) {\n        if (frankies[oldCid].editSince + 1 hours > block.timestamp) {\n            _updateFrankie(newCid, oldCid);\n            if (frankies[newCid].writers.length == 5) {\n                for (uint256 i = 0; i < 5; i++) {\n                    untitledTexts[frankies[newCid].writers[i]].push(newCid);\n                }\n            } else {\n                cidOrder[submitCounter] = newCid;\n                unchecked { submitCounter++; }\n            }\n        } else {\n            cidOrder[submitCounter] = oldCid;\n            unchecked { submitCounter++; }\n        }\n        _setGreenTrue();\n    }\n\n    function mintFrankie(\n        string calldata oldCid,\n        string calldata newCid\n    ) public returns (uint256) {\n        require(frankies[oldCid].editSince + 3 days > block.timestamp);\n        bool isWriter;\n        for(uint i=0; i < 5; i++) {\n            if(msg.sender == frankies[oldCid].writers[i]) {\n                isWriter = true;\n            }\n        }\n        require(isWriter = true);\n\n        _updateFrankie(newCid, oldCid);\n        untitledCounter[msg.sender]++;\n        frankieId++;\n        _safeMint(msg.sender, frankieId);\n        mintedCids[frankieId] = newCid;\n        emit MintedFrankie(frankieId, newCid);\n        return frankieId;\n    }\n\n    function requestUntitled() public view hasUntitled() returns(string memory) {\n        return untitledTexts[msg.sender][untitledCounter[msg.sender]];\n    }\n\n    function discardUntitled() public hasUntitled() {\n        untitledCounter[msg.sender]++;\n    }\n\n    function seedPlot(string calldata cid) public isVictor() {\n        string[] memory cids;\n        address[] memory writers;\n        frankies[cid] = Frankie(cids, writers, block.timestamp, msg.sender);\n        frankies[cid].cids.push(cid);\n        frankies[cid].writers.push(msg.sender);\n        cidOrder[submitCounter] = cid;\n        submitCounter++;\n        _setGreenTrue();\n    }\n}\n",
  "sourcePath": "/home/mariomazzaferro/projects/blockchain-developer-bootcamp-final-project/contracts/FrankensteinTexts.sol",
  "compiler": {
    "name": "solc",
    "version": "0.8.0+commit.c7dfd78e.Emscripten.clang"
  },
  "schemaVersion": "3.4.1",
  "updatedAt": "2021-10-23T22:33:08.503Z",
  "networkType": "ethereum",
  "devdoc": {
    "kind": "dev",
    "methods": {
      "approve(address,uint256)": {
        "details": "See {IERC721-approve}."
      },
      "balanceOf(address)": {
        "details": "See {IERC721-balanceOf}."
      },
      "getApproved(uint256)": {
        "details": "See {IERC721-getApproved}."
      },
      "isApprovedForAll(address,address)": {
        "details": "See {IERC721-isApprovedForAll}."
      },
      "name()": {
        "details": "See {IERC721Metadata-name}."
      },
      "ownerOf(uint256)": {
        "details": "See {IERC721-ownerOf}."
      },
      "safeTransferFrom(address,address,uint256)": {
        "details": "See {IERC721-safeTransferFrom}."
      },
      "safeTransferFrom(address,address,uint256,bytes)": {
        "details": "See {IERC721-safeTransferFrom}."
      },
      "setApprovalForAll(address,bool)": {
        "details": "See {IERC721-setApprovalForAll}."
      },
      "supportsInterface(bytes4)": {
        "details": "See {IERC165-supportsInterface}."
      },
      "symbol()": {
        "details": "See {IERC721Metadata-symbol}."
      },
      "tokenURI(uint256)": {
        "details": "See {IERC721Metadata-tokenURI}."
      },
      "transferFrom(address,address,uint256)": {
        "details": "See {IERC721-transferFrom}."
      }
    },
    "version": 1
  },
  "userdoc": {
    "kind": "user",
    "methods": {},
    "version": 1
  }
}