{
  "contractName": "FrankieTexts",
  "abi": [
    {
      "inputs": [],
      "stateMutability": "nonpayable",
      "type": "constructor"
    },
    {
      "anonymous": false,
      "inputs": [
        {
          "indexed": true,
          "internalType": "address",
          "name": "owner",
          "type": "address"
        },
        {
          "indexed": true,
          "internalType": "address",
          "name": "approved",
          "type": "address"
        },
        {
          "indexed": true,
          "internalType": "uint256",
          "name": "tokenId",
          "type": "uint256"
        }
      ],
      "name": "Approval",
      "type": "event"
    },
    {
      "anonymous": false,
      "inputs": [
        {
          "indexed": true,
          "internalType": "address",
          "name": "owner",
          "type": "address"
        },
        {
          "indexed": true,
          "internalType": "address",
          "name": "operator",
          "type": "address"
        },
        {
          "indexed": false,
          "internalType": "bool",
          "name": "approved",
          "type": "bool"
        }
      ],
      "name": "ApprovalForAll",
      "type": "event"
    },
    {
      "anonymous": false,
      "inputs": [
        {
          "indexed": true,
          "internalType": "uint256",
          "name": "nftId",
          "type": "uint256"
        },
        {
          "indexed": false,
          "internalType": "string",
          "name": "nftCid",
          "type": "string"
        },
        {
          "indexed": true,
          "internalType": "string",
          "name": "fifthCid",
          "type": "string"
        }
      ],
      "name": "MintedFrankie",
      "type": "event"
    },
    {
      "anonymous": false,
      "inputs": [
        {
          "indexed": false,
          "internalType": "string",
          "name": "chosenCid",
          "type": "string"
        },
        {
          "indexed": false,
          "internalType": "address",
          "name": "requester",
          "type": "address"
        }
      ],
      "name": "RequestedText",
      "type": "event"
    },
    {
      "anonymous": false,
      "inputs": [
        {
          "indexed": true,
          "internalType": "address",
          "name": "from",
          "type": "address"
        },
        {
          "indexed": true,
          "internalType": "address",
          "name": "to",
          "type": "address"
        },
        {
          "indexed": true,
          "internalType": "uint256",
          "name": "tokenId",
          "type": "uint256"
        }
      ],
      "name": "Transfer",
      "type": "event"
    },
    {
      "inputs": [
        {
          "internalType": "address",
          "name": "to",
          "type": "address"
        },
        {
          "internalType": "uint256",
          "name": "tokenId",
          "type": "uint256"
        }
      ],
      "name": "approve",
      "outputs": [],
      "stateMutability": "nonpayable",
      "type": "function"
    },
    {
      "inputs": [
        {
          "internalType": "address",
          "name": "owner",
          "type": "address"
        }
      ],
      "name": "balanceOf",
      "outputs": [
        {
          "internalType": "uint256",
          "name": "",
          "type": "uint256"
        }
      ],
      "stateMutability": "view",
      "type": "function",
      "constant": true
    },
    {
      "inputs": [],
      "name": "deckCounter",
      "outputs": [
        {
          "internalType": "uint256",
          "name": "",
          "type": "uint256"
        }
      ],
      "stateMutability": "view",
      "type": "function",
      "constant": true
    },
    {
      "inputs": [],
      "name": "deckSize",
      "outputs": [
        {
          "internalType": "uint256",
          "name": "",
          "type": "uint256"
        }
      ],
      "stateMutability": "view",
      "type": "function",
      "constant": true
    },
    {
      "inputs": [],
      "name": "feedCounter",
      "outputs": [
        {
          "internalType": "uint256",
          "name": "",
          "type": "uint256"
        }
      ],
      "stateMutability": "view",
      "type": "function",
      "constant": true
    },
    {
      "inputs": [],
      "name": "frankieId",
      "outputs": [
        {
          "internalType": "uint256",
          "name": "",
          "type": "uint256"
        }
      ],
      "stateMutability": "view",
      "type": "function",
      "constant": true
    },
    {
      "inputs": [
        {
          "internalType": "string",
          "name": "",
          "type": "string"
        }
      ],
      "name": "frankies",
      "outputs": [
        {
          "internalType": "uint256",
          "name": "endedSince",
          "type": "uint256"
        }
      ],
      "stateMutability": "view",
      "type": "function",
      "constant": true
    },
    {
      "inputs": [
        {
          "internalType": "uint256",
          "name": "tokenId",
          "type": "uint256"
        }
      ],
      "name": "getApproved",
      "outputs": [
        {
          "internalType": "address",
          "name": "",
          "type": "address"
        }
      ],
      "stateMutability": "view",
      "type": "function",
      "constant": true
    },
    {
      "inputs": [
        {
          "internalType": "address",
          "name": "owner",
          "type": "address"
        },
        {
          "internalType": "address",
          "name": "operator",
          "type": "address"
        }
      ],
      "name": "isApprovedForAll",
      "outputs": [
        {
          "internalType": "bool",
          "name": "",
          "type": "bool"
        }
      ],
      "stateMutability": "view",
      "type": "function",
      "constant": true
    },
    {
      "inputs": [
        {
          "internalType": "uint256",
          "name": "",
          "type": "uint256"
        }
      ],
      "name": "mintedCids",
      "outputs": [
        {
          "internalType": "string",
          "name": "",
          "type": "string"
        }
      ],
      "stateMutability": "view",
      "type": "function",
      "constant": true
    },
    {
      "inputs": [],
      "name": "name",
      "outputs": [
        {
          "internalType": "string",
          "name": "",
          "type": "string"
        }
      ],
      "stateMutability": "view",
      "type": "function",
      "constant": true
    },
    {
      "inputs": [
        {
          "internalType": "uint256",
          "name": "tokenId",
          "type": "uint256"
        }
      ],
      "name": "ownerOf",
      "outputs": [
        {
          "internalType": "address",
          "name": "",
          "type": "address"
        }
      ],
      "stateMutability": "view",
      "type": "function",
      "constant": true
    },
    {
      "inputs": [
        {
          "internalType": "address",
          "name": "from",
          "type": "address"
        },
        {
          "internalType": "address",
          "name": "to",
          "type": "address"
        },
        {
          "internalType": "uint256",
          "name": "tokenId",
          "type": "uint256"
        }
      ],
      "name": "safeTransferFrom",
      "outputs": [],
      "stateMutability": "nonpayable",
      "type": "function"
    },
    {
      "inputs": [
        {
          "internalType": "address",
          "name": "from",
          "type": "address"
        },
        {
          "internalType": "address",
          "name": "to",
          "type": "address"
        },
        {
          "internalType": "uint256",
          "name": "tokenId",
          "type": "uint256"
        },
        {
          "internalType": "bytes",
          "name": "_data",
          "type": "bytes"
        }
      ],
      "name": "safeTransferFrom",
      "outputs": [],
      "stateMutability": "nonpayable",
      "type": "function"
    },
    {
      "inputs": [
        {
          "internalType": "address",
          "name": "operator",
          "type": "address"
        },
        {
          "internalType": "bool",
          "name": "approved",
          "type": "bool"
        }
      ],
      "name": "setApprovalForAll",
      "outputs": [],
      "stateMutability": "nonpayable",
      "type": "function"
    },
    {
      "inputs": [],
      "name": "submitCounter",
      "outputs": [
        {
          "internalType": "uint256",
          "name": "",
          "type": "uint256"
        }
      ],
      "stateMutability": "view",
      "type": "function",
      "constant": true
    },
    {
      "inputs": [
        {
          "internalType": "bytes4",
          "name": "interfaceId",
          "type": "bytes4"
        }
      ],
      "name": "supportsInterface",
      "outputs": [
        {
          "internalType": "bool",
          "name": "",
          "type": "bool"
        }
      ],
      "stateMutability": "view",
      "type": "function",
      "constant": true
    },
    {
      "inputs": [],
      "name": "symbol",
      "outputs": [
        {
          "internalType": "string",
          "name": "",
          "type": "string"
        }
      ],
      "stateMutability": "view",
      "type": "function",
      "constant": true
    },
    {
      "inputs": [
        {
          "internalType": "uint256",
          "name": "tokenId",
          "type": "uint256"
        }
      ],
      "name": "tokenURI",
      "outputs": [
        {
          "internalType": "string",
          "name": "",
          "type": "string"
        }
      ],
      "stateMutability": "view",
      "type": "function",
      "constant": true
    },
    {
      "inputs": [
        {
          "internalType": "address",
          "name": "from",
          "type": "address"
        },
        {
          "internalType": "address",
          "name": "to",
          "type": "address"
        },
        {
          "internalType": "uint256",
          "name": "tokenId",
          "type": "uint256"
        }
      ],
      "name": "transferFrom",
      "outputs": [],
      "stateMutability": "nonpayable",
      "type": "function"
    },
    {
      "inputs": [
        {
          "internalType": "address",
          "name": "",
          "type": "address"
        },
        {
          "internalType": "uint256",
          "name": "",
          "type": "uint256"
        }
      ],
      "name": "untitledTexts",
      "outputs": [
        {
          "internalType": "string",
          "name": "",
          "type": "string"
        }
      ],
      "stateMutability": "view",
      "type": "function",
      "constant": true
    },
    {
      "inputs": [],
      "name": "victor",
      "outputs": [
        {
          "internalType": "address",
          "name": "",
          "type": "address"
        }
      ],
      "stateMutability": "view",
      "type": "function",
      "constant": true
    },
    {
      "inputs": [],
      "name": "requestText",
      "outputs": [],
      "stateMutability": "nonpayable",
      "type": "function"
    },
    {
      "inputs": [
        {
          "internalType": "string",
          "name": "oldCid",
          "type": "string"
        },
        {
          "internalType": "string",
          "name": "newCid",
          "type": "string"
        }
      ],
      "name": "submitText",
      "outputs": [],
      "stateMutability": "nonpayable",
      "type": "function"
    },
    {
      "inputs": [
        {
          "internalType": "string",
          "name": "oldCid",
          "type": "string"
        },
        {
          "internalType": "string",
          "name": "newCid",
          "type": "string"
        },
        {
          "internalType": "uint256",
          "name": "untitledId",
          "type": "uint256"
        }
      ],
      "name": "mintFrankie",
      "outputs": [],
      "stateMutability": "nonpayable",
      "type": "function"
    },
    {
      "inputs": [
        {
          "internalType": "uint256",
          "name": "id",
          "type": "uint256"
        }
      ],
      "name": "mintedCidById",
      "outputs": [
        {
          "internalType": "string",
          "name": "",
          "type": "string"
        }
      ],
      "stateMutability": "view",
      "type": "function",
      "constant": true
    },
    {
      "inputs": [],
      "name": "requestNewestUntitledId",
      "outputs": [
        {
          "internalType": "uint256",
          "name": "",
          "type": "uint256"
        }
      ],
      "stateMutability": "view",
      "type": "function",
      "constant": true
    },
    {
      "inputs": [
        {
          "internalType": "uint256",
          "name": "untitledId",
          "type": "uint256"
        }
      ],
      "name": "requestUntitledText",
      "outputs": [
        {
          "internalType": "string",
          "name": "",
          "type": "string"
        }
      ],
      "stateMutability": "view",
      "type": "function",
      "constant": true
    },
    {
      "inputs": [
        {
          "internalType": "uint256",
          "name": "untitledId",
          "type": "uint256"
        }
      ],
      "name": "requestUntitledEndedSince",
      "outputs": [
        {
          "internalType": "uint256",
          "name": "",
          "type": "uint256"
        }
      ],
      "stateMutability": "view",
      "type": "function",
      "constant": true
    },
    {
      "inputs": [
        {
          "internalType": "string",
          "name": "cid",
          "type": "string"
        }
      ],
      "name": "seedPlot",
      "outputs": [],
      "stateMutability": "nonpayable",
      "type": "function"
    }
  ],
  "bytecode": "0x60806040523480156200001157600080fd5b506040518060400160405280600881526020017f4672616e6b6965730000000000000000000000000000000000000000000000008152506040518060400160405280600381526020017f464b45000000000000000000000000000000000000000000000000000000000081525081600090805190602001906200009692919062000128565b508060019080519060200190620000af92919062000128565b5050506000600681905550600060078190555060006008819055506000600981905550600a80819055506000600b8190555033600c60006101000a81548173ffffffffffffffffffffffffffffffffffffffff021916908373ffffffffffffffffffffffffffffffffffffffff1602179055506200023d565b8280546200013690620001d8565b90600052602060002090601f0160209004810192826200015a5760008555620001a6565b82601f106200017557805160ff1916838001178555620001a6565b82800160010185558215620001a6579182015b82811115620001a557825182559160200191906001019062000188565b5b509050620001b59190620001b9565b5090565b5b80821115620001d4576000816000905550600101620001ba565b5090565b60006002820490506001821680620001f157607f821691505b602082108114156200020857620002076200020e565b5b50919050565b7f4e487b7100000000000000000000000000000000000000000000000000000000600052602260045260246000fd5b6146c9806200024d6000396000f3fe608060405234801561001057600080fd5b50600436106101da5760003560e01c806384478ad311610104578063b88d4fde116100a2578063d812da2711610071578063d812da271461058f578063dde2ae48146105ad578063e985e9c5146105cb578063f86fa77b146105fb576101da565b8063b88d4fde146104f5578063c87b56dd14610511578063d40cf78a14610541578063d4fb94571461055f576101da565b80639a791cb3116100de5780639a791cb314610483578063a22cb4651461049f578063ae52bc97146104bb578063b17de4af146104d9576101da565b806384478ad3146104055780638ffd2b771461043557806395d89b4114610465576101da565b80631c0f8b591161017c5780636352211e1161014b5780636352211e1461035757806370a08231146103875780637403a42a146103b757806383be9c85146103d5576101da565b80631c0f8b59146102bf57806323b872dd146102ef57806342842e0e1461030b5780634ee069b814610327576101da565b8063081812fc116101b8578063081812fc1461024b578063095ea7b31461027b5780631243e795146102975780631415f1e7146102b5576101da565b80630148c3eb146101df57806301ffc9a7146101fd57806306fdde031461022d575b600080fd5b6101e7610617565b6040516101f4919061423f565b60405180910390f35b61021760048036038101906102129190613508565b61061d565b6040516102249190613fee565b60405180910390f35b6102356106ff565b604051610242919061402d565b60405180910390f35b610265600480360381019061026091906136de565b610791565b6040516102729190613f87565b60405180910390f35b610295600480360381019061029091906134cc565b610816565b005b61029f61092e565b6040516102ac919061423f565b60405180910390f35b6102bd6109d2565b005b6102d960048036038101906102d491906136de565b610bc8565b6040516102e6919061402d565b60405180910390f35b610309600480360381019061030491906133c6565b610cdb565b005b610325600480360381019061032091906133c6565b610d3b565b005b610341600480360381019061033c91906136de565b610d5b565b60405161034e919061402d565b60405180910390f35b610371600480360381019061036c91906136de565b610dfb565b60405161037e9190613f87565b60405180910390f35b6103a1600480360381019061039c9190613361565b610ead565b6040516103ae919061423f565b60405180910390f35b6103bf610f65565b6040516103cc919061423f565b60405180910390f35b6103ef60048036038101906103ea91906136de565b610f6b565b6040516103fc919061423f565b60405180910390f35b61041f600480360381019061041a91906134cc565b611021565b60405161042c919061402d565b60405180910390f35b61044f600480360381019061044a919061369d565b6110da565b60405161045c919061423f565b60405180910390f35b61046d61110e565b60405161047a919061402d565b60405180910390f35b61049d6004803603810190610498919061359f565b6111a0565b005b6104b960048036038101906104b49190613490565b611461565b005b6104c36115e2565b6040516104d09190613f87565b60405180910390f35b6104f360048036038101906104ee919061355a565b611608565b005b61050f600480360381019061050a9190613415565b611864565b005b61052b600480360381019061052691906136de565b6118c6565b604051610538919061402d565b60405180910390f35b61054961196d565b604051610556919061423f565b60405180910390f35b610579600480360381019061057491906136de565b611973565b604051610586919061402d565b60405180910390f35b610597611a26565b6040516105a4919061423f565b60405180910390f35b6105b5611a2c565b6040516105c2919061423f565b60405180910390f35b6105e560048036038101906105e0919061338a565b611a32565b6040516105f29190613fee565b60405180910390f35b61061560048036038101906106109190613614565b611ac6565b005b60075481565b60007f80ac58cd000000000000000000000000000000000000000000000000000000007bffffffffffffffffffffffffffffffffffffffffffffffffffffffff1916827bffffffffffffffffffffffffffffffffffffffffffffffffffffffff191614806106e857507f5b5e139f000000000000000000000000000000000000000000000000000000007bffffffffffffffffffffffffffffffffffffffffffffffffffffffff1916827bffffffffffffffffffffffffffffffffffffffffffffffffffffffff1916145b806106f857506106f782611d1a565b5b9050919050565b60606000805461070e906144b4565b80601f016020809104026020016040519081016040528092919081815260200182805461073a906144b4565b80156107875780601f1061075c57610100808354040283529160200191610787565b820191906000526020600020905b81548152906001019060200180831161076a57829003601f168201915b5050505050905090565b600061079c82611d84565b6107db576040517f08c379a00000000000000000000000000000000000000000000000000000000081526004016107d29061419f565b60405180910390fd5b6004600083815260200190815260200160002060009054906101000a900473ffffffffffffffffffffffffffffffffffffffff169050919050565b600061082182610dfb565b90508073ffffffffffffffffffffffffffffffffffffffff168373ffffffffffffffffffffffffffffffffffffffff161415610892576040517f08c379a0000000000000000000000000000000000000000000000000000000008152600401610889906141ff565b60405180910390fd5b8073ffffffffffffffffffffffffffffffffffffffff166108b1611df0565b73ffffffffffffffffffffffffffffffffffffffff1614806108e057506108df816108da611df0565b611a32565b5b61091f576040517f08c379a00000000000000000000000000000000000000000000000000000000081526004016109169061411f565b60405180910390fd5b6109298383611df8565b505050565b600080601160003373ffffffffffffffffffffffffffffffffffffffff1673ffffffffffffffffffffffffffffffffffffffff168152602001908152602001600020805490501161097e57600080fd5b6001601160003373ffffffffffffffffffffffffffffffffffffffff1673ffffffffffffffffffffffffffffffffffffffff168152602001908152602001600020805490506109cd91906143ca565b905090565b6000600a544442600e60006007548152602001908152602001600020600e60006008548152602001908152602001600020600654604051602001610a1a959493929190613f30565b6040516020818303038152906040528051906020012060001c610a3d9190614539565b90506006600081548092919060010191905055506040518060600160405280601060008481526020019081526020016000208054610a7a906144b4565b80601f0160208091040260200160405190810160405280929190818152602001828054610aa6906144b4565b8015610af35780601f10610ac857610100808354040283529160200191610af3565b820191906000526020600020905b815481529060010190602001808311610ad657829003601f168201915b5050505050815260200142815260200182815250600f60003373ffffffffffffffffffffffffffffffffffffffff1673ffffffffffffffffffffffffffffffffffffffff1681526020019081526020016000206000820151816000019080519060200190610b62929190612d93565b5060208201518160010155604082015181600201559050507fc677725654589e374ce4a6401099c2b2cb85914769d283cdfcdec623e2cc00116010600083815260200190815260200160002033604051610bbd92919061404f565b60405180910390a150565b6060601160003373ffffffffffffffffffffffffffffffffffffffff1673ffffffffffffffffffffffffffffffffffffffff1681526020019081526020016000208281548110610c41577f4e487b7100000000000000000000000000000000000000000000000000000000600052603260045260246000fd5b906000526020600020018054610c56906144b4565b80601f0160208091040260200160405190810160405280929190818152602001828054610c82906144b4565b8015610ccf5780601f10610ca457610100808354040283529160200191610ccf565b820191906000526020600020905b815481529060010190602001808311610cb257829003601f168201915b50505050509050919050565b610cec610ce6611df0565b82611eb1565b610d2b576040517f08c379a0000000000000000000000000000000000000000000000000000000008152600401610d229061421f565b60405180910390fd5b610d36838383611f8f565b505050565b610d5683838360405180602001604052806000815250611864565b505050565b60126020528060005260406000206000915090508054610d7a906144b4565b80601f0160208091040260200160405190810160405280929190818152602001828054610da6906144b4565b8015610df35780601f10610dc857610100808354040283529160200191610df3565b820191906000526020600020905b815481529060010190602001808311610dd657829003601f168201915b505050505081565b6000806002600084815260200190815260200160002060009054906101000a900473ffffffffffffffffffffffffffffffffffffffff169050600073ffffffffffffffffffffffffffffffffffffffff168173ffffffffffffffffffffffffffffffffffffffff161415610ea4576040517f08c379a0000000000000000000000000000000000000000000000000000000008152600401610e9b9061415f565b60405180910390fd5b80915050919050565b60008073ffffffffffffffffffffffffffffffffffffffff168273ffffffffffffffffffffffffffffffffffffffff161415610f1e576040517f08c379a0000000000000000000000000000000000000000000000000000000008152600401610f159061413f565b60405180910390fd5b600360008373ffffffffffffffffffffffffffffffffffffffff1673ffffffffffffffffffffffffffffffffffffffff168152602001908152602001600020549050919050565b600b5481565b6000600d601160003373ffffffffffffffffffffffffffffffffffffffff1673ffffffffffffffffffffffffffffffffffffffff1681526020019081526020016000208381548110610fe6577f4e487b7100000000000000000000000000000000000000000000000000000000600052603260045260246000fd5b90600052602060002001604051610ffd9190613f19565b9081526020016040518091039020600201544261101a91906143ca565b9050919050565b6011602052816000526040600020818154811061103d57600080fd5b90600052602060002001600091509150508054611059906144b4565b80601f0160208091040260200160405190810160405280929190818152602001828054611085906144b4565b80156110d25780601f106110a7576101008083540402835291602001916110d2565b820191906000526020600020905b8154815290600101906020018083116110b557829003601f168201915b505050505081565b600d818051602081018201805184825260208301602085012081835280955050505050506000915090508060020154905081565b60606001805461111d906144b4565b80601f0160208091040260200160405190810160405280929190818152602001828054611149906144b4565b80156111965780601f1061116b57610100808354040283529160200191611196565b820191906000526020600020905b81548152906001019060200180831161117957829003601f168201915b5050505050905090565b838381816040516020016111b5929190613ea1565b60405160208183030381529060405280519060200120600f60003373ffffffffffffffffffffffffffffffffffffffff1673ffffffffffffffffffffffffffffffffffffffff16815260200190815260200160002060000160405160200161121d9190613f19565b604051602081830303815290604052805190602001201461123d57600080fd5b42611c20600f60003373ffffffffffffffffffffffffffffffffffffffff1673ffffffffffffffffffffffffffffffffffffffff1681526020019081526020016000206001015461128e9190614343565b1161129857600080fd5b6112a4848488886121eb565b6005600d85856040516112b8929190613ea1565b90815260200160405180910390206001018054905014156112e2576112dd848461234f565b611459565b8383600e600060085481526020019081526020016000209190611306929190612e19565b50600860008154809291906001019190505550858560405160200161132c929190613ea1565b6040516020818303038152906040528051906020012060106000600f60003373ffffffffffffffffffffffffffffffffffffffff1673ffffffffffffffffffffffffffffffffffffffff1681526020019081526020016000206002015481526020019081526020016000206040516020016113a79190613f19565b60405160208183030381529060405280519060200120141561145857600e6000600754815260200190815260200160002060106000600f60003373ffffffffffffffffffffffffffffffffffffffff1673ffffffffffffffffffffffffffffffffffffffff168152602001908152602001600020600201548152602001908152602001600020908054611439906144b4565b611444929190612e9f565b506007600081548092919060010191905055505b5b505050505050565b611469611df0565b73ffffffffffffffffffffffffffffffffffffffff168273ffffffffffffffffffffffffffffffffffffffff1614156114d7576040517f08c379a00000000000000000000000000000000000000000000000000000000081526004016114ce906140df565b60405180910390fd5b80600560006114e4611df0565b73ffffffffffffffffffffffffffffffffffffffff1673ffffffffffffffffffffffffffffffffffffffff16815260200190815260200160002060008473ffffffffffffffffffffffffffffffffffffffff1673ffffffffffffffffffffffffffffffffffffffff16815260200190815260200160002060006101000a81548160ff0219169083151502179055508173ffffffffffffffffffffffffffffffffffffffff16611591611df0565b73ffffffffffffffffffffffffffffffffffffffff167f17307eab39ab6107e8899845ad3d59bd9653f200f220920489ca2b5937696c31836040516115d69190613fee565b60405180910390a35050565b600c60009054906101000a900473ffffffffffffffffffffffffffffffffffffffff1681565b600c60009054906101000a900473ffffffffffffffffffffffffffffffffffffffff1673ffffffffffffffffffffffffffffffffffffffff163373ffffffffffffffffffffffffffffffffffffffff161461166257600080fd5b60608060405180606001604052808381526020018281526020016000815250600d8585604051611693929190613ea1565b908152602001604051809103902060008201518160000190805190602001906116bd929190612f2c565b5060208201518160010190805190602001906116da929190612f8c565b5060408201518160020155905050600d84846040516116fa929190613ea1565b9081526020016040518091039020600001848490918060018154018082558091505060019003906000526020600020016000909192909192909192909192509190611746929190612e19565b50600d8484604051611759929190613ea1565b9081526020016040518091039020600101339080600181540180825580915050600190039060005260206000200160009091909190916101000a81548173ffffffffffffffffffffffffffffffffffffffff021916908373ffffffffffffffffffffffffffffffffffffffff160217905550600a54600954101561182757838360106000600954815260200190815260200160002091906117fb929190612e19565b5060076000815480929190600101919050555060096000815480929190611821906144e6565b91905055505b8383600e60006008548152602001908152602001600020919061184b929190612e19565b5060086000815480929190600101919050555050505050565b61187561186f611df0565b83611eb1565b6118b4576040517f08c379a00000000000000000000000000000000000000000000000000000000081526004016118ab9061421f565b60405180910390fd5b6118c08484848461277d565b50505050565b60606118d182611d84565b611910576040517f08c379a0000000000000000000000000000000000000000000000000000000008152600401611907906141df565b60405180910390fd5b600061191a6127d9565b9050600081511161193a5760405180602001604052806000815250611965565b80611944846127f0565b604051602001611955929190613ef5565b6040516020818303038152906040525b915050919050565b60095481565b6060600b54821061198357600080fd5b6012600083815260200190815260200160002080546119a1906144b4565b80601f01602080910402602001604051908101604052809291908181526020018280546119cd906144b4565b8015611a1a5780601f106119ef57610100808354040283529160200191611a1a565b820191906000526020600020905b8154815290600101906020018083116119fd57829003601f168201915b50505050509050919050565b60085481565b600a5481565b6000600560008473ffffffffffffffffffffffffffffffffffffffff1673ffffffffffffffffffffffffffffffffffffffff16815260200190815260200160002060008373ffffffffffffffffffffffffffffffffffffffff1673ffffffffffffffffffffffffffffffffffffffff16815260200190815260200160002060009054906101000a900460ff16905092915050565b4262093a80600d8787604051611add929190613ea1565b908152602001604051809103902060020154611af99190614343565b11611b0357600080fd5b601160003373ffffffffffffffffffffffffffffffffffffffff1673ffffffffffffffffffffffffffffffffffffffff1681526020019081526020016000208181548110611b7a577f4e487b7100000000000000000000000000000000000000000000000000000000600052603260045260246000fd5b90600052602060002001604051602001611b949190613f19565b604051602081830303815290604052805190602001208585604051602001611bbd929190613ea1565b6040516020818303038152906040528051906020012014611bdd57600080fd5b611be9838387876121eb565b611bf533600b5461299d565b601160003373ffffffffffffffffffffffffffffffffffffffff1673ffffffffffffffffffffffffffffffffffffffff1681526020019081526020016000208181548110611c6c577f4e487b7100000000000000000000000000000000000000000000000000000000600052603260045260246000fd5b906000526020600020016000611c829190613016565b828260126000600b5481526020019081526020016000209190611ca6929190612e19565b508484604051611cb7929190613ea1565b6040518091039020600b547f2acd7bd8c19e16133f59b87545a8541c2cb2f98cc768abe3d15cdadd7e003d138585604051611cf3929190614009565b60405180910390a3600b6000815480929190611d0e906144e6565b91905055505050505050565b60007f01ffc9a7000000000000000000000000000000000000000000000000000000007bffffffffffffffffffffffffffffffffffffffffffffffffffffffff1916827bffffffffffffffffffffffffffffffffffffffffffffffffffffffff1916149050919050565b60008073ffffffffffffffffffffffffffffffffffffffff166002600084815260200190815260200160002060009054906101000a900473ffffffffffffffffffffffffffffffffffffffff1673ffffffffffffffffffffffffffffffffffffffff1614159050919050565b600033905090565b816004600083815260200190815260200160002060006101000a81548173ffffffffffffffffffffffffffffffffffffffff021916908373ffffffffffffffffffffffffffffffffffffffff160217905550808273ffffffffffffffffffffffffffffffffffffffff16611e6b83610dfb565b73ffffffffffffffffffffffffffffffffffffffff167f8c5be1e5ebec7d5bd14f71427d1e84f3dd0314c0f7b2291e5b200ac8c7c3b92560405160405180910390a45050565b6000611ebc82611d84565b611efb576040517f08c379a0000000000000000000000000000000000000000000000000000000008152600401611ef2906140ff565b60405180910390fd5b6000611f0683610dfb565b90508073ffffffffffffffffffffffffffffffffffffffff168473ffffffffffffffffffffffffffffffffffffffff161480611f7557508373ffffffffffffffffffffffffffffffffffffffff16611f5d84610791565b73ffffffffffffffffffffffffffffffffffffffff16145b80611f865750611f858185611a32565b5b91505092915050565b8273ffffffffffffffffffffffffffffffffffffffff16611faf82610dfb565b73ffffffffffffffffffffffffffffffffffffffff1614612005576040517f08c379a0000000000000000000000000000000000000000000000000000000008152600401611ffc906141bf565b60405180910390fd5b600073ffffffffffffffffffffffffffffffffffffffff168273ffffffffffffffffffffffffffffffffffffffff161415612075576040517f08c379a000000000000000000000000000000000000000000000000000000000815260040161206c906140bf565b60405180910390fd5b6120808383836129bb565b61208b600082611df8565b6001600360008573ffffffffffffffffffffffffffffffffffffffff1673ffffffffffffffffffffffffffffffffffffffff16815260200190815260200160002060008282546120db91906143ca565b925050819055506001600360008473ffffffffffffffffffffffffffffffffffffffff1673ffffffffffffffffffffffffffffffffffffffff16815260200190815260200160002060008282546121329190614343565b92505081905550816002600083815260200190815260200160002060006101000a81548173ffffffffffffffffffffffffffffffffffffffff021916908373ffffffffffffffffffffffffffffffffffffffff160217905550808273ffffffffffffffffffffffffffffffffffffffff168473ffffffffffffffffffffffffffffffffffffffff167fddf252ad1be2c89b69c2b068fc378daa952ba7f163c4a11628f55a4df523b3ef60405160405180910390a4505050565b600d82826040516121fd929190613ea1565b9081526020016040518091039020600d858560405161221d929190613ea1565b90815260200160405180910390206000820181600001908054612241929190613056565b5060018201816001019080546122589291906130be565b5060028201548160020155905050600d8484604051612278929190613ea1565b90815260200160405180910390206000018484909180600181540180825580915050600190039060005260206000200160009091929091929091929091925091906122c4929190612e19565b50600d84846040516122d7929190613ea1565b9081526020016040518091039020600101339080600181540180825580915050600190039060005260206000200160009091909190916101000a81548173ffffffffffffffffffffffffffffffffffffffff021916908373ffffffffffffffffffffffffffffffffffffffff16021790555050505050565b42600d8383604051612362929190613ea1565b90815260200160405180910390206002018190555060005b60058110156124965760116000600d8585604051612399929190613ea1565b908152602001604051809103902060010183815481106123e2577f4e487b7100000000000000000000000000000000000000000000000000000000600052603260045260246000fd5b9060005260206000200160009054906101000a900473ffffffffffffffffffffffffffffffffffffffff1673ffffffffffffffffffffffffffffffffffffffff1673ffffffffffffffffffffffffffffffffffffffff168152602001908152602001600020838390918060018154018082558091505060019003906000526020600020016000909192909192909192909192509190612482929190612e19565b50808061248e906144e6565b91505061237a565b506013600d83836040516124ab929190613ea1565b90815260200160405180910390206000016000815481106124f5577f4e487b7100000000000000000000000000000000000000000000000000000000600052603260045260246000fd5b9060005260206000200160405161250c9190613f19565b908152602001604051809103902060009054906101000a900460ff166126e45760008282604051602001612541929190613eba565b604051602081830303815290604052905060608060405180606001604052808381526020018281526020016000815250600d846040516125819190613ede565b908152602001604051809103902060008201518160000190805190602001906125ab929190612f2c565b5060208201518160010190805190602001906125c8929190612f8c565b50604082015181600201559050508260106000600f60003373ffffffffffffffffffffffffffffffffffffffff1673ffffffffffffffffffffffffffffffffffffffff168152602001908152602001600020600201548152602001908152602001600020908051906020019061263f929190612d93565b5060016013600d8787604051612656929190613ea1565b90815260200160405180910390206000016000815481106126a0577f4e487b7100000000000000000000000000000000000000000000000000000000600052603260045260246000fd5b906000526020600020016040516126b79190613f19565b908152602001604051809103902060006101000a81548160ff021916908315150217905550505050612779565b600e6000600754815260200190815260200160002060106000600f60003373ffffffffffffffffffffffffffffffffffffffff1673ffffffffffffffffffffffffffffffffffffffff16815260200190815260200160002060020154815260200190815260200160002090805461275a906144b4565b612765929190612e9f565b506007600081548092919060010191905055505b5050565b612788848484611f8f565b612794848484846129c0565b6127d3576040517f08c379a00000000000000000000000000000000000000000000000000000000081526004016127ca9061407f565b60405180910390fd5b50505050565b606060405180602001604052806000815250905090565b60606000821415612838576040518060400160405280600181526020017f30000000000000000000000000000000000000000000000000000000000000008152509050612998565b600082905060005b6000821461286a578080612853906144e6565b915050600a826128639190614399565b9150612840565b60008167ffffffffffffffff8111156128ac577f4e487b7100000000000000000000000000000000000000000000000000000000600052604160045260246000fd5b6040519080825280601f01601f1916602001820160405280156128de5781602001600182028036833780820191505090505b5090505b60008514612991576001826128f791906143ca565b9150600a856129069190614539565b60306129129190614343565b60f81b81838151811061294e577f4e487b7100000000000000000000000000000000000000000000000000000000600052603260045260246000fd5b60200101907effffffffffffffffffffffffffffffffffffffffffffffffffffffffffffff1916908160001a905350600a8561298a9190614399565b94506128e2565b8093505050505b919050565b6129b7828260405180602001604052806000815250612b57565b5050565b505050565b60006129e18473ffffffffffffffffffffffffffffffffffffffff16612bb2565b15612b4a578373ffffffffffffffffffffffffffffffffffffffff1663150b7a02612a0a611df0565b8786866040518563ffffffff1660e01b8152600401612a2c9493929190613fa2565b602060405180830381600087803b158015612a4657600080fd5b505af1925050508015612a7757506040513d601f19601f82011682018060405250810190612a749190613531565b60015b612afa573d8060008114612aa7576040519150601f19603f3d011682016040523d82523d6000602084013e612aac565b606091505b50600081511415612af2576040517f08c379a0000000000000000000000000000000000000000000000000000000008152600401612ae99061407f565b60405180910390fd5b805181602001fd5b63150b7a0260e01b7bffffffffffffffffffffffffffffffffffffffffffffffffffffffff1916817bffffffffffffffffffffffffffffffffffffffffffffffffffffffff191614915050612b4f565b600190505b949350505050565b612b618383612bc5565b612b6e60008484846129c0565b612bad576040517f08c379a0000000000000000000000000000000000000000000000000000000008152600401612ba49061407f565b60405180910390fd5b505050565b600080823b905060008111915050919050565b600073ffffffffffffffffffffffffffffffffffffffff168273ffffffffffffffffffffffffffffffffffffffff161415612c35576040517f08c379a0000000000000000000000000000000000000000000000000000000008152600401612c2c9061417f565b60405180910390fd5b612c3e81611d84565b15612c7e576040517f08c379a0000000000000000000000000000000000000000000000000000000008152600401612c759061409f565b60405180910390fd5b612c8a600083836129bb565b6001600360008473ffffffffffffffffffffffffffffffffffffffff1673ffffffffffffffffffffffffffffffffffffffff1681526020019081526020016000206000828254612cda9190614343565b92505081905550816002600083815260200190815260200160002060006101000a81548173ffffffffffffffffffffffffffffffffffffffff021916908373ffffffffffffffffffffffffffffffffffffffff160217905550808273ffffffffffffffffffffffffffffffffffffffff16600073ffffffffffffffffffffffffffffffffffffffff167fddf252ad1be2c89b69c2b068fc378daa952ba7f163c4a11628f55a4df523b3ef60405160405180910390a45050565b828054612d9f906144b4565b90600052602060002090601f016020900481019282612dc15760008555612e08565b82601f10612dda57805160ff1916838001178555612e08565b82800160010185558215612e08579182015b82811115612e07578251825591602001919060010190612dec565b5b509050612e159190613110565b5090565b828054612e25906144b4565b90600052602060002090601f016020900481019282612e475760008555612e8e565b82601f10612e6057803560ff1916838001178555612e8e565b82800160010185558215612e8e579182015b82811115612e8d578235825591602001919060010190612e72565b5b509050612e9b9190613110565b5090565b828054612eab906144b4565b90600052602060002090601f016020900481019282612ecd5760008555612f1b565b82601f10612ede5780548555612f1b565b82800160010185558215612f1b57600052602060002091601f016020900482015b82811115612f1a578254825591600101919060010190612eff565b5b509050612f289190613110565b5090565b828054828255906000526020600020908101928215612f7b579160200282015b82811115612f7a578251829080519060200190612f6a929190612d93565b5091602001919060010190612f4c565b5b509050612f88919061312d565b5090565b828054828255906000526020600020908101928215613005579160200282015b828111156130045782518260006101000a81548173ffffffffffffffffffffffffffffffffffffffff021916908373ffffffffffffffffffffffffffffffffffffffff16021790555091602001919060010190612fac565b5b5090506130129190613110565b5090565b508054613022906144b4565b6000825580601f106130345750613053565b601f0160209004906000526020600020908101906130529190613110565b5b50565b8280548282559060005260206000209081019282156130ad5760005260206000209182015b828111156130ac578282908054613091906144b4565b61309c929190613151565b509160010191906001019061307b565b5b5090506130ba919061312d565b5090565b8280548282559060005260206000209081019282156130ff5760005260206000209182015b828111156130fe5782548255916001019190600101906130e3565b5b50905061310c9190613110565b5090565b5b80821115613129576000816000905550600101613111565b5090565b5b8082111561314d57600081816131449190613016565b5060010161312e565b5090565b82805461315d906144b4565b90600052602060002090601f01602090048101928261317f57600085556131cd565b82601f1061319057805485556131cd565b828001600101855582156131cd57600052602060002091601f016020900482015b828111156131cc5782548255916001019190600101906131b1565b5b5090506131da9190613110565b5090565b60006131f16131ec8461428b565b61425a565b90508281526020810184848401111561320957600080fd5b613214848285614472565b509392505050565b600061322f61322a846142bb565b61425a565b90508281526020810184848401111561324757600080fd5b613252848285614472565b509392505050565b60008135905061326981614637565b92915050565b60008135905061327e8161464e565b92915050565b60008135905061329381614665565b92915050565b6000815190506132a881614665565b92915050565b600082601f8301126132bf57600080fd5b81356132cf8482602086016131de565b91505092915050565b60008083601f8401126132ea57600080fd5b8235905067ffffffffffffffff81111561330357600080fd5b60208301915083600182028301111561331b57600080fd5b9250929050565b600082601f83011261333357600080fd5b813561334384826020860161321c565b91505092915050565b60008135905061335b8161467c565b92915050565b60006020828403121561337357600080fd5b60006133818482850161325a565b91505092915050565b6000806040838503121561339d57600080fd5b60006133ab8582860161325a565b92505060206133bc8582860161325a565b9150509250929050565b6000806000606084860312156133db57600080fd5b60006133e98682870161325a565b93505060206133fa8682870161325a565b925050604061340b8682870161334c565b9150509250925092565b6000806000806080858703121561342b57600080fd5b60006134398782880161325a565b945050602061344a8782880161325a565b935050604061345b8782880161334c565b925050606085013567ffffffffffffffff81111561347857600080fd5b613484878288016132ae565b91505092959194509250565b600080604083850312156134a357600080fd5b60006134b18582860161325a565b92505060206134c28582860161326f565b9150509250929050565b600080604083850312156134df57600080fd5b60006134ed8582860161325a565b92505060206134fe8582860161334c565b9150509250929050565b60006020828403121561351a57600080fd5b600061352884828501613284565b91505092915050565b60006020828403121561354357600080fd5b600061355184828501613299565b91505092915050565b6000806020838503121561356d57600080fd5b600083013567ffffffffffffffff81111561358757600080fd5b613593858286016132d8565b92509250509250929050565b600080600080604085870312156135b557600080fd5b600085013567ffffffffffffffff8111156135cf57600080fd5b6135db878288016132d8565b9450945050602085013567ffffffffffffffff8111156135fa57600080fd5b613606878288016132d8565b925092505092959194509250565b60008060008060006060868803121561362c57600080fd5b600086013567ffffffffffffffff81111561364657600080fd5b613652888289016132d8565b9550955050602086013567ffffffffffffffff81111561367157600080fd5b61367d888289016132d8565b935093505060406136908882890161334c565b9150509295509295909350565b6000602082840312156136af57600080fd5b600082013567ffffffffffffffff8111156136c957600080fd5b6136d584828501613322565b91505092915050565b6000602082840312156136f057600080fd5b60006136fe8482850161334c565b91505092915050565b613710816143fe565b82525050565b61371f81614410565b82525050565b600061373082614300565b61373a8185614316565b935061374a818560208601614481565b61375381614626565b840191505092915050565b600061376a8385614327565b9350613777838584614472565b61378083614626565b840190509392505050565b60006137978385614338565b93506137a4838584614472565b82840190509392505050565b60006137bb8261430b565b6137c58185614327565b93506137d5818560208601614481565b6137de81614626565b840191505092915050565b60006137f48261430b565b6137fe8185614338565b935061380e818560208601614481565b80840191505092915050565b60008154613827816144b4565b6138318186614327565b9450600182166000811461384c576001811461385e57613891565b60ff1983168652602086019350613891565b613867856142eb565b60005b838110156138895781548189015260018201915060208101905061386a565b808801955050505b50505092915050565b600081546138a7816144b4565b6138b18186614338565b945060018216600081146138cc57600181146138dd57613910565b60ff19831686528186019350613910565b6138e6856142eb565b60005b83811015613908578154818901526001820191506020810190506138e9565b838801955050505b50505092915050565b6000613926603283614327565b91507f4552433732313a207472616e7366657220746f206e6f6e20455243373231526560008301527f63656976657220696d706c656d656e74657200000000000000000000000000006020830152604082019050919050565b600061398c601c83614327565b91507f4552433732313a20746f6b656e20616c7265616479206d696e746564000000006000830152602082019050919050565b60006139cc602483614327565b91507f4552433732313a207472616e7366657220746f20746865207a65726f2061646460008301527f72657373000000000000000000000000000000000000000000000000000000006020830152604082019050919050565b6000613a32601983614327565b91507f4552433732313a20617070726f766520746f2063616c6c6572000000000000006000830152602082019050919050565b6000613a72602c83614327565b91507f4552433732313a206f70657261746f7220717565727920666f72206e6f6e657860008301527f697374656e7420746f6b656e00000000000000000000000000000000000000006020830152604082019050919050565b6000613ad8603883614327565b91507f4552433732313a20617070726f76652063616c6c6572206973206e6f74206f7760008301527f6e6572206e6f7220617070726f76656420666f7220616c6c00000000000000006020830152604082019050919050565b6000613b3e602a83614327565b91507f4552433732313a2062616c616e636520717565727920666f7220746865207a6560008301527f726f2061646472657373000000000000000000000000000000000000000000006020830152604082019050919050565b6000613ba4602983614327565b91507f4552433732313a206f776e657220717565727920666f72206e6f6e657869737460008301527f656e7420746f6b656e00000000000000000000000000000000000000000000006020830152604082019050919050565b6000613c0a602083614327565b91507f4552433732313a206d696e7420746f20746865207a65726f20616464726573736000830152602082019050919050565b6000613c4a600583614338565b91507f30303030300000000000000000000000000000000000000000000000000000006000830152600582019050919050565b6000613c8a602c83614327565b91507f4552433732313a20617070726f76656420717565727920666f72206e6f6e657860008301527f697374656e7420746f6b656e00000000000000000000000000000000000000006020830152604082019050919050565b6000613cf0602983614327565b91507f4552433732313a207472616e73666572206f6620746f6b656e2074686174206960008301527f73206e6f74206f776e00000000000000000000000000000000000000000000006020830152604082019050919050565b6000613d56602f83614327565b91507f4552433732314d657461646174613a2055524920717565727920666f72206e6f60008301527f6e6578697374656e7420746f6b656e00000000000000000000000000000000006020830152604082019050919050565b6000613dbc602183614327565b91507f4552433732313a20617070726f76616c20746f2063757272656e74206f776e6560008301527f72000000000000000000000000000000000000000000000000000000000000006020830152604082019050919050565b6000613e22603183614327565b91507f4552433732313a207472616e736665722063616c6c6572206973206e6f74206f60008301527f776e6572206e6f7220617070726f7665640000000000000000000000000000006020830152604082019050919050565b613e8481614468565b82525050565b613e9b613e9682614468565b61452f565b82525050565b6000613eae82848661378b565b91508190509392505050565b6000613ec782848661378b565b9150613ed282613c3d565b91508190509392505050565b6000613eea82846137e9565b915081905092915050565b6000613f0182856137e9565b9150613f0d82846137e9565b91508190509392505050565b6000613f25828461389a565b915081905092915050565b6000613f3c8288613e8a565b602082019150613f4c8287613e8a565b602082019150613f5c828661389a565b9150613f68828561389a565b9150613f748284613e8a565b6020820191508190509695505050505050565b6000602082019050613f9c6000830184613707565b92915050565b6000608082019050613fb76000830187613707565b613fc46020830186613707565b613fd16040830185613e7b565b8181036060830152613fe38184613725565b905095945050505050565b60006020820190506140036000830184613716565b92915050565b6000602082019050818103600083015261402481848661375e565b90509392505050565b6000602082019050818103600083015261404781846137b0565b905092915050565b60006040820190508181036000830152614069818561381a565b90506140786020830184613707565b9392505050565b6000602082019050818103600083015261409881613919565b9050919050565b600060208201905081810360008301526140b88161397f565b9050919050565b600060208201905081810360008301526140d8816139bf565b9050919050565b600060208201905081810360008301526140f881613a25565b9050919050565b6000602082019050818103600083015261411881613a65565b9050919050565b6000602082019050818103600083015261413881613acb565b9050919050565b6000602082019050818103600083015261415881613b31565b9050919050565b6000602082019050818103600083015261417881613b97565b9050919050565b6000602082019050818103600083015261419881613bfd565b9050919050565b600060208201905081810360008301526141b881613c7d565b9050919050565b600060208201905081810360008301526141d881613ce3565b9050919050565b600060208201905081810360008301526141f881613d49565b9050919050565b6000602082019050818103600083015261421881613daf565b9050919050565b6000602082019050818103600083015261423881613e15565b9050919050565b60006020820190506142546000830184613e7b565b92915050565b6000604051905081810181811067ffffffffffffffff82111715614281576142806145f7565b5b8060405250919050565b600067ffffffffffffffff8211156142a6576142a56145f7565b5b601f19601f8301169050602081019050919050565b600067ffffffffffffffff8211156142d6576142d56145f7565b5b601f19601f8301169050602081019050919050565b60008190508160005260206000209050919050565b600081519050919050565b600081519050919050565b600082825260208201905092915050565b600082825260208201905092915050565b600081905092915050565b600061434e82614468565b915061435983614468565b9250827fffffffffffffffffffffffffffffffffffffffffffffffffffffffffffffffff0382111561438e5761438d61456a565b5b828201905092915050565b60006143a482614468565b91506143af83614468565b9250826143bf576143be614599565b5b828204905092915050565b60006143d582614468565b91506143e083614468565b9250828210156143f3576143f261456a565b5b828203905092915050565b600061440982614448565b9050919050565b60008115159050919050565b60007fffffffff0000000000000000000000000000000000000000000000000000000082169050919050565b600073ffffffffffffffffffffffffffffffffffffffff82169050919050565b6000819050919050565b82818337600083830152505050565b60005b8381101561449f578082015181840152602081019050614484565b838111156144ae576000848401525b50505050565b600060028204905060018216806144cc57607f821691505b602082108114156144e0576144df6145c8565b5b50919050565b60006144f182614468565b91507fffffffffffffffffffffffffffffffffffffffffffffffffffffffffffffffff8214156145245761452361456a565b5b600182019050919050565b6000819050919050565b600061454482614468565b915061454f83614468565b92508261455f5761455e614599565b5b828206905092915050565b7f4e487b7100000000000000000000000000000000000000000000000000000000600052601160045260246000fd5b7f4e487b7100000000000000000000000000000000000000000000000000000000600052601260045260246000fd5b7f4e487b7100000000000000000000000000000000000000000000000000000000600052602260045260246000fd5b7f4e487b7100000000000000000000000000000000000000000000000000000000600052604160045260246000fd5b6000601f19601f8301169050919050565b614640816143fe565b811461464b57600080fd5b50565b61465781614410565b811461466257600080fd5b50565b61466e8161441c565b811461467957600080fd5b50565b61468581614468565b811461469057600080fd5b5056fea264697066735822122093502f9f61a98b9b388f0c959d9e70b2e3582052f3fe990e8270ba8d443dd07d64736f6c63430008000033",
  "immutableReferences": {},
  "source": "pragma solidity ^0.8.0;\n\nimport \"../node_modules/@openzeppelin/contracts/token/ERC721/ERC721.sol\";\n\n/// @title A Frankenstein Texts writing game\n/// @author Mario Mazzaferro\ncontract FrankieTexts is ERC721 {\n\n    // Keeps track of the number of requestText() calls.\n    uint256 private requestCounter;\n\n    // Keeps track of the number of CIDs fed in the deck mapping.\n    uint256 public feedCounter;\n\n    // Keeps track of the number of valid submitText() calls.\n    uint256 public submitCounter;\n\n    // Keeps track of the number of plots seeded in the deck.\n    uint256 public deckCounter;\n\n    // Maximum size of the deck mapping.\n    uint256 public deckSize;\n\n    // Keeps track of the number of minted NFTs.\n    uint256 public frankieId;\n\n    // Address that deployed this contract.\n    address public victor;\n\n    // Fired upon requestText() call.\n    event RequestedText(string chosenCid, address requester);\n\n    // Fired upon mintFrankie() call.\n    event MintedFrankie(uint indexed nftId, string nftCid, string indexed fifthCid);\n\n    // Stores data of a Frankenstein Text.\n    struct Frankie {\n      string[] cids;\n      address[] writers;\n      uint256 endedSince;\n    }\n\n    // Stores temporary data of a Frankenstein Text being edited.\n    struct MiniFrankie {\n      string cid;\n      uint256 editSince;\n      uint256 deckNumber;\n    }\n\n    // Relates IPFS CIDs with Frankenstein Texts.\n    mapping(string => Frankie) public frankies;\n\n    // Cue order of IPFS CIDs from incomplete Frankenstein Texts.\n    mapping(uint256 => string) private cidOrder;\n\n    // Relates writer address and current editing Frankenstein Text.\n    mapping(address => MiniFrankie) private editing;\n\n    // Ordered IPFS CIDs that will be pseudo-randomly returned by requestText().\n    mapping(uint256 => string) private deck;\n\n    // Relates writer address with its list of finished untitled Frankenstein Text's CIDs.\n    mapping(address => string[]) public untitledTexts;\n\n    // Relates frankieId with its respective IPFS CID.\n    mapping(uint256 => string) public mintedCids;\n\n    // Keeps track of plots that have had at least one ramification finished.\n    mapping(string => bool) private plotEnded;\n\n    // Sets initial values.\n    constructor() ERC721(\"Frankies\", \"FKE\") {\n        requestCounter = 0;\n        feedCounter = 0;\n        submitCounter = 0;\n        deckCounter = 0;\n        deckSize = 10;  //Production:100 / Testing:10\n        frankieId = 0;\n        victor = msg.sender;\n    }\n\n    // Limits access only to victor.\n    modifier isVictor() {\n        require(msg.sender == victor);\n        _;\n    }\n\n    // Guarantees that the submitText() caller had previously received that CID less than 2 hours ago.\n    modifier isValid(string calldata oldCid) {\n        require(keccak256(abi.encodePacked(editing[msg.sender].cid)) == keccak256(abi.encodePacked(oldCid)));\n        require(editing[msg.sender].editSince + 2 hours > block.timestamp);\n        _;\n    }\n\n    // Updates Frankenstein Text data stored in Frankie struct.\n    function _updateFrankie(string calldata newCid, string calldata oldCid) private {\n        frankies[newCid] = frankies[oldCid];\n        frankies[newCid].cids.push(newCid);\n        frankies[newCid].writers.push(msg.sender);\n    }\n\n    // Feeds finished Frankenstein Text into each writer's untitled list.\n    // Feeds a new CID into the deck to replace the finished Frankenstein Text's CID.\n    // If it's the first ramification of that plot to finish: feeds a blank plot CID.\n    // Else: feeds the next CID in the cidOrder cue.\n    function _endFrankie(string calldata newCid) private {\n      frankies[newCid].endedSince = block.timestamp;\n      for (uint256 i = 0; i < 5; i++) {\n        untitledTexts[frankies[newCid].writers[i]].push(newCid);\n      }\n      if(!plotEnded[frankies[newCid].cids[0]]) {\n        string memory startCid = string(abi.encodePacked(newCid, '00000'));\n        string[] memory cids;\n        address[] memory writers;\n        frankies[startCid] = Frankie(cids, writers, 0);\n        deck[editing[msg.sender].deckNumber] = startCid;\n        plotEnded[frankies[newCid].cids[0]] = true;\n      } else {\n        deck[editing[msg.sender].deckNumber] = cidOrder[feedCounter];\n        unchecked { feedCounter++; } \n        }\n    }\n\n    // Draws a pseudo-random CID from deck mapping.\n    // Sets pseudo-random CID to msg.sender in editing mapping.\n    function requestText() public {\n      //Production -----------------------------------------------------------\n      uint256 random = uint256(keccak256(abi.encodePacked(block.difficulty, block.timestamp, cidOrder[feedCounter], cidOrder[submitCounter], requestCounter))) % deckSize;\n      unchecked { requestCounter++; }\n      //Testing --------------------------------------------------------------\n      // uint256 random;\n      // if(requestCounter < deckSize) {\n      //   random = requestCounter;\n      //   unchecked { requestCounter++; }\n      // } else {\n      //   requestCounter = 0;\n      //   random = requestCounter;\n      //   unchecked { requestCounter++; }\n      // }\n      //---------------------------------------------------------------------\n      editing[msg.sender] = MiniFrankie(deck[random], block.timestamp, random);\n      emit RequestedText(deck[random], msg.sender);\n    }\n\n    // Updates Frankenstein Text data through _updateFrankie().\n    // If the Frankie has 5 contributions: finalizes Frankenstein Text.\n    // Else: sets newCid in the end of cidOrder cue and if it's the first submited\n    // ramification of oldCid: substitutes it (in the deck) with the first CID of cidOrder cue.\n    function submitText(string calldata oldCid, string calldata newCid) public isValid(oldCid) {\n      _updateFrankie(newCid, oldCid);\n      if (frankies[newCid].writers.length == 5) {\n        _endFrankie(newCid);\n      } else {\n        cidOrder[submitCounter] = newCid;\n        unchecked { submitCounter++; }\n        if(keccak256(abi.encodePacked(deck[editing[msg.sender].deckNumber])) == keccak256(abi.encodePacked(oldCid))) {\n          deck[editing[msg.sender].deckNumber] = cidOrder[feedCounter];\n          unchecked { feedCounter++; }\n        }\n      }\n    }\n\n    // Checks if the untitled Frankenstein Text is still valid and is owned by the caller.\n    // Updates Frankenstein Text data through _updateFrankie().\n    // Mints Frankenstein Text NFT and delete respective untitled from untitledTexts.\n    function mintFrankie(string calldata oldCid, string calldata newCid, uint untitledId) public {\n        require(frankies[oldCid].endedSince + 7 days > block.timestamp);\n        require(keccak256(abi.encodePacked(oldCid)) == keccak256(abi.encodePacked(untitledTexts[msg.sender][untitledId])));\n        _updateFrankie(newCid, oldCid);\n        _safeMint(msg.sender, frankieId);\n        delete untitledTexts[msg.sender][untitledId];\n        mintedCids[frankieId] = newCid;\n        emit MintedFrankie(frankieId, newCid, oldCid);\n        frankieId++;\n    }\n\n    // Returns NFT CID corresponding to the id parameter.\n    function mintedCidById(uint id) public view returns(string memory) {\n      require(id < frankieId);\n      return mintedCids[id];\n    }\n\n    // Returns newest untitled text id for the caller.\n    function requestNewestUntitledId() public view returns(uint) {\n        require(untitledTexts[msg.sender].length > 0);\n        return untitledTexts[msg.sender].length - 1;\n    }\n\n    // Returns caller's untitled CID with the id of the untitledId parameter.\n    function requestUntitledText(uint untitledId) public view returns(string memory) {\n        return untitledTexts[msg.sender][untitledId];\n    }\n\n    // Returns seconds passed since 5th contribution of the untitledTexts[msg.sender][untitledId].\n    function requestUntitledEndedSince(uint untitledId) public view returns(uint) {\n        return (block.timestamp - frankies[untitledTexts[msg.sender][untitledId]].endedSince);\n    }\n\n    // Checks if the caller is victor.\n    // Creates an new Frankie with the cid parameter.\n    // If the deck is incomplete: feeds cid into deck.\n    // Feeds cid in the cidOrder cue.\n    function seedPlot(string calldata cid) public isVictor() {\n        string[] memory cids;\n        address[] memory writers;\n        frankies[cid] = Frankie(cids, writers, 0);\n        frankies[cid].cids.push(cid);\n        frankies[cid].writers.push(msg.sender);\n        if(deckCounter < deckSize) {\n          deck[deckCounter] = cid;\n          unchecked { feedCounter++; }\n          deckCounter++;\n        }\n        cidOrder[submitCounter] = cid;\n        unchecked { submitCounter++; }\n    }\n}",
  "sourcePath": "/home/mariomazzaferro/projects/blockchain-developer-bootcamp-final-project/contracts/FrankieTexts.sol",
  "compiler": {
    "name": "solc",
    "version": "0.8.0+commit.c7dfd78e.Emscripten.clang"
  },
  "schemaVersion": "3.4.1",
  "updatedAt": "2021-11-01T17:42:14.803Z",
  "networkType": "ethereum",
  "devdoc": {
    "author": "Mario Mazzaferro",
    "kind": "dev",
    "methods": {
      "approve(address,uint256)": {
        "details": "See {IERC721-approve}."
      },
      "balanceOf(address)": {
        "details": "See {IERC721-balanceOf}."
      },
      "getApproved(uint256)": {
        "details": "See {IERC721-getApproved}."
      },
      "isApprovedForAll(address,address)": {
        "details": "See {IERC721-isApprovedForAll}."
      },
      "name()": {
        "details": "See {IERC721Metadata-name}."
      },
      "ownerOf(uint256)": {
        "details": "See {IERC721-ownerOf}."
      },
      "safeTransferFrom(address,address,uint256)": {
        "details": "See {IERC721-safeTransferFrom}."
      },
      "safeTransferFrom(address,address,uint256,bytes)": {
        "details": "See {IERC721-safeTransferFrom}."
      },
      "setApprovalForAll(address,bool)": {
        "details": "See {IERC721-setApprovalForAll}."
      },
      "supportsInterface(bytes4)": {
        "details": "See {IERC165-supportsInterface}."
      },
      "symbol()": {
        "details": "See {IERC721Metadata-symbol}."
      },
      "tokenURI(uint256)": {
        "details": "See {IERC721Metadata-tokenURI}."
      },
      "transferFrom(address,address,uint256)": {
        "details": "See {IERC721-transferFrom}."
      }
    },
    "title": "A Frankenstein Texts writing game",
    "version": 1
  },
  "userdoc": {
    "kind": "user",
    "methods": {},
    "version": 1
  }
}