{
  "contractName": "FrankieTexts",
  "abi": [
    {
      "inputs": [
        {
          "internalType": "uint256",
          "name": "_deckSize",
          "type": "uint256"
        }
      ],
      "stateMutability": "nonpayable",
      "type": "constructor"
    },
    {
      "anonymous": false,
      "inputs": [
        {
          "indexed": true,
          "internalType": "address",
          "name": "owner",
          "type": "address"
        },
        {
          "indexed": true,
          "internalType": "address",
          "name": "approved",
          "type": "address"
        },
        {
          "indexed": true,
          "internalType": "uint256",
          "name": "tokenId",
          "type": "uint256"
        }
      ],
      "name": "Approval",
      "type": "event"
    },
    {
      "anonymous": false,
      "inputs": [
        {
          "indexed": true,
          "internalType": "address",
          "name": "owner",
          "type": "address"
        },
        {
          "indexed": true,
          "internalType": "address",
          "name": "operator",
          "type": "address"
        },
        {
          "indexed": false,
          "internalType": "bool",
          "name": "approved",
          "type": "bool"
        }
      ],
      "name": "ApprovalForAll",
      "type": "event"
    },
    {
      "anonymous": false,
      "inputs": [
        {
          "indexed": true,
          "internalType": "uint256",
          "name": "nftId",
          "type": "uint256"
        },
        {
          "indexed": false,
          "internalType": "string",
          "name": "nftCid",
          "type": "string"
        },
        {
          "indexed": true,
          "internalType": "string",
          "name": "fifthCid",
          "type": "string"
        }
      ],
      "name": "MintedFrankie",
      "type": "event"
    },
    {
      "anonymous": false,
      "inputs": [
        {
          "indexed": true,
          "internalType": "address",
          "name": "previousOwner",
          "type": "address"
        },
        {
          "indexed": true,
          "internalType": "address",
          "name": "newOwner",
          "type": "address"
        }
      ],
      "name": "OwnershipTransferred",
      "type": "event"
    },
    {
      "anonymous": false,
      "inputs": [
        {
          "indexed": false,
          "internalType": "string",
          "name": "chosenCid",
          "type": "string"
        },
        {
          "indexed": false,
          "internalType": "address",
          "name": "requester",
          "type": "address"
        }
      ],
      "name": "RequestedText",
      "type": "event"
    },
    {
      "anonymous": false,
      "inputs": [
        {
          "indexed": true,
          "internalType": "address",
          "name": "from",
          "type": "address"
        },
        {
          "indexed": true,
          "internalType": "address",
          "name": "to",
          "type": "address"
        },
        {
          "indexed": true,
          "internalType": "uint256",
          "name": "tokenId",
          "type": "uint256"
        }
      ],
      "name": "Transfer",
      "type": "event"
    },
    {
      "inputs": [
        {
          "internalType": "address",
          "name": "to",
          "type": "address"
        },
        {
          "internalType": "uint256",
          "name": "tokenId",
          "type": "uint256"
        }
      ],
      "name": "approve",
      "outputs": [],
      "stateMutability": "nonpayable",
      "type": "function"
    },
    {
      "inputs": [
        {
          "internalType": "address",
          "name": "owner",
          "type": "address"
        }
      ],
      "name": "balanceOf",
      "outputs": [
        {
          "internalType": "uint256",
          "name": "",
          "type": "uint256"
        }
      ],
      "stateMutability": "view",
      "type": "function",
      "constant": true
    },
    {
      "inputs": [],
      "name": "deckCounter",
      "outputs": [
        {
          "internalType": "uint256",
          "name": "",
          "type": "uint256"
        }
      ],
      "stateMutability": "view",
      "type": "function",
      "constant": true
    },
    {
      "inputs": [],
      "name": "deckSize",
      "outputs": [
        {
          "internalType": "uint256",
          "name": "",
          "type": "uint256"
        }
      ],
      "stateMutability": "view",
      "type": "function",
      "constant": true
    },
    {
      "inputs": [],
      "name": "feedCounter",
      "outputs": [
        {
          "internalType": "uint256",
          "name": "",
          "type": "uint256"
        }
      ],
      "stateMutability": "view",
      "type": "function",
      "constant": true
    },
    {
      "inputs": [],
      "name": "frankieId",
      "outputs": [
        {
          "internalType": "uint256",
          "name": "",
          "type": "uint256"
        }
      ],
      "stateMutability": "view",
      "type": "function",
      "constant": true
    },
    {
      "inputs": [
        {
          "internalType": "uint256",
          "name": "tokenId",
          "type": "uint256"
        }
      ],
      "name": "getApproved",
      "outputs": [
        {
          "internalType": "address",
          "name": "",
          "type": "address"
        }
      ],
      "stateMutability": "view",
      "type": "function",
      "constant": true
    },
    {
      "inputs": [
        {
          "internalType": "address",
          "name": "owner",
          "type": "address"
        },
        {
          "internalType": "address",
          "name": "operator",
          "type": "address"
        }
      ],
      "name": "isApprovedForAll",
      "outputs": [
        {
          "internalType": "bool",
          "name": "",
          "type": "bool"
        }
      ],
      "stateMutability": "view",
      "type": "function",
      "constant": true
    },
    {
      "inputs": [],
      "name": "name",
      "outputs": [
        {
          "internalType": "string",
          "name": "",
          "type": "string"
        }
      ],
      "stateMutability": "view",
      "type": "function",
      "constant": true
    },
    {
      "inputs": [],
      "name": "owner",
      "outputs": [
        {
          "internalType": "address",
          "name": "",
          "type": "address"
        }
      ],
      "stateMutability": "view",
      "type": "function",
      "constant": true
    },
    {
      "inputs": [
        {
          "internalType": "uint256",
          "name": "tokenId",
          "type": "uint256"
        }
      ],
      "name": "ownerOf",
      "outputs": [
        {
          "internalType": "address",
          "name": "",
          "type": "address"
        }
      ],
      "stateMutability": "view",
      "type": "function",
      "constant": true
    },
    {
      "inputs": [],
      "name": "renounceOwnership",
      "outputs": [],
      "stateMutability": "nonpayable",
      "type": "function"
    },
    {
      "inputs": [
        {
          "internalType": "address",
          "name": "from",
          "type": "address"
        },
        {
          "internalType": "address",
          "name": "to",
          "type": "address"
        },
        {
          "internalType": "uint256",
          "name": "tokenId",
          "type": "uint256"
        }
      ],
      "name": "safeTransferFrom",
      "outputs": [],
      "stateMutability": "nonpayable",
      "type": "function"
    },
    {
      "inputs": [
        {
          "internalType": "address",
          "name": "from",
          "type": "address"
        },
        {
          "internalType": "address",
          "name": "to",
          "type": "address"
        },
        {
          "internalType": "uint256",
          "name": "tokenId",
          "type": "uint256"
        },
        {
          "internalType": "bytes",
          "name": "_data",
          "type": "bytes"
        }
      ],
      "name": "safeTransferFrom",
      "outputs": [],
      "stateMutability": "nonpayable",
      "type": "function"
    },
    {
      "inputs": [
        {
          "internalType": "address",
          "name": "operator",
          "type": "address"
        },
        {
          "internalType": "bool",
          "name": "approved",
          "type": "bool"
        }
      ],
      "name": "setApprovalForAll",
      "outputs": [],
      "stateMutability": "nonpayable",
      "type": "function"
    },
    {
      "inputs": [],
      "name": "submitCounter",
      "outputs": [
        {
          "internalType": "uint256",
          "name": "",
          "type": "uint256"
        }
      ],
      "stateMutability": "view",
      "type": "function",
      "constant": true
    },
    {
      "inputs": [
        {
          "internalType": "bytes4",
          "name": "interfaceId",
          "type": "bytes4"
        }
      ],
      "name": "supportsInterface",
      "outputs": [
        {
          "internalType": "bool",
          "name": "",
          "type": "bool"
        }
      ],
      "stateMutability": "view",
      "type": "function",
      "constant": true
    },
    {
      "inputs": [],
      "name": "symbol",
      "outputs": [
        {
          "internalType": "string",
          "name": "",
          "type": "string"
        }
      ],
      "stateMutability": "view",
      "type": "function",
      "constant": true
    },
    {
      "inputs": [
        {
          "internalType": "uint256",
          "name": "tokenId",
          "type": "uint256"
        }
      ],
      "name": "tokenURI",
      "outputs": [
        {
          "internalType": "string",
          "name": "",
          "type": "string"
        }
      ],
      "stateMutability": "view",
      "type": "function",
      "constant": true
    },
    {
      "inputs": [
        {
          "internalType": "address",
          "name": "from",
          "type": "address"
        },
        {
          "internalType": "address",
          "name": "to",
          "type": "address"
        },
        {
          "internalType": "uint256",
          "name": "tokenId",
          "type": "uint256"
        }
      ],
      "name": "transferFrom",
      "outputs": [],
      "stateMutability": "nonpayable",
      "type": "function"
    },
    {
      "inputs": [
        {
          "internalType": "address",
          "name": "newOwner",
          "type": "address"
        }
      ],
      "name": "transferOwnership",
      "outputs": [],
      "stateMutability": "nonpayable",
      "type": "function"
    },
    {
      "inputs": [],
      "name": "requestText",
      "outputs": [],
      "stateMutability": "nonpayable",
      "type": "function"
    },
    {
      "inputs": [
        {
          "internalType": "string",
          "name": "oldCid",
          "type": "string"
        },
        {
          "internalType": "string",
          "name": "newCid",
          "type": "string"
        }
      ],
      "name": "submitText",
      "outputs": [],
      "stateMutability": "nonpayable",
      "type": "function"
    },
    {
      "inputs": [
        {
          "internalType": "string",
          "name": "oldCid",
          "type": "string"
        },
        {
          "internalType": "string",
          "name": "newCid",
          "type": "string"
        },
        {
          "internalType": "uint256",
          "name": "untitledId",
          "type": "uint256"
        }
      ],
      "name": "mintFrankie",
      "outputs": [],
      "stateMutability": "nonpayable",
      "type": "function"
    },
    {
      "inputs": [
        {
          "internalType": "uint256",
          "name": "id",
          "type": "uint256"
        }
      ],
      "name": "mintedCidById",
      "outputs": [
        {
          "internalType": "string",
          "name": "",
          "type": "string"
        }
      ],
      "stateMutability": "view",
      "type": "function",
      "constant": true
    },
    {
      "inputs": [],
      "name": "requestNewestUntitledId",
      "outputs": [
        {
          "internalType": "uint256",
          "name": "",
          "type": "uint256"
        }
      ],
      "stateMutability": "view",
      "type": "function",
      "constant": true
    },
    {
      "inputs": [
        {
          "internalType": "uint256",
          "name": "untitledId",
          "type": "uint256"
        }
      ],
      "name": "requestUntitledText",
      "outputs": [
        {
          "internalType": "string",
          "name": "",
          "type": "string"
        }
      ],
      "stateMutability": "view",
      "type": "function",
      "constant": true
    },
    {
      "inputs": [
        {
          "internalType": "uint256",
          "name": "untitledId",
          "type": "uint256"
        }
      ],
      "name": "requestUntitledEndedSince",
      "outputs": [
        {
          "internalType": "uint256",
          "name": "",
          "type": "uint256"
        }
      ],
      "stateMutability": "view",
      "type": "function",
      "constant": true
    },
    {
      "inputs": [
        {
          "internalType": "string",
          "name": "cid",
          "type": "string"
        }
      ],
      "name": "seedPlot",
      "outputs": [],
      "stateMutability": "nonpayable",
      "type": "function"
    }
  ],
  "bytecode": "0x60806040523480156200001157600080fd5b5060405162004b0b38038062004b0b8339818101604052810190620000379190620002c2565b6040518060400160405280600881526020017f4672616e6b6965730000000000000000000000000000000000000000000000008152506040518060400160405280600381526020017f464b4500000000000000000000000000000000000000000000000000000000008152508160009080519060200190620000bb929190620001fb565b508060019080519060200190620000d4929190620001fb565b505050620000f7620000eb6200012d60201b60201c565b6200013560201b60201c565b6000600781905550600060088190555060006009819055506000600a819055506000600c8190555080600b819055505062000377565b600033905090565b6000600660009054906101000a900473ffffffffffffffffffffffffffffffffffffffff16905081600660006101000a81548173ffffffffffffffffffffffffffffffffffffffff021916908373ffffffffffffffffffffffffffffffffffffffff1602179055508173ffffffffffffffffffffffffffffffffffffffff168173ffffffffffffffffffffffffffffffffffffffff167f8be0079c531659141344cd1fd0a4f28419497f9722a3daafe3b4186f6b6457e060405160405180910390a35050565b8280546200020990620002f8565b90600052602060002090601f0160209004810192826200022d576000855562000279565b82601f106200024857805160ff191683800117855562000279565b8280016001018555821562000279579182015b82811115620002785782518255916020019190600101906200025b565b5b5090506200028891906200028c565b5090565b5b80821115620002a75760008160009055506001016200028d565b5090565b600081519050620002bc816200035d565b92915050565b600060208284031215620002d557600080fd5b6000620002e584828501620002ab565b91505092915050565b6000819050919050565b600060028204905060018216806200031157607f821691505b602082108114156200032857620003276200032e565b5b50919050565b7f4e487b7100000000000000000000000000000000000000000000000000000000600052602260045260246000fd5b6200036881620002ee565b81146200037457600080fd5b50565b61478480620003876000396000f3fe608060405234801561001057600080fd5b50600436106101cf5760003560e01c806383be9c8511610104578063c87b56dd116100a2578063dde2ae4811610071578063dde2ae481461051c578063e985e9c51461053a578063f2fde38b1461056a578063f86fa77b14610586576101cf565b8063c87b56dd14610480578063d40cf78a146104b0578063d4fb9457146104ce578063d812da27146104fe576101cf565b80639a791cb3116100de5780639a791cb314610410578063a22cb4651461042c578063b17de4af14610448578063b88d4fde14610464576101cf565b806383be9c85146103a45780638da5cb5b146103d457806395d89b41146103f2576101cf565b80631c0f8b59116101715780636352211e1161014b5780636352211e1461031c57806370a082311461034c578063715018a61461037c5780637403a42a14610386576101cf565b80631c0f8b59146102b457806323b872dd146102e457806342842e0e14610300576101cf565b8063081812fc116101ad578063081812fc14610240578063095ea7b3146102705780631243e7951461028c5780631415f1e7146102aa576101cf565b80630148c3eb146101d457806301ffc9a7146101f257806306fdde0314610222575b600080fd5b6101dc6105a2565b6040516101e991906142f9565b60405180910390f35b61020c60048036038101906102079190613506565b6105a8565b6040516102199190614068565b60405180910390f35b61022a61068a565b60405161023791906140a7565b60405180910390f35b61025a6004803603810190610255919061369b565b61071c565b6040516102679190614001565b60405180910390f35b61028a600480360381019061028591906134ca565b6107a1565b005b6102946108b9565b6040516102a191906142f9565b60405180910390f35b6102b261095d565b005b6102ce60048036038101906102c9919061369b565b610b53565b6040516102db91906140a7565b60405180910390f35b6102fe60048036038101906102f991906133c4565b610c66565b005b61031a600480360381019061031591906133c4565b610cc6565b005b6103366004803603810190610331919061369b565b610ce6565b6040516103439190614001565b60405180910390f35b6103666004803603810190610361919061335f565b610d98565b60405161037391906142f9565b60405180910390f35b610384610e50565b005b61038e610ed8565b60405161039b91906142f9565b60405180910390f35b6103be60048036038101906103b9919061369b565b610ede565b6040516103cb91906142f9565b60405180910390f35b6103dc610f94565b6040516103e99190614001565b60405180910390f35b6103fa610fbe565b60405161040791906140a7565b60405180910390f35b61042a6004803603810190610425919061359d565b611050565b005b6104466004803603810190610441919061348e565b61130d565b005b610462600480360381019061045d9190613558565b61148e565b005b61047e60048036038101906104799190613413565b61170c565b005b61049a6004803603810190610495919061369b565b61176e565b6040516104a791906140a7565b60405180910390f35b6104b8611815565b6040516104c591906142f9565b60405180910390f35b6104e860048036038101906104e3919061369b565b61181b565b6040516104f591906140a7565b60405180910390f35b6105066118ce565b60405161051391906142f9565b60405180910390f35b6105246118d4565b60405161053191906142f9565b60405180910390f35b610554600480360381019061054f9190613388565b6118da565b6040516105619190614068565b60405180910390f35b610584600480360381019061057f919061335f565b61196e565b005b6105a0600480360381019061059b9190613612565b611a66565b005b60085481565b60007f80ac58cd000000000000000000000000000000000000000000000000000000007bffffffffffffffffffffffffffffffffffffffffffffffffffffffff1916827bffffffffffffffffffffffffffffffffffffffffffffffffffffffff1916148061067357507f5b5e139f000000000000000000000000000000000000000000000000000000007bffffffffffffffffffffffffffffffffffffffffffffffffffffffff1916827bffffffffffffffffffffffffffffffffffffffffffffffffffffffff1916145b80610683575061068282611cba565b5b9050919050565b6060600080546106999061453e565b80601f01602080910402602001604051908101604052809291908181526020018280546106c59061453e565b80156107125780601f106106e757610100808354040283529160200191610712565b820191906000526020600020905b8154815290600101906020018083116106f557829003601f168201915b5050505050905090565b600061072782611d24565b610766576040517f08c379a000000000000000000000000000000000000000000000000000000000815260040161075d90614239565b60405180910390fd5b6004600083815260200190815260200160002060009054906101000a900473ffffffffffffffffffffffffffffffffffffffff169050919050565b60006107ac82610ce6565b90508073ffffffffffffffffffffffffffffffffffffffff168373ffffffffffffffffffffffffffffffffffffffff16141561081d576040517f08c379a0000000000000000000000000000000000000000000000000000000008152600401610814906142b9565b60405180910390fd5b8073ffffffffffffffffffffffffffffffffffffffff1661083c611d90565b73ffffffffffffffffffffffffffffffffffffffff16148061086b575061086a81610865611d90565b6118da565b5b6108aa576040517f08c379a00000000000000000000000000000000000000000000000000000000081526004016108a1906141b9565b60405180910390fd5b6108b48383611d98565b505050565b600080601160003373ffffffffffffffffffffffffffffffffffffffff1673ffffffffffffffffffffffffffffffffffffffff168152602001908152602001600020805490501161090957600080fd5b6001601160003373ffffffffffffffffffffffffffffffffffffffff1673ffffffffffffffffffffffffffffffffffffffff168152602001908152602001600020805490506109589190614454565b905090565b6000600b543344600e60006008548152602001908152602001600020600e600060095481526020019081526020016000206007546040516020016109a5959493929190613f1b565b6040516020818303038152906040528051906020012060001c6109c891906145e7565b90506007600081548092919060010191905055506040518060600160405280601060008481526020019081526020016000208054610a059061453e565b80601f0160208091040260200160405190810160405280929190818152602001828054610a319061453e565b8015610a7e5780601f10610a5357610100808354040283529160200191610a7e565b820191906000526020600020905b815481529060010190602001808311610a6157829003601f168201915b5050505050815260200142815260200182815250600f60003373ffffffffffffffffffffffffffffffffffffffff1673ffffffffffffffffffffffffffffffffffffffff1681526020019081526020016000206000820151816000019080519060200190610aed929190612df9565b5060208201518160010155604082015181600201559050507fc677725654589e374ce4a6401099c2b2cb85914769d283cdfcdec623e2cc00116010600083815260200190815260200160002033604051610b489291906140c9565b60405180910390a150565b6060601160003373ffffffffffffffffffffffffffffffffffffffff1673ffffffffffffffffffffffffffffffffffffffff1681526020019081526020016000208281548110610bcc577f4e487b7100000000000000000000000000000000000000000000000000000000600052603260045260246000fd5b906000526020600020018054610be19061453e565b80601f0160208091040260200160405190810160405280929190818152602001828054610c0d9061453e565b8015610c5a5780601f10610c2f57610100808354040283529160200191610c5a565b820191906000526020600020905b815481529060010190602001808311610c3d57829003601f168201915b50505050509050919050565b610c77610c71611d90565b82611e51565b610cb6576040517f08c379a0000000000000000000000000000000000000000000000000000000008152600401610cad906142d9565b60405180910390fd5b610cc1838383611f2f565b505050565b610ce18383836040518060200160405280600081525061170c565b505050565b6000806002600084815260200190815260200160002060009054906101000a900473ffffffffffffffffffffffffffffffffffffffff169050600073ffffffffffffffffffffffffffffffffffffffff168173ffffffffffffffffffffffffffffffffffffffff161415610d8f576040517f08c379a0000000000000000000000000000000000000000000000000000000008152600401610d86906141f9565b60405180910390fd5b80915050919050565b60008073ffffffffffffffffffffffffffffffffffffffff168273ffffffffffffffffffffffffffffffffffffffff161415610e09576040517f08c379a0000000000000000000000000000000000000000000000000000000008152600401610e00906141d9565b60405180910390fd5b600360008373ffffffffffffffffffffffffffffffffffffffff1673ffffffffffffffffffffffffffffffffffffffff168152602001908152602001600020549050919050565b610e58611d90565b73ffffffffffffffffffffffffffffffffffffffff16610e76610f94565b73ffffffffffffffffffffffffffffffffffffffff1614610ecc576040517f08c379a0000000000000000000000000000000000000000000000000000000008152600401610ec390614259565b60405180910390fd5b610ed6600061218b565b565b600c5481565b6000600d601160003373ffffffffffffffffffffffffffffffffffffffff1673ffffffffffffffffffffffffffffffffffffffff1681526020019081526020016000208381548110610f59577f4e487b7100000000000000000000000000000000000000000000000000000000600052603260045260246000fd5b90600052602060002001604051610f709190613fea565b90815260200160405180910390206002015442610f8d9190614454565b9050919050565b6000600660009054906101000a900473ffffffffffffffffffffffffffffffffffffffff16905090565b606060018054610fcd9061453e565b80601f0160208091040260200160405190810160405280929190818152602001828054610ff99061453e565b80156110465780601f1061101b57610100808354040283529160200191611046565b820191906000526020600020905b81548152906001019060200180831161102957829003601f168201915b5050505050905090565b42611c20600f60003373ffffffffffffffffffffffffffffffffffffffff1673ffffffffffffffffffffffffffffffffffffffff168152602001908152602001600020600101546110a191906143cd565b116110ab57600080fd5b83836040516020016110be929190613f72565b60405160208183030381529060405280519060200120600f60003373ffffffffffffffffffffffffffffffffffffffff1673ffffffffffffffffffffffffffffffffffffffff1681526020019081526020016000206000016040516020016111269190613fea565b604051602081830303815290604052805190602001201461114657600080fd5b61115282828686612251565b6003600d8383604051611166929190613f72565b90815260200160405180910390206001018054905014156111905761118b82826123b5565b611307565b8181600e6000600954815260200190815260200160002091906111b4929190612e7f565b5060096000815480929190600101919050555083836040516020016111da929190613f72565b6040516020818303038152906040528051906020012060106000600f60003373ffffffffffffffffffffffffffffffffffffffff1673ffffffffffffffffffffffffffffffffffffffff1681526020019081526020016000206002015481526020019081526020016000206040516020016112559190613fea565b60405160208183030381529060405280519060200120141561130657600e6000600854815260200190815260200160002060106000600f60003373ffffffffffffffffffffffffffffffffffffffff1673ffffffffffffffffffffffffffffffffffffffff1681526020019081526020016000206002015481526020019081526020016000209080546112e79061453e565b6112f2929190612f05565b506008600081548092919060010191905055505b5b50505050565b611315611d90565b73ffffffffffffffffffffffffffffffffffffffff168273ffffffffffffffffffffffffffffffffffffffff161415611383576040517f08c379a000000000000000000000000000000000000000000000000000000000815260040161137a90614179565b60405180910390fd5b8060056000611390611d90565b73ffffffffffffffffffffffffffffffffffffffff1673ffffffffffffffffffffffffffffffffffffffff16815260200190815260200160002060008473ffffffffffffffffffffffffffffffffffffffff1673ffffffffffffffffffffffffffffffffffffffff16815260200190815260200160002060006101000a81548160ff0219169083151502179055508173ffffffffffffffffffffffffffffffffffffffff1661143d611d90565b73ffffffffffffffffffffffffffffffffffffffff167f17307eab39ab6107e8899845ad3d59bd9653f200f220920489ca2b5937696c31836040516114829190614068565b60405180910390a35050565b611496611d90565b73ffffffffffffffffffffffffffffffffffffffff166114b4610f94565b73ffffffffffffffffffffffffffffffffffffffff161461150a576040517f08c379a000000000000000000000000000000000000000000000000000000000815260040161150190614259565b60405180910390fd5b60608060405180606001604052808381526020018281526020016000815250600d858560405161153b929190613f72565b90815260200160405180910390206000820151816000019080519060200190611565929190612f92565b506020820151816001019080519060200190611582929190612ff2565b5060408201518160020155905050600d84846040516115a2929190613f72565b90815260200160405180910390206000018484909180600181540180825580915050600190039060005260206000200160009091929091929091929091925091906115ee929190612e7f565b50600d8484604051611601929190613f72565b9081526020016040518091039020600101339080600181540180825580915050600190039060005260206000200160009091909190916101000a81548173ffffffffffffffffffffffffffffffffffffffff021916908373ffffffffffffffffffffffffffffffffffffffff160217905550600b54600a5410156116cf57838360106000600a54815260200190815260200160002091906116a3929190612e7f565b50600860008154809291906001019190505550600a60008154809291906116c990614570565b91905055505b8383600e6000600954815260200190815260200160002091906116f3929190612e7f565b5060096000815480929190600101919050555050505050565b61171d611717611d90565b83611e51565b61175c576040517f08c379a0000000000000000000000000000000000000000000000000000000008152600401611753906142d9565b60405180910390fd5b611768848484846127e3565b50505050565b606061177982611d24565b6117b8576040517f08c379a00000000000000000000000000000000000000000000000000000000081526004016117af90614299565b60405180910390fd5b60006117c261283f565b905060008151116117e2576040518060200160405280600081525061180d565b806117ec84612856565b6040516020016117fd929190613fc6565b6040516020818303038152906040525b915050919050565b600a5481565b6060600c54821061182b57600080fd5b6012600083815260200190815260200160002080546118499061453e565b80601f01602080910402602001604051908101604052809291908181526020018280546118759061453e565b80156118c25780601f10611897576101008083540402835291602001916118c2565b820191906000526020600020905b8154815290600101906020018083116118a557829003601f168201915b50505050509050919050565b60095481565b600b5481565b6000600560008473ffffffffffffffffffffffffffffffffffffffff1673ffffffffffffffffffffffffffffffffffffffff16815260200190815260200160002060008373ffffffffffffffffffffffffffffffffffffffff1673ffffffffffffffffffffffffffffffffffffffff16815260200190815260200160002060009054906101000a900460ff16905092915050565b611976611d90565b73ffffffffffffffffffffffffffffffffffffffff16611994610f94565b73ffffffffffffffffffffffffffffffffffffffff16146119ea576040517f08c379a00000000000000000000000000000000000000000000000000000000081526004016119e190614259565b60405180910390fd5b600073ffffffffffffffffffffffffffffffffffffffff168173ffffffffffffffffffffffffffffffffffffffff161415611a5a576040517f08c379a0000000000000000000000000000000000000000000000000000000008152600401611a5190614119565b60405180910390fd5b611a638161218b565b50565b4262093a80600d8787604051611a7d929190613f72565b908152602001604051809103902060020154611a9991906143cd565b11611aa357600080fd5b601160003373ffffffffffffffffffffffffffffffffffffffff1673ffffffffffffffffffffffffffffffffffffffff1681526020019081526020016000208181548110611b1a577f4e487b7100000000000000000000000000000000000000000000000000000000600052603260045260246000fd5b90600052602060002001604051602001611b349190613fea565b604051602081830303815290604052805190602001208585604051602001611b5d929190613f72565b6040516020818303038152906040528051906020012014611b7d57600080fd5b611b8983838787612251565b611b9533600c54612a03565b601160003373ffffffffffffffffffffffffffffffffffffffff1673ffffffffffffffffffffffffffffffffffffffff1681526020019081526020016000208181548110611c0c577f4e487b7100000000000000000000000000000000000000000000000000000000600052603260045260246000fd5b906000526020600020016000611c22919061307c565b828260126000600c5481526020019081526020016000209190611c46929190612e7f565b508484604051611c57929190613f72565b6040518091039020600c547f2acd7bd8c19e16133f59b87545a8541c2cb2f98cc768abe3d15cdadd7e003d138585604051611c93929190614083565b60405180910390a3600c6000815480929190611cae90614570565b91905055505050505050565b60007f01ffc9a7000000000000000000000000000000000000000000000000000000007bffffffffffffffffffffffffffffffffffffffffffffffffffffffff1916827bffffffffffffffffffffffffffffffffffffffffffffffffffffffff1916149050919050565b60008073ffffffffffffffffffffffffffffffffffffffff166002600084815260200190815260200160002060009054906101000a900473ffffffffffffffffffffffffffffffffffffffff1673ffffffffffffffffffffffffffffffffffffffff1614159050919050565b600033905090565b816004600083815260200190815260200160002060006101000a81548173ffffffffffffffffffffffffffffffffffffffff021916908373ffffffffffffffffffffffffffffffffffffffff160217905550808273ffffffffffffffffffffffffffffffffffffffff16611e0b83610ce6565b73ffffffffffffffffffffffffffffffffffffffff167f8c5be1e5ebec7d5bd14f71427d1e84f3dd0314c0f7b2291e5b200ac8c7c3b92560405160405180910390a45050565b6000611e5c82611d24565b611e9b576040517f08c379a0000000000000000000000000000000000000000000000000000000008152600401611e9290614199565b60405180910390fd5b6000611ea683610ce6565b90508073ffffffffffffffffffffffffffffffffffffffff168473ffffffffffffffffffffffffffffffffffffffff161480611f1557508373ffffffffffffffffffffffffffffffffffffffff16611efd8461071c565b73ffffffffffffffffffffffffffffffffffffffff16145b80611f265750611f2581856118da565b5b91505092915050565b8273ffffffffffffffffffffffffffffffffffffffff16611f4f82610ce6565b73ffffffffffffffffffffffffffffffffffffffff1614611fa5576040517f08c379a0000000000000000000000000000000000000000000000000000000008152600401611f9c90614279565b60405180910390fd5b600073ffffffffffffffffffffffffffffffffffffffff168273ffffffffffffffffffffffffffffffffffffffff161415612015576040517f08c379a000000000000000000000000000000000000000000000000000000000815260040161200c90614159565b60405180910390fd5b612020838383612a21565b61202b600082611d98565b6001600360008573ffffffffffffffffffffffffffffffffffffffff1673ffffffffffffffffffffffffffffffffffffffff168152602001908152602001600020600082825461207b9190614454565b925050819055506001600360008473ffffffffffffffffffffffffffffffffffffffff1673ffffffffffffffffffffffffffffffffffffffff16815260200190815260200160002060008282546120d291906143cd565b92505081905550816002600083815260200190815260200160002060006101000a81548173ffffffffffffffffffffffffffffffffffffffff021916908373ffffffffffffffffffffffffffffffffffffffff160217905550808273ffffffffffffffffffffffffffffffffffffffff168473ffffffffffffffffffffffffffffffffffffffff167fddf252ad1be2c89b69c2b068fc378daa952ba7f163c4a11628f55a4df523b3ef60405160405180910390a4505050565b6000600660009054906101000a900473ffffffffffffffffffffffffffffffffffffffff16905081600660006101000a81548173ffffffffffffffffffffffffffffffffffffffff021916908373ffffffffffffffffffffffffffffffffffffffff1602179055508173ffffffffffffffffffffffffffffffffffffffff168173ffffffffffffffffffffffffffffffffffffffff167f8be0079c531659141344cd1fd0a4f28419497f9722a3daafe3b4186f6b6457e060405160405180910390a35050565b600d8282604051612263929190613f72565b9081526020016040518091039020600d8585604051612283929190613f72565b908152602001604051809103902060008201816000019080546122a79291906130bc565b5060018201816001019080546122be929190613124565b5060028201548160020155905050600d84846040516122de929190613f72565b908152602001604051809103902060000184849091806001815401808255809150506001900390600052602060002001600090919290919290919290919250919061232a929190612e7f565b50600d848460405161233d929190613f72565b9081526020016040518091039020600101339080600181540180825580915050600190039060005260206000200160009091909190916101000a81548173ffffffffffffffffffffffffffffffffffffffff021916908373ffffffffffffffffffffffffffffffffffffffff16021790555050505050565b42600d83836040516123c8929190613f72565b90815260200160405180910390206002018190555060005b60038110156124fc5760116000600d85856040516123ff929190613f72565b90815260200160405180910390206001018381548110612448577f4e487b7100000000000000000000000000000000000000000000000000000000600052603260045260246000fd5b9060005260206000200160009054906101000a900473ffffffffffffffffffffffffffffffffffffffff1673ffffffffffffffffffffffffffffffffffffffff1673ffffffffffffffffffffffffffffffffffffffff1681526020019081526020016000208383909180600181540180825580915050600190039060005260206000200160009091929091929091929091925091906124e8929190612e7f565b5080806124f490614570565b9150506123e0565b506013600d8383604051612511929190613f72565b908152602001604051809103902060000160008154811061255b577f4e487b7100000000000000000000000000000000000000000000000000000000600052603260045260246000fd5b906000526020600020016040516125729190613fea565b908152602001604051809103902060009054906101000a900460ff1661274a57600082826040516020016125a7929190613f8b565b604051602081830303815290604052905060608060405180606001604052808381526020018281526020016000815250600d846040516125e79190613faf565b90815260200160405180910390206000820151816000019080519060200190612611929190612f92565b50602082015181600101908051906020019061262e929190612ff2565b50604082015181600201559050508260106000600f60003373ffffffffffffffffffffffffffffffffffffffff1673ffffffffffffffffffffffffffffffffffffffff16815260200190815260200160002060020154815260200190815260200160002090805190602001906126a5929190612df9565b5060016013600d87876040516126bc929190613f72565b9081526020016040518091039020600001600081548110612706577f4e487b7100000000000000000000000000000000000000000000000000000000600052603260045260246000fd5b9060005260206000200160405161271d9190613fea565b908152602001604051809103902060006101000a81548160ff0219169083151502179055505050506127df565b600e6000600854815260200190815260200160002060106000600f60003373ffffffffffffffffffffffffffffffffffffffff1673ffffffffffffffffffffffffffffffffffffffff1681526020019081526020016000206002015481526020019081526020016000209080546127c09061453e565b6127cb929190612f05565b506008600081548092919060010191905055505b5050565b6127ee848484611f2f565b6127fa84848484612a26565b612839576040517f08c379a0000000000000000000000000000000000000000000000000000000008152600401612830906140f9565b60405180910390fd5b50505050565b606060405180602001604052806000815250905090565b6060600082141561289e576040518060400160405280600181526020017f300000000000000000000000000000000000000000000000000000000000000081525090506129fe565b600082905060005b600082146128d05780806128b990614570565b915050600a826128c99190614423565b91506128a6565b60008167ffffffffffffffff811115612912577f4e487b7100000000000000000000000000000000000000000000000000000000600052604160045260246000fd5b6040519080825280601f01601f1916602001820160405280156129445781602001600182028036833780820191505090505b5090505b600085146129f75760018261295d9190614454565b9150600a8561296c91906145e7565b603061297891906143cd565b60f81b8183815181106129b4577f4e487b7100000000000000000000000000000000000000000000000000000000600052603260045260246000fd5b60200101907effffffffffffffffffffffffffffffffffffffffffffffffffffffffffffff1916908160001a905350600a856129f09190614423565b9450612948565b8093505050505b919050565b612a1d828260405180602001604052806000815250612bbd565b5050565b505050565b6000612a478473ffffffffffffffffffffffffffffffffffffffff16612c18565b15612bb0578373ffffffffffffffffffffffffffffffffffffffff1663150b7a02612a70611d90565b8786866040518563ffffffff1660e01b8152600401612a92949392919061401c565b602060405180830381600087803b158015612aac57600080fd5b505af1925050508015612add57506040513d601f19601f82011682018060405250810190612ada919061352f565b60015b612b60573d8060008114612b0d576040519150601f19603f3d011682016040523d82523d6000602084013e612b12565b606091505b50600081511415612b58576040517f08c379a0000000000000000000000000000000000000000000000000000000008152600401612b4f906140f9565b60405180910390fd5b805181602001fd5b63150b7a0260e01b7bffffffffffffffffffffffffffffffffffffffffffffffffffffffff1916817bffffffffffffffffffffffffffffffffffffffffffffffffffffffff191614915050612bb5565b600190505b949350505050565b612bc78383612c2b565b612bd46000848484612a26565b612c13576040517f08c379a0000000000000000000000000000000000000000000000000000000008152600401612c0a906140f9565b60405180910390fd5b505050565b600080823b905060008111915050919050565b600073ffffffffffffffffffffffffffffffffffffffff168273ffffffffffffffffffffffffffffffffffffffff161415612c9b576040517f08c379a0000000000000000000000000000000000000000000000000000000008152600401612c9290614219565b60405180910390fd5b612ca481611d24565b15612ce4576040517f08c379a0000000000000000000000000000000000000000000000000000000008152600401612cdb90614139565b60405180910390fd5b612cf060008383612a21565b6001600360008473ffffffffffffffffffffffffffffffffffffffff1673ffffffffffffffffffffffffffffffffffffffff1681526020019081526020016000206000828254612d4091906143cd565b92505081905550816002600083815260200190815260200160002060006101000a81548173ffffffffffffffffffffffffffffffffffffffff021916908373ffffffffffffffffffffffffffffffffffffffff160217905550808273ffffffffffffffffffffffffffffffffffffffff16600073ffffffffffffffffffffffffffffffffffffffff167fddf252ad1be2c89b69c2b068fc378daa952ba7f163c4a11628f55a4df523b3ef60405160405180910390a45050565b828054612e059061453e565b90600052602060002090601f016020900481019282612e275760008555612e6e565b82601f10612e4057805160ff1916838001178555612e6e565b82800160010185558215612e6e579182015b82811115612e6d578251825591602001919060010190612e52565b5b509050612e7b9190613176565b5090565b828054612e8b9061453e565b90600052602060002090601f016020900481019282612ead5760008555612ef4565b82601f10612ec657803560ff1916838001178555612ef4565b82800160010185558215612ef4579182015b82811115612ef3578235825591602001919060010190612ed8565b5b509050612f019190613176565b5090565b828054612f119061453e565b90600052602060002090601f016020900481019282612f335760008555612f81565b82601f10612f445780548555612f81565b82800160010185558215612f8157600052602060002091601f016020900482015b82811115612f80578254825591600101919060010190612f65565b5b509050612f8e9190613176565b5090565b828054828255906000526020600020908101928215612fe1579160200282015b82811115612fe0578251829080519060200190612fd0929190612df9565b5091602001919060010190612fb2565b5b509050612fee9190613193565b5090565b82805482825590600052602060002090810192821561306b579160200282015b8281111561306a5782518260006101000a81548173ffffffffffffffffffffffffffffffffffffffff021916908373ffffffffffffffffffffffffffffffffffffffff16021790555091602001919060010190613012565b5b5090506130789190613176565b5090565b5080546130889061453e565b6000825580601f1061309a57506130b9565b601f0160209004906000526020600020908101906130b89190613176565b5b50565b8280548282559060005260206000209081019282156131135760005260206000209182015b828111156131125782829080546130f79061453e565b6131029291906131b7565b50916001019190600101906130e1565b5b5090506131209190613193565b5090565b8280548282559060005260206000209081019282156131655760005260206000209182015b82811115613164578254825591600101919060010190613149565b5b5090506131729190613176565b5090565b5b8082111561318f576000816000905550600101613177565b5090565b5b808211156131b357600081816131aa919061307c565b50600101613194565b5090565b8280546131c39061453e565b90600052602060002090601f0160209004810192826131e55760008555613233565b82601f106131f65780548555613233565b8280016001018555821561323357600052602060002091601f016020900482015b82811115613232578254825591600101919060010190613217565b5b5090506132409190613176565b5090565b600061325761325284614345565b614314565b90508281526020810184848401111561326f57600080fd5b61327a8482856144fc565b509392505050565b600081359050613291816146f2565b92915050565b6000813590506132a681614709565b92915050565b6000813590506132bb81614720565b92915050565b6000815190506132d081614720565b92915050565b600082601f8301126132e757600080fd5b81356132f7848260208601613244565b91505092915050565b60008083601f84011261331257600080fd5b8235905067ffffffffffffffff81111561332b57600080fd5b60208301915083600182028301111561334357600080fd5b9250929050565b60008135905061335981614737565b92915050565b60006020828403121561337157600080fd5b600061337f84828501613282565b91505092915050565b6000806040838503121561339b57600080fd5b60006133a985828601613282565b92505060206133ba85828601613282565b9150509250929050565b6000806000606084860312156133d957600080fd5b60006133e786828701613282565b93505060206133f886828701613282565b92505060406134098682870161334a565b9150509250925092565b6000806000806080858703121561342957600080fd5b600061343787828801613282565b945050602061344887828801613282565b93505060406134598782880161334a565b925050606085013567ffffffffffffffff81111561347657600080fd5b613482878288016132d6565b91505092959194509250565b600080604083850312156134a157600080fd5b60006134af85828601613282565b92505060206134c085828601613297565b9150509250929050565b600080604083850312156134dd57600080fd5b60006134eb85828601613282565b92505060206134fc8582860161334a565b9150509250929050565b60006020828403121561351857600080fd5b6000613526848285016132ac565b91505092915050565b60006020828403121561354157600080fd5b600061354f848285016132c1565b91505092915050565b6000806020838503121561356b57600080fd5b600083013567ffffffffffffffff81111561358557600080fd5b61359185828601613300565b92509250509250929050565b600080600080604085870312156135b357600080fd5b600085013567ffffffffffffffff8111156135cd57600080fd5b6135d987828801613300565b9450945050602085013567ffffffffffffffff8111156135f857600080fd5b61360487828801613300565b925092505092959194509250565b60008060008060006060868803121561362a57600080fd5b600086013567ffffffffffffffff81111561364457600080fd5b61365088828901613300565b9550955050602086013567ffffffffffffffff81111561366f57600080fd5b61367b88828901613300565b9350935050604061368e8882890161334a565b9150509295509295909350565b6000602082840312156136ad57600080fd5b60006136bb8482850161334a565b91505092915050565b6136cd81614488565b82525050565b6136e46136df82614488565b6145b9565b82525050565b6136f38161449a565b82525050565b60006137048261438a565b61370e81856143a0565b935061371e81856020860161450b565b613727816146d4565b840191505092915050565b600061373e83856143b1565b935061374b8385846144fc565b613754836146d4565b840190509392505050565b600061376b83856143c2565b93506137788385846144fc565b82840190509392505050565b600061378f82614395565b61379981856143b1565b93506137a981856020860161450b565b6137b2816146d4565b840191505092915050565b60006137c882614395565b6137d281856143c2565b93506137e281856020860161450b565b80840191505092915050565b600081546137fb8161453e565b61380581866143b1565b94506001821660008114613820576001811461383257613865565b60ff1983168652602086019350613865565b61383b85614375565b60005b8381101561385d5781548189015260018201915060208101905061383e565b808801955050505b50505092915050565b6000815461387b8161453e565b61388581866143c2565b945060018216600081146138a057600181146138b1576138e4565b60ff198316865281860193506138e4565b6138ba85614375565b60005b838110156138dc578154818901526001820191506020810190506138bd565b838801955050505b50505092915050565b60006138fa6032836143b1565b91507f4552433732313a207472616e7366657220746f206e6f6e20455243373231526560008301527f63656976657220696d706c656d656e74657200000000000000000000000000006020830152604082019050919050565b60006139606026836143b1565b91507f4f776e61626c653a206e6577206f776e657220697320746865207a65726f206160008301527f64647265737300000000000000000000000000000000000000000000000000006020830152604082019050919050565b60006139c6601c836143b1565b91507f4552433732313a20746f6b656e20616c7265616479206d696e746564000000006000830152602082019050919050565b6000613a066003836143c2565b91507f30303000000000000000000000000000000000000000000000000000000000006000830152600382019050919050565b6000613a466024836143b1565b91507f4552433732313a207472616e7366657220746f20746865207a65726f2061646460008301527f72657373000000000000000000000000000000000000000000000000000000006020830152604082019050919050565b6000613aac6019836143b1565b91507f4552433732313a20617070726f766520746f2063616c6c6572000000000000006000830152602082019050919050565b6000613aec602c836143b1565b91507f4552433732313a206f70657261746f7220717565727920666f72206e6f6e657860008301527f697374656e7420746f6b656e00000000000000000000000000000000000000006020830152604082019050919050565b6000613b526038836143b1565b91507f4552433732313a20617070726f76652063616c6c6572206973206e6f74206f7760008301527f6e6572206e6f7220617070726f76656420666f7220616c6c00000000000000006020830152604082019050919050565b6000613bb8602a836143b1565b91507f4552433732313a2062616c616e636520717565727920666f7220746865207a6560008301527f726f2061646472657373000000000000000000000000000000000000000000006020830152604082019050919050565b6000613c1e6029836143b1565b91507f4552433732313a206f776e657220717565727920666f72206e6f6e657869737460008301527f656e7420746f6b656e00000000000000000000000000000000000000000000006020830152604082019050919050565b6000613c846020836143b1565b91507f4552433732313a206d696e7420746f20746865207a65726f20616464726573736000830152602082019050919050565b6000613cc4602c836143b1565b91507f4552433732313a20617070726f76656420717565727920666f72206e6f6e657860008301527f697374656e7420746f6b656e00000000000000000000000000000000000000006020830152604082019050919050565b6000613d2a6020836143b1565b91507f4f776e61626c653a2063616c6c6572206973206e6f7420746865206f776e65726000830152602082019050919050565b6000613d6a6029836143b1565b91507f4552433732313a207472616e73666572206f6620746f6b656e2074686174206960008301527f73206e6f74206f776e00000000000000000000000000000000000000000000006020830152604082019050919050565b6000613dd0602f836143b1565b91507f4552433732314d657461646174613a2055524920717565727920666f72206e6f60008301527f6e6578697374656e7420746f6b656e00000000000000000000000000000000006020830152604082019050919050565b6000613e366021836143b1565b91507f4552433732313a20617070726f76616c20746f2063757272656e74206f776e6560008301527f72000000000000000000000000000000000000000000000000000000000000006020830152604082019050919050565b6000613e9c6031836143b1565b91507f4552433732313a207472616e736665722063616c6c6572206973206e6f74206f60008301527f776e6572206e6f7220617070726f7665640000000000000000000000000000006020830152604082019050919050565b613efe816144f2565b82525050565b613f15613f10826144f2565b6145dd565b82525050565b6000613f2782886136d3565b601482019150613f378287613f04565b602082019150613f47828661386e565b9150613f53828561386e565b9150613f5f8284613f04565b6020820191508190509695505050505050565b6000613f7f82848661375f565b91508190509392505050565b6000613f9882848661375f565b9150613fa3826139f9565b91508190509392505050565b6000613fbb82846137bd565b915081905092915050565b6000613fd282856137bd565b9150613fde82846137bd565b91508190509392505050565b6000613ff6828461386e565b915081905092915050565b600060208201905061401660008301846136c4565b92915050565b600060808201905061403160008301876136c4565b61403e60208301866136c4565b61404b6040830185613ef5565b818103606083015261405d81846136f9565b905095945050505050565b600060208201905061407d60008301846136ea565b92915050565b6000602082019050818103600083015261409e818486613732565b90509392505050565b600060208201905081810360008301526140c18184613784565b905092915050565b600060408201905081810360008301526140e381856137ee565b90506140f260208301846136c4565b9392505050565b60006020820190508181036000830152614112816138ed565b9050919050565b6000602082019050818103600083015261413281613953565b9050919050565b60006020820190508181036000830152614152816139b9565b9050919050565b6000602082019050818103600083015261417281613a39565b9050919050565b6000602082019050818103600083015261419281613a9f565b9050919050565b600060208201905081810360008301526141b281613adf565b9050919050565b600060208201905081810360008301526141d281613b45565b9050919050565b600060208201905081810360008301526141f281613bab565b9050919050565b6000602082019050818103600083015261421281613c11565b9050919050565b6000602082019050818103600083015261423281613c77565b9050919050565b6000602082019050818103600083015261425281613cb7565b9050919050565b6000602082019050818103600083015261427281613d1d565b9050919050565b6000602082019050818103600083015261429281613d5d565b9050919050565b600060208201905081810360008301526142b281613dc3565b9050919050565b600060208201905081810360008301526142d281613e29565b9050919050565b600060208201905081810360008301526142f281613e8f565b9050919050565b600060208201905061430e6000830184613ef5565b92915050565b6000604051905081810181811067ffffffffffffffff8211171561433b5761433a6146a5565b5b8060405250919050565b600067ffffffffffffffff8211156143605761435f6146a5565b5b601f19601f8301169050602081019050919050565b60008190508160005260206000209050919050565b600081519050919050565b600081519050919050565b600082825260208201905092915050565b600082825260208201905092915050565b600081905092915050565b60006143d8826144f2565b91506143e3836144f2565b9250827fffffffffffffffffffffffffffffffffffffffffffffffffffffffffffffffff0382111561441857614417614618565b5b828201905092915050565b600061442e826144f2565b9150614439836144f2565b92508261444957614448614647565b5b828204905092915050565b600061445f826144f2565b915061446a836144f2565b92508282101561447d5761447c614618565b5b828203905092915050565b6000614493826144d2565b9050919050565b60008115159050919050565b60007fffffffff0000000000000000000000000000000000000000000000000000000082169050919050565b600073ffffffffffffffffffffffffffffffffffffffff82169050919050565b6000819050919050565b82818337600083830152505050565b60005b8381101561452957808201518184015260208101905061450e565b83811115614538576000848401525b50505050565b6000600282049050600182168061455657607f821691505b6020821081141561456a57614569614676565b5b50919050565b600061457b826144f2565b91507fffffffffffffffffffffffffffffffffffffffffffffffffffffffffffffffff8214156145ae576145ad614618565b5b600182019050919050565b60006145c4826145cb565b9050919050565b60006145d6826146e5565b9050919050565b6000819050919050565b60006145f2826144f2565b91506145fd836144f2565b92508261460d5761460c614647565b5b828206905092915050565b7f4e487b7100000000000000000000000000000000000000000000000000000000600052601160045260246000fd5b7f4e487b7100000000000000000000000000000000000000000000000000000000600052601260045260246000fd5b7f4e487b7100000000000000000000000000000000000000000000000000000000600052602260045260246000fd5b7f4e487b7100000000000000000000000000000000000000000000000000000000600052604160045260246000fd5b6000601f19601f8301169050919050565b60008160601b9050919050565b6146fb81614488565b811461470657600080fd5b50565b6147128161449a565b811461471d57600080fd5b50565b614729816144a6565b811461473457600080fd5b50565b614740816144f2565b811461474b57600080fd5b5056fea264697066735822122023a64d12817d154b801a005de4f3412da0ed037c163da2816ca7b6a9f567489d64736f6c63430008000033",
  "immutableReferences": {},
  "source": "// SPDX-License-Identifier: MIT\npragma solidity 0.8.0;\n\nimport \"../node_modules/@openzeppelin/contracts/token/ERC721/ERC721.sol\";\nimport \"../node_modules/@openzeppelin/contracts/access/Ownable.sol\";\n\n/// @title A Frankenstein Texts writing game\n/// @author Mario Mazzaferro\ncontract FrankieTexts is ERC721, Ownable {\n\n    /// @dev Keeps track of the number of requestText() calls.\n    uint256 private requestCounter;\n\n    /// @dev Keeps track of the number of CIDs fed in the deck mapping.\n    uint256 public feedCounter;\n\n    /// @dev Keeps track of the number of valid submitText() calls.\n    uint256 public submitCounter;\n\n    /// @dev Keeps track of the number of plots seeded in the deck.\n    uint256 public deckCounter;\n\n    /// @dev Maximum size of the deck mapping.\n    uint256 public deckSize;\n\n    /// @dev Keeps track of the number of minted NFTs.\n    uint256 public frankieId;\n\n    /// @dev Fired upon requestText() call.\n    event RequestedText(string chosenCid, address requester);\n\n    /// @dev Fired upon mintFrankie() call.\n    event MintedFrankie(uint indexed nftId, string nftCid, string indexed fifthCid);\n\n    /// @dev Stores data of a Frankenstein Text.\n    struct Frankie {\n      string[] cids;\n      address[] writers;\n      uint256 endedSince;\n    }\n\n    /// @dev Stores temporary data of a Frankenstein Text being edited.\n    struct MiniFrankie {\n      string cid;\n      uint256 editSince;\n      uint256 deckNumber;\n    }\n\n    /// @dev Relates IPFS CIDs with Frankenstein Texts.\n    mapping(string => Frankie) private frankies;\n\n    /// @dev Cue order of IPFS CIDs from incomplete Frankenstein Texts.\n    mapping(uint256 => string) private cidOrder;\n\n    /// @dev Relates writer address and current editing Frankenstein Text.\n    mapping(address => MiniFrankie) private editing;\n\n    /// @dev Ordered IPFS CIDs that will be pseudo-randomly returned by requestText().\n    mapping(uint256 => string) private deck;\n\n    /// @dev Relates writer address with its list of finished untitled Frankenstein Text's CIDs.\n    mapping(address => string[]) private untitledTexts;\n\n    /// @dev Relates frankieId with its respective IPFS CID.\n    mapping(uint256 => string) private mintedCids;\n\n    /// @dev Keeps track of plots that have had at least one ramification finished.\n    mapping(string => bool) private plotEnded;\n\n    /// @dev Sets initial values.\n    constructor(uint _deckSize) ERC721(\"Frankies\", \"FKE\") {\n        requestCounter = 0;\n        feedCounter = 0;\n        submitCounter = 0;\n        deckCounter = 0;\n        frankieId = 0;\n        deckSize = _deckSize;\n    }\n\n    /// @dev Updates Frankenstein Text data stored in Frankie struct.\n    function _updateFrankie(string calldata newCid, string calldata oldCid) private {\n        frankies[newCid] = frankies[oldCid];\n        frankies[newCid].cids.push(newCid);\n        frankies[newCid].writers.push(msg.sender);\n    }\n\n    /// @dev Feeds finished Frankenstein Text into each writer's untitled list.\n    /// @dev Feeds a new CID into the deck to replace the finished Frankenstein Text's CID.\n    /// @dev If it's the first ramification of that plot to finish: feeds a blank plot CID.\n    /// @dev Else: feeds the next CID in the cidOrder cue.\n    function _endFrankie(string calldata newCid) private {\n      frankies[newCid].endedSince = block.timestamp;\n      for (uint256 i = 0; i < 3; i++) {\n        untitledTexts[frankies[newCid].writers[i]].push(newCid);\n      }\n      if(!plotEnded[frankies[newCid].cids[0]]) {\n        string memory startCid = string(abi.encodePacked(newCid, '000'));\n        string[] memory cids;\n        address[] memory writers;\n        frankies[startCid] = Frankie(cids, writers, 0);\n        deck[editing[msg.sender].deckNumber] = startCid;\n        plotEnded[frankies[newCid].cids[0]] = true;\n      } else {\n        deck[editing[msg.sender].deckNumber] = cidOrder[feedCounter];\n        unchecked { feedCounter++; } \n        }\n    }\n\n    /// @dev Draws a pseudo-random CID from deck mapping.\n    /// @dev Sets pseudo-random CID to msg.sender in editing mapping.\n    function requestText() external {\n      uint256 random = uint256(keccak256(abi.encodePacked(msg.sender, block.difficulty, cidOrder[feedCounter], cidOrder[submitCounter], requestCounter))) % deckSize;\n      unchecked { requestCounter++; }\n      editing[msg.sender] = MiniFrankie(deck[random], block.timestamp, random);\n      emit RequestedText(deck[random], msg.sender);\n    }\n\n    /// @dev Updates Frankenstein Text data through _updateFrankie().\n    /// @dev If the Frankie has 5 contributions: finalizes Frankenstein Text.\n    /// @dev Else: sets newCid in the end of cidOrder cue and if it's the first submited\n    /// @dev ramification of oldCid: substitutes it (in the deck) with the first CID of cidOrder cue.\n    function submitText(string calldata oldCid, string calldata newCid) external {\n      require(editing[msg.sender].editSince + 2 hours > block.timestamp);\n      require(keccak256(abi.encodePacked(editing[msg.sender].cid)) == keccak256(abi.encodePacked(oldCid)));\n      _updateFrankie(newCid, oldCid);\n      if (frankies[newCid].writers.length == 3) {\n        _endFrankie(newCid);\n      } else {\n        cidOrder[submitCounter] = newCid;\n        unchecked { submitCounter++; }\n        if(keccak256(abi.encodePacked(deck[editing[msg.sender].deckNumber])) == keccak256(abi.encodePacked(oldCid))) {\n          deck[editing[msg.sender].deckNumber] = cidOrder[feedCounter];\n          unchecked { feedCounter++; }\n        }\n      }\n    }\n\n    /// @dev Checks if the untitled Frankenstein Text is still valid and is owned by the caller.\n    /// @dev Updates Frankenstein Text data through _updateFrankie().\n    /// @dev Mints Frankenstein Text NFT and delete respective untitled from untitledTexts.\n    function mintFrankie(string calldata oldCid, string calldata newCid, uint untitledId) external {\n        require(frankies[oldCid].endedSince + 7 days > block.timestamp);\n        require(keccak256(abi.encodePacked(oldCid)) == keccak256(abi.encodePacked(untitledTexts[msg.sender][untitledId])));\n        _updateFrankie(newCid, oldCid);\n        _safeMint(msg.sender, frankieId);\n        delete untitledTexts[msg.sender][untitledId];\n        mintedCids[frankieId] = newCid;\n        emit MintedFrankie(frankieId, newCid, oldCid);\n        frankieId++;\n    }\n\n    /// @dev Returns NFT CID corresponding to the id parameter.\n    function mintedCidById(uint id) external view returns(string memory) {\n      require(id < frankieId);\n      return mintedCids[id];\n    }\n\n    /// @dev Returns newest untitled text id for the caller.\n    function requestNewestUntitledId() external view returns(uint) {\n        require(untitledTexts[msg.sender].length > 0);\n        return untitledTexts[msg.sender].length - 1;\n    }\n\n    /// @dev Returns caller's untitled CID with the id of the untitledId parameter.\n    function requestUntitledText(uint untitledId) external view returns(string memory) {\n        return untitledTexts[msg.sender][untitledId];\n    }\n\n    /// @dev Returns seconds passed since 5th contribution of the \n    /// @dev untitledTexts[msg.sender][untitledId].\n    function requestUntitledEndedSince(uint untitledId) external view returns(uint) {\n        return (block.timestamp - frankies[untitledTexts[msg.sender][untitledId]].endedSince);\n    }\n\n    /// @dev Checks if the caller is victor.\n    /// @dev Creates an new Frankie with the cid parameter.\n    /// @dev If the deck is incomplete: feeds cid into deck.\n    /// @dev Feeds cid in the cidOrder cue.\n    function seedPlot(string calldata cid) external onlyOwner() {\n        string[] memory cids;\n        address[] memory writers;\n        frankies[cid] = Frankie(cids, writers, 0);\n        frankies[cid].cids.push(cid);\n        frankies[cid].writers.push(msg.sender);\n        if(deckCounter < deckSize) {\n          deck[deckCounter] = cid;\n          unchecked { feedCounter++; }\n          deckCounter++;\n        }\n        cidOrder[submitCounter] = cid;\n        unchecked { submitCounter++; }\n    }\n}",
  "sourcePath": "/home/mariomazzaferro/blockchain-developer-bootcamp-final-project/contracts/FrankieTexts.sol",
  "compiler": {
    "name": "solc",
    "version": "0.8.0+commit.c7dfd78e.Emscripten.clang"
  },
  "schemaVersion": "3.4.3",
  "updatedAt": "2021-11-11T17:43:27.890Z",
  "networkType": "ethereum",
  "devdoc": {
    "author": "Mario Mazzaferro",
    "events": {
      "MintedFrankie(uint256,string,string)": {
        "details": "Fired upon mintFrankie() call."
      },
      "RequestedText(string,address)": {
        "details": "Fired upon requestText() call."
      }
    },
    "kind": "dev",
    "methods": {
      "approve(address,uint256)": {
        "details": "See {IERC721-approve}."
      },
      "balanceOf(address)": {
        "details": "See {IERC721-balanceOf}."
      },
      "constructor": {
        "details": "Sets initial values."
      },
      "getApproved(uint256)": {
        "details": "See {IERC721-getApproved}."
      },
      "isApprovedForAll(address,address)": {
        "details": "See {IERC721-isApprovedForAll}."
      },
      "mintFrankie(string,string,uint256)": {
        "details": "Checks if the untitled Frankenstein Text is still valid and is owned by the caller.Updates Frankenstein Text data through _updateFrankie().Mints Frankenstein Text NFT and delete respective untitled from untitledTexts."
      },
      "mintedCidById(uint256)": {
        "details": "Returns NFT CID corresponding to the id parameter."
      },
      "name()": {
        "details": "See {IERC721Metadata-name}."
      },
      "owner()": {
        "details": "Returns the address of the current owner."
      },
      "ownerOf(uint256)": {
        "details": "See {IERC721-ownerOf}."
      },
      "renounceOwnership()": {
        "details": "Leaves the contract without owner. It will not be possible to call `onlyOwner` functions anymore. Can only be called by the current owner. NOTE: Renouncing ownership will leave the contract without an owner, thereby removing any functionality that is only available to the owner."
      },
      "requestNewestUntitledId()": {
        "details": "Returns newest untitled text id for the caller."
      },
      "requestText()": {
        "details": "Draws a pseudo-random CID from deck mapping.Sets pseudo-random CID to msg.sender in editing mapping."
      },
      "requestUntitledEndedSince(uint256)": {
        "details": "Returns seconds passed since 5th contribution of the untitledTexts[msg.sender][untitledId]."
      },
      "requestUntitledText(uint256)": {
        "details": "Returns caller's untitled CID with the id of the untitledId parameter."
      },
      "safeTransferFrom(address,address,uint256)": {
        "details": "See {IERC721-safeTransferFrom}."
      },
      "safeTransferFrom(address,address,uint256,bytes)": {
        "details": "See {IERC721-safeTransferFrom}."
      },
      "seedPlot(string)": {
        "details": "Checks if the caller is victor.Creates an new Frankie with the cid parameter.If the deck is incomplete: feeds cid into deck.Feeds cid in the cidOrder cue."
      },
      "setApprovalForAll(address,bool)": {
        "details": "See {IERC721-setApprovalForAll}."
      },
      "submitText(string,string)": {
        "details": "Updates Frankenstein Text data through _updateFrankie().If the Frankie has 5 contributions: finalizes Frankenstein Text.Else: sets newCid in the end of cidOrder cue and if it's the first submitedramification of oldCid: substitutes it (in the deck) with the first CID of cidOrder cue."
      },
      "supportsInterface(bytes4)": {
        "details": "See {IERC165-supportsInterface}."
      },
      "symbol()": {
        "details": "See {IERC721Metadata-symbol}."
      },
      "tokenURI(uint256)": {
        "details": "See {IERC721Metadata-tokenURI}."
      },
      "transferFrom(address,address,uint256)": {
        "details": "See {IERC721-transferFrom}."
      },
      "transferOwnership(address)": {
        "details": "Transfers ownership of the contract to a new account (`newOwner`). Can only be called by the current owner."
      }
    },
    "stateVariables": {
      "cidOrder": {
        "details": "Cue order of IPFS CIDs from incomplete Frankenstein Texts."
      },
      "deck": {
        "details": "Ordered IPFS CIDs that will be pseudo-randomly returned by requestText()."
      },
      "deckCounter": {
        "details": "Keeps track of the number of plots seeded in the deck."
      },
      "deckSize": {
        "details": "Maximum size of the deck mapping."
      },
      "editing": {
        "details": "Relates writer address and current editing Frankenstein Text."
      },
      "feedCounter": {
        "details": "Keeps track of the number of CIDs fed in the deck mapping."
      },
      "frankieId": {
        "details": "Keeps track of the number of minted NFTs."
      },
      "frankies": {
        "details": "Relates IPFS CIDs with Frankenstein Texts."
      },
      "mintedCids": {
        "details": "Relates frankieId with its respective IPFS CID."
      },
      "plotEnded": {
        "details": "Keeps track of plots that have had at least one ramification finished."
      },
      "requestCounter": {
        "details": "Keeps track of the number of requestText() calls."
      },
      "submitCounter": {
        "details": "Keeps track of the number of valid submitText() calls."
      },
      "untitledTexts": {
        "details": "Relates writer address with its list of finished untitled Frankenstein Text's CIDs."
      }
    },
    "title": "A Frankenstein Texts writing game",
    "version": 1
  },
  "userdoc": {
    "kind": "user",
    "methods": {},
    "version": 1
  }
}