{
  "contractName": "FrankieTexts",
  "abi": [
    {
      "inputs": [
        {
          "internalType": "uint256",
          "name": "_deckSize",
          "type": "uint256"
        }
      ],
      "stateMutability": "nonpayable",
      "type": "constructor"
    },
    {
      "anonymous": false,
      "inputs": [
        {
          "indexed": true,
          "internalType": "address",
          "name": "owner",
          "type": "address"
        },
        {
          "indexed": true,
          "internalType": "address",
          "name": "approved",
          "type": "address"
        },
        {
          "indexed": true,
          "internalType": "uint256",
          "name": "tokenId",
          "type": "uint256"
        }
      ],
      "name": "Approval",
      "type": "event"
    },
    {
      "anonymous": false,
      "inputs": [
        {
          "indexed": true,
          "internalType": "address",
          "name": "owner",
          "type": "address"
        },
        {
          "indexed": true,
          "internalType": "address",
          "name": "operator",
          "type": "address"
        },
        {
          "indexed": false,
          "internalType": "bool",
          "name": "approved",
          "type": "bool"
        }
      ],
      "name": "ApprovalForAll",
      "type": "event"
    },
    {
      "anonymous": false,
      "inputs": [
        {
          "indexed": false,
          "internalType": "uint256",
          "name": "nftId",
          "type": "uint256"
        },
        {
          "indexed": false,
          "internalType": "string",
          "name": "nftCid",
          "type": "string"
        }
      ],
      "name": "MintedFrankie",
      "type": "event"
    },
    {
      "anonymous": false,
      "inputs": [
        {
          "indexed": true,
          "internalType": "address",
          "name": "previousOwner",
          "type": "address"
        },
        {
          "indexed": true,
          "internalType": "address",
          "name": "newOwner",
          "type": "address"
        }
      ],
      "name": "OwnershipTransferred",
      "type": "event"
    },
    {
      "anonymous": false,
      "inputs": [
        {
          "indexed": false,
          "internalType": "string",
          "name": "chosenCid",
          "type": "string"
        },
        {
          "indexed": false,
          "internalType": "uint256",
          "name": "writerNumber",
          "type": "uint256"
        },
        {
          "indexed": false,
          "internalType": "address",
          "name": "requester",
          "type": "address"
        }
      ],
      "name": "RequestedCid",
      "type": "event"
    },
    {
      "anonymous": false,
      "inputs": [
        {
          "indexed": true,
          "internalType": "address",
          "name": "from",
          "type": "address"
        },
        {
          "indexed": true,
          "internalType": "address",
          "name": "to",
          "type": "address"
        },
        {
          "indexed": true,
          "internalType": "uint256",
          "name": "tokenId",
          "type": "uint256"
        }
      ],
      "name": "Transfer",
      "type": "event"
    },
    {
      "inputs": [
        {
          "internalType": "address",
          "name": "to",
          "type": "address"
        },
        {
          "internalType": "uint256",
          "name": "tokenId",
          "type": "uint256"
        }
      ],
      "name": "approve",
      "outputs": [],
      "stateMutability": "nonpayable",
      "type": "function"
    },
    {
      "inputs": [
        {
          "internalType": "address",
          "name": "owner",
          "type": "address"
        }
      ],
      "name": "balanceOf",
      "outputs": [
        {
          "internalType": "uint256",
          "name": "",
          "type": "uint256"
        }
      ],
      "stateMutability": "view",
      "type": "function",
      "constant": true
    },
    {
      "inputs": [],
      "name": "deckCounter",
      "outputs": [
        {
          "internalType": "uint256",
          "name": "",
          "type": "uint256"
        }
      ],
      "stateMutability": "view",
      "type": "function",
      "constant": true
    },
    {
      "inputs": [],
      "name": "deckSize",
      "outputs": [
        {
          "internalType": "uint256",
          "name": "",
          "type": "uint256"
        }
      ],
      "stateMutability": "view",
      "type": "function",
      "constant": true
    },
    {
      "inputs": [],
      "name": "feedCounter",
      "outputs": [
        {
          "internalType": "uint256",
          "name": "",
          "type": "uint256"
        }
      ],
      "stateMutability": "view",
      "type": "function",
      "constant": true
    },
    {
      "inputs": [],
      "name": "frankieId",
      "outputs": [
        {
          "internalType": "uint256",
          "name": "",
          "type": "uint256"
        }
      ],
      "stateMutability": "view",
      "type": "function",
      "constant": true
    },
    {
      "inputs": [
        {
          "internalType": "uint256",
          "name": "tokenId",
          "type": "uint256"
        }
      ],
      "name": "getApproved",
      "outputs": [
        {
          "internalType": "address",
          "name": "",
          "type": "address"
        }
      ],
      "stateMutability": "view",
      "type": "function",
      "constant": true
    },
    {
      "inputs": [
        {
          "internalType": "address",
          "name": "owner",
          "type": "address"
        },
        {
          "internalType": "address",
          "name": "operator",
          "type": "address"
        }
      ],
      "name": "isApprovedForAll",
      "outputs": [
        {
          "internalType": "bool",
          "name": "",
          "type": "bool"
        }
      ],
      "stateMutability": "view",
      "type": "function",
      "constant": true
    },
    {
      "inputs": [],
      "name": "name",
      "outputs": [
        {
          "internalType": "string",
          "name": "",
          "type": "string"
        }
      ],
      "stateMutability": "view",
      "type": "function",
      "constant": true
    },
    {
      "inputs": [],
      "name": "owner",
      "outputs": [
        {
          "internalType": "address",
          "name": "",
          "type": "address"
        }
      ],
      "stateMutability": "view",
      "type": "function",
      "constant": true
    },
    {
      "inputs": [
        {
          "internalType": "uint256",
          "name": "tokenId",
          "type": "uint256"
        }
      ],
      "name": "ownerOf",
      "outputs": [
        {
          "internalType": "address",
          "name": "",
          "type": "address"
        }
      ],
      "stateMutability": "view",
      "type": "function",
      "constant": true
    },
    {
      "inputs": [],
      "name": "renounceOwnership",
      "outputs": [],
      "stateMutability": "nonpayable",
      "type": "function"
    },
    {
      "inputs": [
        {
          "internalType": "address",
          "name": "from",
          "type": "address"
        },
        {
          "internalType": "address",
          "name": "to",
          "type": "address"
        },
        {
          "internalType": "uint256",
          "name": "tokenId",
          "type": "uint256"
        }
      ],
      "name": "safeTransferFrom",
      "outputs": [],
      "stateMutability": "nonpayable",
      "type": "function"
    },
    {
      "inputs": [
        {
          "internalType": "address",
          "name": "from",
          "type": "address"
        },
        {
          "internalType": "address",
          "name": "to",
          "type": "address"
        },
        {
          "internalType": "uint256",
          "name": "tokenId",
          "type": "uint256"
        },
        {
          "internalType": "bytes",
          "name": "_data",
          "type": "bytes"
        }
      ],
      "name": "safeTransferFrom",
      "outputs": [],
      "stateMutability": "nonpayable",
      "type": "function"
    },
    {
      "inputs": [
        {
          "internalType": "address",
          "name": "operator",
          "type": "address"
        },
        {
          "internalType": "bool",
          "name": "approved",
          "type": "bool"
        }
      ],
      "name": "setApprovalForAll",
      "outputs": [],
      "stateMutability": "nonpayable",
      "type": "function"
    },
    {
      "inputs": [],
      "name": "submitCounter",
      "outputs": [
        {
          "internalType": "uint256",
          "name": "",
          "type": "uint256"
        }
      ],
      "stateMutability": "view",
      "type": "function",
      "constant": true
    },
    {
      "inputs": [
        {
          "internalType": "bytes4",
          "name": "interfaceId",
          "type": "bytes4"
        }
      ],
      "name": "supportsInterface",
      "outputs": [
        {
          "internalType": "bool",
          "name": "",
          "type": "bool"
        }
      ],
      "stateMutability": "view",
      "type": "function",
      "constant": true
    },
    {
      "inputs": [],
      "name": "symbol",
      "outputs": [
        {
          "internalType": "string",
          "name": "",
          "type": "string"
        }
      ],
      "stateMutability": "view",
      "type": "function",
      "constant": true
    },
    {
      "inputs": [
        {
          "internalType": "uint256",
          "name": "tokenId",
          "type": "uint256"
        }
      ],
      "name": "tokenURI",
      "outputs": [
        {
          "internalType": "string",
          "name": "",
          "type": "string"
        }
      ],
      "stateMutability": "view",
      "type": "function",
      "constant": true
    },
    {
      "inputs": [
        {
          "internalType": "address",
          "name": "from",
          "type": "address"
        },
        {
          "internalType": "address",
          "name": "to",
          "type": "address"
        },
        {
          "internalType": "uint256",
          "name": "tokenId",
          "type": "uint256"
        }
      ],
      "name": "transferFrom",
      "outputs": [],
      "stateMutability": "nonpayable",
      "type": "function"
    },
    {
      "inputs": [
        {
          "internalType": "address",
          "name": "newOwner",
          "type": "address"
        }
      ],
      "name": "transferOwnership",
      "outputs": [],
      "stateMutability": "nonpayable",
      "type": "function"
    },
    {
      "inputs": [],
      "name": "requestCid",
      "outputs": [],
      "stateMutability": "nonpayable",
      "type": "function"
    },
    {
      "inputs": [
        {
          "internalType": "string",
          "name": "oldCid",
          "type": "string"
        },
        {
          "internalType": "string",
          "name": "newCid",
          "type": "string"
        }
      ],
      "name": "submitCid",
      "outputs": [],
      "stateMutability": "nonpayable",
      "type": "function"
    },
    {
      "inputs": [
        {
          "internalType": "string",
          "name": "oldCid",
          "type": "string"
        },
        {
          "internalType": "string",
          "name": "newCid",
          "type": "string"
        },
        {
          "internalType": "uint256",
          "name": "untitledId",
          "type": "uint256"
        }
      ],
      "name": "mintFrankie",
      "outputs": [],
      "stateMutability": "nonpayable",
      "type": "function"
    },
    {
      "inputs": [
        {
          "internalType": "uint256",
          "name": "nftId",
          "type": "uint256"
        }
      ],
      "name": "mintedCidById",
      "outputs": [
        {
          "internalType": "string",
          "name": "",
          "type": "string"
        }
      ],
      "stateMutability": "view",
      "type": "function",
      "constant": true
    },
    {
      "inputs": [
        {
          "internalType": "uint256",
          "name": "nftId",
          "type": "uint256"
        }
      ],
      "name": "starsById",
      "outputs": [
        {
          "internalType": "uint256",
          "name": "",
          "type": "uint256"
        }
      ],
      "stateMutability": "view",
      "type": "function",
      "constant": true
    },
    {
      "inputs": [],
      "name": "requestNewestUntitledId",
      "outputs": [
        {
          "internalType": "uint256",
          "name": "",
          "type": "uint256"
        }
      ],
      "stateMutability": "view",
      "type": "function",
      "constant": true
    },
    {
      "inputs": [
        {
          "internalType": "uint256",
          "name": "untitledId",
          "type": "uint256"
        }
      ],
      "name": "requestUntitledCid",
      "outputs": [
        {
          "internalType": "string",
          "name": "",
          "type": "string"
        }
      ],
      "stateMutability": "view",
      "type": "function",
      "constant": true
    },
    {
      "inputs": [
        {
          "internalType": "uint256",
          "name": "untitledId",
          "type": "uint256"
        }
      ],
      "name": "requestUntitledStars",
      "outputs": [
        {
          "internalType": "uint256",
          "name": "",
          "type": "uint256"
        }
      ],
      "stateMutability": "view",
      "type": "function",
      "constant": true
    },
    {
      "inputs": [
        {
          "internalType": "string",
          "name": "cid",
          "type": "string"
        }
      ],
      "name": "seedPlot",
      "outputs": [],
      "stateMutability": "nonpayable",
      "type": "function"
    },
    {
      "inputs": [],
      "name": "seedBlankPlot",
      "outputs": [],
      "stateMutability": "nonpayable",
      "type": "function"
    }
  ],
  "bytecode": "0x60806040523480156200001157600080fd5b5060405162004db738038062004db78339818101604052810190620000379190620002c2565b6040518060400160405280600881526020017f4672616e6b6965730000000000000000000000000000000000000000000000008152506040518060400160405280600381526020017f464b4500000000000000000000000000000000000000000000000000000000008152508160009080519060200190620000bb929190620001fb565b508060019080519060200190620000d4929190620001fb565b505050620000f7620000eb6200012d60201b60201c565b6200013560201b60201c565b6000600781905550600060088190555060006009819055506000600a819055506000600c8190555080600b819055505062000377565b600033905090565b6000600660009054906101000a900473ffffffffffffffffffffffffffffffffffffffff16905081600660006101000a81548173ffffffffffffffffffffffffffffffffffffffff021916908373ffffffffffffffffffffffffffffffffffffffff1602179055508173ffffffffffffffffffffffffffffffffffffffff168173ffffffffffffffffffffffffffffffffffffffff167f8be0079c531659141344cd1fd0a4f28419497f9722a3daafe3b4186f6b6457e060405160405180910390a35050565b8280546200020990620002f8565b90600052602060002090601f0160209004810192826200022d576000855562000279565b82601f106200024857805160ff191683800117855562000279565b8280016001018555821562000279579182015b82811115620002785782518255916020019190600101906200025b565b5b5090506200028891906200028c565b5090565b5b80821115620002a75760008160009055506001016200028d565b5090565b600081519050620002bc816200035d565b92915050565b600060208284031215620002d557600080fd5b6000620002e584828501620002ab565b91505092915050565b6000819050919050565b600060028204905060018216806200031157607f821691505b602082108114156200032857620003276200032e565b5b50919050565b7f4e487b7100000000000000000000000000000000000000000000000000000000600052602260045260246000fd5b6200036881620002ee565b81146200037457600080fd5b50565b614a3080620003876000396000f3fe608060405234801561001057600080fd5b50600436106101e55760003560e01c8063781760641161010f578063d40cf78a116100a2578063e985e9c511610071578063e985e9c51461055a578063f2fde38b1461058a578063f86fa77b146105a6578063fe6d405a146105c2576101e5565b8063d40cf78a146104d0578063d4fb9457146104ee578063d812da271461051e578063dde2ae481461053c576101e5565b8063b17de4af116100de578063b17de4af14610438578063b853bca414610454578063b88d4fde14610484578063c87b56dd146104a0576101e5565b806378176064146103c45780638da5cb5b146103e057806395d89b41146103fe578063a22cb4651461041c576101e5565b80631dfac1ff1161018757806370a082311161015657806370a082311461033c578063715018a61461036c57806372cd640b146103765780637403a42a146103a6576101e5565b80631dfac1ff146102ca57806323b872dd146102d457806342842e0e146102f05780636352211e1461030c576101e5565b8063081812fc116101c3578063081812fc14610256578063095ea7b31461028657806309b55be1146102a25780631243e795146102ac576101e5565b80630148c3eb146101ea57806301ffc9a71461020857806306fdde0314610238575b600080fd5b6101f26105f2565b6040516101ff9190614573565b60405180910390f35b610222600480360381019061021d9190613770565b6105f8565b60405161022f91906142f8565b60405180910390f35b6102406106da565b60405161024d9190614313565b60405180910390f35b610270600480360381019061026b9190613905565b61076c565b60405161027d9190614291565b60405180910390f35b6102a0600480360381019061029b9190613734565b6107f1565b005b6102aa610909565b005b6102b4610b37565b6040516102c19190614573565b60405180910390f35b6102d2610bdb565b005b6102ee60048036038101906102e9919061362e565b610d92565b005b61030a6004803603810190610305919061362e565b610df2565b005b61032660048036038101906103219190613905565b610e12565b6040516103339190614291565b60405180910390f35b610356600480360381019061035191906135c9565b610ec4565b6040516103639190614573565b60405180910390f35b610374610f7c565b005b610390600480360381019061038b9190613905565b611004565b60405161039d9190614573565b60405180910390f35b6103ae6110ac565b6040516103bb9190614573565b60405180910390f35b6103de60048036038101906103d99190613807565b6110b2565b005b6103e861136f565b6040516103f59190614291565b60405180910390f35b610406611399565b6040516104139190614313565b60405180910390f35b610436600480360381019061043191906136f8565b61142b565b005b610452600480360381019061044d91906137c2565b6115ac565b005b61046e60048036038101906104699190613905565b611819565b60405161047b9190614313565b60405180910390f35b61049e6004803603810190610499919061367d565b61192c565b005b6104ba60048036038101906104b59190613905565b61198e565b6040516104c79190614313565b60405180910390f35b6104d8611a35565b6040516104e59190614573565b60405180910390f35b61050860048036038101906105039190613905565b611a3b565b6040516105159190614313565b60405180910390f35b610526611aee565b6040516105339190614573565b60405180910390f35b610544611af4565b6040516105519190614573565b60405180910390f35b610574600480360381019061056f91906135f2565b611afa565b60405161058191906142f8565b60405180910390f35b6105a4600480360381019061059f91906135c9565b611b8e565b005b6105c060048036038101906105bb919061387c565b611c86565b005b6105dc60048036038101906105d79190613905565b611ebc565b6040516105e99190614573565b60405180910390f35b60085481565b60007f80ac58cd000000000000000000000000000000000000000000000000000000007bffffffffffffffffffffffffffffffffffffffffffffffffffffffff1916827bffffffffffffffffffffffffffffffffffffffffffffffffffffffff191614806106c357507f5b5e139f000000000000000000000000000000000000000000000000000000007bffffffffffffffffffffffffffffffffffffffffffffffffffffffff1916827bffffffffffffffffffffffffffffffffffffffffffffffffffffffff1916145b806106d357506106d282611f67565b5b9050919050565b6060600080546106e9906147ea565b80601f0160208091040260200160405190810160405280929190818152602001828054610715906147ea565b80156107625780601f1061073757610100808354040283529160200191610762565b820191906000526020600020905b81548152906001019060200180831161074557829003601f168201915b5050505050905090565b600061077782611fd1565b6107b6576040517f08c379a00000000000000000000000000000000000000000000000000000000081526004016107ad906144b3565b60405180910390fd5b6004600083815260200190815260200160002060009054906101000a900473ffffffffffffffffffffffffffffffffffffffff169050919050565b60006107fc82610e12565b90508073ffffffffffffffffffffffffffffffffffffffff168373ffffffffffffffffffffffffffffffffffffffff16141561086d576040517f08c379a000000000000000000000000000000000000000000000000000000000815260040161086490614533565b60405180910390fd5b8073ffffffffffffffffffffffffffffffffffffffff1661088c61203d565b73ffffffffffffffffffffffffffffffffffffffff1614806108bb57506108ba816108b561203d565b611afa565b5b6108fa576040517f08c379a00000000000000000000000000000000000000000000000000000000081526004016108f190614433565b60405180910390fd5b6109048383612045565b505050565b6000600b543344600e60006008548152602001908152602001600020600e60006009548152602001908152602001600020600754604051602001610951959493929190614185565b6040516020818303038152906040528051906020012060001c6109749190614893565b905060076000815480929190600101919050555060405180606001604052806010600084815260200190815260200160002080546109b1906147ea565b80601f01602080910402602001604051908101604052809291908181526020018280546109dd906147ea565b8015610a2a5780601f106109ff57610100808354040283529160200191610a2a565b820191906000526020600020905b815481529060010190602001808311610a0d57829003601f168201915b5050505050815260200142815260200182815250600f60003373ffffffffffffffffffffffffffffffffffffffff1673ffffffffffffffffffffffffffffffffffffffff1681526020019081526020016000206000820151816000019080519060200190610a99929190613063565b5060208201518160010155604082015181600201559050507f327d6a374f8090b23091020c38b12cfaaa21db5794125eb27cd26e122926871960106000838152602001908152602001600020600d60106000858152602001908152602001600020604051610b079190614254565b90815260200160405180910390206001018054905033604051610b2c93929190614335565b60405180910390a150565b600080601160003373ffffffffffffffffffffffffffffffffffffffff1673ffffffffffffffffffffffffffffffffffffffff1681526020019081526020016000208054905011610b8757600080fd5b6001601160003373ffffffffffffffffffffffffffffffffffffffff1673ffffffffffffffffffffffffffffffffffffffff16815260200190815260200160002080549050610bd69190614700565b905090565b610be361203d565b73ffffffffffffffffffffffffffffffffffffffff16610c0161136f565b73ffffffffffffffffffffffffffffffffffffffff1614610c57576040517f08c379a0000000000000000000000000000000000000000000000000000000008152600401610c4e906144d3565b60405180910390fd5b6060806000600954604051602001610c6f919061426b565b6040516020818303038152906040529050604051806040016040528084815260200183815250600d82604051610ca59190614219565b90815260200160405180910390206000820151816000019080519060200190610ccf9291906130e9565b506020820151816001019080519060200190610cec929190613149565b50905050600b54600a541015610d51578060106000600a5481526020019081526020016000209080519060200190610d25929190613063565b50600860008154809291906001019190505550600a6000815480929190610d4b9061481c565b91905055505b80600e600060095481526020019081526020016000209080519060200190610d7a929190613063565b50600960008154809291906001019190505550505050565b610da3610d9d61203d565b826120fe565b610de2576040517f08c379a0000000000000000000000000000000000000000000000000000000008152600401610dd990614553565b60405180910390fd5b610ded8383836121dc565b505050565b610e0d8383836040518060200160405280600081525061192c565b505050565b6000806002600084815260200190815260200160002060009054906101000a900473ffffffffffffffffffffffffffffffffffffffff169050600073ffffffffffffffffffffffffffffffffffffffff168173ffffffffffffffffffffffffffffffffffffffff161415610ebb576040517f08c379a0000000000000000000000000000000000000000000000000000000008152600401610eb290614473565b60405180910390fd5b80915050919050565b60008073ffffffffffffffffffffffffffffffffffffffff168273ffffffffffffffffffffffffffffffffffffffff161415610f35576040517f08c379a0000000000000000000000000000000000000000000000000000000008152600401610f2c90614453565b60405180910390fd5b600360008373ffffffffffffffffffffffffffffffffffffffff1673ffffffffffffffffffffffffffffffffffffffff168152602001908152602001600020549050919050565b610f8461203d565b73ffffffffffffffffffffffffffffffffffffffff16610fa261136f565b73ffffffffffffffffffffffffffffffffffffffff1614610ff8576040517f08c379a0000000000000000000000000000000000000000000000000000000008152600401610fef906144d3565b60405180910390fd5b6110026000612438565b565b60006014601160003373ffffffffffffffffffffffffffffffffffffffff1673ffffffffffffffffffffffffffffffffffffffff168152602001908152602001600020838154811061107f577f4e487b7100000000000000000000000000000000000000000000000000000000600052603260045260246000fd5b906000526020600020016040516110969190614254565b9081526020016040518091039020549050919050565b600c5481565b42611c20600f60003373ffffffffffffffffffffffffffffffffffffffff1673ffffffffffffffffffffffffffffffffffffffff168152602001908152602001600020600101546111039190614679565b1161110d57600080fd5b83836040516020016111209291906141dc565b60405160208183030381529060405280519060200120600f60003373ffffffffffffffffffffffffffffffffffffffff1673ffffffffffffffffffffffffffffffffffffffff1681526020019081526020016000206000016040516020016111889190614254565b60405160208183030381529060405280519060200120146111a857600080fd5b6111b4828286866124fe565b6003600d83836040516111c89291906141dc565b90815260200160405180910390206001018054905014156111f2576111ed8282612658565b611369565b8181600e6000600954815260200190815260200160002091906112169291906131d3565b50600960008154809291906001019190505550838360405160200161123c9291906141dc565b6040516020818303038152906040528051906020012060106000600f60003373ffffffffffffffffffffffffffffffffffffffff1673ffffffffffffffffffffffffffffffffffffffff1681526020019081526020016000206002015481526020019081526020016000206040516020016112b79190614254565b60405160208183030381529060405280519060200120141561136857600e6000600854815260200190815260200160002060106000600f60003373ffffffffffffffffffffffffffffffffffffffff1673ffffffffffffffffffffffffffffffffffffffff168152602001908152602001600020600201548152602001908152602001600020908054611349906147ea565b611354929190613259565b506008600081548092919060010191905055505b5b50505050565b6000600660009054906101000a900473ffffffffffffffffffffffffffffffffffffffff16905090565b6060600180546113a8906147ea565b80601f01602080910402602001604051908101604052809291908181526020018280546113d4906147ea565b80156114215780601f106113f657610100808354040283529160200191611421565b820191906000526020600020905b81548152906001019060200180831161140457829003601f168201915b5050505050905090565b61143361203d565b73ffffffffffffffffffffffffffffffffffffffff168273ffffffffffffffffffffffffffffffffffffffff1614156114a1576040517f08c379a0000000000000000000000000000000000000000000000000000000008152600401611498906143f3565b60405180910390fd5b80600560006114ae61203d565b73ffffffffffffffffffffffffffffffffffffffff1673ffffffffffffffffffffffffffffffffffffffff16815260200190815260200160002060008473ffffffffffffffffffffffffffffffffffffffff1673ffffffffffffffffffffffffffffffffffffffff16815260200190815260200160002060006101000a81548160ff0219169083151502179055508173ffffffffffffffffffffffffffffffffffffffff1661155b61203d565b73ffffffffffffffffffffffffffffffffffffffff167f17307eab39ab6107e8899845ad3d59bd9653f200f220920489ca2b5937696c31836040516115a091906142f8565b60405180910390a35050565b6115b461203d565b73ffffffffffffffffffffffffffffffffffffffff166115d261136f565b73ffffffffffffffffffffffffffffffffffffffff1614611628576040517f08c379a000000000000000000000000000000000000000000000000000000000815260040161161f906144d3565b60405180910390fd5b606080604051806040016040528083815260200182815250600d85856040516116529291906141dc565b9081526020016040518091039020600082015181600001908051906020019061167c9291906130e9565b506020820151816001019080519060200190611699929190613149565b50905050600d84846040516116af9291906141dc565b90815260200160405180910390206000018484909180600181540180825580915050600190039060005260206000200160009091929091929091929091925091906116fb9291906131d3565b50600d848460405161170e9291906141dc565b9081526020016040518091039020600101339080600181540180825580915050600190039060005260206000200160009091909190916101000a81548173ffffffffffffffffffffffffffffffffffffffff021916908373ffffffffffffffffffffffffffffffffffffffff160217905550600b54600a5410156117dc57838360106000600a54815260200190815260200160002091906117b09291906131d3565b50600860008154809291906001019190505550600a60008154809291906117d69061481c565b91905055505b8383600e6000600954815260200190815260200160002091906118009291906131d3565b5060096000815480929190600101919050555050505050565b6060601160003373ffffffffffffffffffffffffffffffffffffffff1673ffffffffffffffffffffffffffffffffffffffff1681526020019081526020016000208281548110611892577f4e487b7100000000000000000000000000000000000000000000000000000000600052603260045260246000fd5b9060005260206000200180546118a7906147ea565b80601f01602080910402602001604051908101604052809291908181526020018280546118d3906147ea565b80156119205780601f106118f557610100808354040283529160200191611920565b820191906000526020600020905b81548152906001019060200180831161190357829003601f168201915b50505050509050919050565b61193d61193761203d565b836120fe565b61197c576040517f08c379a000000000000000000000000000000000000000000000000000000000815260040161197390614553565b60405180910390fd5b61198884848484612a4d565b50505050565b606061199982611fd1565b6119d8576040517f08c379a00000000000000000000000000000000000000000000000000000000081526004016119cf90614513565b60405180910390fd5b60006119e2612aa9565b90506000815111611a025760405180602001604052806000815250611a2d565b80611a0c84612ac0565b604051602001611a1d929190614230565b6040516020818303038152906040525b915050919050565b600a5481565b6060600c548210611a4b57600080fd5b601260008381526020019081526020016000208054611a69906147ea565b80601f0160208091040260200160405190810160405280929190818152602001828054611a95906147ea565b8015611ae25780601f10611ab757610100808354040283529160200191611ae2565b820191906000526020600020905b815481529060010190602001808311611ac557829003601f168201915b50505050509050919050565b60095481565b600b5481565b6000600560008473ffffffffffffffffffffffffffffffffffffffff1673ffffffffffffffffffffffffffffffffffffffff16815260200190815260200160002060008373ffffffffffffffffffffffffffffffffffffffff1673ffffffffffffffffffffffffffffffffffffffff16815260200190815260200160002060009054906101000a900460ff16905092915050565b611b9661203d565b73ffffffffffffffffffffffffffffffffffffffff16611bb461136f565b73ffffffffffffffffffffffffffffffffffffffff1614611c0a576040517f08c379a0000000000000000000000000000000000000000000000000000000008152600401611c01906144d3565b60405180910390fd5b600073ffffffffffffffffffffffffffffffffffffffff168173ffffffffffffffffffffffffffffffffffffffff161415611c7a576040517f08c379a0000000000000000000000000000000000000000000000000000000008152600401611c7190614393565b60405180910390fd5b611c8381612438565b50565b601160003373ffffffffffffffffffffffffffffffffffffffff1673ffffffffffffffffffffffffffffffffffffffff1681526020019081526020016000208181548110611cfd577f4e487b7100000000000000000000000000000000000000000000000000000000600052603260045260246000fd5b90600052602060002001604051602001611d179190614254565b604051602081830303815290604052805190602001208585604051602001611d409291906141dc565b6040516020818303038152906040528051906020012014611d6057600080fd5b611d6c838387876124fe565b611d7833600c54612c6d565b601160003373ffffffffffffffffffffffffffffffffffffffff1673ffffffffffffffffffffffffffffffffffffffff1681526020019081526020016000208181548110611def577f4e487b7100000000000000000000000000000000000000000000000000000000600052603260045260246000fd5b906000526020600020016000611e0591906132e6565b828260126000600c5481526020019081526020016000209190611e299291906131d3565b5060148585604051611e3c9291906141dc565b90815260200160405180910390206000815480929190611e5b9061481c565b91905055507f22f1a4c231d55f64bab6355b1f1f7137edc522fea2f774a252ba1a0219eac206600c548484604051611e959392919061458e565b60405180910390a1600c6000815480929190611eb09061481c565b91905055505050505050565b6000600c548210611ecc57600080fd5b6014600d60126000858152602001908152602001600020604051611ef09190614254565b9081526020016040518091039020600001600281548110611f3a577f4e487b7100000000000000000000000000000000000000000000000000000000600052603260045260246000fd5b90600052602060002001604051611f519190614254565b9081526020016040518091039020549050919050565b60007f01ffc9a7000000000000000000000000000000000000000000000000000000007bffffffffffffffffffffffffffffffffffffffffffffffffffffffff1916827bffffffffffffffffffffffffffffffffffffffffffffffffffffffff1916149050919050565b60008073ffffffffffffffffffffffffffffffffffffffff166002600084815260200190815260200160002060009054906101000a900473ffffffffffffffffffffffffffffffffffffffff1673ffffffffffffffffffffffffffffffffffffffff1614159050919050565b600033905090565b816004600083815260200190815260200160002060006101000a81548173ffffffffffffffffffffffffffffffffffffffff021916908373ffffffffffffffffffffffffffffffffffffffff160217905550808273ffffffffffffffffffffffffffffffffffffffff166120b883610e12565b73ffffffffffffffffffffffffffffffffffffffff167f8c5be1e5ebec7d5bd14f71427d1e84f3dd0314c0f7b2291e5b200ac8c7c3b92560405160405180910390a45050565b600061210982611fd1565b612148576040517f08c379a000000000000000000000000000000000000000000000000000000000815260040161213f90614413565b60405180910390fd5b600061215383610e12565b90508073ffffffffffffffffffffffffffffffffffffffff168473ffffffffffffffffffffffffffffffffffffffff1614806121c257508373ffffffffffffffffffffffffffffffffffffffff166121aa8461076c565b73ffffffffffffffffffffffffffffffffffffffff16145b806121d357506121d28185611afa565b5b91505092915050565b8273ffffffffffffffffffffffffffffffffffffffff166121fc82610e12565b73ffffffffffffffffffffffffffffffffffffffff1614612252576040517f08c379a0000000000000000000000000000000000000000000000000000000008152600401612249906144f3565b60405180910390fd5b600073ffffffffffffffffffffffffffffffffffffffff168273ffffffffffffffffffffffffffffffffffffffff1614156122c2576040517f08c379a00000000000000000000000000000000000000000000000000000000081526004016122b9906143d3565b60405180910390fd5b6122cd838383612c8b565b6122d8600082612045565b6001600360008573ffffffffffffffffffffffffffffffffffffffff1673ffffffffffffffffffffffffffffffffffffffff16815260200190815260200160002060008282546123289190614700565b925050819055506001600360008473ffffffffffffffffffffffffffffffffffffffff1673ffffffffffffffffffffffffffffffffffffffff168152602001908152602001600020600082825461237f9190614679565b92505081905550816002600083815260200190815260200160002060006101000a81548173ffffffffffffffffffffffffffffffffffffffff021916908373ffffffffffffffffffffffffffffffffffffffff160217905550808273ffffffffffffffffffffffffffffffffffffffff168473ffffffffffffffffffffffffffffffffffffffff167fddf252ad1be2c89b69c2b068fc378daa952ba7f163c4a11628f55a4df523b3ef60405160405180910390a4505050565b6000600660009054906101000a900473ffffffffffffffffffffffffffffffffffffffff16905081600660006101000a81548173ffffffffffffffffffffffffffffffffffffffff021916908373ffffffffffffffffffffffffffffffffffffffff1602179055508173ffffffffffffffffffffffffffffffffffffffff168173ffffffffffffffffffffffffffffffffffffffff167f8be0079c531659141344cd1fd0a4f28419497f9722a3daafe3b4186f6b6457e060405160405180910390a35050565b600d82826040516125109291906141dc565b9081526020016040518091039020600d85856040516125309291906141dc565b90815260200160405180910390206000820181600001908054612554929190613326565b50600182018160010190805461256b92919061338e565b50905050600d84846040516125819291906141dc565b90815260200160405180910390206000018484909180600181540180825580915050600190039060005260206000200160009091929091929091929091925091906125cd9291906131d3565b50600d84846040516125e09291906141dc565b9081526020016040518091039020600101339080600181540180825580915050600190039060005260206000200160009091909190916101000a81548173ffffffffffffffffffffffffffffffffffffffff021916908373ffffffffffffffffffffffffffffffffffffffff16021790555050505050565b60005b60038110156127775760116000600d858560405161267a9291906141dc565b908152602001604051809103902060010183815481106126c3577f4e487b7100000000000000000000000000000000000000000000000000000000600052603260045260246000fd5b9060005260206000200160009054906101000a900473ffffffffffffffffffffffffffffffffffffffff1673ffffffffffffffffffffffffffffffffffffffff1673ffffffffffffffffffffffffffffffffffffffff1681526020019081526020016000208383909180600181540180825580915050600190039060005260206000200160009091929091929091929091925091906127639291906131d3565b50808061276f9061481c565b91505061265b565b506013600d838360405161278c9291906141dc565b90815260200160405180910390206000016000815481106127d6577f4e487b7100000000000000000000000000000000000000000000000000000000600052603260045260246000fd5b906000526020600020016040516127ed9190614254565b908152602001604051809103902060009054906101000a900460ff166129b457600082826040516020016128229291906141f5565b6040516020818303038152906040529050606080604051806040016040528083815260200182815250600d8460405161285b9190614219565b908152602001604051809103902060008201518160000190805190602001906128859291906130e9565b5060208201518160010190805190602001906128a2929190613149565b509050508260106000600f60003373ffffffffffffffffffffffffffffffffffffffff1673ffffffffffffffffffffffffffffffffffffffff168152602001908152602001600020600201548152602001908152602001600020908051906020019061290f929190613063565b5060016013600d87876040516129269291906141dc565b9081526020016040518091039020600001600081548110612970577f4e487b7100000000000000000000000000000000000000000000000000000000600052603260045260246000fd5b906000526020600020016040516129879190614254565b908152602001604051809103902060006101000a81548160ff021916908315150217905550505050612a49565b600e6000600854815260200190815260200160002060106000600f60003373ffffffffffffffffffffffffffffffffffffffff1673ffffffffffffffffffffffffffffffffffffffff168152602001908152602001600020600201548152602001908152602001600020908054612a2a906147ea565b612a35929190613259565b506008600081548092919060010191905055505b5050565b612a588484846121dc565b612a6484848484612c90565b612aa3576040517f08c379a0000000000000000000000000000000000000000000000000000000008152600401612a9a90614373565b60405180910390fd5b50505050565b606060405180602001604052806000815250905090565b60606000821415612b08576040518060400160405280600181526020017f30000000000000000000000000000000000000000000000000000000000000008152509050612c68565b600082905060005b60008214612b3a578080612b239061481c565b915050600a82612b3391906146cf565b9150612b10565b60008167ffffffffffffffff811115612b7c577f4e487b7100000000000000000000000000000000000000000000000000000000600052604160045260246000fd5b6040519080825280601f01601f191660200182016040528015612bae5781602001600182028036833780820191505090505b5090505b60008514612c6157600182612bc79190614700565b9150600a85612bd69190614893565b6030612be29190614679565b60f81b818381518110612c1e577f4e487b7100000000000000000000000000000000000000000000000000000000600052603260045260246000fd5b60200101907effffffffffffffffffffffffffffffffffffffffffffffffffffffffffffff1916908160001a905350600a85612c5a91906146cf565b9450612bb2565b8093505050505b919050565b612c87828260405180602001604052806000815250612e27565b5050565b505050565b6000612cb18473ffffffffffffffffffffffffffffffffffffffff16612e82565b15612e1a578373ffffffffffffffffffffffffffffffffffffffff1663150b7a02612cda61203d565b8786866040518563ffffffff1660e01b8152600401612cfc94939291906142ac565b602060405180830381600087803b158015612d1657600080fd5b505af1925050508015612d4757506040513d601f19601f82011682018060405250810190612d449190613799565b60015b612dca573d8060008114612d77576040519150601f19603f3d011682016040523d82523d6000602084013e612d7c565b606091505b50600081511415612dc2576040517f08c379a0000000000000000000000000000000000000000000000000000000008152600401612db990614373565b60405180910390fd5b805181602001fd5b63150b7a0260e01b7bffffffffffffffffffffffffffffffffffffffffffffffffffffffff1916817bffffffffffffffffffffffffffffffffffffffffffffffffffffffff191614915050612e1f565b600190505b949350505050565b612e318383612e95565b612e3e6000848484612c90565b612e7d576040517f08c379a0000000000000000000000000000000000000000000000000000000008152600401612e7490614373565b60405180910390fd5b505050565b600080823b905060008111915050919050565b600073ffffffffffffffffffffffffffffffffffffffff168273ffffffffffffffffffffffffffffffffffffffff161415612f05576040517f08c379a0000000000000000000000000000000000000000000000000000000008152600401612efc90614493565b60405180910390fd5b612f0e81611fd1565b15612f4e576040517f08c379a0000000000000000000000000000000000000000000000000000000008152600401612f45906143b3565b60405180910390fd5b612f5a60008383612c8b565b6001600360008473ffffffffffffffffffffffffffffffffffffffff1673ffffffffffffffffffffffffffffffffffffffff1681526020019081526020016000206000828254612faa9190614679565b92505081905550816002600083815260200190815260200160002060006101000a81548173ffffffffffffffffffffffffffffffffffffffff021916908373ffffffffffffffffffffffffffffffffffffffff160217905550808273ffffffffffffffffffffffffffffffffffffffff16600073ffffffffffffffffffffffffffffffffffffffff167fddf252ad1be2c89b69c2b068fc378daa952ba7f163c4a11628f55a4df523b3ef60405160405180910390a45050565b82805461306f906147ea565b90600052602060002090601f01602090048101928261309157600085556130d8565b82601f106130aa57805160ff19168380011785556130d8565b828001600101855582156130d8579182015b828111156130d75782518255916020019190600101906130bc565b5b5090506130e591906133e0565b5090565b828054828255906000526020600020908101928215613138579160200282015b82811115613137578251829080519060200190613127929190613063565b5091602001919060010190613109565b5b50905061314591906133fd565b5090565b8280548282559060005260206000209081019282156131c2579160200282015b828111156131c15782518260006101000a81548173ffffffffffffffffffffffffffffffffffffffff021916908373ffffffffffffffffffffffffffffffffffffffff16021790555091602001919060010190613169565b5b5090506131cf91906133e0565b5090565b8280546131df906147ea565b90600052602060002090601f0160209004810192826132015760008555613248565b82601f1061321a57803560ff1916838001178555613248565b82800160010185558215613248579182015b8281111561324757823582559160200191906001019061322c565b5b50905061325591906133e0565b5090565b828054613265906147ea565b90600052602060002090601f01602090048101928261328757600085556132d5565b82601f1061329857805485556132d5565b828001600101855582156132d557600052602060002091601f016020900482015b828111156132d45782548255916001019190600101906132b9565b5b5090506132e291906133e0565b5090565b5080546132f2906147ea565b6000825580601f106133045750613323565b601f01602090049060005260206000209081019061332291906133e0565b5b50565b82805482825590600052602060002090810192821561337d5760005260206000209182015b8281111561337c578282908054613361906147ea565b61336c929190613421565b509160010191906001019061334b565b5b50905061338a91906133fd565b5090565b8280548282559060005260206000209081019282156133cf5760005260206000209182015b828111156133ce5782548255916001019190600101906133b3565b5b5090506133dc91906133e0565b5090565b5b808211156133f95760008160009055506001016133e1565b5090565b5b8082111561341d576000818161341491906132e6565b506001016133fe565b5090565b82805461342d906147ea565b90600052602060002090601f01602090048101928261344f576000855561349d565b82601f10613460578054855561349d565b8280016001018555821561349d57600052602060002091601f016020900482015b8281111561349c578254825591600101919060010190613481565b5b5090506134aa91906133e0565b5090565b60006134c16134bc846145f1565b6145c0565b9050828152602081018484840111156134d957600080fd5b6134e48482856147a8565b509392505050565b6000813590506134fb8161499e565b92915050565b600081359050613510816149b5565b92915050565b600081359050613525816149cc565b92915050565b60008151905061353a816149cc565b92915050565b600082601f83011261355157600080fd5b81356135618482602086016134ae565b91505092915050565b60008083601f84011261357c57600080fd5b8235905067ffffffffffffffff81111561359557600080fd5b6020830191508360018202830111156135ad57600080fd5b9250929050565b6000813590506135c3816149e3565b92915050565b6000602082840312156135db57600080fd5b60006135e9848285016134ec565b91505092915050565b6000806040838503121561360557600080fd5b6000613613858286016134ec565b9250506020613624858286016134ec565b9150509250929050565b60008060006060848603121561364357600080fd5b6000613651868287016134ec565b9350506020613662868287016134ec565b9250506040613673868287016135b4565b9150509250925092565b6000806000806080858703121561369357600080fd5b60006136a1878288016134ec565b94505060206136b2878288016134ec565b93505060406136c3878288016135b4565b925050606085013567ffffffffffffffff8111156136e057600080fd5b6136ec87828801613540565b91505092959194509250565b6000806040838503121561370b57600080fd5b6000613719858286016134ec565b925050602061372a85828601613501565b9150509250929050565b6000806040838503121561374757600080fd5b6000613755858286016134ec565b9250506020613766858286016135b4565b9150509250929050565b60006020828403121561378257600080fd5b600061379084828501613516565b91505092915050565b6000602082840312156137ab57600080fd5b60006137b98482850161352b565b91505092915050565b600080602083850312156137d557600080fd5b600083013567ffffffffffffffff8111156137ef57600080fd5b6137fb8582860161356a565b92509250509250929050565b6000806000806040858703121561381d57600080fd5b600085013567ffffffffffffffff81111561383757600080fd5b6138438782880161356a565b9450945050602085013567ffffffffffffffff81111561386257600080fd5b61386e8782880161356a565b925092505092959194509250565b60008060008060006060868803121561389457600080fd5b600086013567ffffffffffffffff8111156138ae57600080fd5b6138ba8882890161356a565b9550955050602086013567ffffffffffffffff8111156138d957600080fd5b6138e58882890161356a565b935093505060406138f8888289016135b4565b9150509295509295909350565b60006020828403121561391757600080fd5b6000613925848285016135b4565b91505092915050565b61393781614734565b82525050565b61394e61394982614734565b614865565b82525050565b61395d81614746565b82525050565b600061396e82614636565b613978818561464c565b93506139888185602086016147b7565b61399181614980565b840191505092915050565b60006139a8838561465d565b93506139b58385846147a8565b6139be83614980565b840190509392505050565b60006139d5838561466e565b93506139e28385846147a8565b82840190509392505050565b60006139f982614641565b613a03818561465d565b9350613a138185602086016147b7565b613a1c81614980565b840191505092915050565b6000613a3282614641565b613a3c818561466e565b9350613a4c8185602086016147b7565b80840191505092915050565b60008154613a65816147ea565b613a6f818661465d565b94506001821660008114613a8a5760018114613a9c57613acf565b60ff1983168652602086019350613acf565b613aa585614621565b60005b83811015613ac757815481890152600182019150602081019050613aa8565b808801955050505b50505092915050565b60008154613ae5816147ea565b613aef818661466e565b94506001821660008114613b0a5760018114613b1b57613b4e565b60ff19831686528186019350613b4e565b613b2485614621565b60005b83811015613b4657815481890152600182019150602081019050613b27565b838801955050505b50505092915050565b6000613b6460328361465d565b91507f4552433732313a207472616e7366657220746f206e6f6e20455243373231526560008301527f63656976657220696d706c656d656e74657200000000000000000000000000006020830152604082019050919050565b6000613bca60268361465d565b91507f4f776e61626c653a206e6577206f776e657220697320746865207a65726f206160008301527f64647265737300000000000000000000000000000000000000000000000000006020830152604082019050919050565b6000613c30601c8361465d565b91507f4552433732313a20746f6b656e20616c7265616479206d696e746564000000006000830152602082019050919050565b6000613c7060038361466e565b91507f30303000000000000000000000000000000000000000000000000000000000006000830152600382019050919050565b6000613cb060248361465d565b91507f4552433732313a207472616e7366657220746f20746865207a65726f2061646460008301527f72657373000000000000000000000000000000000000000000000000000000006020830152604082019050919050565b6000613d1660198361465d565b91507f4552433732313a20617070726f766520746f2063616c6c6572000000000000006000830152602082019050919050565b6000613d56602c8361465d565b91507f4552433732313a206f70657261746f7220717565727920666f72206e6f6e657860008301527f697374656e7420746f6b656e00000000000000000000000000000000000000006020830152604082019050919050565b6000613dbc60388361465d565b91507f4552433732313a20617070726f76652063616c6c6572206973206e6f74206f7760008301527f6e6572206e6f7220617070726f76656420666f7220616c6c00000000000000006020830152604082019050919050565b6000613e22602a8361465d565b91507f4552433732313a2062616c616e636520717565727920666f7220746865207a6560008301527f726f2061646472657373000000000000000000000000000000000000000000006020830152604082019050919050565b6000613e8860298361465d565b91507f4552433732313a206f776e657220717565727920666f72206e6f6e657869737460008301527f656e7420746f6b656e00000000000000000000000000000000000000000000006020830152604082019050919050565b6000613eee60208361465d565b91507f4552433732313a206d696e7420746f20746865207a65726f20616464726573736000830152602082019050919050565b6000613f2e602c8361465d565b91507f4552433732313a20617070726f76656420717565727920666f72206e6f6e657860008301527f697374656e7420746f6b656e00000000000000000000000000000000000000006020830152604082019050919050565b6000613f9460208361465d565b91507f4f776e61626c653a2063616c6c6572206973206e6f7420746865206f776e65726000830152602082019050919050565b6000613fd460298361465d565b91507f4552433732313a207472616e73666572206f6620746f6b656e2074686174206960008301527f73206e6f74206f776e00000000000000000000000000000000000000000000006020830152604082019050919050565b600061403a602f8361465d565b91507f4552433732314d657461646174613a2055524920717565727920666f72206e6f60008301527f6e6578697374656e7420746f6b656e00000000000000000000000000000000006020830152604082019050919050565b60006140a060218361465d565b91507f4552433732313a20617070726f76616c20746f2063757272656e74206f776e6560008301527f72000000000000000000000000000000000000000000000000000000000000006020830152604082019050919050565b600061410660318361465d565b91507f4552433732313a207472616e736665722063616c6c6572206973206e6f74206f60008301527f776e6572206e6f7220617070726f7665640000000000000000000000000000006020830152604082019050919050565b6141688161479e565b82525050565b61417f61417a8261479e565b614889565b82525050565b6000614191828861393d565b6014820191506141a1828761416e565b6020820191506141b18286613ad8565b91506141bd8285613ad8565b91506141c9828461416e565b6020820191508190509695505050505050565b60006141e98284866139c9565b91508190509392505050565b60006142028284866139c9565b915061420d82613c63565b91508190509392505050565b60006142258284613a27565b915081905092915050565b600061423c8285613a27565b91506142488284613a27565b91508190509392505050565b60006142608284613ad8565b915081905092915050565b6000614277828461416e565b60208201915061428682613c63565b915081905092915050565b60006020820190506142a6600083018461392e565b92915050565b60006080820190506142c1600083018761392e565b6142ce602083018661392e565b6142db604083018561415f565b81810360608301526142ed8184613963565b905095945050505050565b600060208201905061430d6000830184613954565b92915050565b6000602082019050818103600083015261432d81846139ee565b905092915050565b6000606082019050818103600083015261434f8186613a58565b905061435e602083018561415f565b61436b604083018461392e565b949350505050565b6000602082019050818103600083015261438c81613b57565b9050919050565b600060208201905081810360008301526143ac81613bbd565b9050919050565b600060208201905081810360008301526143cc81613c23565b9050919050565b600060208201905081810360008301526143ec81613ca3565b9050919050565b6000602082019050818103600083015261440c81613d09565b9050919050565b6000602082019050818103600083015261442c81613d49565b9050919050565b6000602082019050818103600083015261444c81613daf565b9050919050565b6000602082019050818103600083015261446c81613e15565b9050919050565b6000602082019050818103600083015261448c81613e7b565b9050919050565b600060208201905081810360008301526144ac81613ee1565b9050919050565b600060208201905081810360008301526144cc81613f21565b9050919050565b600060208201905081810360008301526144ec81613f87565b9050919050565b6000602082019050818103600083015261450c81613fc7565b9050919050565b6000602082019050818103600083015261452c8161402d565b9050919050565b6000602082019050818103600083015261454c81614093565b9050919050565b6000602082019050818103600083015261456c816140f9565b9050919050565b6000602082019050614588600083018461415f565b92915050565b60006040820190506145a3600083018661415f565b81810360208301526145b681848661399c565b9050949350505050565b6000604051905081810181811067ffffffffffffffff821117156145e7576145e6614951565b5b8060405250919050565b600067ffffffffffffffff82111561460c5761460b614951565b5b601f19601f8301169050602081019050919050565b60008190508160005260206000209050919050565b600081519050919050565b600081519050919050565b600082825260208201905092915050565b600082825260208201905092915050565b600081905092915050565b60006146848261479e565b915061468f8361479e565b9250827fffffffffffffffffffffffffffffffffffffffffffffffffffffffffffffffff038211156146c4576146c36148c4565b5b828201905092915050565b60006146da8261479e565b91506146e58361479e565b9250826146f5576146f46148f3565b5b828204905092915050565b600061470b8261479e565b91506147168361479e565b925082821015614729576147286148c4565b5b828203905092915050565b600061473f8261477e565b9050919050565b60008115159050919050565b60007fffffffff0000000000000000000000000000000000000000000000000000000082169050919050565b600073ffffffffffffffffffffffffffffffffffffffff82169050919050565b6000819050919050565b82818337600083830152505050565b60005b838110156147d55780820151818401526020810190506147ba565b838111156147e4576000848401525b50505050565b6000600282049050600182168061480257607f821691505b6020821081141561481657614815614922565b5b50919050565b60006148278261479e565b91507fffffffffffffffffffffffffffffffffffffffffffffffffffffffffffffffff82141561485a576148596148c4565b5b600182019050919050565b600061487082614877565b9050919050565b600061488282614991565b9050919050565b6000819050919050565b600061489e8261479e565b91506148a98361479e565b9250826148b9576148b86148f3565b5b828206905092915050565b7f4e487b7100000000000000000000000000000000000000000000000000000000600052601160045260246000fd5b7f4e487b7100000000000000000000000000000000000000000000000000000000600052601260045260246000fd5b7f4e487b7100000000000000000000000000000000000000000000000000000000600052602260045260246000fd5b7f4e487b7100000000000000000000000000000000000000000000000000000000600052604160045260246000fd5b6000601f19601f8301169050919050565b60008160601b9050919050565b6149a781614734565b81146149b257600080fd5b50565b6149be81614746565b81146149c957600080fd5b50565b6149d581614752565b81146149e057600080fd5b50565b6149ec8161479e565b81146149f757600080fd5b5056fea26469706673582212204732e3fb06e58405f382f168168554a033740ec11de9a12ca5905402fb77e21364736f6c63430008000033",
  "immutableReferences": {},
  "source": "// SPDX-License-Identifier: MIT\npragma solidity 0.8.0;\n\nimport \"../node_modules/@openzeppelin/contracts/token/ERC721/ERC721.sol\";\nimport \"../node_modules/@openzeppelin/contracts/access/Ownable.sol\";\n\n/// @title A writing game\n/// @author Mario Mazzaferro\ncontract FrankieTexts is ERC721, Ownable {\n\n    /// @dev Keeps track of the number of requestCid() calls.\n    uint256 private requestCounter;\n\n    /// @dev Keeps track of the number of CIDs fed in the deck mapping.\n    uint256 public feedCounter;\n\n    /// @dev Keeps track of the number of valid submitCid() calls.\n    uint256 public submitCounter;\n\n    /// @dev Keeps track of the number of plots seeded in the deck.\n    uint256 public deckCounter;\n\n    /// @dev Maximum size of the deck mapping.\n    uint256 public deckSize;\n\n    /// @dev Keeps track of the number of minted NFTs.\n    uint256 public frankieId;\n\n    /// @dev Fired upon requestText() call.\n    event RequestedCid(string chosenCid, uint256 writerNumber, address requester);\n\n    /// @dev Fired upon mintFrankie() call.\n    event MintedFrankie(uint nftId, string nftCid);\n\n    /// @dev Stores data of a Frankenstein Text.\n    struct Frankie {\n      string[] cids;\n      address[] writers;\n    }\n\n    /// @dev Stores temporary data of a Frankenstein Text being edited.\n    struct MiniFrankie {\n      string cid;\n      uint256 editSince;\n      uint256 deckNumber;\n    }\n\n    /// @dev Relates IPFS CIDs with Frankenstein Texts.\n    mapping(string => Frankie) private frankies;\n\n    /// @dev Cue order of IPFS CIDs from incomplete Frankenstein Texts.\n    mapping(uint256 => string) private cidOrder;\n\n    /// @dev Relates writer address and current editing Frankenstein Text.\n    mapping(address => MiniFrankie) private editing;\n\n    /// @dev Ordered IPFS CIDs that will be pseudo-randomly returned by requestCid().\n    mapping(uint256 => string) private deck;\n\n    /// @dev Relates writer address with its list of finished untitled Frankenstein Text's CIDs.\n    mapping(address => string[]) private untitledCids;\n\n    /// @dev Relates frankieId with its respective IPFS CID.\n    mapping(uint256 => string) private mintedCids;\n\n    /// @dev Keeps track of plots that have had at least one ramification finished.\n    mapping(string => bool) private plotEnded;\n\n    /// @dev Keeps track of 3rd CID's star number.\n    mapping(string => uint) private stars;\n\n    /// @dev Sets initial values.\n    constructor(uint _deckSize) ERC721(\"Frankies\", \"FKE\") {\n        requestCounter = 0;\n        feedCounter = 0;\n        submitCounter = 0;\n        deckCounter = 0;\n        frankieId = 0;\n        deckSize = _deckSize;\n    }\n\n    /// @dev Updates Frankenstein Text data stored in Frankie struct.\n    function _updateFrankie(string calldata newCid, string calldata oldCid) private {\n        frankies[newCid] = frankies[oldCid];\n        frankies[newCid].cids.push(newCid);\n        frankies[newCid].writers.push(msg.sender);\n    }\n\n    /// @dev Feeds finished Frankenstein Text into each writer's untitled list.\n    /// @dev Feeds a new CID into the deck to replace the finished Frankenstein Text's CID.\n    /// @dev If it's the first ramification of that plot to finish: feeds a blank plot CID.\n    /// @dev Else: feeds the next CID in the cidOrder cue.\n    function _endFrankie(string calldata newCid) private {\n      for (uint256 i = 0; i < 3; i++) {\n        untitledCids[frankies[newCid].writers[i]].push(newCid);\n      }\n      if(!plotEnded[frankies[newCid].cids[0]]) {\n        string memory startCid = string(abi.encodePacked(newCid, '000'));\n        string[] memory cids;\n        address[] memory writers;\n        frankies[startCid] = Frankie(cids, writers);\n        deck[editing[msg.sender].deckNumber] = startCid;\n        plotEnded[frankies[newCid].cids[0]] = true;\n      } else {\n        deck[editing[msg.sender].deckNumber] = cidOrder[feedCounter];\n        unchecked { feedCounter++; } \n        }\n    }\n\n    /// @dev Draws a pseudo-random CID from deck mapping.\n    /// @dev Sets pseudo-random CID to msg.sender in editing mapping.\n    function requestCid() external {\n      uint256 random = uint256(keccak256(abi.encodePacked(msg.sender, block.difficulty, cidOrder[feedCounter], cidOrder[submitCounter], requestCounter))) % deckSize;\n      unchecked { requestCounter++; }\n      editing[msg.sender] = MiniFrankie(deck[random], block.timestamp, random);\n      emit RequestedCid(deck[random], frankies[deck[random]].writers.length, msg.sender);\n    }\n\n    /// @dev Updates Frankenstein Text data through _updateFrankie().\n    /// @dev If the Frankie has 5 contributions: finalizes Frankenstein Text.\n    /// @dev Else: sets newCid in the end of cidOrder cue and if it's the first submited\n    /// @dev ramification of oldCid: substitutes it (in the deck) with the first CID of cidOrder cue.\n    function submitCid(string calldata oldCid, string calldata newCid) external {\n      require(editing[msg.sender].editSince + 2 hours > block.timestamp);\n      require(keccak256(abi.encodePacked(editing[msg.sender].cid)) == keccak256(abi.encodePacked(oldCid)));\n      _updateFrankie(newCid, oldCid);\n      if (frankies[newCid].writers.length == 3) {\n        _endFrankie(newCid);\n      } else {\n        cidOrder[submitCounter] = newCid;\n        unchecked { submitCounter++; }\n        if(keccak256(abi.encodePacked(deck[editing[msg.sender].deckNumber])) == keccak256(abi.encodePacked(oldCid))) {\n          deck[editing[msg.sender].deckNumber] = cidOrder[feedCounter];\n          unchecked { feedCounter++; }\n        }\n      }\n    }\n\n    /// @dev Checks if the untitled Frankenstein Text is still valid and is owned by the caller.\n    /// @dev Updates Frankenstein Text data through _updateFrankie().\n    /// @dev Mints Frankenstein Text NFT and delete respective untitled from untitledCids.\n    function mintFrankie(string calldata oldCid, string calldata newCid, uint untitledId) external {\n        require(keccak256(abi.encodePacked(oldCid)) == keccak256(abi.encodePacked(untitledCids[msg.sender][untitledId])));\n        _updateFrankie(newCid, oldCid);\n        _safeMint(msg.sender, frankieId);\n        delete untitledCids[msg.sender][untitledId];\n        mintedCids[frankieId] = newCid;\n        stars[oldCid]++;\n        emit MintedFrankie(frankieId, newCid);\n        frankieId++;\n    }\n\n    /// @dev Returns NFT CID corresponding to the nftId parameter.\n    function mintedCidById(uint nftId) external view returns(string memory) {\n      require(nftId < frankieId);\n      return mintedCids[nftId];\n    }\n\n    /// @dev Returns NFT stars corresponding to the nftId parameter.\n    function starsById(uint nftId) external view returns(uint) {\n      require(nftId < frankieId);\n      return stars[frankies[mintedCids[nftId]].cids[2]];\n    }\n\n    /// @dev Returns newest untitledCid id for the caller.\n    function requestNewestUntitledId() external view returns(uint) {\n        require(untitledCids[msg.sender].length > 0);\n        return untitledCids[msg.sender].length - 1;\n    }\n\n    /// @dev Returns caller's untitled CID for that specific untitledId.\n    function requestUntitledCid(uint untitledId) external view returns(string memory) {\n        return untitledCids[msg.sender][untitledId];\n    }\n\n    /// @dev Returns caller's untitled stars for that specific untitledId.\n    function requestUntitledStars(uint untitledId) external view returns(uint) {\n        return stars[untitledCids[msg.sender][untitledId]];\n    }\n\n    /// @dev Checks if the caller is victor.\n    /// @dev Creates an new Frankie with the cid parameter.\n    /// @dev If the deck is incomplete: feeds cid into deck.\n    /// @dev Feeds cid in the cidOrder cue.\n    function seedPlot(string calldata cid) external onlyOwner() {\n        string[] memory cids;\n        address[] memory writers;\n        frankies[cid] = Frankie(cids, writers);\n        frankies[cid].cids.push(cid);\n        frankies[cid].writers.push(msg.sender);\n        if(deckCounter < deckSize) {\n          deck[deckCounter] = cid;\n          unchecked { feedCounter++; }\n          deckCounter++;\n        }\n        cidOrder[submitCounter] = cid;\n        unchecked { submitCounter++; }\n    }\n\n    /// @dev Checks if the caller is victor.\n    /// @dev Creates an new blank Frankie.\n    /// @dev If the deck is incomplete: feeds cid into deck.\n    /// @dev Feeds cid in the cidOrder cue.\n    function seedBlankPlot() external onlyOwner() {\n        string[] memory cids;\n        address[] memory writers;\n        string memory cid = string(abi.encodePacked(submitCounter, '000'));\n        frankies[cid] = Frankie(cids, writers);\n        if(deckCounter < deckSize) {\n          deck[deckCounter] = cid;\n          unchecked { feedCounter++; }\n          deckCounter++;\n        }\n        cidOrder[submitCounter] = cid;\n        unchecked { submitCounter++; }\n    }\n}",
  "sourcePath": "/home/mariomazzaferro/blockchain-developer-bootcamp-final-project/contracts/FrankieTexts.sol",
  "compiler": {
    "name": "solc",
    "version": "0.8.0+commit.c7dfd78e.Emscripten.clang"
  },
  "schemaVersion": "3.4.3",
  "updatedAt": "2021-11-16T12:18:50.080Z",
  "networkType": "ethereum",
  "devdoc": {
    "author": "Mario Mazzaferro",
    "events": {
      "MintedFrankie(uint256,string)": {
        "details": "Fired upon mintFrankie() call."
      },
      "RequestedCid(string,uint256,address)": {
        "details": "Fired upon requestText() call."
      }
    },
    "kind": "dev",
    "methods": {
      "approve(address,uint256)": {
        "details": "See {IERC721-approve}."
      },
      "balanceOf(address)": {
        "details": "See {IERC721-balanceOf}."
      },
      "constructor": {
        "details": "Sets initial values."
      },
      "getApproved(uint256)": {
        "details": "See {IERC721-getApproved}."
      },
      "isApprovedForAll(address,address)": {
        "details": "See {IERC721-isApprovedForAll}."
      },
      "mintFrankie(string,string,uint256)": {
        "details": "Checks if the untitled Frankenstein Text is still valid and is owned by the caller.Updates Frankenstein Text data through _updateFrankie().Mints Frankenstein Text NFT and delete respective untitled from untitledCids."
      },
      "mintedCidById(uint256)": {
        "details": "Returns NFT CID corresponding to the nftId parameter."
      },
      "name()": {
        "details": "See {IERC721Metadata-name}."
      },
      "owner()": {
        "details": "Returns the address of the current owner."
      },
      "ownerOf(uint256)": {
        "details": "See {IERC721-ownerOf}."
      },
      "renounceOwnership()": {
        "details": "Leaves the contract without owner. It will not be possible to call `onlyOwner` functions anymore. Can only be called by the current owner. NOTE: Renouncing ownership will leave the contract without an owner, thereby removing any functionality that is only available to the owner."
      },
      "requestCid()": {
        "details": "Draws a pseudo-random CID from deck mapping.Sets pseudo-random CID to msg.sender in editing mapping."
      },
      "requestNewestUntitledId()": {
        "details": "Returns newest untitledCid id for the caller."
      },
      "requestUntitledCid(uint256)": {
        "details": "Returns caller's untitled CID for that specific untitledId."
      },
      "requestUntitledStars(uint256)": {
        "details": "Returns caller's untitled stars for that specific untitledId."
      },
      "safeTransferFrom(address,address,uint256)": {
        "details": "See {IERC721-safeTransferFrom}."
      },
      "safeTransferFrom(address,address,uint256,bytes)": {
        "details": "See {IERC721-safeTransferFrom}."
      },
      "seedBlankPlot()": {
        "details": "Checks if the caller is victor.Creates an new blank Frankie.If the deck is incomplete: feeds cid into deck.Feeds cid in the cidOrder cue."
      },
      "seedPlot(string)": {
        "details": "Checks if the caller is victor.Creates an new Frankie with the cid parameter.If the deck is incomplete: feeds cid into deck.Feeds cid in the cidOrder cue."
      },
      "setApprovalForAll(address,bool)": {
        "details": "See {IERC721-setApprovalForAll}."
      },
      "starsById(uint256)": {
        "details": "Returns NFT stars corresponding to the nftId parameter."
      },
      "submitCid(string,string)": {
        "details": "Updates Frankenstein Text data through _updateFrankie().If the Frankie has 5 contributions: finalizes Frankenstein Text.Else: sets newCid in the end of cidOrder cue and if it's the first submitedramification of oldCid: substitutes it (in the deck) with the first CID of cidOrder cue."
      },
      "supportsInterface(bytes4)": {
        "details": "See {IERC165-supportsInterface}."
      },
      "symbol()": {
        "details": "See {IERC721Metadata-symbol}."
      },
      "tokenURI(uint256)": {
        "details": "See {IERC721Metadata-tokenURI}."
      },
      "transferFrom(address,address,uint256)": {
        "details": "See {IERC721-transferFrom}."
      },
      "transferOwnership(address)": {
        "details": "Transfers ownership of the contract to a new account (`newOwner`). Can only be called by the current owner."
      }
    },
    "stateVariables": {
      "cidOrder": {
        "details": "Cue order of IPFS CIDs from incomplete Frankenstein Texts."
      },
      "deck": {
        "details": "Ordered IPFS CIDs that will be pseudo-randomly returned by requestCid()."
      },
      "deckCounter": {
        "details": "Keeps track of the number of plots seeded in the deck."
      },
      "deckSize": {
        "details": "Maximum size of the deck mapping."
      },
      "editing": {
        "details": "Relates writer address and current editing Frankenstein Text."
      },
      "feedCounter": {
        "details": "Keeps track of the number of CIDs fed in the deck mapping."
      },
      "frankieId": {
        "details": "Keeps track of the number of minted NFTs."
      },
      "frankies": {
        "details": "Relates IPFS CIDs with Frankenstein Texts."
      },
      "mintedCids": {
        "details": "Relates frankieId with its respective IPFS CID."
      },
      "plotEnded": {
        "details": "Keeps track of plots that have had at least one ramification finished."
      },
      "requestCounter": {
        "details": "Keeps track of the number of requestCid() calls."
      },
      "stars": {
        "details": "Keeps track of 3rd CID's star number."
      },
      "submitCounter": {
        "details": "Keeps track of the number of valid submitCid() calls."
      },
      "untitledCids": {
        "details": "Relates writer address with its list of finished untitled Frankenstein Text's CIDs."
      }
    },
    "title": "A writing game",
    "version": 1
  },
  "userdoc": {
    "kind": "user",
    "methods": {},
    "version": 1
  }
}