{
  "contractName": "FrankieTexts",
  "abi": [
    {
      "inputs": [],
      "stateMutability": "nonpayable",
      "type": "constructor"
    },
    {
      "anonymous": false,
      "inputs": [
        {
          "indexed": true,
          "internalType": "address",
          "name": "owner",
          "type": "address"
        },
        {
          "indexed": true,
          "internalType": "address",
          "name": "approved",
          "type": "address"
        },
        {
          "indexed": true,
          "internalType": "uint256",
          "name": "tokenId",
          "type": "uint256"
        }
      ],
      "name": "Approval",
      "type": "event"
    },
    {
      "anonymous": false,
      "inputs": [
        {
          "indexed": true,
          "internalType": "address",
          "name": "owner",
          "type": "address"
        },
        {
          "indexed": true,
          "internalType": "address",
          "name": "operator",
          "type": "address"
        },
        {
          "indexed": false,
          "internalType": "bool",
          "name": "approved",
          "type": "bool"
        }
      ],
      "name": "ApprovalForAll",
      "type": "event"
    },
    {
      "anonymous": false,
      "inputs": [
        {
          "indexed": false,
          "internalType": "uint256",
          "name": "nftId",
          "type": "uint256"
        },
        {
          "indexed": false,
          "internalType": "string",
          "name": "nftCid",
          "type": "string"
        }
      ],
      "name": "MintedFrankie",
      "type": "event"
    },
    {
      "anonymous": false,
      "inputs": [
        {
          "indexed": false,
          "internalType": "string",
          "name": "chosenCid",
          "type": "string"
        }
      ],
      "name": "RequestedText",
      "type": "event"
    },
    {
      "anonymous": false,
      "inputs": [
        {
          "indexed": true,
          "internalType": "address",
          "name": "from",
          "type": "address"
        },
        {
          "indexed": true,
          "internalType": "address",
          "name": "to",
          "type": "address"
        },
        {
          "indexed": true,
          "internalType": "uint256",
          "name": "tokenId",
          "type": "uint256"
        }
      ],
      "name": "Transfer",
      "type": "event"
    },
    {
      "inputs": [
        {
          "internalType": "address",
          "name": "to",
          "type": "address"
        },
        {
          "internalType": "uint256",
          "name": "tokenId",
          "type": "uint256"
        }
      ],
      "name": "approve",
      "outputs": [],
      "stateMutability": "nonpayable",
      "type": "function"
    },
    {
      "inputs": [
        {
          "internalType": "address",
          "name": "owner",
          "type": "address"
        }
      ],
      "name": "balanceOf",
      "outputs": [
        {
          "internalType": "uint256",
          "name": "",
          "type": "uint256"
        }
      ],
      "stateMutability": "view",
      "type": "function",
      "constant": true
    },
    {
      "inputs": [],
      "name": "deckCounter",
      "outputs": [
        {
          "internalType": "uint256",
          "name": "",
          "type": "uint256"
        }
      ],
      "stateMutability": "view",
      "type": "function",
      "constant": true
    },
    {
      "inputs": [],
      "name": "deckSize",
      "outputs": [
        {
          "internalType": "uint256",
          "name": "",
          "type": "uint256"
        }
      ],
      "stateMutability": "view",
      "type": "function",
      "constant": true
    },
    {
      "inputs": [],
      "name": "feedCounter",
      "outputs": [
        {
          "internalType": "uint256",
          "name": "",
          "type": "uint256"
        }
      ],
      "stateMutability": "view",
      "type": "function",
      "constant": true
    },
    {
      "inputs": [],
      "name": "frankieId",
      "outputs": [
        {
          "internalType": "uint256",
          "name": "",
          "type": "uint256"
        }
      ],
      "stateMutability": "view",
      "type": "function",
      "constant": true
    },
    {
      "inputs": [
        {
          "internalType": "string",
          "name": "",
          "type": "string"
        }
      ],
      "name": "frankies",
      "outputs": [
        {
          "internalType": "uint256",
          "name": "endedSince",
          "type": "uint256"
        }
      ],
      "stateMutability": "view",
      "type": "function",
      "constant": true
    },
    {
      "inputs": [
        {
          "internalType": "uint256",
          "name": "tokenId",
          "type": "uint256"
        }
      ],
      "name": "getApproved",
      "outputs": [
        {
          "internalType": "address",
          "name": "",
          "type": "address"
        }
      ],
      "stateMutability": "view",
      "type": "function",
      "constant": true
    },
    {
      "inputs": [
        {
          "internalType": "address",
          "name": "owner",
          "type": "address"
        },
        {
          "internalType": "address",
          "name": "operator",
          "type": "address"
        }
      ],
      "name": "isApprovedForAll",
      "outputs": [
        {
          "internalType": "bool",
          "name": "",
          "type": "bool"
        }
      ],
      "stateMutability": "view",
      "type": "function",
      "constant": true
    },
    {
      "inputs": [
        {
          "internalType": "uint256",
          "name": "",
          "type": "uint256"
        }
      ],
      "name": "mintedCids",
      "outputs": [
        {
          "internalType": "string",
          "name": "",
          "type": "string"
        }
      ],
      "stateMutability": "view",
      "type": "function",
      "constant": true
    },
    {
      "inputs": [],
      "name": "name",
      "outputs": [
        {
          "internalType": "string",
          "name": "",
          "type": "string"
        }
      ],
      "stateMutability": "view",
      "type": "function",
      "constant": true
    },
    {
      "inputs": [
        {
          "internalType": "uint256",
          "name": "tokenId",
          "type": "uint256"
        }
      ],
      "name": "ownerOf",
      "outputs": [
        {
          "internalType": "address",
          "name": "",
          "type": "address"
        }
      ],
      "stateMutability": "view",
      "type": "function",
      "constant": true
    },
    {
      "inputs": [
        {
          "internalType": "address",
          "name": "from",
          "type": "address"
        },
        {
          "internalType": "address",
          "name": "to",
          "type": "address"
        },
        {
          "internalType": "uint256",
          "name": "tokenId",
          "type": "uint256"
        }
      ],
      "name": "safeTransferFrom",
      "outputs": [],
      "stateMutability": "nonpayable",
      "type": "function"
    },
    {
      "inputs": [
        {
          "internalType": "address",
          "name": "from",
          "type": "address"
        },
        {
          "internalType": "address",
          "name": "to",
          "type": "address"
        },
        {
          "internalType": "uint256",
          "name": "tokenId",
          "type": "uint256"
        },
        {
          "internalType": "bytes",
          "name": "_data",
          "type": "bytes"
        }
      ],
      "name": "safeTransferFrom",
      "outputs": [],
      "stateMutability": "nonpayable",
      "type": "function"
    },
    {
      "inputs": [
        {
          "internalType": "address",
          "name": "operator",
          "type": "address"
        },
        {
          "internalType": "bool",
          "name": "approved",
          "type": "bool"
        }
      ],
      "name": "setApprovalForAll",
      "outputs": [],
      "stateMutability": "nonpayable",
      "type": "function"
    },
    {
      "inputs": [],
      "name": "submitCounter",
      "outputs": [
        {
          "internalType": "uint256",
          "name": "",
          "type": "uint256"
        }
      ],
      "stateMutability": "view",
      "type": "function",
      "constant": true
    },
    {
      "inputs": [
        {
          "internalType": "bytes4",
          "name": "interfaceId",
          "type": "bytes4"
        }
      ],
      "name": "supportsInterface",
      "outputs": [
        {
          "internalType": "bool",
          "name": "",
          "type": "bool"
        }
      ],
      "stateMutability": "view",
      "type": "function",
      "constant": true
    },
    {
      "inputs": [],
      "name": "symbol",
      "outputs": [
        {
          "internalType": "string",
          "name": "",
          "type": "string"
        }
      ],
      "stateMutability": "view",
      "type": "function",
      "constant": true
    },
    {
      "inputs": [
        {
          "internalType": "uint256",
          "name": "tokenId",
          "type": "uint256"
        }
      ],
      "name": "tokenURI",
      "outputs": [
        {
          "internalType": "string",
          "name": "",
          "type": "string"
        }
      ],
      "stateMutability": "view",
      "type": "function",
      "constant": true
    },
    {
      "inputs": [
        {
          "internalType": "address",
          "name": "from",
          "type": "address"
        },
        {
          "internalType": "address",
          "name": "to",
          "type": "address"
        },
        {
          "internalType": "uint256",
          "name": "tokenId",
          "type": "uint256"
        }
      ],
      "name": "transferFrom",
      "outputs": [],
      "stateMutability": "nonpayable",
      "type": "function"
    },
    {
      "inputs": [
        {
          "internalType": "address",
          "name": "",
          "type": "address"
        }
      ],
      "name": "untitledCounter",
      "outputs": [
        {
          "internalType": "uint256",
          "name": "",
          "type": "uint256"
        }
      ],
      "stateMutability": "view",
      "type": "function",
      "constant": true
    },
    {
      "inputs": [
        {
          "internalType": "address",
          "name": "",
          "type": "address"
        },
        {
          "internalType": "uint256",
          "name": "",
          "type": "uint256"
        }
      ],
      "name": "untitledTexts",
      "outputs": [
        {
          "internalType": "string",
          "name": "",
          "type": "string"
        }
      ],
      "stateMutability": "view",
      "type": "function",
      "constant": true
    },
    {
      "inputs": [],
      "name": "victor",
      "outputs": [
        {
          "internalType": "address",
          "name": "",
          "type": "address"
        }
      ],
      "stateMutability": "view",
      "type": "function",
      "constant": true
    },
    {
      "inputs": [],
      "name": "requestText",
      "outputs": [],
      "stateMutability": "nonpayable",
      "type": "function"
    },
    {
      "inputs": [
        {
          "internalType": "string",
          "name": "oldCid",
          "type": "string"
        },
        {
          "internalType": "string",
          "name": "newCid",
          "type": "string"
        }
      ],
      "name": "submitText",
      "outputs": [],
      "stateMutability": "nonpayable",
      "type": "function"
    },
    {
      "inputs": [
        {
          "internalType": "string",
          "name": "oldCid",
          "type": "string"
        },
        {
          "internalType": "string",
          "name": "newCid",
          "type": "string"
        }
      ],
      "name": "mintFrankie",
      "outputs": [],
      "stateMutability": "nonpayable",
      "type": "function"
    },
    {
      "inputs": [],
      "name": "requestUntitled",
      "outputs": [
        {
          "internalType": "string",
          "name": "",
          "type": "string"
        }
      ],
      "stateMutability": "view",
      "type": "function",
      "constant": true
    },
    {
      "inputs": [],
      "name": "discardUntitled",
      "outputs": [],
      "stateMutability": "nonpayable",
      "type": "function"
    },
    {
      "inputs": [
        {
          "internalType": "string",
          "name": "cid",
          "type": "string"
        }
      ],
      "name": "seedPlot",
      "outputs": [],
      "stateMutability": "nonpayable",
      "type": "function"
    },
    {
      "inputs": [
        {
          "internalType": "uint256",
          "name": "id",
          "type": "uint256"
        }
      ],
      "name": "mintedCidById",
      "outputs": [
        {
          "internalType": "string",
          "name": "",
          "type": "string"
        }
      ],
      "stateMutability": "view",
      "type": "function",
      "constant": true
    }
  ],
  "bytecode": "0x60806040523480156200001157600080fd5b506040518060400160405280600881526020017f4672616e6b6965730000000000000000000000000000000000000000000000008152506040518060400160405280600381526020017f464b45000000000000000000000000000000000000000000000000000000000081525081600090805190602001906200009692919062000128565b508060019080519060200190620000af92919062000128565b5050506000600681905550600060078190555060006008819055506000600981905550600a80819055506000600b8190555033600c60006101000a81548173ffffffffffffffffffffffffffffffffffffffff021916908373ffffffffffffffffffffffffffffffffffffffff1602179055506200023d565b8280546200013690620001d8565b90600052602060002090601f0160209004810192826200015a5760008555620001a6565b82601f106200017557805160ff1916838001178555620001a6565b82800160010185558215620001a6579182015b82811115620001a557825182559160200191906001019062000188565b5b509050620001b59190620001b9565b5090565b5b80821115620001d4576000816000905550600101620001ba565b5090565b60006002820490506001821680620001f157607f821691505b602082108114156200020857620002076200020e565b5b50919050565b7f4e487b7100000000000000000000000000000000000000000000000000000000600052602260045260246000fd5b6145c5806200024d6000396000f3fe608060405234801561001057600080fd5b50600436106101da5760003560e01c80638ffd2b7711610104578063c87b56dd116100a2578063dde2ae4811610071578063dde2ae4814610569578063e985e9c514610587578063ef06b902146105b7578063fb5556b9146105c1576101da565b8063c87b56dd146104cd578063d40cf78a146104fd578063d4fb94571461051b578063d812da271461054b576101da565b8063a22cb465116100de578063a22cb4651461045b578063ae52bc9714610477578063b17de4af14610495578063b88d4fde146104b1576101da565b80638ffd2b77146103f157806395d89b41146104215780639a791cb31461043f576101da565b806323b872dd1161017c5780636352211e1161014b5780636352211e1461034357806370a08231146103735780637403a42a146103a357806384478ad3146103c1576101da565b806323b872dd146102bd5780632c5bbc5c146102d957806342842e0e146102f75780634ee069b814610313576101da565b8063081812fc116101b8578063081812fc1461024b578063095ea7b31461027b5780631415f1e7146102975780631d10b430146102a1576101da565b80630148c3eb146101df57806301ffc9a7146101fd57806306fdde031461022d575b600080fd5b6101e76105f1565b6040516101f49190614113565b60405180910390f35b61021760048036038101906102129190613505565b6105f7565b6040516102249190613ef4565b60405180910390f35b6102356106d9565b6040516102429190613f0f565b60405180910390f35b61026560048036038101906102609190613652565b61076b565b6040516102729190613e8d565b60405180910390f35b610295600480360381019061029091906134c9565b6107f0565b005b61029f610908565b005b6102bb60048036038101906102b6919061359c565b610ac6565b005b6102d760048036038101906102d291906133c3565b610d09565b005b6102e1610d69565b6040516102ee9190613f0f565b60405180910390f35b610311600480360381019061030c91906133c3565b610f46565b005b61032d60048036038101906103289190613652565b610f66565b60405161033a9190613f0f565b60405180910390f35b61035d60048036038101906103589190613652565b611006565b60405161036a9190613e8d565b60405180910390f35b61038d6004803603810190610388919061335e565b6110b8565b60405161039a9190614113565b60405180910390f35b6103ab611170565b6040516103b89190614113565b60405180910390f35b6103db60048036038101906103d691906134c9565b611176565b6040516103e89190613f0f565b60405180910390f35b61040b60048036038101906104069190613611565b61122f565b6040516104189190614113565b60405180910390f35b610429611263565b6040516104369190613f0f565b60405180910390f35b6104596004803603810190610454919061359c565b6112f5565b005b6104756004803603810190610470919061348d565b6115b6565b005b61047f611737565b60405161048c9190613e8d565b60405180910390f35b6104af60048036038101906104aa9190613557565b61175d565b005b6104cb60048036038101906104c69190613412565b6119b9565b005b6104e760048036038101906104e29190613652565b611a1b565b6040516104f49190613f0f565b60405180910390f35b610505611ac2565b6040516105129190614113565b60405180910390f35b61053560048036038101906105309190613652565b611ac8565b6040516105429190613f0f565b60405180910390f35b610553611b7b565b6040516105609190614113565b60405180910390f35b610571611b81565b60405161057e9190614113565b60405180910390f35b6105a1600480360381019061059c9190613387565b611b87565b6040516105ae9190613ef4565b60405180910390f35b6105bf611c1b565b005b6105db60048036038101906105d6919061335e565b611cff565b6040516105e89190614113565b60405180910390f35b60075481565b60007f80ac58cd000000000000000000000000000000000000000000000000000000007bffffffffffffffffffffffffffffffffffffffffffffffffffffffff1916827bffffffffffffffffffffffffffffffffffffffffffffffffffffffff191614806106c257507f5b5e139f000000000000000000000000000000000000000000000000000000007bffffffffffffffffffffffffffffffffffffffffffffffffffffffff1916827bffffffffffffffffffffffffffffffffffffffffffffffffffffffff1916145b806106d257506106d182611d17565b5b9050919050565b6060600080546106e8906143ba565b80601f0160208091040260200160405190810160405280929190818152602001828054610714906143ba565b80156107615780601f1061073657610100808354040283529160200191610761565b820191906000526020600020905b81548152906001019060200180831161074457829003601f168201915b5050505050905090565b600061077682611d81565b6107b5576040517f08c379a00000000000000000000000000000000000000000000000000000000081526004016107ac90614073565b60405180910390fd5b6004600083815260200190815260200160002060009054906101000a900473ffffffffffffffffffffffffffffffffffffffff169050919050565b60006107fb82611006565b90508073ffffffffffffffffffffffffffffffffffffffff168373ffffffffffffffffffffffffffffffffffffffff16141561086c576040517f08c379a0000000000000000000000000000000000000000000000000000000008152600401610863906140d3565b60405180910390fd5b8073ffffffffffffffffffffffffffffffffffffffff1661088b611ded565b73ffffffffffffffffffffffffffffffffffffffff1614806108ba57506108b9816108b4611ded565b611b87565b5b6108f9576040517f08c379a00000000000000000000000000000000000000000000000000000000081526004016108f090613ff3565b60405180910390fd5b6109038383611df5565b505050565b6000600a6006541015610931576006549050600660008154809291906001019190505550610951565b600060068190555060065490506006600081548092919060010191905055505b604051806060016040528060106000848152602001908152602001600020805461097a906143ba565b80601f01602080910402602001604051908101604052809291908181526020018280546109a6906143ba565b80156109f35780601f106109c8576101008083540402835291602001916109f3565b820191906000526020600020905b8154815290600101906020018083116109d657829003601f168201915b5050505050815260200142815260200182815250600f60003373ffffffffffffffffffffffffffffffffffffffff1673ffffffffffffffffffffffffffffffffffffffff1681526020019081526020016000206000820151816000019080519060200190610a62929190612d90565b5060208201518160010155604082015181600201559050507fe067647a4b2d21f4376d40bbedfcd7a79c39f8ada5141f685ad509fb07749c8c60106000838152602001908152602001600020604051610abb9190613f31565b60405180910390a150565b426203f480600d8686604051610add929190613dfe565b908152602001604051809103902060020154610af99190614249565b11610b0357600080fd5b601160003373ffffffffffffffffffffffffffffffffffffffff1673ffffffffffffffffffffffffffffffffffffffff168152602001908152602001600020601260003373ffffffffffffffffffffffffffffffffffffffff1673ffffffffffffffffffffffffffffffffffffffff1681526020019081526020016000205481548110610bb9577f4e487b7100000000000000000000000000000000000000000000000000000000600052603260045260246000fd5b90600052602060002001604051602001610bd39190613e76565b604051602081830303815290604052805190602001208484604051602001610bfc929190613dfe565b6040516020818303038152906040528051906020012014610c1c57600080fd5b610c2882828686611eae565b601260003373ffffffffffffffffffffffffffffffffffffffff1673ffffffffffffffffffffffffffffffffffffffff1681526020019081526020016000206000815480929190610c78906143ec565b9190505550610c8933600b54612012565b818160136000600b5481526020019081526020016000209190610cad929190612e16565b507f22f1a4c231d55f64bab6355b1f1f7137edc522fea2f774a252ba1a0219eac206600b548383604051610ce39392919061412e565b60405180910390a1600b6000815480929190610cfe906143ec565b919050555050505050565b610d1a610d14611ded565b82612030565b610d59576040517f08c379a0000000000000000000000000000000000000000000000000000000008152600401610d50906140f3565b60405180910390fd5b610d6483838361210e565b505050565b6060601260003373ffffffffffffffffffffffffffffffffffffffff1673ffffffffffffffffffffffffffffffffffffffff16815260200190815260200160002054601160003373ffffffffffffffffffffffffffffffffffffffff1673ffffffffffffffffffffffffffffffffffffffff1681526020019081526020016000208054905011610df857600080fd5b601160003373ffffffffffffffffffffffffffffffffffffffff1673ffffffffffffffffffffffffffffffffffffffff168152602001908152602001600020601260003373ffffffffffffffffffffffffffffffffffffffff1673ffffffffffffffffffffffffffffffffffffffff1681526020019081526020016000205481548110610eae577f4e487b7100000000000000000000000000000000000000000000000000000000600052603260045260246000fd5b906000526020600020018054610ec3906143ba565b80601f0160208091040260200160405190810160405280929190818152602001828054610eef906143ba565b8015610f3c5780601f10610f1157610100808354040283529160200191610f3c565b820191906000526020600020905b815481529060010190602001808311610f1f57829003601f168201915b5050505050905090565b610f61838383604051806020016040528060008152506119b9565b505050565b60136020528060005260406000206000915090508054610f85906143ba565b80601f0160208091040260200160405190810160405280929190818152602001828054610fb1906143ba565b8015610ffe5780601f10610fd357610100808354040283529160200191610ffe565b820191906000526020600020905b815481529060010190602001808311610fe157829003601f168201915b505050505081565b6000806002600084815260200190815260200160002060009054906101000a900473ffffffffffffffffffffffffffffffffffffffff169050600073ffffffffffffffffffffffffffffffffffffffff168173ffffffffffffffffffffffffffffffffffffffff1614156110af576040517f08c379a00000000000000000000000000000000000000000000000000000000081526004016110a690614033565b60405180910390fd5b80915050919050565b60008073ffffffffffffffffffffffffffffffffffffffff168273ffffffffffffffffffffffffffffffffffffffff161415611129576040517f08c379a000000000000000000000000000000000000000000000000000000000815260040161112090614013565b60405180910390fd5b600360008373ffffffffffffffffffffffffffffffffffffffff1673ffffffffffffffffffffffffffffffffffffffff168152602001908152602001600020549050919050565b600b5481565b6011602052816000526040600020818154811061119257600080fd5b906000526020600020016000915091505080546111ae906143ba565b80601f01602080910402602001604051908101604052809291908181526020018280546111da906143ba565b80156112275780601f106111fc57610100808354040283529160200191611227565b820191906000526020600020905b81548152906001019060200180831161120a57829003601f168201915b505050505081565b600d818051602081018201805184825260208301602085012081835280955050505050506000915090508060020154905081565b606060018054611272906143ba565b80601f016020809104026020016040519081016040528092919081815260200182805461129e906143ba565b80156112eb5780601f106112c0576101008083540402835291602001916112eb565b820191906000526020600020905b8154815290600101906020018083116112ce57829003601f168201915b5050505050905090565b8383818160405160200161130a929190613dfe565b60405160208183030381529060405280519060200120600f60003373ffffffffffffffffffffffffffffffffffffffff1673ffffffffffffffffffffffffffffffffffffffff1681526020019081526020016000206000016040516020016113729190613e76565b604051602081830303815290604052805190602001201461139257600080fd5b42611c20600f60003373ffffffffffffffffffffffffffffffffffffffff1673ffffffffffffffffffffffffffffffffffffffff168152602001908152602001600020600101546113e39190614249565b116113ed57600080fd5b6113f984848888611eae565b6005600d858560405161140d929190613dfe565b908152602001604051809103902060010180549050141561143757611432848461236a565b6115ae565b8383600e60006008548152602001908152602001600020919061145b929190612e16565b506008600081548092919060010191905055508585604051602001611481929190613dfe565b6040516020818303038152906040528051906020012060106000600f60003373ffffffffffffffffffffffffffffffffffffffff1673ffffffffffffffffffffffffffffffffffffffff1681526020019081526020016000206002015481526020019081526020016000206040516020016114fc9190613e76565b6040516020818303038152906040528051906020012014156115ad57600e6000600754815260200190815260200160002060106000600f60003373ffffffffffffffffffffffffffffffffffffffff1673ffffffffffffffffffffffffffffffffffffffff16815260200190815260200160002060020154815260200190815260200160002090805461158e906143ba565b611599929190612e9c565b506007600081548092919060010191905055505b5b505050505050565b6115be611ded565b73ffffffffffffffffffffffffffffffffffffffff168273ffffffffffffffffffffffffffffffffffffffff16141561162c576040517f08c379a000000000000000000000000000000000000000000000000000000000815260040161162390613fb3565b60405180910390fd5b8060056000611639611ded565b73ffffffffffffffffffffffffffffffffffffffff1673ffffffffffffffffffffffffffffffffffffffff16815260200190815260200160002060008473ffffffffffffffffffffffffffffffffffffffff1673ffffffffffffffffffffffffffffffffffffffff16815260200190815260200160002060006101000a81548160ff0219169083151502179055508173ffffffffffffffffffffffffffffffffffffffff166116e6611ded565b73ffffffffffffffffffffffffffffffffffffffff167f17307eab39ab6107e8899845ad3d59bd9653f200f220920489ca2b5937696c318360405161172b9190613ef4565b60405180910390a35050565b600c60009054906101000a900473ffffffffffffffffffffffffffffffffffffffff1681565b600c60009054906101000a900473ffffffffffffffffffffffffffffffffffffffff1673ffffffffffffffffffffffffffffffffffffffff163373ffffffffffffffffffffffffffffffffffffffff16146117b757600080fd5b60608060405180606001604052808381526020018281526020016000815250600d85856040516117e8929190613dfe565b90815260200160405180910390206000820151816000019080519060200190611812929190612f29565b50602082015181600101908051906020019061182f929190612f89565b5060408201518160020155905050600d848460405161184f929190613dfe565b908152602001604051809103902060000184849091806001815401808255809150506001900390600052602060002001600090919290919290919290919250919061189b929190612e16565b50600d84846040516118ae929190613dfe565b9081526020016040518091039020600101339080600181540180825580915050600190039060005260206000200160009091909190916101000a81548173ffffffffffffffffffffffffffffffffffffffff021916908373ffffffffffffffffffffffffffffffffffffffff160217905550600a54600954101561197c5783836010600060095481526020019081526020016000209190611950929190612e16565b5060076000815480929190600101919050555060096000815480929190611976906143ec565b91905055505b8383600e6000600854815260200190815260200160002091906119a0929190612e16565b5060086000815480929190600101919050555050505050565b6119ca6119c4611ded565b83612030565b611a09576040517f08c379a0000000000000000000000000000000000000000000000000000000008152600401611a00906140f3565b60405180910390fd5b611a1584848484612798565b50505050565b6060611a2682611d81565b611a65576040517f08c379a0000000000000000000000000000000000000000000000000000000008152600401611a5c906140b3565b60405180910390fd5b6000611a6f6127f4565b90506000815111611a8f5760405180602001604052806000815250611aba565b80611a998461280b565b604051602001611aaa929190613e52565b6040516020818303038152906040525b915050919050565b60095481565b6060600b548210611ad857600080fd5b601360008381526020019081526020016000208054611af6906143ba565b80601f0160208091040260200160405190810160405280929190818152602001828054611b22906143ba565b8015611b6f5780601f10611b4457610100808354040283529160200191611b6f565b820191906000526020600020905b815481529060010190602001808311611b5257829003601f168201915b50505050509050919050565b60085481565b600a5481565b6000600560008473ffffffffffffffffffffffffffffffffffffffff1673ffffffffffffffffffffffffffffffffffffffff16815260200190815260200160002060008373ffffffffffffffffffffffffffffffffffffffff1673ffffffffffffffffffffffffffffffffffffffff16815260200190815260200160002060009054906101000a900460ff16905092915050565b601260003373ffffffffffffffffffffffffffffffffffffffff1673ffffffffffffffffffffffffffffffffffffffff16815260200190815260200160002054601160003373ffffffffffffffffffffffffffffffffffffffff1673ffffffffffffffffffffffffffffffffffffffff1681526020019081526020016000208054905011611ca857600080fd5b601260003373ffffffffffffffffffffffffffffffffffffffff1673ffffffffffffffffffffffffffffffffffffffff1681526020019081526020016000206000815480929190611cf8906143ec565b9190505550565b60126020528060005260406000206000915090505481565b60007f01ffc9a7000000000000000000000000000000000000000000000000000000007bffffffffffffffffffffffffffffffffffffffffffffffffffffffff1916827bffffffffffffffffffffffffffffffffffffffffffffffffffffffff1916149050919050565b60008073ffffffffffffffffffffffffffffffffffffffff166002600084815260200190815260200160002060009054906101000a900473ffffffffffffffffffffffffffffffffffffffff1673ffffffffffffffffffffffffffffffffffffffff1614159050919050565b600033905090565b816004600083815260200190815260200160002060006101000a81548173ffffffffffffffffffffffffffffffffffffffff021916908373ffffffffffffffffffffffffffffffffffffffff160217905550808273ffffffffffffffffffffffffffffffffffffffff16611e6883611006565b73ffffffffffffffffffffffffffffffffffffffff167f8c5be1e5ebec7d5bd14f71427d1e84f3dd0314c0f7b2291e5b200ac8c7c3b92560405160405180910390a45050565b600d8282604051611ec0929190613dfe565b9081526020016040518091039020600d8585604051611ee0929190613dfe565b90815260200160405180910390206000820181600001908054611f04929190613013565b506001820181600101908054611f1b92919061307b565b5060028201548160020155905050600d8484604051611f3b929190613dfe565b9081526020016040518091039020600001848490918060018154018082558091505060019003906000526020600020016000909192909192909192909192509190611f87929190612e16565b50600d8484604051611f9a929190613dfe565b9081526020016040518091039020600101339080600181540180825580915050600190039060005260206000200160009091909190916101000a81548173ffffffffffffffffffffffffffffffffffffffff021916908373ffffffffffffffffffffffffffffffffffffffff16021790555050505050565b61202c8282604051806020016040528060008152506129b8565b5050565b600061203b82611d81565b61207a576040517f08c379a000000000000000000000000000000000000000000000000000000000815260040161207190613fd3565b60405180910390fd5b600061208583611006565b90508073ffffffffffffffffffffffffffffffffffffffff168473ffffffffffffffffffffffffffffffffffffffff1614806120f457508373ffffffffffffffffffffffffffffffffffffffff166120dc8461076b565b73ffffffffffffffffffffffffffffffffffffffff16145b8061210557506121048185611b87565b5b91505092915050565b8273ffffffffffffffffffffffffffffffffffffffff1661212e82611006565b73ffffffffffffffffffffffffffffffffffffffff1614612184576040517f08c379a000000000000000000000000000000000000000000000000000000000815260040161217b90614093565b60405180910390fd5b600073ffffffffffffffffffffffffffffffffffffffff168273ffffffffffffffffffffffffffffffffffffffff1614156121f4576040517f08c379a00000000000000000000000000000000000000000000000000000000081526004016121eb90613f93565b60405180910390fd5b6121ff838383612a13565b61220a600082611df5565b6001600360008573ffffffffffffffffffffffffffffffffffffffff1673ffffffffffffffffffffffffffffffffffffffff168152602001908152602001600020600082825461225a91906142d0565b925050819055506001600360008473ffffffffffffffffffffffffffffffffffffffff1673ffffffffffffffffffffffffffffffffffffffff16815260200190815260200160002060008282546122b19190614249565b92505081905550816002600083815260200190815260200160002060006101000a81548173ffffffffffffffffffffffffffffffffffffffff021916908373ffffffffffffffffffffffffffffffffffffffff160217905550808273ffffffffffffffffffffffffffffffffffffffff168473ffffffffffffffffffffffffffffffffffffffff167fddf252ad1be2c89b69c2b068fc378daa952ba7f163c4a11628f55a4df523b3ef60405160405180910390a4505050565b42600d838360405161237d929190613dfe565b90815260200160405180910390206002018190555060005b60058110156124b15760116000600d85856040516123b4929190613dfe565b908152602001604051809103902060010183815481106123fd577f4e487b7100000000000000000000000000000000000000000000000000000000600052603260045260246000fd5b9060005260206000200160009054906101000a900473ffffffffffffffffffffffffffffffffffffffff1673ffffffffffffffffffffffffffffffffffffffff1673ffffffffffffffffffffffffffffffffffffffff16815260200190815260200160002083839091806001815401808255809150506001900390600052602060002001600090919290919290919290919250919061249d929190612e16565b5080806124a9906143ec565b915050612395565b506014600d83836040516124c6929190613dfe565b9081526020016040518091039020600001600081548110612510577f4e487b7100000000000000000000000000000000000000000000000000000000600052603260045260246000fd5b906000526020600020016040516125279190613e76565b908152602001604051809103902060009054906101000a900460ff166126ff576000828260405160200161255c929190613e17565b604051602081830303815290604052905060608060405180606001604052808381526020018281526020016000815250600d8460405161259c9190613e3b565b908152602001604051809103902060008201518160000190805190602001906125c6929190612f29565b5060208201518160010190805190602001906125e3929190612f89565b50604082015181600201559050508260106000600f60003373ffffffffffffffffffffffffffffffffffffffff1673ffffffffffffffffffffffffffffffffffffffff168152602001908152602001600020600201548152602001908152602001600020908051906020019061265a929190612d90565b5060016014600d8787604051612671929190613dfe565b90815260200160405180910390206000016000815481106126bb577f4e487b7100000000000000000000000000000000000000000000000000000000600052603260045260246000fd5b906000526020600020016040516126d29190613e76565b908152602001604051809103902060006101000a81548160ff021916908315150217905550505050612794565b600e6000600754815260200190815260200160002060106000600f60003373ffffffffffffffffffffffffffffffffffffffff1673ffffffffffffffffffffffffffffffffffffffff168152602001908152602001600020600201548152602001908152602001600020908054612775906143ba565b612780929190612e9c565b506007600081548092919060010191905055505b5050565b6127a384848461210e565b6127af84848484612a18565b6127ee576040517f08c379a00000000000000000000000000000000000000000000000000000000081526004016127e590613f53565b60405180910390fd5b50505050565b606060405180602001604052806000815250905090565b60606000821415612853576040518060400160405280600181526020017f300000000000000000000000000000000000000000000000000000000000000081525090506129b3565b600082905060005b6000821461288557808061286e906143ec565b915050600a8261287e919061429f565b915061285b565b60008167ffffffffffffffff8111156128c7577f4e487b7100000000000000000000000000000000000000000000000000000000600052604160045260246000fd5b6040519080825280601f01601f1916602001820160405280156128f95781602001600182028036833780820191505090505b5090505b600085146129ac5760018261291291906142d0565b9150600a856129219190614435565b603061292d9190614249565b60f81b818381518110612969577f4e487b7100000000000000000000000000000000000000000000000000000000600052603260045260246000fd5b60200101907effffffffffffffffffffffffffffffffffffffffffffffffffffffffffffff1916908160001a905350600a856129a5919061429f565b94506128fd565b8093505050505b919050565b6129c28383612baf565b6129cf6000848484612a18565b612a0e576040517f08c379a0000000000000000000000000000000000000000000000000000000008152600401612a0590613f53565b60405180910390fd5b505050565b505050565b6000612a398473ffffffffffffffffffffffffffffffffffffffff16612d7d565b15612ba2578373ffffffffffffffffffffffffffffffffffffffff1663150b7a02612a62611ded565b8786866040518563ffffffff1660e01b8152600401612a849493929190613ea8565b602060405180830381600087803b158015612a9e57600080fd5b505af1925050508015612acf57506040513d601f19601f82011682018060405250810190612acc919061352e565b60015b612b52573d8060008114612aff576040519150601f19603f3d011682016040523d82523d6000602084013e612b04565b606091505b50600081511415612b4a576040517f08c379a0000000000000000000000000000000000000000000000000000000008152600401612b4190613f53565b60405180910390fd5b805181602001fd5b63150b7a0260e01b7bffffffffffffffffffffffffffffffffffffffffffffffffffffffff1916817bffffffffffffffffffffffffffffffffffffffffffffffffffffffff191614915050612ba7565b600190505b949350505050565b600073ffffffffffffffffffffffffffffffffffffffff168273ffffffffffffffffffffffffffffffffffffffff161415612c1f576040517f08c379a0000000000000000000000000000000000000000000000000000000008152600401612c1690614053565b60405180910390fd5b612c2881611d81565b15612c68576040517f08c379a0000000000000000000000000000000000000000000000000000000008152600401612c5f90613f73565b60405180910390fd5b612c7460008383612a13565b6001600360008473ffffffffffffffffffffffffffffffffffffffff1673ffffffffffffffffffffffffffffffffffffffff1681526020019081526020016000206000828254612cc49190614249565b92505081905550816002600083815260200190815260200160002060006101000a81548173ffffffffffffffffffffffffffffffffffffffff021916908373ffffffffffffffffffffffffffffffffffffffff160217905550808273ffffffffffffffffffffffffffffffffffffffff16600073ffffffffffffffffffffffffffffffffffffffff167fddf252ad1be2c89b69c2b068fc378daa952ba7f163c4a11628f55a4df523b3ef60405160405180910390a45050565b600080823b905060008111915050919050565b828054612d9c906143ba565b90600052602060002090601f016020900481019282612dbe5760008555612e05565b82601f10612dd757805160ff1916838001178555612e05565b82800160010185558215612e05579182015b82811115612e04578251825591602001919060010190612de9565b5b509050612e1291906130cd565b5090565b828054612e22906143ba565b90600052602060002090601f016020900481019282612e445760008555612e8b565b82601f10612e5d57803560ff1916838001178555612e8b565b82800160010185558215612e8b579182015b82811115612e8a578235825591602001919060010190612e6f565b5b509050612e9891906130cd565b5090565b828054612ea8906143ba565b90600052602060002090601f016020900481019282612eca5760008555612f18565b82601f10612edb5780548555612f18565b82800160010185558215612f1857600052602060002091601f016020900482015b82811115612f17578254825591600101919060010190612efc565b5b509050612f2591906130cd565b5090565b828054828255906000526020600020908101928215612f78579160200282015b82811115612f77578251829080519060200190612f67929190612d90565b5091602001919060010190612f49565b5b509050612f8591906130ea565b5090565b828054828255906000526020600020908101928215613002579160200282015b828111156130015782518260006101000a81548173ffffffffffffffffffffffffffffffffffffffff021916908373ffffffffffffffffffffffffffffffffffffffff16021790555091602001919060010190612fa9565b5b50905061300f91906130cd565b5090565b82805482825590600052602060002090810192821561306a5760005260206000209182015b8281111561306957828290805461304e906143ba565b61305992919061310e565b5091600101919060010190613038565b5b50905061307791906130ea565b5090565b8280548282559060005260206000209081019282156130bc5760005260206000209182015b828111156130bb5782548255916001019190600101906130a0565b5b5090506130c991906130cd565b5090565b5b808211156130e65760008160009055506001016130ce565b5090565b5b8082111561310a5760008181613101919061319b565b506001016130eb565b5090565b82805461311a906143ba565b90600052602060002090601f01602090048101928261313c576000855561318a565b82601f1061314d578054855561318a565b8280016001018555821561318a57600052602060002091601f016020900482015b8281111561318957825482559160010191906001019061316e565b5b50905061319791906130cd565b5090565b5080546131a7906143ba565b6000825580601f106131b957506131d8565b601f0160209004906000526020600020908101906131d791906130cd565b5b50565b60006131ee6131e984614191565b614160565b90508281526020810184848401111561320657600080fd5b613211848285614378565b509392505050565b600061322c613227846141c1565b614160565b90508281526020810184848401111561324457600080fd5b61324f848285614378565b509392505050565b60008135905061326681614533565b92915050565b60008135905061327b8161454a565b92915050565b60008135905061329081614561565b92915050565b6000815190506132a581614561565b92915050565b600082601f8301126132bc57600080fd5b81356132cc8482602086016131db565b91505092915050565b60008083601f8401126132e757600080fd5b8235905067ffffffffffffffff81111561330057600080fd5b60208301915083600182028301111561331857600080fd5b9250929050565b600082601f83011261333057600080fd5b8135613340848260208601613219565b91505092915050565b60008135905061335881614578565b92915050565b60006020828403121561337057600080fd5b600061337e84828501613257565b91505092915050565b6000806040838503121561339a57600080fd5b60006133a885828601613257565b92505060206133b985828601613257565b9150509250929050565b6000806000606084860312156133d857600080fd5b60006133e686828701613257565b93505060206133f786828701613257565b925050604061340886828701613349565b9150509250925092565b6000806000806080858703121561342857600080fd5b600061343687828801613257565b945050602061344787828801613257565b935050604061345887828801613349565b925050606085013567ffffffffffffffff81111561347557600080fd5b613481878288016132ab565b91505092959194509250565b600080604083850312156134a057600080fd5b60006134ae85828601613257565b92505060206134bf8582860161326c565b9150509250929050565b600080604083850312156134dc57600080fd5b60006134ea85828601613257565b92505060206134fb85828601613349565b9150509250929050565b60006020828403121561351757600080fd5b600061352584828501613281565b91505092915050565b60006020828403121561354057600080fd5b600061354e84828501613296565b91505092915050565b6000806020838503121561356a57600080fd5b600083013567ffffffffffffffff81111561358457600080fd5b613590858286016132d5565b92509250509250929050565b600080600080604085870312156135b257600080fd5b600085013567ffffffffffffffff8111156135cc57600080fd5b6135d8878288016132d5565b9450945050602085013567ffffffffffffffff8111156135f757600080fd5b613603878288016132d5565b925092505092959194509250565b60006020828403121561362357600080fd5b600082013567ffffffffffffffff81111561363d57600080fd5b6136498482850161331f565b91505092915050565b60006020828403121561366457600080fd5b600061367284828501613349565b91505092915050565b61368481614304565b82525050565b61369381614316565b82525050565b60006136a482614206565b6136ae818561421c565b93506136be818560208601614387565b6136c781614522565b840191505092915050565b60006136de838561422d565b93506136eb838584614378565b6136f483614522565b840190509392505050565b600061370b838561423e565b9350613718838584614378565b82840190509392505050565b600061372f82614211565b613739818561422d565b9350613749818560208601614387565b61375281614522565b840191505092915050565b600061376882614211565b613772818561423e565b9350613782818560208601614387565b80840191505092915050565b6000815461379b816143ba565b6137a5818661422d565b945060018216600081146137c057600181146137d257613805565b60ff1983168652602086019350613805565b6137db856141f1565b60005b838110156137fd578154818901526001820191506020810190506137de565b808801955050505b50505092915050565b6000815461381b816143ba565b613825818661423e565b94506001821660008114613840576001811461385157613884565b60ff19831686528186019350613884565b61385a856141f1565b60005b8381101561387c5781548189015260018201915060208101905061385d565b838801955050505b50505092915050565b600061389a60328361422d565b91507f4552433732313a207472616e7366657220746f206e6f6e20455243373231526560008301527f63656976657220696d706c656d656e74657200000000000000000000000000006020830152604082019050919050565b6000613900601c8361422d565b91507f4552433732313a20746f6b656e20616c7265616479206d696e746564000000006000830152602082019050919050565b600061394060248361422d565b91507f4552433732313a207472616e7366657220746f20746865207a65726f2061646460008301527f72657373000000000000000000000000000000000000000000000000000000006020830152604082019050919050565b60006139a660198361422d565b91507f4552433732313a20617070726f766520746f2063616c6c6572000000000000006000830152602082019050919050565b60006139e6602c8361422d565b91507f4552433732313a206f70657261746f7220717565727920666f72206e6f6e657860008301527f697374656e7420746f6b656e00000000000000000000000000000000000000006020830152604082019050919050565b6000613a4c60388361422d565b91507f4552433732313a20617070726f76652063616c6c6572206973206e6f74206f7760008301527f6e6572206e6f7220617070726f76656420666f7220616c6c00000000000000006020830152604082019050919050565b6000613ab2602a8361422d565b91507f4552433732313a2062616c616e636520717565727920666f7220746865207a6560008301527f726f2061646472657373000000000000000000000000000000000000000000006020830152604082019050919050565b6000613b1860298361422d565b91507f4552433732313a206f776e657220717565727920666f72206e6f6e657869737460008301527f656e7420746f6b656e00000000000000000000000000000000000000000000006020830152604082019050919050565b6000613b7e60208361422d565b91507f4552433732313a206d696e7420746f20746865207a65726f20616464726573736000830152602082019050919050565b6000613bbe60058361423e565b91507f30303030300000000000000000000000000000000000000000000000000000006000830152600582019050919050565b6000613bfe602c8361422d565b91507f4552433732313a20617070726f76656420717565727920666f72206e6f6e657860008301527f697374656e7420746f6b656e00000000000000000000000000000000000000006020830152604082019050919050565b6000613c6460298361422d565b91507f4552433732313a207472616e73666572206f6620746f6b656e2074686174206960008301527f73206e6f74206f776e00000000000000000000000000000000000000000000006020830152604082019050919050565b6000613cca602f8361422d565b91507f4552433732314d657461646174613a2055524920717565727920666f72206e6f60008301527f6e6578697374656e7420746f6b656e00000000000000000000000000000000006020830152604082019050919050565b6000613d3060218361422d565b91507f4552433732313a20617070726f76616c20746f2063757272656e74206f776e6560008301527f72000000000000000000000000000000000000000000000000000000000000006020830152604082019050919050565b6000613d9660318361422d565b91507f4552433732313a207472616e736665722063616c6c6572206973206e6f74206f60008301527f776e6572206e6f7220617070726f7665640000000000000000000000000000006020830152604082019050919050565b613df88161436e565b82525050565b6000613e0b8284866136ff565b91508190509392505050565b6000613e248284866136ff565b9150613e2f82613bb1565b91508190509392505050565b6000613e47828461375d565b915081905092915050565b6000613e5e828561375d565b9150613e6a828461375d565b91508190509392505050565b6000613e82828461380e565b915081905092915050565b6000602082019050613ea2600083018461367b565b92915050565b6000608082019050613ebd600083018761367b565b613eca602083018661367b565b613ed76040830185613def565b8181036060830152613ee98184613699565b905095945050505050565b6000602082019050613f09600083018461368a565b92915050565b60006020820190508181036000830152613f298184613724565b905092915050565b60006020820190508181036000830152613f4b818461378e565b905092915050565b60006020820190508181036000830152613f6c8161388d565b9050919050565b60006020820190508181036000830152613f8c816138f3565b9050919050565b60006020820190508181036000830152613fac81613933565b9050919050565b60006020820190508181036000830152613fcc81613999565b9050919050565b60006020820190508181036000830152613fec816139d9565b9050919050565b6000602082019050818103600083015261400c81613a3f565b9050919050565b6000602082019050818103600083015261402c81613aa5565b9050919050565b6000602082019050818103600083015261404c81613b0b565b9050919050565b6000602082019050818103600083015261406c81613b71565b9050919050565b6000602082019050818103600083015261408c81613bf1565b9050919050565b600060208201905081810360008301526140ac81613c57565b9050919050565b600060208201905081810360008301526140cc81613cbd565b9050919050565b600060208201905081810360008301526140ec81613d23565b9050919050565b6000602082019050818103600083015261410c81613d89565b9050919050565b60006020820190506141286000830184613def565b92915050565b60006040820190506141436000830186613def565b81810360208301526141568184866136d2565b9050949350505050565b6000604051905081810181811067ffffffffffffffff82111715614187576141866144f3565b5b8060405250919050565b600067ffffffffffffffff8211156141ac576141ab6144f3565b5b601f19601f8301169050602081019050919050565b600067ffffffffffffffff8211156141dc576141db6144f3565b5b601f19601f8301169050602081019050919050565b60008190508160005260206000209050919050565b600081519050919050565b600081519050919050565b600082825260208201905092915050565b600082825260208201905092915050565b600081905092915050565b60006142548261436e565b915061425f8361436e565b9250827fffffffffffffffffffffffffffffffffffffffffffffffffffffffffffffffff0382111561429457614293614466565b5b828201905092915050565b60006142aa8261436e565b91506142b58361436e565b9250826142c5576142c4614495565b5b828204905092915050565b60006142db8261436e565b91506142e68361436e565b9250828210156142f9576142f8614466565b5b828203905092915050565b600061430f8261434e565b9050919050565b60008115159050919050565b60007fffffffff0000000000000000000000000000000000000000000000000000000082169050919050565b600073ffffffffffffffffffffffffffffffffffffffff82169050919050565b6000819050919050565b82818337600083830152505050565b60005b838110156143a557808201518184015260208101905061438a565b838111156143b4576000848401525b50505050565b600060028204905060018216806143d257607f821691505b602082108114156143e6576143e56144c4565b5b50919050565b60006143f78261436e565b91507fffffffffffffffffffffffffffffffffffffffffffffffffffffffffffffffff82141561442a57614429614466565b5b600182019050919050565b60006144408261436e565b915061444b8361436e565b92508261445b5761445a614495565b5b828206905092915050565b7f4e487b7100000000000000000000000000000000000000000000000000000000600052601160045260246000fd5b7f4e487b7100000000000000000000000000000000000000000000000000000000600052601260045260246000fd5b7f4e487b7100000000000000000000000000000000000000000000000000000000600052602260045260246000fd5b7f4e487b7100000000000000000000000000000000000000000000000000000000600052604160045260246000fd5b6000601f19601f8301169050919050565b61453c81614304565b811461454757600080fd5b50565b61455381614316565b811461455e57600080fd5b50565b61456a81614322565b811461457557600080fd5b50565b6145818161436e565b811461458c57600080fd5b5056fea2646970667358221220be07f9079a42239baf7ce180757cd4035db9d6a98892b9b2488cd7320459f96e64736f6c63430008000033",
  "immutableReferences": {},
  "source": "pragma solidity ^0.8.0;\n\nimport \"../node_modules/@openzeppelin/contracts/token/ERC721/ERC721.sol\";\n\ncontract FrankieTexts is ERC721 {\n\n    uint256 private requestCounter;\n\n    uint256 public feedCounter;\n\n    uint256 public submitCounter;\n\n    uint256 public deckCounter;\n\n    uint256 public deckSize;\n\n    uint256 public frankieId;\n\n    address public victor;\n\n    event RequestedText(string chosenCid);\n\n    event MintedFrankie(uint nftId, string nftCid); // vai ter q ter a 5th cid tbm e indexed\n\n    struct Frankie {\n      string[] cids;\n      address[] writers;\n      uint256 endedSince;\n    }\n\n    struct MiniFrankie {\n      string cid;\n      uint256 editSince;\n      uint256 deckNumber;\n    }\n\n    mapping(string => Frankie) public frankies;\n\n    mapping(uint256 => string) private cidOrder;\n\n    mapping(address => MiniFrankie) private editing;\n\n    mapping(uint256 => string) private deck;\n\n    mapping(address => string[]) public untitledTexts;\n\n    mapping(address => uint) public untitledCounter;\n\n    mapping(uint256 => string) public mintedCids;\n\n    mapping(string => bool) private plotEnded;\n\n    constructor() ERC721(\"Frankies\", \"FKE\") {\n        requestCounter = 0;\n        feedCounter = 0;\n        submitCounter = 0;\n        deckCounter = 0;\n        deckSize = 10;\n        frankieId = 0;\n        victor = msg.sender;\n    }\n\n    modifier isVictor() {\n        require(msg.sender == victor);\n        _;\n    }\n\n    modifier isValid(string calldata oldCid) {\n        require(keccak256(abi.encodePacked(editing[msg.sender].cid)) == keccak256(abi.encodePacked(oldCid)));\n        require(editing[msg.sender].editSince + 2 hours > block.timestamp);\n        _;\n    }\n\n    modifier hasUntitled() {\n        require(untitledTexts[msg.sender].length > untitledCounter[msg.sender]);\n        _;\n    }\n\n    function _updateFrankie(string calldata newCid, string calldata oldCid) private {\n        frankies[newCid] = frankies[oldCid];\n        frankies[newCid].cids.push(newCid);\n        frankies[newCid].writers.push(msg.sender);\n    }\n\n    function _endFrankie(string calldata newCid) private {\n      frankies[newCid].endedSince = block.timestamp;\n      for (uint256 i = 0; i < 5; i++) {\n        untitledTexts[frankies[newCid].writers[i]].push(newCid);\n      }\n      if(!plotEnded[frankies[newCid].cids[0]]) {\n        // alimenta um cid00000 no deck\n        string memory startCid = string(abi.encodePacked(newCid, '00000'));\n        string[] memory cids;\n        address[] memory writers;\n        frankies[startCid] = Frankie(cids, writers, 0);\n        deck[editing[msg.sender].deckNumber] = startCid;\n        plotEnded[frankies[newCid].cids[0]] = true;\n      } else {\n        // alimenta o cidOrder[feedCounter] no deck e aumenta feedCounter\n        deck[editing[msg.sender].deckNumber] = cidOrder[feedCounter];\n        unchecked { feedCounter++; } \n        }\n    }\n\n    function requestText() public {\n      //Production -----------------------------------------------------------\n      // uint256 random = uint256(keccak256(abi.encodePacked(block.difficulty, block.timestamp, cidOrder[feedCounter], cidOrder[submitCounter], requestCounter))) % deckSize;\n      // unchecked { requestCounter++; }\n      //Testing --------------------------------------------------------------\n      uint256 random;\n      if(requestCounter < 10) {\n        random = requestCounter;\n        unchecked { requestCounter++; }\n      } else {\n        requestCounter = 0;\n        random = requestCounter;\n        unchecked { requestCounter++; }\n      }\n      //----------------------------------------------------------\n      editing[msg.sender] = MiniFrankie(deck[random], block.timestamp, random);\n      emit RequestedText(deck[random]);\n    }\n\n    function submitText(string calldata oldCid, string calldata newCid) public isValid(oldCid) {\n      _updateFrankie(newCid, oldCid);\n      if (frankies[newCid].writers.length == 5) {\n        _endFrankie(newCid);\n      } else {\n        cidOrder[submitCounter] = newCid;\n        unchecked { submitCounter++; }\n        if(keccak256(abi.encodePacked(deck[editing[msg.sender].deckNumber])) == keccak256(abi.encodePacked(oldCid))) {\n          deck[editing[msg.sender].deckNumber] = cidOrder[feedCounter];\n          unchecked { feedCounter++; }\n        }\n      }\n    }\n\n    function mintFrankie(string calldata oldCid,string calldata newCid) public {\n        require(frankies[oldCid].endedSince + 3 days > block.timestamp);\n        require(keccak256(abi.encodePacked(oldCid)) == keccak256(abi.encodePacked(untitledTexts[msg.sender][untitledCounter[msg.sender]])));\n        _updateFrankie(newCid, oldCid);\n        untitledCounter[msg.sender]++;\n        _safeMint(msg.sender, frankieId);\n        mintedCids[frankieId] = newCid;\n        emit MintedFrankie(frankieId, newCid);\n        frankieId++;\n    }\n\n    function requestUntitled() public view hasUntitled() returns(string memory) {\n        return untitledTexts[msg.sender][untitledCounter[msg.sender]];\n    }\n\n    function discardUntitled() public hasUntitled() {\n        untitledCounter[msg.sender]++;\n    }\n\n    function seedPlot(string calldata cid) public isVictor() {\n        string[] memory cids;\n        address[] memory writers;\n        frankies[cid] = Frankie(cids, writers, 0);\n        frankies[cid].cids.push(cid);\n        frankies[cid].writers.push(msg.sender);\n        if(deckCounter < deckSize) {\n          deck[deckCounter] = cid;\n          unchecked { feedCounter++; }\n          deckCounter++;\n        }\n        cidOrder[submitCounter] = cid;\n        unchecked { submitCounter++; }\n    }\n\n    function mintedCidById(uint id) public view returns(string memory) {\n      require(id < frankieId);\n      return mintedCids[id];\n    }\n}",
  "sourcePath": "/home/mariomazzaferro/projects/blockchain-developer-bootcamp-final-project/contracts/FrankieTexts.sol",
  "compiler": {
    "name": "solc",
    "version": "0.8.0+commit.c7dfd78e.Emscripten.clang"
  },
  "schemaVersion": "3.4.1",
  "updatedAt": "2021-10-26T14:35:39.181Z",
  "networkType": "ethereum",
  "devdoc": {
    "kind": "dev",
    "methods": {
      "approve(address,uint256)": {
        "details": "See {IERC721-approve}."
      },
      "balanceOf(address)": {
        "details": "See {IERC721-balanceOf}."
      },
      "getApproved(uint256)": {
        "details": "See {IERC721-getApproved}."
      },
      "isApprovedForAll(address,address)": {
        "details": "See {IERC721-isApprovedForAll}."
      },
      "name()": {
        "details": "See {IERC721Metadata-name}."
      },
      "ownerOf(uint256)": {
        "details": "See {IERC721-ownerOf}."
      },
      "safeTransferFrom(address,address,uint256)": {
        "details": "See {IERC721-safeTransferFrom}."
      },
      "safeTransferFrom(address,address,uint256,bytes)": {
        "details": "See {IERC721-safeTransferFrom}."
      },
      "setApprovalForAll(address,bool)": {
        "details": "See {IERC721-setApprovalForAll}."
      },
      "supportsInterface(bytes4)": {
        "details": "See {IERC165-supportsInterface}."
      },
      "symbol()": {
        "details": "See {IERC721Metadata-symbol}."
      },
      "tokenURI(uint256)": {
        "details": "See {IERC721Metadata-tokenURI}."
      },
      "transferFrom(address,address,uint256)": {
        "details": "See {IERC721-transferFrom}."
      }
    },
    "version": 1
  },
  "userdoc": {
    "kind": "user",
    "methods": {},
    "version": 1
  }
}