{
  "contractName": "FrankieTexts",
  "abi": [
    {
      "inputs": [],
      "stateMutability": "nonpayable",
      "type": "constructor"
    },
    {
      "anonymous": false,
      "inputs": [
        {
          "indexed": true,
          "internalType": "address",
          "name": "owner",
          "type": "address"
        },
        {
          "indexed": true,
          "internalType": "address",
          "name": "approved",
          "type": "address"
        },
        {
          "indexed": true,
          "internalType": "uint256",
          "name": "tokenId",
          "type": "uint256"
        }
      ],
      "name": "Approval",
      "type": "event"
    },
    {
      "anonymous": false,
      "inputs": [
        {
          "indexed": true,
          "internalType": "address",
          "name": "owner",
          "type": "address"
        },
        {
          "indexed": true,
          "internalType": "address",
          "name": "operator",
          "type": "address"
        },
        {
          "indexed": false,
          "internalType": "bool",
          "name": "approved",
          "type": "bool"
        }
      ],
      "name": "ApprovalForAll",
      "type": "event"
    },
    {
      "anonymous": false,
      "inputs": [
        {
          "indexed": false,
          "internalType": "uint256",
          "name": "nftId",
          "type": "uint256"
        },
        {
          "indexed": false,
          "internalType": "string",
          "name": "nftCid",
          "type": "string"
        }
      ],
      "name": "MintedFrankie",
      "type": "event"
    },
    {
      "anonymous": false,
      "inputs": [
        {
          "indexed": false,
          "internalType": "string",
          "name": "chosenCid",
          "type": "string"
        }
      ],
      "name": "RequestedText",
      "type": "event"
    },
    {
      "anonymous": false,
      "inputs": [
        {
          "indexed": true,
          "internalType": "address",
          "name": "from",
          "type": "address"
        },
        {
          "indexed": true,
          "internalType": "address",
          "name": "to",
          "type": "address"
        },
        {
          "indexed": true,
          "internalType": "uint256",
          "name": "tokenId",
          "type": "uint256"
        }
      ],
      "name": "Transfer",
      "type": "event"
    },
    {
      "inputs": [
        {
          "internalType": "address",
          "name": "to",
          "type": "address"
        },
        {
          "internalType": "uint256",
          "name": "tokenId",
          "type": "uint256"
        }
      ],
      "name": "approve",
      "outputs": [],
      "stateMutability": "nonpayable",
      "type": "function"
    },
    {
      "inputs": [
        {
          "internalType": "address",
          "name": "owner",
          "type": "address"
        }
      ],
      "name": "balanceOf",
      "outputs": [
        {
          "internalType": "uint256",
          "name": "",
          "type": "uint256"
        }
      ],
      "stateMutability": "view",
      "type": "function",
      "constant": true
    },
    {
      "inputs": [],
      "name": "deckCounter",
      "outputs": [
        {
          "internalType": "uint256",
          "name": "",
          "type": "uint256"
        }
      ],
      "stateMutability": "view",
      "type": "function",
      "constant": true
    },
    {
      "inputs": [],
      "name": "deckSize",
      "outputs": [
        {
          "internalType": "uint256",
          "name": "",
          "type": "uint256"
        }
      ],
      "stateMutability": "view",
      "type": "function",
      "constant": true
    },
    {
      "inputs": [],
      "name": "feedCounter",
      "outputs": [
        {
          "internalType": "uint256",
          "name": "",
          "type": "uint256"
        }
      ],
      "stateMutability": "view",
      "type": "function",
      "constant": true
    },
    {
      "inputs": [],
      "name": "frankieId",
      "outputs": [
        {
          "internalType": "uint256",
          "name": "",
          "type": "uint256"
        }
      ],
      "stateMutability": "view",
      "type": "function",
      "constant": true
    },
    {
      "inputs": [
        {
          "internalType": "string",
          "name": "",
          "type": "string"
        }
      ],
      "name": "frankies",
      "outputs": [
        {
          "internalType": "uint256",
          "name": "endedSince",
          "type": "uint256"
        }
      ],
      "stateMutability": "view",
      "type": "function",
      "constant": true
    },
    {
      "inputs": [
        {
          "internalType": "uint256",
          "name": "tokenId",
          "type": "uint256"
        }
      ],
      "name": "getApproved",
      "outputs": [
        {
          "internalType": "address",
          "name": "",
          "type": "address"
        }
      ],
      "stateMutability": "view",
      "type": "function",
      "constant": true
    },
    {
      "inputs": [
        {
          "internalType": "address",
          "name": "owner",
          "type": "address"
        },
        {
          "internalType": "address",
          "name": "operator",
          "type": "address"
        }
      ],
      "name": "isApprovedForAll",
      "outputs": [
        {
          "internalType": "bool",
          "name": "",
          "type": "bool"
        }
      ],
      "stateMutability": "view",
      "type": "function",
      "constant": true
    },
    {
      "inputs": [
        {
          "internalType": "uint256",
          "name": "",
          "type": "uint256"
        }
      ],
      "name": "mintedCids",
      "outputs": [
        {
          "internalType": "string",
          "name": "",
          "type": "string"
        }
      ],
      "stateMutability": "view",
      "type": "function",
      "constant": true
    },
    {
      "inputs": [],
      "name": "name",
      "outputs": [
        {
          "internalType": "string",
          "name": "",
          "type": "string"
        }
      ],
      "stateMutability": "view",
      "type": "function",
      "constant": true
    },
    {
      "inputs": [
        {
          "internalType": "uint256",
          "name": "tokenId",
          "type": "uint256"
        }
      ],
      "name": "ownerOf",
      "outputs": [
        {
          "internalType": "address",
          "name": "",
          "type": "address"
        }
      ],
      "stateMutability": "view",
      "type": "function",
      "constant": true
    },
    {
      "inputs": [
        {
          "internalType": "address",
          "name": "from",
          "type": "address"
        },
        {
          "internalType": "address",
          "name": "to",
          "type": "address"
        },
        {
          "internalType": "uint256",
          "name": "tokenId",
          "type": "uint256"
        }
      ],
      "name": "safeTransferFrom",
      "outputs": [],
      "stateMutability": "nonpayable",
      "type": "function"
    },
    {
      "inputs": [
        {
          "internalType": "address",
          "name": "from",
          "type": "address"
        },
        {
          "internalType": "address",
          "name": "to",
          "type": "address"
        },
        {
          "internalType": "uint256",
          "name": "tokenId",
          "type": "uint256"
        },
        {
          "internalType": "bytes",
          "name": "_data",
          "type": "bytes"
        }
      ],
      "name": "safeTransferFrom",
      "outputs": [],
      "stateMutability": "nonpayable",
      "type": "function"
    },
    {
      "inputs": [
        {
          "internalType": "address",
          "name": "operator",
          "type": "address"
        },
        {
          "internalType": "bool",
          "name": "approved",
          "type": "bool"
        }
      ],
      "name": "setApprovalForAll",
      "outputs": [],
      "stateMutability": "nonpayable",
      "type": "function"
    },
    {
      "inputs": [],
      "name": "submitCounter",
      "outputs": [
        {
          "internalType": "uint256",
          "name": "",
          "type": "uint256"
        }
      ],
      "stateMutability": "view",
      "type": "function",
      "constant": true
    },
    {
      "inputs": [
        {
          "internalType": "bytes4",
          "name": "interfaceId",
          "type": "bytes4"
        }
      ],
      "name": "supportsInterface",
      "outputs": [
        {
          "internalType": "bool",
          "name": "",
          "type": "bool"
        }
      ],
      "stateMutability": "view",
      "type": "function",
      "constant": true
    },
    {
      "inputs": [],
      "name": "symbol",
      "outputs": [
        {
          "internalType": "string",
          "name": "",
          "type": "string"
        }
      ],
      "stateMutability": "view",
      "type": "function",
      "constant": true
    },
    {
      "inputs": [
        {
          "internalType": "uint256",
          "name": "tokenId",
          "type": "uint256"
        }
      ],
      "name": "tokenURI",
      "outputs": [
        {
          "internalType": "string",
          "name": "",
          "type": "string"
        }
      ],
      "stateMutability": "view",
      "type": "function",
      "constant": true
    },
    {
      "inputs": [
        {
          "internalType": "address",
          "name": "from",
          "type": "address"
        },
        {
          "internalType": "address",
          "name": "to",
          "type": "address"
        },
        {
          "internalType": "uint256",
          "name": "tokenId",
          "type": "uint256"
        }
      ],
      "name": "transferFrom",
      "outputs": [],
      "stateMutability": "nonpayable",
      "type": "function"
    },
    {
      "inputs": [
        {
          "internalType": "address",
          "name": "",
          "type": "address"
        },
        {
          "internalType": "uint256",
          "name": "",
          "type": "uint256"
        }
      ],
      "name": "untitledTexts",
      "outputs": [
        {
          "internalType": "string",
          "name": "",
          "type": "string"
        }
      ],
      "stateMutability": "view",
      "type": "function",
      "constant": true
    },
    {
      "inputs": [],
      "name": "victor",
      "outputs": [
        {
          "internalType": "address",
          "name": "",
          "type": "address"
        }
      ],
      "stateMutability": "view",
      "type": "function",
      "constant": true
    },
    {
      "inputs": [],
      "name": "requestText",
      "outputs": [],
      "stateMutability": "nonpayable",
      "type": "function"
    },
    {
      "inputs": [
        {
          "internalType": "string",
          "name": "oldCid",
          "type": "string"
        },
        {
          "internalType": "string",
          "name": "newCid",
          "type": "string"
        }
      ],
      "name": "submitText",
      "outputs": [],
      "stateMutability": "nonpayable",
      "type": "function"
    },
    {
      "inputs": [
        {
          "internalType": "string",
          "name": "oldCid",
          "type": "string"
        },
        {
          "internalType": "string",
          "name": "newCid",
          "type": "string"
        },
        {
          "internalType": "uint256",
          "name": "untitledId",
          "type": "uint256"
        }
      ],
      "name": "mintFrankie",
      "outputs": [],
      "stateMutability": "nonpayable",
      "type": "function"
    },
    {
      "inputs": [
        {
          "internalType": "uint256",
          "name": "id",
          "type": "uint256"
        }
      ],
      "name": "mintedCidById",
      "outputs": [
        {
          "internalType": "string",
          "name": "",
          "type": "string"
        }
      ],
      "stateMutability": "view",
      "type": "function",
      "constant": true
    },
    {
      "inputs": [],
      "name": "requestNewestUntitledId",
      "outputs": [
        {
          "internalType": "uint256",
          "name": "",
          "type": "uint256"
        }
      ],
      "stateMutability": "view",
      "type": "function",
      "constant": true
    },
    {
      "inputs": [
        {
          "internalType": "uint256",
          "name": "untitledId",
          "type": "uint256"
        }
      ],
      "name": "requestUntitledText",
      "outputs": [
        {
          "internalType": "string",
          "name": "",
          "type": "string"
        }
      ],
      "stateMutability": "view",
      "type": "function",
      "constant": true
    },
    {
      "inputs": [
        {
          "internalType": "uint256",
          "name": "untitledId",
          "type": "uint256"
        }
      ],
      "name": "requestUntitledEndedSince",
      "outputs": [
        {
          "internalType": "uint256",
          "name": "",
          "type": "uint256"
        }
      ],
      "stateMutability": "view",
      "type": "function",
      "constant": true
    },
    {
      "inputs": [
        {
          "internalType": "string",
          "name": "cid",
          "type": "string"
        }
      ],
      "name": "seedPlot",
      "outputs": [],
      "stateMutability": "nonpayable",
      "type": "function"
    }
  ],
  "bytecode": "0x60806040523480156200001157600080fd5b506040518060400160405280600881526020017f4672616e6b6965730000000000000000000000000000000000000000000000008152506040518060400160405280600381526020017f464b45000000000000000000000000000000000000000000000000000000000081525081600090805190602001906200009692919062000128565b508060019080519060200190620000af92919062000128565b5050506000600681905550600060078190555060006008819055506000600981905550600a80819055506000600b8190555033600c60006101000a81548173ffffffffffffffffffffffffffffffffffffffff021916908373ffffffffffffffffffffffffffffffffffffffff1602179055506200023d565b8280546200013690620001d8565b90600052602060002090601f0160209004810192826200015a5760008555620001a6565b82601f106200017557805160ff1916838001178555620001a6565b82800160010185558215620001a6579182015b82811115620001a557825182559160200191906001019062000188565b5b509050620001b59190620001b9565b5090565b5b80821115620001d4576000816000905550600101620001ba565b5090565b60006002820490506001821680620001f157607f821691505b602082108114156200020857620002076200020e565b5b50919050565b7f4e487b7100000000000000000000000000000000000000000000000000000000600052602260045260246000fd5b6146b0806200024d6000396000f3fe608060405234801561001057600080fd5b50600436106101da5760003560e01c806384478ad311610104578063b88d4fde116100a2578063d812da2711610071578063d812da271461058f578063dde2ae48146105ad578063e985e9c5146105cb578063f86fa77b146105fb576101da565b8063b88d4fde146104f5578063c87b56dd14610511578063d40cf78a14610541578063d4fb94571461055f576101da565b80639a791cb3116100de5780639a791cb314610483578063a22cb4651461049f578063ae52bc97146104bb578063b17de4af146104d9576101da565b806384478ad3146104055780638ffd2b771461043557806395d89b4114610465576101da565b80631c0f8b591161017c5780636352211e1161014b5780636352211e1461035757806370a08231146103875780637403a42a146103b757806383be9c85146103d5576101da565b80631c0f8b59146102bf57806323b872dd146102ef57806342842e0e1461030b5780634ee069b814610327576101da565b8063081812fc116101b8578063081812fc1461024b578063095ea7b31461027b5780631243e795146102975780631415f1e7146102b5576101da565b80630148c3eb146101df57806301ffc9a7146101fd57806306fdde031461022d575b600080fd5b6101e7610617565b6040516101f491906141f4565b60405180910390f35b610217600480360381019061021291906134ef565b61061d565b6040516102249190613fd5565b60405180910390f35b6102356106ff565b6040516102429190613ff0565b60405180910390f35b610265600480360381019061026091906136c5565b610791565b6040516102729190613f6e565b60405180910390f35b610295600480360381019061029091906134b3565b610816565b005b61029f61092e565b6040516102ac91906141f4565b60405180910390f35b6102bd6109d2565b005b6102d960048036038101906102d491906136c5565b610bc6565b6040516102e69190613ff0565b60405180910390f35b610309600480360381019061030491906133ad565b610cd9565b005b610325600480360381019061032091906133ad565b610d39565b005b610341600480360381019061033c91906136c5565b610d59565b60405161034e9190613ff0565b60405180910390f35b610371600480360381019061036c91906136c5565b610df9565b60405161037e9190613f6e565b60405180910390f35b6103a1600480360381019061039c9190613348565b610eab565b6040516103ae91906141f4565b60405180910390f35b6103bf610f63565b6040516103cc91906141f4565b60405180910390f35b6103ef60048036038101906103ea91906136c5565b610f69565b6040516103fc91906141f4565b60405180910390f35b61041f600480360381019061041a91906134b3565b61101f565b60405161042c9190613ff0565b60405180910390f35b61044f600480360381019061044a9190613684565b6110d8565b60405161045c91906141f4565b60405180910390f35b61046d61110c565b60405161047a9190613ff0565b60405180910390f35b61049d60048036038101906104989190613586565b61119e565b005b6104b960048036038101906104b49190613477565b61145f565b005b6104c36115e0565b6040516104d09190613f6e565b60405180910390f35b6104f360048036038101906104ee9190613541565b611606565b005b61050f600480360381019061050a91906133fc565b611862565b005b61052b600480360381019061052691906136c5565b6118c4565b6040516105389190613ff0565b60405180910390f35b61054961196b565b60405161055691906141f4565b60405180910390f35b610579600480360381019061057491906136c5565b611971565b6040516105869190613ff0565b60405180910390f35b610597611a24565b6040516105a491906141f4565b60405180910390f35b6105b5611a2a565b6040516105c291906141f4565b60405180910390f35b6105e560048036038101906105e09190613371565b611a30565b6040516105f29190613fd5565b60405180910390f35b610615600480360381019061061091906135fb565b611ac4565b005b60075481565b60007f80ac58cd000000000000000000000000000000000000000000000000000000007bffffffffffffffffffffffffffffffffffffffffffffffffffffffff1916827bffffffffffffffffffffffffffffffffffffffffffffffffffffffff191614806106e857507f5b5e139f000000000000000000000000000000000000000000000000000000007bffffffffffffffffffffffffffffffffffffffffffffffffffffffff1916827bffffffffffffffffffffffffffffffffffffffffffffffffffffffff1916145b806106f857506106f782611d01565b5b9050919050565b60606000805461070e9061449b565b80601f016020809104026020016040519081016040528092919081815260200182805461073a9061449b565b80156107875780601f1061075c57610100808354040283529160200191610787565b820191906000526020600020905b81548152906001019060200180831161076a57829003601f168201915b5050505050905090565b600061079c82611d6b565b6107db576040517f08c379a00000000000000000000000000000000000000000000000000000000081526004016107d290614154565b60405180910390fd5b6004600083815260200190815260200160002060009054906101000a900473ffffffffffffffffffffffffffffffffffffffff169050919050565b600061082182610df9565b90508073ffffffffffffffffffffffffffffffffffffffff168373ffffffffffffffffffffffffffffffffffffffff161415610892576040517f08c379a0000000000000000000000000000000000000000000000000000000008152600401610889906141b4565b60405180910390fd5b8073ffffffffffffffffffffffffffffffffffffffff166108b1611dd7565b73ffffffffffffffffffffffffffffffffffffffff1614806108e057506108df816108da611dd7565b611a30565b5b61091f576040517f08c379a0000000000000000000000000000000000000000000000000000000008152600401610916906140d4565b60405180910390fd5b6109298383611ddf565b505050565b600080601160003373ffffffffffffffffffffffffffffffffffffffff1673ffffffffffffffffffffffffffffffffffffffff168152602001908152602001600020805490501161097e57600080fd5b6001601160003373ffffffffffffffffffffffffffffffffffffffff1673ffffffffffffffffffffffffffffffffffffffff168152602001908152602001600020805490506109cd91906143b1565b905090565b6000600a544442600e60006007548152602001908152602001600020600e60006008548152602001908152602001600020600654604051602001610a1a959493929190613f17565b6040516020818303038152906040528051906020012060001c610a3d9190614520565b90506006600081548092919060010191905055506040518060600160405280601060008481526020019081526020016000208054610a7a9061449b565b80601f0160208091040260200160405190810160405280929190818152602001828054610aa69061449b565b8015610af35780601f10610ac857610100808354040283529160200191610af3565b820191906000526020600020905b815481529060010190602001808311610ad657829003601f168201915b5050505050815260200142815260200182815250600f60003373ffffffffffffffffffffffffffffffffffffffff1673ffffffffffffffffffffffffffffffffffffffff1681526020019081526020016000206000820151816000019080519060200190610b62929190612d7a565b5060208201518160010155604082015181600201559050507fe067647a4b2d21f4376d40bbedfcd7a79c39f8ada5141f685ad509fb07749c8c60106000838152602001908152602001600020604051610bbb9190614012565b60405180910390a150565b6060601160003373ffffffffffffffffffffffffffffffffffffffff1673ffffffffffffffffffffffffffffffffffffffff1681526020019081526020016000208281548110610c3f577f4e487b7100000000000000000000000000000000000000000000000000000000600052603260045260246000fd5b906000526020600020018054610c549061449b565b80601f0160208091040260200160405190810160405280929190818152602001828054610c809061449b565b8015610ccd5780601f10610ca257610100808354040283529160200191610ccd565b820191906000526020600020905b815481529060010190602001808311610cb057829003601f168201915b50505050509050919050565b610cea610ce4611dd7565b82611e98565b610d29576040517f08c379a0000000000000000000000000000000000000000000000000000000008152600401610d20906141d4565b60405180910390fd5b610d34838383611f76565b505050565b610d5483838360405180602001604052806000815250611862565b505050565b60126020528060005260406000206000915090508054610d789061449b565b80601f0160208091040260200160405190810160405280929190818152602001828054610da49061449b565b8015610df15780601f10610dc657610100808354040283529160200191610df1565b820191906000526020600020905b815481529060010190602001808311610dd457829003601f168201915b505050505081565b6000806002600084815260200190815260200160002060009054906101000a900473ffffffffffffffffffffffffffffffffffffffff169050600073ffffffffffffffffffffffffffffffffffffffff168173ffffffffffffffffffffffffffffffffffffffff161415610ea2576040517f08c379a0000000000000000000000000000000000000000000000000000000008152600401610e9990614114565b60405180910390fd5b80915050919050565b60008073ffffffffffffffffffffffffffffffffffffffff168273ffffffffffffffffffffffffffffffffffffffff161415610f1c576040517f08c379a0000000000000000000000000000000000000000000000000000000008152600401610f13906140f4565b60405180910390fd5b600360008373ffffffffffffffffffffffffffffffffffffffff1673ffffffffffffffffffffffffffffffffffffffff168152602001908152602001600020549050919050565b600b5481565b6000600d601160003373ffffffffffffffffffffffffffffffffffffffff1673ffffffffffffffffffffffffffffffffffffffff1681526020019081526020016000208381548110610fe4577f4e487b7100000000000000000000000000000000000000000000000000000000600052603260045260246000fd5b90600052602060002001604051610ffb9190613f00565b9081526020016040518091039020600201544261101891906143b1565b9050919050565b6011602052816000526040600020818154811061103b57600080fd5b906000526020600020016000915091505080546110579061449b565b80601f01602080910402602001604051908101604052809291908181526020018280546110839061449b565b80156110d05780601f106110a5576101008083540402835291602001916110d0565b820191906000526020600020905b8154815290600101906020018083116110b357829003601f168201915b505050505081565b600d818051602081018201805184825260208301602085012081835280955050505050506000915090508060020154905081565b60606001805461111b9061449b565b80601f01602080910402602001604051908101604052809291908181526020018280546111479061449b565b80156111945780601f1061116957610100808354040283529160200191611194565b820191906000526020600020905b81548152906001019060200180831161117757829003601f168201915b5050505050905090565b838381816040516020016111b3929190613e88565b60405160208183030381529060405280519060200120600f60003373ffffffffffffffffffffffffffffffffffffffff1673ffffffffffffffffffffffffffffffffffffffff16815260200190815260200160002060000160405160200161121b9190613f00565b604051602081830303815290604052805190602001201461123b57600080fd5b42611c20600f60003373ffffffffffffffffffffffffffffffffffffffff1673ffffffffffffffffffffffffffffffffffffffff1681526020019081526020016000206001015461128c919061432a565b1161129657600080fd5b6112a2848488886121d2565b6005600d85856040516112b6929190613e88565b90815260200160405180910390206001018054905014156112e0576112db8484612336565b611457565b8383600e600060085481526020019081526020016000209190611304929190612e00565b50600860008154809291906001019190505550858560405160200161132a929190613e88565b6040516020818303038152906040528051906020012060106000600f60003373ffffffffffffffffffffffffffffffffffffffff1673ffffffffffffffffffffffffffffffffffffffff1681526020019081526020016000206002015481526020019081526020016000206040516020016113a59190613f00565b60405160208183030381529060405280519060200120141561145657600e6000600754815260200190815260200160002060106000600f60003373ffffffffffffffffffffffffffffffffffffffff1673ffffffffffffffffffffffffffffffffffffffff1681526020019081526020016000206002015481526020019081526020016000209080546114379061449b565b611442929190612e86565b506007600081548092919060010191905055505b5b505050505050565b611467611dd7565b73ffffffffffffffffffffffffffffffffffffffff168273ffffffffffffffffffffffffffffffffffffffff1614156114d5576040517f08c379a00000000000000000000000000000000000000000000000000000000081526004016114cc90614094565b60405180910390fd5b80600560006114e2611dd7565b73ffffffffffffffffffffffffffffffffffffffff1673ffffffffffffffffffffffffffffffffffffffff16815260200190815260200160002060008473ffffffffffffffffffffffffffffffffffffffff1673ffffffffffffffffffffffffffffffffffffffff16815260200190815260200160002060006101000a81548160ff0219169083151502179055508173ffffffffffffffffffffffffffffffffffffffff1661158f611dd7565b73ffffffffffffffffffffffffffffffffffffffff167f17307eab39ab6107e8899845ad3d59bd9653f200f220920489ca2b5937696c31836040516115d49190613fd5565b60405180910390a35050565b600c60009054906101000a900473ffffffffffffffffffffffffffffffffffffffff1681565b600c60009054906101000a900473ffffffffffffffffffffffffffffffffffffffff1673ffffffffffffffffffffffffffffffffffffffff163373ffffffffffffffffffffffffffffffffffffffff161461166057600080fd5b60608060405180606001604052808381526020018281526020016000815250600d8585604051611691929190613e88565b908152602001604051809103902060008201518160000190805190602001906116bb929190612f13565b5060208201518160010190805190602001906116d8929190612f73565b5060408201518160020155905050600d84846040516116f8929190613e88565b9081526020016040518091039020600001848490918060018154018082558091505060019003906000526020600020016000909192909192909192909192509190611744929190612e00565b50600d8484604051611757929190613e88565b9081526020016040518091039020600101339080600181540180825580915050600190039060005260206000200160009091909190916101000a81548173ffffffffffffffffffffffffffffffffffffffff021916908373ffffffffffffffffffffffffffffffffffffffff160217905550600a54600954101561182557838360106000600954815260200190815260200160002091906117f9929190612e00565b506007600081548092919060010191905055506009600081548092919061181f906144cd565b91905055505b8383600e600060085481526020019081526020016000209190611849929190612e00565b5060086000815480929190600101919050555050505050565b61187361186d611dd7565b83611e98565b6118b2576040517f08c379a00000000000000000000000000000000000000000000000000000000081526004016118a9906141d4565b60405180910390fd5b6118be84848484612764565b50505050565b60606118cf82611d6b565b61190e576040517f08c379a000000000000000000000000000000000000000000000000000000000815260040161190590614194565b60405180910390fd5b60006119186127c0565b905060008151116119385760405180602001604052806000815250611963565b80611942846127d7565b604051602001611953929190613edc565b6040516020818303038152906040525b915050919050565b60095481565b6060600b54821061198157600080fd5b60126000838152602001908152602001600020805461199f9061449b565b80601f01602080910402602001604051908101604052809291908181526020018280546119cb9061449b565b8015611a185780601f106119ed57610100808354040283529160200191611a18565b820191906000526020600020905b8154815290600101906020018083116119fb57829003601f168201915b50505050509050919050565b60085481565b600a5481565b6000600560008473ffffffffffffffffffffffffffffffffffffffff1673ffffffffffffffffffffffffffffffffffffffff16815260200190815260200160002060008373ffffffffffffffffffffffffffffffffffffffff1673ffffffffffffffffffffffffffffffffffffffff16815260200190815260200160002060009054906101000a900460ff16905092915050565b426203f480600d8787604051611adb929190613e88565b908152602001604051809103902060020154611af7919061432a565b11611b0157600080fd5b601160003373ffffffffffffffffffffffffffffffffffffffff1673ffffffffffffffffffffffffffffffffffffffff1681526020019081526020016000208181548110611b78577f4e487b7100000000000000000000000000000000000000000000000000000000600052603260045260246000fd5b90600052602060002001604051602001611b929190613f00565b604051602081830303815290604052805190602001208585604051602001611bbb929190613e88565b6040516020818303038152906040528051906020012014611bdb57600080fd5b611be7838387876121d2565b611bf333600b54612984565b601160003373ffffffffffffffffffffffffffffffffffffffff1673ffffffffffffffffffffffffffffffffffffffff1681526020019081526020016000208181548110611c6a577f4e487b7100000000000000000000000000000000000000000000000000000000600052603260045260246000fd5b906000526020600020016000611c809190612ffd565b828260126000600b5481526020019081526020016000209190611ca4929190612e00565b507f22f1a4c231d55f64bab6355b1f1f7137edc522fea2f774a252ba1a0219eac206600b548484604051611cda9392919061420f565b60405180910390a1600b6000815480929190611cf5906144cd565b91905055505050505050565b60007f01ffc9a7000000000000000000000000000000000000000000000000000000007bffffffffffffffffffffffffffffffffffffffffffffffffffffffff1916827bffffffffffffffffffffffffffffffffffffffffffffffffffffffff1916149050919050565b60008073ffffffffffffffffffffffffffffffffffffffff166002600084815260200190815260200160002060009054906101000a900473ffffffffffffffffffffffffffffffffffffffff1673ffffffffffffffffffffffffffffffffffffffff1614159050919050565b600033905090565b816004600083815260200190815260200160002060006101000a81548173ffffffffffffffffffffffffffffffffffffffff021916908373ffffffffffffffffffffffffffffffffffffffff160217905550808273ffffffffffffffffffffffffffffffffffffffff16611e5283610df9565b73ffffffffffffffffffffffffffffffffffffffff167f8c5be1e5ebec7d5bd14f71427d1e84f3dd0314c0f7b2291e5b200ac8c7c3b92560405160405180910390a45050565b6000611ea382611d6b565b611ee2576040517f08c379a0000000000000000000000000000000000000000000000000000000008152600401611ed9906140b4565b60405180910390fd5b6000611eed83610df9565b90508073ffffffffffffffffffffffffffffffffffffffff168473ffffffffffffffffffffffffffffffffffffffff161480611f5c57508373ffffffffffffffffffffffffffffffffffffffff16611f4484610791565b73ffffffffffffffffffffffffffffffffffffffff16145b80611f6d5750611f6c8185611a30565b5b91505092915050565b8273ffffffffffffffffffffffffffffffffffffffff16611f9682610df9565b73ffffffffffffffffffffffffffffffffffffffff1614611fec576040517f08c379a0000000000000000000000000000000000000000000000000000000008152600401611fe390614174565b60405180910390fd5b600073ffffffffffffffffffffffffffffffffffffffff168273ffffffffffffffffffffffffffffffffffffffff16141561205c576040517f08c379a000000000000000000000000000000000000000000000000000000000815260040161205390614074565b60405180910390fd5b6120678383836129a2565b612072600082611ddf565b6001600360008573ffffffffffffffffffffffffffffffffffffffff1673ffffffffffffffffffffffffffffffffffffffff16815260200190815260200160002060008282546120c291906143b1565b925050819055506001600360008473ffffffffffffffffffffffffffffffffffffffff1673ffffffffffffffffffffffffffffffffffffffff1681526020019081526020016000206000828254612119919061432a565b92505081905550816002600083815260200190815260200160002060006101000a81548173ffffffffffffffffffffffffffffffffffffffff021916908373ffffffffffffffffffffffffffffffffffffffff160217905550808273ffffffffffffffffffffffffffffffffffffffff168473ffffffffffffffffffffffffffffffffffffffff167fddf252ad1be2c89b69c2b068fc378daa952ba7f163c4a11628f55a4df523b3ef60405160405180910390a4505050565b600d82826040516121e4929190613e88565b9081526020016040518091039020600d8585604051612204929190613e88565b9081526020016040518091039020600082018160000190805461222892919061303d565b50600182018160010190805461223f9291906130a5565b5060028201548160020155905050600d848460405161225f929190613e88565b90815260200160405180910390206000018484909180600181540180825580915050600190039060005260206000200160009091929091929091929091925091906122ab929190612e00565b50600d84846040516122be929190613e88565b9081526020016040518091039020600101339080600181540180825580915050600190039060005260206000200160009091909190916101000a81548173ffffffffffffffffffffffffffffffffffffffff021916908373ffffffffffffffffffffffffffffffffffffffff16021790555050505050565b42600d8383604051612349929190613e88565b90815260200160405180910390206002018190555060005b600581101561247d5760116000600d8585604051612380929190613e88565b908152602001604051809103902060010183815481106123c9577f4e487b7100000000000000000000000000000000000000000000000000000000600052603260045260246000fd5b9060005260206000200160009054906101000a900473ffffffffffffffffffffffffffffffffffffffff1673ffffffffffffffffffffffffffffffffffffffff1673ffffffffffffffffffffffffffffffffffffffff168152602001908152602001600020838390918060018154018082558091505060019003906000526020600020016000909192909192909192909192509190612469929190612e00565b508080612475906144cd565b915050612361565b506013600d8383604051612492929190613e88565b90815260200160405180910390206000016000815481106124dc577f4e487b7100000000000000000000000000000000000000000000000000000000600052603260045260246000fd5b906000526020600020016040516124f39190613f00565b908152602001604051809103902060009054906101000a900460ff166126cb5760008282604051602001612528929190613ea1565b604051602081830303815290604052905060608060405180606001604052808381526020018281526020016000815250600d846040516125689190613ec5565b90815260200160405180910390206000820151816000019080519060200190612592929190612f13565b5060208201518160010190805190602001906125af929190612f73565b50604082015181600201559050508260106000600f60003373ffffffffffffffffffffffffffffffffffffffff1673ffffffffffffffffffffffffffffffffffffffff1681526020019081526020016000206002015481526020019081526020016000209080519060200190612626929190612d7a565b5060016013600d878760405161263d929190613e88565b9081526020016040518091039020600001600081548110612687577f4e487b7100000000000000000000000000000000000000000000000000000000600052603260045260246000fd5b9060005260206000200160405161269e9190613f00565b908152602001604051809103902060006101000a81548160ff021916908315150217905550505050612760565b600e6000600754815260200190815260200160002060106000600f60003373ffffffffffffffffffffffffffffffffffffffff1673ffffffffffffffffffffffffffffffffffffffff1681526020019081526020016000206002015481526020019081526020016000209080546127419061449b565b61274c929190612e86565b506007600081548092919060010191905055505b5050565b61276f848484611f76565b61277b848484846129a7565b6127ba576040517f08c379a00000000000000000000000000000000000000000000000000000000081526004016127b190614034565b60405180910390fd5b50505050565b606060405180602001604052806000815250905090565b6060600082141561281f576040518060400160405280600181526020017f3000000000000000000000000000000000000000000000000000000000000000815250905061297f565b600082905060005b6000821461285157808061283a906144cd565b915050600a8261284a9190614380565b9150612827565b60008167ffffffffffffffff811115612893577f4e487b7100000000000000000000000000000000000000000000000000000000600052604160045260246000fd5b6040519080825280601f01601f1916602001820160405280156128c55781602001600182028036833780820191505090505b5090505b60008514612978576001826128de91906143b1565b9150600a856128ed9190614520565b60306128f9919061432a565b60f81b818381518110612935577f4e487b7100000000000000000000000000000000000000000000000000000000600052603260045260246000fd5b60200101907effffffffffffffffffffffffffffffffffffffffffffffffffffffffffffff1916908160001a905350600a856129719190614380565b94506128c9565b8093505050505b919050565b61299e828260405180602001604052806000815250612b3e565b5050565b505050565b60006129c88473ffffffffffffffffffffffffffffffffffffffff16612b99565b15612b31578373ffffffffffffffffffffffffffffffffffffffff1663150b7a026129f1611dd7565b8786866040518563ffffffff1660e01b8152600401612a139493929190613f89565b602060405180830381600087803b158015612a2d57600080fd5b505af1925050508015612a5e57506040513d601f19601f82011682018060405250810190612a5b9190613518565b60015b612ae1573d8060008114612a8e576040519150601f19603f3d011682016040523d82523d6000602084013e612a93565b606091505b50600081511415612ad9576040517f08c379a0000000000000000000000000000000000000000000000000000000008152600401612ad090614034565b60405180910390fd5b805181602001fd5b63150b7a0260e01b7bffffffffffffffffffffffffffffffffffffffffffffffffffffffff1916817bffffffffffffffffffffffffffffffffffffffffffffffffffffffff191614915050612b36565b600190505b949350505050565b612b488383612bac565b612b5560008484846129a7565b612b94576040517f08c379a0000000000000000000000000000000000000000000000000000000008152600401612b8b90614034565b60405180910390fd5b505050565b600080823b905060008111915050919050565b600073ffffffffffffffffffffffffffffffffffffffff168273ffffffffffffffffffffffffffffffffffffffff161415612c1c576040517f08c379a0000000000000000000000000000000000000000000000000000000008152600401612c1390614134565b60405180910390fd5b612c2581611d6b565b15612c65576040517f08c379a0000000000000000000000000000000000000000000000000000000008152600401612c5c90614054565b60405180910390fd5b612c71600083836129a2565b6001600360008473ffffffffffffffffffffffffffffffffffffffff1673ffffffffffffffffffffffffffffffffffffffff1681526020019081526020016000206000828254612cc1919061432a565b92505081905550816002600083815260200190815260200160002060006101000a81548173ffffffffffffffffffffffffffffffffffffffff021916908373ffffffffffffffffffffffffffffffffffffffff160217905550808273ffffffffffffffffffffffffffffffffffffffff16600073ffffffffffffffffffffffffffffffffffffffff167fddf252ad1be2c89b69c2b068fc378daa952ba7f163c4a11628f55a4df523b3ef60405160405180910390a45050565b828054612d869061449b565b90600052602060002090601f016020900481019282612da85760008555612def565b82601f10612dc157805160ff1916838001178555612def565b82800160010185558215612def579182015b82811115612dee578251825591602001919060010190612dd3565b5b509050612dfc91906130f7565b5090565b828054612e0c9061449b565b90600052602060002090601f016020900481019282612e2e5760008555612e75565b82601f10612e4757803560ff1916838001178555612e75565b82800160010185558215612e75579182015b82811115612e74578235825591602001919060010190612e59565b5b509050612e8291906130f7565b5090565b828054612e929061449b565b90600052602060002090601f016020900481019282612eb45760008555612f02565b82601f10612ec55780548555612f02565b82800160010185558215612f0257600052602060002091601f016020900482015b82811115612f01578254825591600101919060010190612ee6565b5b509050612f0f91906130f7565b5090565b828054828255906000526020600020908101928215612f62579160200282015b82811115612f61578251829080519060200190612f51929190612d7a565b5091602001919060010190612f33565b5b509050612f6f9190613114565b5090565b828054828255906000526020600020908101928215612fec579160200282015b82811115612feb5782518260006101000a81548173ffffffffffffffffffffffffffffffffffffffff021916908373ffffffffffffffffffffffffffffffffffffffff16021790555091602001919060010190612f93565b5b509050612ff991906130f7565b5090565b5080546130099061449b565b6000825580601f1061301b575061303a565b601f01602090049060005260206000209081019061303991906130f7565b5b50565b8280548282559060005260206000209081019282156130945760005260206000209182015b828111156130935782829080546130789061449b565b613083929190613138565b5091600101919060010190613062565b5b5090506130a19190613114565b5090565b8280548282559060005260206000209081019282156130e65760005260206000209182015b828111156130e55782548255916001019190600101906130ca565b5b5090506130f391906130f7565b5090565b5b808211156131105760008160009055506001016130f8565b5090565b5b80821115613134576000818161312b9190612ffd565b50600101613115565b5090565b8280546131449061449b565b90600052602060002090601f01602090048101928261316657600085556131b4565b82601f1061317757805485556131b4565b828001600101855582156131b457600052602060002091601f016020900482015b828111156131b3578254825591600101919060010190613198565b5b5090506131c191906130f7565b5090565b60006131d86131d384614272565b614241565b9050828152602081018484840111156131f057600080fd5b6131fb848285614459565b509392505050565b6000613216613211846142a2565b614241565b90508281526020810184848401111561322e57600080fd5b613239848285614459565b509392505050565b6000813590506132508161461e565b92915050565b60008135905061326581614635565b92915050565b60008135905061327a8161464c565b92915050565b60008151905061328f8161464c565b92915050565b600082601f8301126132a657600080fd5b81356132b68482602086016131c5565b91505092915050565b60008083601f8401126132d157600080fd5b8235905067ffffffffffffffff8111156132ea57600080fd5b60208301915083600182028301111561330257600080fd5b9250929050565b600082601f83011261331a57600080fd5b813561332a848260208601613203565b91505092915050565b60008135905061334281614663565b92915050565b60006020828403121561335a57600080fd5b600061336884828501613241565b91505092915050565b6000806040838503121561338457600080fd5b600061339285828601613241565b92505060206133a385828601613241565b9150509250929050565b6000806000606084860312156133c257600080fd5b60006133d086828701613241565b93505060206133e186828701613241565b92505060406133f286828701613333565b9150509250925092565b6000806000806080858703121561341257600080fd5b600061342087828801613241565b945050602061343187828801613241565b935050604061344287828801613333565b925050606085013567ffffffffffffffff81111561345f57600080fd5b61346b87828801613295565b91505092959194509250565b6000806040838503121561348a57600080fd5b600061349885828601613241565b92505060206134a985828601613256565b9150509250929050565b600080604083850312156134c657600080fd5b60006134d485828601613241565b92505060206134e585828601613333565b9150509250929050565b60006020828403121561350157600080fd5b600061350f8482850161326b565b91505092915050565b60006020828403121561352a57600080fd5b600061353884828501613280565b91505092915050565b6000806020838503121561355457600080fd5b600083013567ffffffffffffffff81111561356e57600080fd5b61357a858286016132bf565b92509250509250929050565b6000806000806040858703121561359c57600080fd5b600085013567ffffffffffffffff8111156135b657600080fd5b6135c2878288016132bf565b9450945050602085013567ffffffffffffffff8111156135e157600080fd5b6135ed878288016132bf565b925092505092959194509250565b60008060008060006060868803121561361357600080fd5b600086013567ffffffffffffffff81111561362d57600080fd5b613639888289016132bf565b9550955050602086013567ffffffffffffffff81111561365857600080fd5b613664888289016132bf565b9350935050604061367788828901613333565b9150509295509295909350565b60006020828403121561369657600080fd5b600082013567ffffffffffffffff8111156136b057600080fd5b6136bc84828501613309565b91505092915050565b6000602082840312156136d757600080fd5b60006136e584828501613333565b91505092915050565b6136f7816143e5565b82525050565b613706816143f7565b82525050565b6000613717826142e7565b61372181856142fd565b9350613731818560208601614468565b61373a8161460d565b840191505092915050565b6000613751838561430e565b935061375e838584614459565b6137678361460d565b840190509392505050565b600061377e838561431f565b935061378b838584614459565b82840190509392505050565b60006137a2826142f2565b6137ac818561430e565b93506137bc818560208601614468565b6137c58161460d565b840191505092915050565b60006137db826142f2565b6137e5818561431f565b93506137f5818560208601614468565b80840191505092915050565b6000815461380e8161449b565b613818818661430e565b94506001821660008114613833576001811461384557613878565b60ff1983168652602086019350613878565b61384e856142d2565b60005b8381101561387057815481890152600182019150602081019050613851565b808801955050505b50505092915050565b6000815461388e8161449b565b613898818661431f565b945060018216600081146138b357600181146138c4576138f7565b60ff198316865281860193506138f7565b6138cd856142d2565b60005b838110156138ef578154818901526001820191506020810190506138d0565b838801955050505b50505092915050565b600061390d60328361430e565b91507f4552433732313a207472616e7366657220746f206e6f6e20455243373231526560008301527f63656976657220696d706c656d656e74657200000000000000000000000000006020830152604082019050919050565b6000613973601c8361430e565b91507f4552433732313a20746f6b656e20616c7265616479206d696e746564000000006000830152602082019050919050565b60006139b360248361430e565b91507f4552433732313a207472616e7366657220746f20746865207a65726f2061646460008301527f72657373000000000000000000000000000000000000000000000000000000006020830152604082019050919050565b6000613a1960198361430e565b91507f4552433732313a20617070726f766520746f2063616c6c6572000000000000006000830152602082019050919050565b6000613a59602c8361430e565b91507f4552433732313a206f70657261746f7220717565727920666f72206e6f6e657860008301527f697374656e7420746f6b656e00000000000000000000000000000000000000006020830152604082019050919050565b6000613abf60388361430e565b91507f4552433732313a20617070726f76652063616c6c6572206973206e6f74206f7760008301527f6e6572206e6f7220617070726f76656420666f7220616c6c00000000000000006020830152604082019050919050565b6000613b25602a8361430e565b91507f4552433732313a2062616c616e636520717565727920666f7220746865207a6560008301527f726f2061646472657373000000000000000000000000000000000000000000006020830152604082019050919050565b6000613b8b60298361430e565b91507f4552433732313a206f776e657220717565727920666f72206e6f6e657869737460008301527f656e7420746f6b656e00000000000000000000000000000000000000000000006020830152604082019050919050565b6000613bf160208361430e565b91507f4552433732313a206d696e7420746f20746865207a65726f20616464726573736000830152602082019050919050565b6000613c3160058361431f565b91507f30303030300000000000000000000000000000000000000000000000000000006000830152600582019050919050565b6000613c71602c8361430e565b91507f4552433732313a20617070726f76656420717565727920666f72206e6f6e657860008301527f697374656e7420746f6b656e00000000000000000000000000000000000000006020830152604082019050919050565b6000613cd760298361430e565b91507f4552433732313a207472616e73666572206f6620746f6b656e2074686174206960008301527f73206e6f74206f776e00000000000000000000000000000000000000000000006020830152604082019050919050565b6000613d3d602f8361430e565b91507f4552433732314d657461646174613a2055524920717565727920666f72206e6f60008301527f6e6578697374656e7420746f6b656e00000000000000000000000000000000006020830152604082019050919050565b6000613da360218361430e565b91507f4552433732313a20617070726f76616c20746f2063757272656e74206f776e6560008301527f72000000000000000000000000000000000000000000000000000000000000006020830152604082019050919050565b6000613e0960318361430e565b91507f4552433732313a207472616e736665722063616c6c6572206973206e6f74206f60008301527f776e6572206e6f7220617070726f7665640000000000000000000000000000006020830152604082019050919050565b613e6b8161444f565b82525050565b613e82613e7d8261444f565b614516565b82525050565b6000613e95828486613772565b91508190509392505050565b6000613eae828486613772565b9150613eb982613c24565b91508190509392505050565b6000613ed182846137d0565b915081905092915050565b6000613ee882856137d0565b9150613ef482846137d0565b91508190509392505050565b6000613f0c8284613881565b915081905092915050565b6000613f238288613e71565b602082019150613f338287613e71565b602082019150613f438286613881565b9150613f4f8285613881565b9150613f5b8284613e71565b6020820191508190509695505050505050565b6000602082019050613f8360008301846136ee565b92915050565b6000608082019050613f9e60008301876136ee565b613fab60208301866136ee565b613fb86040830185613e62565b8181036060830152613fca818461370c565b905095945050505050565b6000602082019050613fea60008301846136fd565b92915050565b6000602082019050818103600083015261400a8184613797565b905092915050565b6000602082019050818103600083015261402c8184613801565b905092915050565b6000602082019050818103600083015261404d81613900565b9050919050565b6000602082019050818103600083015261406d81613966565b9050919050565b6000602082019050818103600083015261408d816139a6565b9050919050565b600060208201905081810360008301526140ad81613a0c565b9050919050565b600060208201905081810360008301526140cd81613a4c565b9050919050565b600060208201905081810360008301526140ed81613ab2565b9050919050565b6000602082019050818103600083015261410d81613b18565b9050919050565b6000602082019050818103600083015261412d81613b7e565b9050919050565b6000602082019050818103600083015261414d81613be4565b9050919050565b6000602082019050818103600083015261416d81613c64565b9050919050565b6000602082019050818103600083015261418d81613cca565b9050919050565b600060208201905081810360008301526141ad81613d30565b9050919050565b600060208201905081810360008301526141cd81613d96565b9050919050565b600060208201905081810360008301526141ed81613dfc565b9050919050565b60006020820190506142096000830184613e62565b92915050565b60006040820190506142246000830186613e62565b8181036020830152614237818486613745565b9050949350505050565b6000604051905081810181811067ffffffffffffffff82111715614268576142676145de565b5b8060405250919050565b600067ffffffffffffffff82111561428d5761428c6145de565b5b601f19601f8301169050602081019050919050565b600067ffffffffffffffff8211156142bd576142bc6145de565b5b601f19601f8301169050602081019050919050565b60008190508160005260206000209050919050565b600081519050919050565b600081519050919050565b600082825260208201905092915050565b600082825260208201905092915050565b600081905092915050565b60006143358261444f565b91506143408361444f565b9250827fffffffffffffffffffffffffffffffffffffffffffffffffffffffffffffffff0382111561437557614374614551565b5b828201905092915050565b600061438b8261444f565b91506143968361444f565b9250826143a6576143a5614580565b5b828204905092915050565b60006143bc8261444f565b91506143c78361444f565b9250828210156143da576143d9614551565b5b828203905092915050565b60006143f08261442f565b9050919050565b60008115159050919050565b60007fffffffff0000000000000000000000000000000000000000000000000000000082169050919050565b600073ffffffffffffffffffffffffffffffffffffffff82169050919050565b6000819050919050565b82818337600083830152505050565b60005b8381101561448657808201518184015260208101905061446b565b83811115614495576000848401525b50505050565b600060028204905060018216806144b357607f821691505b602082108114156144c7576144c66145af565b5b50919050565b60006144d88261444f565b91507fffffffffffffffffffffffffffffffffffffffffffffffffffffffffffffffff82141561450b5761450a614551565b5b600182019050919050565b6000819050919050565b600061452b8261444f565b91506145368361444f565b92508261454657614545614580565b5b828206905092915050565b7f4e487b7100000000000000000000000000000000000000000000000000000000600052601160045260246000fd5b7f4e487b7100000000000000000000000000000000000000000000000000000000600052601260045260246000fd5b7f4e487b7100000000000000000000000000000000000000000000000000000000600052602260045260246000fd5b7f4e487b7100000000000000000000000000000000000000000000000000000000600052604160045260246000fd5b6000601f19601f8301169050919050565b614627816143e5565b811461463257600080fd5b50565b61463e816143f7565b811461464957600080fd5b50565b61465581614403565b811461466057600080fd5b50565b61466c8161444f565b811461467757600080fd5b5056fea26469706673582212206af98de5ba7d91de0c448e93e13223f3f69acd9c9bca15ecff7394254e5698ba64736f6c63430008000033",
  "immutableReferences": {},
  "source": "pragma solidity ^0.8.0;\n\nimport \"../node_modules/@openzeppelin/contracts/token/ERC721/ERC721.sol\";\n\ncontract FrankieTexts is ERC721 {\n\n    uint256 private requestCounter;\n\n    uint256 public feedCounter;\n\n    uint256 public submitCounter;\n\n    uint256 public deckCounter;\n\n    uint256 public deckSize;\n\n    uint256 public frankieId;\n\n    address public victor;\n\n    event RequestedText(string chosenCid);\n\n    event MintedFrankie(uint nftId, string nftCid); // vai ter q ter a 5th cid tbm e indexed\n\n    struct Frankie {\n      string[] cids;\n      address[] writers;\n      uint256 endedSince;\n    }\n\n    struct MiniFrankie {\n      string cid;\n      uint256 editSince;\n      uint256 deckNumber;\n    }\n\n    mapping(string => Frankie) public frankies;\n\n    mapping(uint256 => string) private cidOrder;\n\n    mapping(address => MiniFrankie) private editing;\n\n    mapping(uint256 => string) private deck;\n\n    mapping(address => string[]) public untitledTexts;\n\n    mapping(uint256 => string) public mintedCids;\n\n    mapping(string => bool) private plotEnded;\n\n    constructor() ERC721(\"Frankies\", \"FKE\") {\n        requestCounter = 0;\n        feedCounter = 0;\n        submitCounter = 0;\n        deckCounter = 0;\n        deckSize = 10;\n        frankieId = 0;\n        victor = msg.sender;\n    }\n\n    modifier isVictor() {\n        require(msg.sender == victor);\n        _;\n    }\n\n    modifier isValid(string calldata oldCid) {\n        require(keccak256(abi.encodePacked(editing[msg.sender].cid)) == keccak256(abi.encodePacked(oldCid)));\n        require(editing[msg.sender].editSince + 2 hours > block.timestamp);\n        _;\n    }\n\n    function _updateFrankie(string calldata newCid, string calldata oldCid) private {\n        frankies[newCid] = frankies[oldCid];\n        frankies[newCid].cids.push(newCid);\n        frankies[newCid].writers.push(msg.sender);\n    }\n\n    function _endFrankie(string calldata newCid) private {\n      frankies[newCid].endedSince = block.timestamp;\n      for (uint256 i = 0; i < 5; i++) {\n        untitledTexts[frankies[newCid].writers[i]].push(newCid);\n      }\n      if(!plotEnded[frankies[newCid].cids[0]]) {\n        // alimenta um cid00000 no deck\n        string memory startCid = string(abi.encodePacked(newCid, '00000'));\n        string[] memory cids;\n        address[] memory writers;\n        frankies[startCid] = Frankie(cids, writers, 0);\n        deck[editing[msg.sender].deckNumber] = startCid;\n        plotEnded[frankies[newCid].cids[0]] = true;\n      } else {\n        // alimenta o cidOrder[feedCounter] no deck e aumenta feedCounter\n        deck[editing[msg.sender].deckNumber] = cidOrder[feedCounter];\n        unchecked { feedCounter++; } \n        }\n    }\n\n    function requestText() public {\n      //Production -----------------------------------------------------------\n      uint256 random = uint256(keccak256(abi.encodePacked(block.difficulty, block.timestamp, cidOrder[feedCounter], cidOrder[submitCounter], requestCounter))) % deckSize;\n      unchecked { requestCounter++; }\n      //Testing --------------------------------------------------------------\n      // uint256 random;\n      // if(requestCounter < deckSize) {\n      //   random = requestCounter;\n      //   unchecked { requestCounter++; }\n      // } else {\n      //   requestCounter = 0;\n      //   random = requestCounter;\n      //   unchecked { requestCounter++; }\n      // }\n      //----------------------------------------------------------\n      editing[msg.sender] = MiniFrankie(deck[random], block.timestamp, random);\n      emit RequestedText(deck[random]);\n    }\n\n    function submitText(string calldata oldCid, string calldata newCid) public isValid(oldCid) {\n      _updateFrankie(newCid, oldCid);\n      if (frankies[newCid].writers.length == 5) {\n        _endFrankie(newCid);\n      } else {\n        cidOrder[submitCounter] = newCid;\n        unchecked { submitCounter++; }\n        if(keccak256(abi.encodePacked(deck[editing[msg.sender].deckNumber])) == keccak256(abi.encodePacked(oldCid))) {\n          deck[editing[msg.sender].deckNumber] = cidOrder[feedCounter];\n          unchecked { feedCounter++; }\n        }\n      }\n    }\n\n    function mintFrankie(string calldata oldCid, string calldata newCid, uint untitledId) public {\n        require(frankies[oldCid].endedSince + 3 days > block.timestamp);\n        require(keccak256(abi.encodePacked(oldCid)) == keccak256(abi.encodePacked(untitledTexts[msg.sender][untitledId])));\n        _updateFrankie(newCid, oldCid);\n        _safeMint(msg.sender, frankieId);\n        delete untitledTexts[msg.sender][untitledId];\n        mintedCids[frankieId] = newCid;\n        emit MintedFrankie(frankieId, newCid);\n        frankieId++;\n    }\n\n    function mintedCidById(uint id) public view returns(string memory) {\n      require(id < frankieId);\n      return mintedCids[id];\n    }\n\n    function requestNewestUntitledId() public view returns(uint) {\n        require(untitledTexts[msg.sender].length > 0);\n        return untitledTexts[msg.sender].length - 1;\n    }\n\n    function requestUntitledText(uint untitledId) public view returns(string memory) {\n        return untitledTexts[msg.sender][untitledId];\n    }\n\n    function requestUntitledEndedSince(uint untitledId) public view returns(uint) {\n        return (block.timestamp - frankies[untitledTexts[msg.sender][untitledId]].endedSince);\n    }\n\n    function seedPlot(string calldata cid) public isVictor() {\n        string[] memory cids;\n        address[] memory writers;\n        frankies[cid] = Frankie(cids, writers, 0);\n        frankies[cid].cids.push(cid);\n        frankies[cid].writers.push(msg.sender);\n        if(deckCounter < deckSize) {\n          deck[deckCounter] = cid;\n          unchecked { feedCounter++; }\n          deckCounter++;\n        }\n        cidOrder[submitCounter] = cid;\n        unchecked { submitCounter++; }\n    }\n}",
  "sourcePath": "/home/mariomazzaferro/projects/blockchain-developer-bootcamp-final-project/contracts/FrankieTexts.sol",
  "compiler": {
    "name": "solc",
    "version": "0.8.0+commit.c7dfd78e.Emscripten.clang"
  },
  "schemaVersion": "3.4.1",
  "updatedAt": "2021-10-27T18:07:33.500Z",
  "networkType": "ethereum",
  "devdoc": {
    "kind": "dev",
    "methods": {
      "approve(address,uint256)": {
        "details": "See {IERC721-approve}."
      },
      "balanceOf(address)": {
        "details": "See {IERC721-balanceOf}."
      },
      "getApproved(uint256)": {
        "details": "See {IERC721-getApproved}."
      },
      "isApprovedForAll(address,address)": {
        "details": "See {IERC721-isApprovedForAll}."
      },
      "name()": {
        "details": "See {IERC721Metadata-name}."
      },
      "ownerOf(uint256)": {
        "details": "See {IERC721-ownerOf}."
      },
      "safeTransferFrom(address,address,uint256)": {
        "details": "See {IERC721-safeTransferFrom}."
      },
      "safeTransferFrom(address,address,uint256,bytes)": {
        "details": "See {IERC721-safeTransferFrom}."
      },
      "setApprovalForAll(address,bool)": {
        "details": "See {IERC721-setApprovalForAll}."
      },
      "supportsInterface(bytes4)": {
        "details": "See {IERC165-supportsInterface}."
      },
      "symbol()": {
        "details": "See {IERC721Metadata-symbol}."
      },
      "tokenURI(uint256)": {
        "details": "See {IERC721Metadata-tokenURI}."
      },
      "transferFrom(address,address,uint256)": {
        "details": "See {IERC721-transferFrom}."
      }
    },
    "version": 1
  },
  "userdoc": {
    "kind": "user",
    "methods": {},
    "version": 1
  }
}