{
  "contractName": "FrankensteinTexts",
  "abi": [
    {
      "inputs": [],
      "stateMutability": "nonpayable",
      "type": "constructor"
    },
    {
      "anonymous": false,
      "inputs": [
        {
          "indexed": true,
          "internalType": "address",
          "name": "owner",
          "type": "address"
        },
        {
          "indexed": true,
          "internalType": "address",
          "name": "approved",
          "type": "address"
        },
        {
          "indexed": true,
          "internalType": "uint256",
          "name": "tokenId",
          "type": "uint256"
        }
      ],
      "name": "Approval",
      "type": "event"
    },
    {
      "anonymous": false,
      "inputs": [
        {
          "indexed": true,
          "internalType": "address",
          "name": "owner",
          "type": "address"
        },
        {
          "indexed": true,
          "internalType": "address",
          "name": "operator",
          "type": "address"
        },
        {
          "indexed": false,
          "internalType": "bool",
          "name": "approved",
          "type": "bool"
        }
      ],
      "name": "ApprovalForAll",
      "type": "event"
    },
    {
      "anonymous": false,
      "inputs": [
        {
          "indexed": false,
          "internalType": "string",
          "name": "cid",
          "type": "string"
        },
        {
          "indexed": false,
          "internalType": "bool",
          "name": "isPlot",
          "type": "bool"
        }
      ],
      "name": "RequestedText",
      "type": "event"
    },
    {
      "anonymous": false,
      "inputs": [
        {
          "indexed": true,
          "internalType": "address",
          "name": "from",
          "type": "address"
        },
        {
          "indexed": true,
          "internalType": "address",
          "name": "to",
          "type": "address"
        },
        {
          "indexed": true,
          "internalType": "uint256",
          "name": "tokenId",
          "type": "uint256"
        }
      ],
      "name": "Transfer",
      "type": "event"
    },
    {
      "inputs": [
        {
          "internalType": "address",
          "name": "to",
          "type": "address"
        },
        {
          "internalType": "uint256",
          "name": "tokenId",
          "type": "uint256"
        }
      ],
      "name": "approve",
      "outputs": [],
      "stateMutability": "nonpayable",
      "type": "function"
    },
    {
      "inputs": [
        {
          "internalType": "address",
          "name": "owner",
          "type": "address"
        }
      ],
      "name": "balanceOf",
      "outputs": [
        {
          "internalType": "uint256",
          "name": "",
          "type": "uint256"
        }
      ],
      "stateMutability": "view",
      "type": "function",
      "constant": true
    },
    {
      "inputs": [],
      "name": "firstTime",
      "outputs": [
        {
          "internalType": "bool",
          "name": "",
          "type": "bool"
        }
      ],
      "stateMutability": "view",
      "type": "function",
      "constant": true
    },
    {
      "inputs": [],
      "name": "frankieId",
      "outputs": [
        {
          "internalType": "uint256",
          "name": "",
          "type": "uint256"
        }
      ],
      "stateMutability": "view",
      "type": "function",
      "constant": true
    },
    {
      "inputs": [
        {
          "internalType": "string",
          "name": "",
          "type": "string"
        }
      ],
      "name": "frankies",
      "outputs": [
        {
          "internalType": "uint256",
          "name": "editSince",
          "type": "uint256"
        },
        {
          "internalType": "address",
          "name": "editor",
          "type": "address"
        }
      ],
      "stateMutability": "view",
      "type": "function",
      "constant": true
    },
    {
      "inputs": [
        {
          "internalType": "uint256",
          "name": "tokenId",
          "type": "uint256"
        }
      ],
      "name": "getApproved",
      "outputs": [
        {
          "internalType": "address",
          "name": "",
          "type": "address"
        }
      ],
      "stateMutability": "view",
      "type": "function",
      "constant": true
    },
    {
      "inputs": [
        {
          "internalType": "address",
          "name": "owner",
          "type": "address"
        },
        {
          "internalType": "address",
          "name": "operator",
          "type": "address"
        }
      ],
      "name": "isApprovedForAll",
      "outputs": [
        {
          "internalType": "bool",
          "name": "",
          "type": "bool"
        }
      ],
      "stateMutability": "view",
      "type": "function",
      "constant": true
    },
    {
      "inputs": [
        {
          "internalType": "uint256",
          "name": "",
          "type": "uint256"
        }
      ],
      "name": "mintedCids",
      "outputs": [
        {
          "internalType": "string",
          "name": "",
          "type": "string"
        }
      ],
      "stateMutability": "view",
      "type": "function",
      "constant": true
    },
    {
      "inputs": [],
      "name": "name",
      "outputs": [
        {
          "internalType": "string",
          "name": "",
          "type": "string"
        }
      ],
      "stateMutability": "view",
      "type": "function",
      "constant": true
    },
    {
      "inputs": [
        {
          "internalType": "uint256",
          "name": "tokenId",
          "type": "uint256"
        }
      ],
      "name": "ownerOf",
      "outputs": [
        {
          "internalType": "address",
          "name": "",
          "type": "address"
        }
      ],
      "stateMutability": "view",
      "type": "function",
      "constant": true
    },
    {
      "inputs": [],
      "name": "requestCounter",
      "outputs": [
        {
          "internalType": "uint256",
          "name": "",
          "type": "uint256"
        }
      ],
      "stateMutability": "view",
      "type": "function",
      "constant": true
    },
    {
      "inputs": [
        {
          "internalType": "address",
          "name": "from",
          "type": "address"
        },
        {
          "internalType": "address",
          "name": "to",
          "type": "address"
        },
        {
          "internalType": "uint256",
          "name": "tokenId",
          "type": "uint256"
        }
      ],
      "name": "safeTransferFrom",
      "outputs": [],
      "stateMutability": "nonpayable",
      "type": "function"
    },
    {
      "inputs": [
        {
          "internalType": "address",
          "name": "from",
          "type": "address"
        },
        {
          "internalType": "address",
          "name": "to",
          "type": "address"
        },
        {
          "internalType": "uint256",
          "name": "tokenId",
          "type": "uint256"
        },
        {
          "internalType": "bytes",
          "name": "_data",
          "type": "bytes"
        }
      ],
      "name": "safeTransferFrom",
      "outputs": [],
      "stateMutability": "nonpayable",
      "type": "function"
    },
    {
      "inputs": [
        {
          "internalType": "address",
          "name": "operator",
          "type": "address"
        },
        {
          "internalType": "bool",
          "name": "approved",
          "type": "bool"
        }
      ],
      "name": "setApprovalForAll",
      "outputs": [],
      "stateMutability": "nonpayable",
      "type": "function"
    },
    {
      "inputs": [],
      "name": "submitCounter",
      "outputs": [
        {
          "internalType": "uint256",
          "name": "",
          "type": "uint256"
        }
      ],
      "stateMutability": "view",
      "type": "function",
      "constant": true
    },
    {
      "inputs": [
        {
          "internalType": "bytes4",
          "name": "interfaceId",
          "type": "bytes4"
        }
      ],
      "name": "supportsInterface",
      "outputs": [
        {
          "internalType": "bool",
          "name": "",
          "type": "bool"
        }
      ],
      "stateMutability": "view",
      "type": "function",
      "constant": true
    },
    {
      "inputs": [],
      "name": "symbol",
      "outputs": [
        {
          "internalType": "string",
          "name": "",
          "type": "string"
        }
      ],
      "stateMutability": "view",
      "type": "function",
      "constant": true
    },
    {
      "inputs": [
        {
          "internalType": "uint256",
          "name": "tokenId",
          "type": "uint256"
        }
      ],
      "name": "tokenURI",
      "outputs": [
        {
          "internalType": "string",
          "name": "",
          "type": "string"
        }
      ],
      "stateMutability": "view",
      "type": "function",
      "constant": true
    },
    {
      "inputs": [
        {
          "internalType": "address",
          "name": "from",
          "type": "address"
        },
        {
          "internalType": "address",
          "name": "to",
          "type": "address"
        },
        {
          "internalType": "uint256",
          "name": "tokenId",
          "type": "uint256"
        }
      ],
      "name": "transferFrom",
      "outputs": [],
      "stateMutability": "nonpayable",
      "type": "function"
    },
    {
      "inputs": [
        {
          "internalType": "address",
          "name": "",
          "type": "address"
        },
        {
          "internalType": "uint256",
          "name": "",
          "type": "uint256"
        }
      ],
      "name": "untitledTexts",
      "outputs": [
        {
          "internalType": "string",
          "name": "",
          "type": "string"
        }
      ],
      "stateMutability": "view",
      "type": "function",
      "constant": true
    },
    {
      "inputs": [],
      "name": "victor",
      "outputs": [
        {
          "internalType": "address",
          "name": "",
          "type": "address"
        }
      ],
      "stateMutability": "view",
      "type": "function",
      "constant": true
    },
    {
      "inputs": [],
      "name": "requestText",
      "outputs": [
        {
          "internalType": "string",
          "name": "",
          "type": "string"
        }
      ],
      "stateMutability": "nonpayable",
      "type": "function"
    },
    {
      "inputs": [
        {
          "internalType": "string",
          "name": "oldCid",
          "type": "string"
        },
        {
          "internalType": "string",
          "name": "newCid",
          "type": "string"
        }
      ],
      "name": "submitText",
      "outputs": [],
      "stateMutability": "nonpayable",
      "type": "function"
    },
    {
      "inputs": [
        {
          "internalType": "string",
          "name": "newCid",
          "type": "string"
        },
        {
          "internalType": "string",
          "name": "oldCid",
          "type": "string"
        },
        {
          "internalType": "uint256",
          "name": "untitledId",
          "type": "uint256"
        }
      ],
      "name": "mintFrankie",
      "outputs": [
        {
          "internalType": "uint256",
          "name": "",
          "type": "uint256"
        }
      ],
      "stateMutability": "nonpayable",
      "type": "function"
    },
    {
      "inputs": [
        {
          "internalType": "string",
          "name": "cid",
          "type": "string"
        }
      ],
      "name": "seedPlot",
      "outputs": [],
      "stateMutability": "nonpayable",
      "type": "function"
    }
  ],
  "bytecode": "0x60806040523480156200001157600080fd5b506040518060400160405280600881526020017f4672616e6b6965730000000000000000000000000000000000000000000000008152506040518060400160405280600381526020017f464b4500000000000000000000000000000000000000000000000000000000008152508160009080519060200190620000969291906200012c565b508060019080519060200190620000af9291906200012c565b50505060006006819055506000600781905550600060088190555033600960016101000a81548173ffffffffffffffffffffffffffffffffffffffff021916908373ffffffffffffffffffffffffffffffffffffffff1602179055506001600960006101000a81548160ff02191690831515021790555062000241565b8280546200013a90620001dc565b90600052602060002090601f0160209004810192826200015e5760008555620001aa565b82601f106200017957805160ff1916838001178555620001aa565b82800160010185558215620001aa579182015b82811115620001a95782518255916020019190600101906200018c565b5b509050620001b99190620001bd565b5090565b5b80821115620001d8576000816000905550600101620001be565b5090565b60006002820490506001821680620001f557607f821691505b602082108114156200020c576200020b62000212565b5b50919050565b7f4e487b7100000000000000000000000000000000000000000000000000000000600052602260045260246000fd5b613fb280620002516000396000f3fe608060405234801561001057600080fd5b50600436106101735760003560e01c806384478ad3116100de578063ae52bc9711610097578063c87b56dd11610071578063c87b56dd1461045f578063d812da271461048f578063e985e9c5146104ad578063f86fa77b146104dd57610173565b8063ae52bc9714610409578063b17de4af14610427578063b88d4fde1461044357610173565b806384478ad3146103345780638ffd2b771461036457806395d89b4114610395578063973a814e146103b35780639a791cb3146103d1578063a22cb465146103ed57610173565b806341d76a9c1161013057806341d76a9c1461024c57806342842e0e1461026a5780634ee069b8146102865780636352211e146102b657806370a08231146102e65780637403a42a1461031657610173565b806301ffc9a71461017857806306fdde03146101a8578063081812fc146101c6578063095ea7b3146101f65780631415f1e71461021257806323b872dd14610230575b600080fd5b610192600480360381019061018d9190612e63565b61050d565b60405161019f91906138ac565b60405180910390f35b6101b06105ef565b6040516101bd91906138c7565b60405180910390f35b6101e060048036038101906101db9190613039565b610681565b6040516101ed9190613845565b60405180910390f35b610210600480360381019061020b9190612e27565b610706565b005b61021a61081e565b60405161022791906138c7565b60405180910390f35b61024a60048036038101906102459190612d21565b610a8a565b005b610254610aea565b60405161026191906138ac565b60405180910390f35b610284600480360381019061027f9190612d21565b610afd565b005b6102a0600480360381019061029b9190613039565b610b1d565b6040516102ad91906138c7565b60405180910390f35b6102d060048036038101906102cb9190613039565b610bbd565b6040516102dd9190613845565b60405180910390f35b61030060048036038101906102fb9190612cbc565b610c6f565b60405161030d9190613b09565b60405180910390f35b61031e610d27565b60405161032b9190613b09565b60405180910390f35b61034e60048036038101906103499190612e27565b610d2d565b60405161035b91906138c7565b60405180910390f35b61037e60048036038101906103799190612ff8565b610de6565b60405161038c929190613b24565b60405180910390f35b61039d610e40565b6040516103aa91906138c7565b60405180910390f35b6103bb610ed2565b6040516103c89190613b09565b60405180910390f35b6103eb60048036038101906103e69190612efa565b610ed8565b005b61040760048036038101906104029190612deb565b61116a565b005b6104116112eb565b60405161041e9190613845565b60405180910390f35b610441600480360381019061043c9190612eb5565b611311565b005b61045d60048036038101906104589190612d70565b611579565b005b61047960048036038101906104749190613039565b6115db565b60405161048691906138c7565b60405180910390f35b610497611682565b6040516104a49190613b09565b60405180910390f35b6104c760048036038101906104c29190612ce5565b611688565b6040516104d491906138ac565b60405180910390f35b6104f760048036038101906104f29190612f6f565b61171c565b6040516105049190613b09565b60405180910390f35b60007f80ac58cd000000000000000000000000000000000000000000000000000000007bffffffffffffffffffffffffffffffffffffffffffffffffffffffff1916827bffffffffffffffffffffffffffffffffffffffffffffffffffffffff191614806105d857507f5b5e139f000000000000000000000000000000000000000000000000000000007bffffffffffffffffffffffffffffffffffffffffffffffffffffffff1916827bffffffffffffffffffffffffffffffffffffffffffffffffffffffff1916145b806105e857506105e78261193d565b5b9050919050565b6060600080546105fe90613da7565b80601f016020809104026020016040519081016040528092919081815260200182805461062a90613da7565b80156106775780601f1061064c57610100808354040283529160200191610677565b820191906000526020600020905b81548152906001019060200180831161065a57829003601f168201915b5050505050905090565b600061068c826119a7565b6106cb576040517f08c379a00000000000000000000000000000000000000000000000000000000081526004016106c290613a69565b60405180910390fd5b6004600083815260200190815260200160002060009054906101000a900473ffffffffffffffffffffffffffffffffffffffff169050919050565b600061071182610bbd565b90508073ffffffffffffffffffffffffffffffffffffffff168373ffffffffffffffffffffffffffffffffffffffff161415610782576040517f08c379a000000000000000000000000000000000000000000000000000000000815260040161077990613ac9565b60405180910390fd5b8073ffffffffffffffffffffffffffffffffffffffff166107a1611a13565b73ffffffffffffffffffffffffffffffffffffffff1614806107d057506107cf816107ca611a13565b611688565b5b61080f576040517f08c379a0000000000000000000000000000000000000000000000000000000008152600401610806906139e9565b60405180910390fd5b6108198383611a1b565b505050565b60606000600654905060006005826108369190613e22565b14156108df5760011515600960009054906101000a900460ff16151514156108c3576000610862611ad4565b90506000600960006101000a81548160ff0219169083151502179055507f4d23f7784a9808f0d61aaf785193abb3226d4f33a5a3574f776b4f8d48bffb168160016040516108b19291906138e9565b60405180910390a18092505050610a87565b6001600960006101000a81548160ff0219169083151502179055505b60066000815480929190600101919050555042600a600b6000848152602001908152602001600020604051610914919061380c565b90815260200160405180910390206002018190555033600a600b600084815260200190815260200160002060405161094c919061380c565b908152602001604051809103902060030160006101000a81548173ffffffffffffffffffffffffffffffffffffffff021916908373ffffffffffffffffffffffffffffffffffffffff1602179055507f4d23f7784a9808f0d61aaf785193abb3226d4f33a5a3574f776b4f8d48bffb16600b600083815260200190815260200160002060006040516109df929190613919565b60405180910390a1600b60008281526020019081526020016000208054610a0590613da7565b80601f0160208091040260200160405190810160405280929190818152602001828054610a3190613da7565b8015610a7e5780601f10610a5357610100808354040283529160200191610a7e565b820191906000526020600020905b815481529060010190602001808311610a6157829003601f168201915b50505050509150505b90565b610a9b610a95611a13565b82611bfd565b610ada576040517f08c379a0000000000000000000000000000000000000000000000000000000008152600401610ad190613ae9565b60405180910390fd5b610ae5838383611cdb565b505050565b600960009054906101000a900460ff1681565b610b1883838360405180602001604052806000815250611579565b505050565b600d6020528060005260406000206000915090508054610b3c90613da7565b80601f0160208091040260200160405190810160405280929190818152602001828054610b6890613da7565b8015610bb55780601f10610b8a57610100808354040283529160200191610bb5565b820191906000526020600020905b815481529060010190602001808311610b9857829003601f168201915b505050505081565b6000806002600084815260200190815260200160002060009054906101000a900473ffffffffffffffffffffffffffffffffffffffff169050600073ffffffffffffffffffffffffffffffffffffffff168173ffffffffffffffffffffffffffffffffffffffff161415610c66576040517f08c379a0000000000000000000000000000000000000000000000000000000008152600401610c5d90613a29565b60405180910390fd5b80915050919050565b60008073ffffffffffffffffffffffffffffffffffffffff168273ffffffffffffffffffffffffffffffffffffffff161415610ce0576040517f08c379a0000000000000000000000000000000000000000000000000000000008152600401610cd790613a09565b60405180910390fd5b600360008373ffffffffffffffffffffffffffffffffffffffff1673ffffffffffffffffffffffffffffffffffffffff168152602001908152602001600020549050919050565b60085481565b600c6020528160005260406000208181548110610d4957600080fd5b90600052602060002001600091509150508054610d6590613da7565b80601f0160208091040260200160405190810160405280929190818152602001828054610d9190613da7565b8015610dde5780601f10610db357610100808354040283529160200191610dde565b820191906000526020600020905b815481529060010190602001808311610dc157829003601f168201915b505050505081565b600a818051602081018201805184825260208301602085012081835280955050505050506000915090508060020154908060030160009054906101000a900473ffffffffffffffffffffffffffffffffffffffff16905082565b606060018054610e4f90613da7565b80601f0160208091040260200160405190810160405280929190818152602001828054610e7b90613da7565b8015610ec85780601f10610e9d57610100808354040283529160200191610ec8565b820191906000526020600020905b815481529060010190602001808311610eab57829003601f168201915b5050505050905090565b60065481565b83833373ffffffffffffffffffffffffffffffffffffffff16600a8383604051610f039291906137b8565b908152602001604051809103902060030160009054906101000a900473ffffffffffffffffffffffffffffffffffffffff1673ffffffffffffffffffffffffffffffffffffffff1614610f5557600080fd5b42610e10600a8888604051610f6b9291906137b8565b908152602001604051809103902060020154610f879190613c36565b111561112a57610f9984848888611f37565b6005600a8585604051610fad9291906137b8565b90815260200160405180910390206001018054905014156110ed5760005b60058110156110e757600c6000600a8787604051610fea9291906137b8565b90815260200160405180910390206001018381548110611033577f4e487b7100000000000000000000000000000000000000000000000000000000600052603260045260246000fd5b9060005260206000200160009054906101000a900473ffffffffffffffffffffffffffffffffffffffff1673ffffffffffffffffffffffffffffffffffffffff1673ffffffffffffffffffffffffffffffffffffffff1681526020019081526020016000208585909180600181540180825580915050600190039060005260206000200160009091929091929091929091925091906110d392919061277b565b5080806110df90613dd9565b915050610fcb565b50611125565b8383600b60006007548152602001908152602001600020919061111192919061277b565b506007600081548092919060010191905055505b611162565b8585600b60006007548152602001908152602001600020919061114e92919061277b565b506007600081548092919060010191905055505b505050505050565b611172611a13565b73ffffffffffffffffffffffffffffffffffffffff168273ffffffffffffffffffffffffffffffffffffffff1614156111e0576040517f08c379a00000000000000000000000000000000000000000000000000000000081526004016111d7906139a9565b60405180910390fd5b80600560006111ed611a13565b73ffffffffffffffffffffffffffffffffffffffff1673ffffffffffffffffffffffffffffffffffffffff16815260200190815260200160002060008473ffffffffffffffffffffffffffffffffffffffff1673ffffffffffffffffffffffffffffffffffffffff16815260200190815260200160002060006101000a81548160ff0219169083151502179055508173ffffffffffffffffffffffffffffffffffffffff1661129a611a13565b73ffffffffffffffffffffffffffffffffffffffff167f17307eab39ab6107e8899845ad3d59bd9653f200f220920489ca2b5937696c31836040516112df91906138ac565b60405180910390a35050565b600960019054906101000a900473ffffffffffffffffffffffffffffffffffffffff1681565b600960019054906101000a900473ffffffffffffffffffffffffffffffffffffffff1673ffffffffffffffffffffffffffffffffffffffff163373ffffffffffffffffffffffffffffffffffffffff161461136b57600080fd5b60608060405180608001604052808381526020018281526020014281526020013373ffffffffffffffffffffffffffffffffffffffff16815250600a85856040516113b79291906137b8565b908152602001604051809103902060008201518160000190805190602001906113e1929190612801565b5060208201518160010190805190602001906113fe929190612861565b506040820151816002015560608201518160030160006101000a81548173ffffffffffffffffffffffffffffffffffffffff021916908373ffffffffffffffffffffffffffffffffffffffff160217905550905050600a84846040516114659291906137b8565b90815260200160405180910390206000018484909180600181540180825580915050600190039060005260206000200160009091929091929091929091925091906114b192919061277b565b50600a84846040516114c49291906137b8565b9081526020016040518091039020600101339080600181540180825580915050600190039060005260206000200160009091909190916101000a81548173ffffffffffffffffffffffffffffffffffffffff021916908373ffffffffffffffffffffffffffffffffffffffff1602179055508383600b60006007548152602001908152602001600020919061155a92919061277b565b506007600081548092919061156e90613dd9565b919050555050505050565b61158a611584611a13565b83611bfd565b6115c9576040517f08c379a00000000000000000000000000000000000000000000000000000000081526004016115c090613ae9565b60405180910390fd5b6115d584848484612165565b50505050565b60606115e6826119a7565b611625576040517f08c379a000000000000000000000000000000000000000000000000000000000815260040161161c90613aa9565b60405180910390fd5b600061162f6121c1565b9050600081511161164f576040518060200160405280600081525061167a565b80611659846121d8565b60405160200161166a9291906137e8565b6040516020818303038152906040525b915050919050565b60075481565b6000600560008473ffffffffffffffffffffffffffffffffffffffff1673ffffffffffffffffffffffffffffffffffffffff16815260200190815260200160002060008373ffffffffffffffffffffffffffffffffffffffff1673ffffffffffffffffffffffffffffffffffffffff16815260200190815260200160002060009054906101000a900460ff16905092915050565b6000426203f480600a86866040516117359291906137b8565b9081526020016040518091039020600201546117519190613c36565b1161175b57600080fd5b600080600090505b600581101561183d57600a868660405161177e9291906137b8565b908152602001604051809103902060010181815481106117c7577f4e487b7100000000000000000000000000000000000000000000000000000000600052603260045260246000fd5b9060005260206000200160009054906101000a900473ffffffffffffffffffffffffffffffffffffffff1673ffffffffffffffffffffffffffffffffffffffff163373ffffffffffffffffffffffffffffffffffffffff16141561182a57600191505b808061183590613dd9565b915050611763565b50600190508061184c57600080fd5b61185887878787611f37565b600c60003373ffffffffffffffffffffffffffffffffffffffff1673ffffffffffffffffffffffffffffffffffffffff16815260200190815260200160002083815481106118cf577f4e487b7100000000000000000000000000000000000000000000000000000000600052603260045260246000fd5b9060005260206000200160006118e591906128eb565b600860008154809291906118f890613dd9565b919050555061190933600854612385565b8686600d60006008548152602001908152602001600020919061192d92919061277b565b5060085491505095945050505050565b60007f01ffc9a7000000000000000000000000000000000000000000000000000000007bffffffffffffffffffffffffffffffffffffffffffffffffffffffff1916827bffffffffffffffffffffffffffffffffffffffffffffffffffffffff1916149050919050565b60008073ffffffffffffffffffffffffffffffffffffffff166002600084815260200190815260200160002060009054906101000a900473ffffffffffffffffffffffffffffffffffffffff1673ffffffffffffffffffffffffffffffffffffffff1614159050919050565b600033905090565b816004600083815260200190815260200160002060006101000a81548173ffffffffffffffffffffffffffffffffffffffff021916908373ffffffffffffffffffffffffffffffffffffffff160217905550808273ffffffffffffffffffffffffffffffffffffffff16611a8e83610bbd565b73ffffffffffffffffffffffffffffffffffffffff167f8c5be1e5ebec7d5bd14f71427d1e84f3dd0314c0f7b2291e5b200ac8c7c3b92560405160405180910390a45050565b60606000600b60006006548152602001908152602001600020604051602001611afd9190613823565b604051602081830303815290604052905060608060405180608001604052808381526020018281526020014281526020013373ffffffffffffffffffffffffffffffffffffffff16815250600a84604051611b5891906137d1565b90815260200160405180910390206000820151816000019080519060200190611b82929190612801565b506020820151816001019080519060200190611b9f929190612861565b506040820151816002015560608201518160030160006101000a81548173ffffffffffffffffffffffffffffffffffffffff021916908373ffffffffffffffffffffffffffffffffffffffff16021790555090505082935050505090565b6000611c08826119a7565b611c47576040517f08c379a0000000000000000000000000000000000000000000000000000000008152600401611c3e906139c9565b60405180910390fd5b6000611c5283610bbd565b90508073ffffffffffffffffffffffffffffffffffffffff168473ffffffffffffffffffffffffffffffffffffffff161480611cc157508373ffffffffffffffffffffffffffffffffffffffff16611ca984610681565b73ffffffffffffffffffffffffffffffffffffffff16145b80611cd25750611cd18185611688565b5b91505092915050565b8273ffffffffffffffffffffffffffffffffffffffff16611cfb82610bbd565b73ffffffffffffffffffffffffffffffffffffffff1614611d51576040517f08c379a0000000000000000000000000000000000000000000000000000000008152600401611d4890613a89565b60405180910390fd5b600073ffffffffffffffffffffffffffffffffffffffff168273ffffffffffffffffffffffffffffffffffffffff161415611dc1576040517f08c379a0000000000000000000000000000000000000000000000000000000008152600401611db890613989565b60405180910390fd5b611dcc8383836123a3565b611dd7600082611a1b565b6001600360008573ffffffffffffffffffffffffffffffffffffffff1673ffffffffffffffffffffffffffffffffffffffff1681526020019081526020016000206000828254611e279190613cbd565b925050819055506001600360008473ffffffffffffffffffffffffffffffffffffffff1673ffffffffffffffffffffffffffffffffffffffff1681526020019081526020016000206000828254611e7e9190613c36565b92505081905550816002600083815260200190815260200160002060006101000a81548173ffffffffffffffffffffffffffffffffffffffff021916908373ffffffffffffffffffffffffffffffffffffffff160217905550808273ffffffffffffffffffffffffffffffffffffffff168473ffffffffffffffffffffffffffffffffffffffff167fddf252ad1be2c89b69c2b068fc378daa952ba7f163c4a11628f55a4df523b3ef60405160405180910390a4505050565b600a8282604051611f499291906137b8565b9081526020016040518091039020600a8585604051611f699291906137b8565b90815260200160405180910390206000820181600001908054611f8d92919061292b565b506001820181600101908054611fa4929190612993565b50600282015481600201556003820160009054906101000a900473ffffffffffffffffffffffffffffffffffffffff168160030160006101000a81548173ffffffffffffffffffffffffffffffffffffffff021916908373ffffffffffffffffffffffffffffffffffffffff160217905550905050600a848460405161202b9291906137b8565b908152602001604051809103902060000184849091806001815401808255809150506001900390600052602060002001600090919290919290919290919250919061207792919061277b565b50600a848460405161208a9291906137b8565b9081526020016040518091039020600101339080600181540180825580915050600190039060005260206000200160009091909190916101000a81548173ffffffffffffffffffffffffffffffffffffffff021916908373ffffffffffffffffffffffffffffffffffffffff1602179055506000600a85856040516121109291906137b8565b908152602001604051809103902060030160006101000a81548173ffffffffffffffffffffffffffffffffffffffff021916908373ffffffffffffffffffffffffffffffffffffffff16021790555050505050565b612170848484611cdb565b61217c848484846123a8565b6121bb576040517f08c379a00000000000000000000000000000000000000000000000000000000081526004016121b290613949565b60405180910390fd5b50505050565b606060405180602001604052806000815250905090565b60606000821415612220576040518060400160405280600181526020017f30000000000000000000000000000000000000000000000000000000000000008152509050612380565b600082905060005b6000821461225257808061223b90613dd9565b915050600a8261224b9190613c8c565b9150612228565b60008167ffffffffffffffff811115612294577f4e487b7100000000000000000000000000000000000000000000000000000000600052604160045260246000fd5b6040519080825280601f01601f1916602001820160405280156122c65781602001600182028036833780820191505090505b5090505b60008514612379576001826122df9190613cbd565b9150600a856122ee9190613e22565b60306122fa9190613c36565b60f81b818381518110612336577f4e487b7100000000000000000000000000000000000000000000000000000000600052603260045260246000fd5b60200101907effffffffffffffffffffffffffffffffffffffffffffffffffffffffffffff1916908160001a905350600a856123729190613c8c565b94506122ca565b8093505050505b919050565b61239f82826040518060200160405280600081525061253f565b5050565b505050565b60006123c98473ffffffffffffffffffffffffffffffffffffffff1661259a565b15612532578373ffffffffffffffffffffffffffffffffffffffff1663150b7a026123f2611a13565b8786866040518563ffffffff1660e01b81526004016124149493929190613860565b602060405180830381600087803b15801561242e57600080fd5b505af192505050801561245f57506040513d601f19601f8201168201806040525081019061245c9190612e8c565b60015b6124e2573d806000811461248f576040519150601f19603f3d011682016040523d82523d6000602084013e612494565b606091505b506000815114156124da576040517f08c379a00000000000000000000000000000000000000000000000000000000081526004016124d190613949565b60405180910390fd5b805181602001fd5b63150b7a0260e01b7bffffffffffffffffffffffffffffffffffffffffffffffffffffffff1916817bffffffffffffffffffffffffffffffffffffffffffffffffffffffff191614915050612537565b600190505b949350505050565b61254983836125ad565b61255660008484846123a8565b612595576040517f08c379a000000000000000000000000000000000000000000000000000000000815260040161258c90613949565b60405180910390fd5b505050565b600080823b905060008111915050919050565b600073ffffffffffffffffffffffffffffffffffffffff168273ffffffffffffffffffffffffffffffffffffffff16141561261d576040517f08c379a000000000000000000000000000000000000000000000000000000000815260040161261490613a49565b60405180910390fd5b612626816119a7565b15612666576040517f08c379a000000000000000000000000000000000000000000000000000000000815260040161265d90613969565b60405180910390fd5b612672600083836123a3565b6001600360008473ffffffffffffffffffffffffffffffffffffffff1673ffffffffffffffffffffffffffffffffffffffff16815260200190815260200160002060008282546126c29190613c36565b92505081905550816002600083815260200190815260200160002060006101000a81548173ffffffffffffffffffffffffffffffffffffffff021916908373ffffffffffffffffffffffffffffffffffffffff160217905550808273ffffffffffffffffffffffffffffffffffffffff16600073ffffffffffffffffffffffffffffffffffffffff167fddf252ad1be2c89b69c2b068fc378daa952ba7f163c4a11628f55a4df523b3ef60405160405180910390a45050565b82805461278790613da7565b90600052602060002090601f0160209004810192826127a957600085556127f0565b82601f106127c257803560ff19168380011785556127f0565b828001600101855582156127f0579182015b828111156127ef5782358255916020019190600101906127d4565b5b5090506127fd91906129e5565b5090565b828054828255906000526020600020908101928215612850579160200282015b8281111561284f57825182908051906020019061283f929190612a02565b5091602001919060010190612821565b5b50905061285d9190612a88565b5090565b8280548282559060005260206000209081019282156128da579160200282015b828111156128d95782518260006101000a81548173ffffffffffffffffffffffffffffffffffffffff021916908373ffffffffffffffffffffffffffffffffffffffff16021790555091602001919060010190612881565b5b5090506128e791906129e5565b5090565b5080546128f790613da7565b6000825580601f106129095750612928565b601f01602090049060005260206000209081019061292791906129e5565b5b50565b8280548282559060005260206000209081019282156129825760005260206000209182015b8281111561298157828290805461296690613da7565b612971929190612aac565b5091600101919060010190612950565b5b50905061298f9190612a88565b5090565b8280548282559060005260206000209081019282156129d45760005260206000209182015b828111156129d35782548255916001019190600101906129b8565b5b5090506129e191906129e5565b5090565b5b808211156129fe5760008160009055506001016129e6565b5090565b828054612a0e90613da7565b90600052602060002090601f016020900481019282612a305760008555612a77565b82601f10612a4957805160ff1916838001178555612a77565b82800160010185558215612a77579182015b82811115612a76578251825591602001919060010190612a5b565b5b509050612a8491906129e5565b5090565b5b80821115612aa85760008181612a9f91906128eb565b50600101612a89565b5090565b828054612ab890613da7565b90600052602060002090601f016020900481019282612ada5760008555612b28565b82601f10612aeb5780548555612b28565b82800160010185558215612b2857600052602060002091601f016020900482015b82811115612b27578254825591600101919060010190612b0c565b5b509050612b3591906129e5565b5090565b6000612b4c612b4784613b7e565b613b4d565b905082815260208101848484011115612b6457600080fd5b612b6f848285613d65565b509392505050565b6000612b8a612b8584613bae565b613b4d565b905082815260208101848484011115612ba257600080fd5b612bad848285613d65565b509392505050565b600081359050612bc481613f20565b92915050565b600081359050612bd981613f37565b92915050565b600081359050612bee81613f4e565b92915050565b600081519050612c0381613f4e565b92915050565b600082601f830112612c1a57600080fd5b8135612c2a848260208601612b39565b91505092915050565b60008083601f840112612c4557600080fd5b8235905067ffffffffffffffff811115612c5e57600080fd5b602083019150836001820283011115612c7657600080fd5b9250929050565b600082601f830112612c8e57600080fd5b8135612c9e848260208601612b77565b91505092915050565b600081359050612cb681613f65565b92915050565b600060208284031215612cce57600080fd5b6000612cdc84828501612bb5565b91505092915050565b60008060408385031215612cf857600080fd5b6000612d0685828601612bb5565b9250506020612d1785828601612bb5565b9150509250929050565b600080600060608486031215612d3657600080fd5b6000612d4486828701612bb5565b9350506020612d5586828701612bb5565b9250506040612d6686828701612ca7565b9150509250925092565b60008060008060808587031215612d8657600080fd5b6000612d9487828801612bb5565b9450506020612da587828801612bb5565b9350506040612db687828801612ca7565b925050606085013567ffffffffffffffff811115612dd357600080fd5b612ddf87828801612c09565b91505092959194509250565b60008060408385031215612dfe57600080fd5b6000612e0c85828601612bb5565b9250506020612e1d85828601612bca565b9150509250929050565b60008060408385031215612e3a57600080fd5b6000612e4885828601612bb5565b9250506020612e5985828601612ca7565b9150509250929050565b600060208284031215612e7557600080fd5b6000612e8384828501612bdf565b91505092915050565b600060208284031215612e9e57600080fd5b6000612eac84828501612bf4565b91505092915050565b60008060208385031215612ec857600080fd5b600083013567ffffffffffffffff811115612ee257600080fd5b612eee85828601612c33565b92509250509250929050565b60008060008060408587031215612f1057600080fd5b600085013567ffffffffffffffff811115612f2a57600080fd5b612f3687828801612c33565b9450945050602085013567ffffffffffffffff811115612f5557600080fd5b612f6187828801612c33565b925092505092959194509250565b600080600080600060608688031215612f8757600080fd5b600086013567ffffffffffffffff811115612fa157600080fd5b612fad88828901612c33565b9550955050602086013567ffffffffffffffff811115612fcc57600080fd5b612fd888828901612c33565b93509350506040612feb88828901612ca7565b9150509295509295909350565b60006020828403121561300a57600080fd5b600082013567ffffffffffffffff81111561302457600080fd5b61303084828501612c7d565b91505092915050565b60006020828403121561304b57600080fd5b600061305984828501612ca7565b91505092915050565b61306b81613cf1565b82525050565b61307a81613d03565b82525050565b600061308b82613bf3565b6130958185613c09565b93506130a5818560208601613d74565b6130ae81613f0f565b840191505092915050565b60006130c58385613c2b565b93506130d2838584613d65565b82840190509392505050565b60006130e982613bfe565b6130f38185613c1a565b9350613103818560208601613d74565b61310c81613f0f565b840191505092915050565b600061312282613bfe565b61312c8185613c2b565b935061313c818560208601613d74565b80840191505092915050565b6000815461315581613da7565b61315f8186613c1a565b9450600182166000811461317a576001811461318c576131bf565b60ff19831686526020860193506131bf565b61319585613bde565b60005b838110156131b757815481890152600182019150602081019050613198565b808801955050505b50505092915050565b600081546131d581613da7565b6131df8186613c2b565b945060018216600081146131fa576001811461320b5761323e565b60ff1983168652818601935061323e565b61321485613bde565b60005b8381101561323657815481890152600182019150602081019050613217565b838801955050505b50505092915050565b6000613254603283613c1a565b91507f4552433732313a207472616e7366657220746f206e6f6e20455243373231526560008301527f63656976657220696d706c656d656e74657200000000000000000000000000006020830152604082019050919050565b60006132ba601c83613c1a565b91507f4552433732313a20746f6b656e20616c7265616479206d696e746564000000006000830152602082019050919050565b60006132fa600383613c2b565b91507f30303000000000000000000000000000000000000000000000000000000000006000830152600382019050919050565b600061333a602483613c1a565b91507f4552433732313a207472616e7366657220746f20746865207a65726f2061646460008301527f72657373000000000000000000000000000000000000000000000000000000006020830152604082019050919050565b60006133a0601983613c1a565b91507f4552433732313a20617070726f766520746f2063616c6c6572000000000000006000830152602082019050919050565b60006133e0602c83613c1a565b91507f4552433732313a206f70657261746f7220717565727920666f72206e6f6e657860008301527f697374656e7420746f6b656e00000000000000000000000000000000000000006020830152604082019050919050565b6000613446603883613c1a565b91507f4552433732313a20617070726f76652063616c6c6572206973206e6f74206f7760008301527f6e6572206e6f7220617070726f76656420666f7220616c6c00000000000000006020830152604082019050919050565b60006134ac602a83613c1a565b91507f4552433732313a2062616c616e636520717565727920666f7220746865207a6560008301527f726f2061646472657373000000000000000000000000000000000000000000006020830152604082019050919050565b6000613512602983613c1a565b91507f4552433732313a206f776e657220717565727920666f72206e6f6e657869737460008301527f656e7420746f6b656e00000000000000000000000000000000000000000000006020830152604082019050919050565b6000613578602083613c1a565b91507f4552433732313a206d696e7420746f20746865207a65726f20616464726573736000830152602082019050919050565b60006135b8602c83613c1a565b91507f4552433732313a20617070726f76656420717565727920666f72206e6f6e657860008301527f697374656e7420746f6b656e00000000000000000000000000000000000000006020830152604082019050919050565b600061361e602983613c1a565b91507f4552433732313a207472616e73666572206f6620746f6b656e2074686174206960008301527f73206e6f74206f776e00000000000000000000000000000000000000000000006020830152604082019050919050565b6000613684602f83613c1a565b91507f4552433732314d657461646174613a2055524920717565727920666f72206e6f60008301527f6e6578697374656e7420746f6b656e00000000000000000000000000000000006020830152604082019050919050565b60006136ea602183613c1a565b91507f4552433732313a20617070726f76616c20746f2063757272656e74206f776e6560008301527f72000000000000000000000000000000000000000000000000000000000000006020830152604082019050919050565b6000613750603183613c1a565b91507f4552433732313a207472616e736665722063616c6c6572206973206e6f74206f60008301527f776e6572206e6f7220617070726f7665640000000000000000000000000000006020830152604082019050919050565b6137b281613d5b565b82525050565b60006137c58284866130b9565b91508190509392505050565b60006137dd8284613117565b915081905092915050565b60006137f48285613117565b91506138008284613117565b91508190509392505050565b600061381882846131c8565b915081905092915050565b600061382f82846131c8565b915061383a826132ed565b915081905092915050565b600060208201905061385a6000830184613062565b92915050565b60006080820190506138756000830187613062565b6138826020830186613062565b61388f60408301856137a9565b81810360608301526138a18184613080565b905095945050505050565b60006020820190506138c16000830184613071565b92915050565b600060208201905081810360008301526138e181846130de565b905092915050565b6000604082019050818103600083015261390381856130de565b90506139126020830184613071565b9392505050565b600060408201905081810360008301526139338185613148565b90506139426020830184613071565b9392505050565b6000602082019050818103600083015261396281613247565b9050919050565b60006020820190508181036000830152613982816132ad565b9050919050565b600060208201905081810360008301526139a28161332d565b9050919050565b600060208201905081810360008301526139c281613393565b9050919050565b600060208201905081810360008301526139e2816133d3565b9050919050565b60006020820190508181036000830152613a0281613439565b9050919050565b60006020820190508181036000830152613a228161349f565b9050919050565b60006020820190508181036000830152613a4281613505565b9050919050565b60006020820190508181036000830152613a628161356b565b9050919050565b60006020820190508181036000830152613a82816135ab565b9050919050565b60006020820190508181036000830152613aa281613611565b9050919050565b60006020820190508181036000830152613ac281613677565b9050919050565b60006020820190508181036000830152613ae2816136dd565b9050919050565b60006020820190508181036000830152613b0281613743565b9050919050565b6000602082019050613b1e60008301846137a9565b92915050565b6000604082019050613b3960008301856137a9565b613b466020830184613062565b9392505050565b6000604051905081810181811067ffffffffffffffff82111715613b7457613b73613ee0565b5b8060405250919050565b600067ffffffffffffffff821115613b9957613b98613ee0565b5b601f19601f8301169050602081019050919050565b600067ffffffffffffffff821115613bc957613bc8613ee0565b5b601f19601f8301169050602081019050919050565b60008190508160005260206000209050919050565b600081519050919050565b600081519050919050565b600082825260208201905092915050565b600082825260208201905092915050565b600081905092915050565b6000613c4182613d5b565b9150613c4c83613d5b565b9250827fffffffffffffffffffffffffffffffffffffffffffffffffffffffffffffffff03821115613c8157613c80613e53565b5b828201905092915050565b6000613c9782613d5b565b9150613ca283613d5b565b925082613cb257613cb1613e82565b5b828204905092915050565b6000613cc882613d5b565b9150613cd383613d5b565b925082821015613ce657613ce5613e53565b5b828203905092915050565b6000613cfc82613d3b565b9050919050565b60008115159050919050565b60007fffffffff0000000000000000000000000000000000000000000000000000000082169050919050565b600073ffffffffffffffffffffffffffffffffffffffff82169050919050565b6000819050919050565b82818337600083830152505050565b60005b83811015613d92578082015181840152602081019050613d77565b83811115613da1576000848401525b50505050565b60006002820490506001821680613dbf57607f821691505b60208210811415613dd357613dd2613eb1565b5b50919050565b6000613de482613d5b565b91507fffffffffffffffffffffffffffffffffffffffffffffffffffffffffffffffff821415613e1757613e16613e53565b5b600182019050919050565b6000613e2d82613d5b565b9150613e3883613d5b565b925082613e4857613e47613e82565b5b828206905092915050565b7f4e487b7100000000000000000000000000000000000000000000000000000000600052601160045260246000fd5b7f4e487b7100000000000000000000000000000000000000000000000000000000600052601260045260246000fd5b7f4e487b7100000000000000000000000000000000000000000000000000000000600052602260045260246000fd5b7f4e487b7100000000000000000000000000000000000000000000000000000000600052604160045260246000fd5b6000601f19601f8301169050919050565b613f2981613cf1565b8114613f3457600080fd5b50565b613f4081613d03565b8114613f4b57600080fd5b50565b613f5781613d0f565b8114613f6257600080fd5b50565b613f6e81613d5b565b8114613f7957600080fd5b5056fea2646970667358221220eb54835f98cfd43d4a5b2dda8d7144a5cdc3509c18215dfbb6c0d5f8fb9fda9964736f6c63430008000033",
  "immutableReferences": {},
  "source": "pragma solidity ^0.8.0;\n\nimport \"../node_modules/@openzeppelin/contracts/token/ERC721/ERC721.sol\";\n\ncontract FrankensteinTexts is ERC721 {\n    uint256 public requestCounter;\n\n    uint256 public submitCounter;\n\n    uint256 public frankieId;\n\n    bool public firstTime;\n\n    //bool public green;\n\n    address public victor;\n\n    event RequestedText(string cid, bool isPlot);\n\n    struct Frankie {\n        string[] cids;\n        address[] writers;\n        uint256 editSince;\n        address editor;\n    }\n\n    mapping(string => Frankie) public frankies;\n\n    mapping(uint256 => string) private cidOrder;\n\n    mapping(address => string[]) public untitledTexts;\n\n    mapping(uint256 => string) public mintedCids;\n\n    constructor() ERC721(\"Frankies\", \"FKE\") {\n        requestCounter = 0;\n        submitCounter = 0;\n        frankieId = 0;\n        victor = msg.sender;\n        firstTime = true;\n        //green = true;\n    }\n\n    modifier isVictor() {\n        require(msg.sender == victor);\n        _;\n    }\n\n    // modifier isGreen() {\n    //     require(green == true);\n    //     _;\n    // }\n\n    modifier isEditor(string calldata oldCid) {\n        require(frankies[oldCid].editor == msg.sender);\n        _;\n    }\n\n    // function _setGreenTrue() private {\n    //   uint256 distance;\n    //   unchecked { distance = submitCounter - requestCounter; }\n    //   if (green == false && 100 < distance) {\n    //     green = true;\n    //   }\n    // }\n\n    // function _shuffle() private view returns (uint256) {\n    //     return\n    //         uint256(\n    //             keccak256(\n    //                 abi.encodePacked(\n    //                     block.difficulty,\n    //                     block.timestamp,\n    //                     cidOrder[requestCounter],\n    //                     cidOrder[submitCounter]\n    //                 )\n    //             )\n    //         ) % 100;\n    // }\n\n    // function _dealer() private {\n    //     uint256 random = _shuffle();\n    //     string memory chosen = cidOrder[random];\n    //     cidOrder[random] = cidOrder[requestCounter];\n    //     cidOrder[requestCounter] = chosen;\n    // }\n\n    function _startFrankie() private returns (string memory) {\n        string memory startCid = string(abi.encodePacked(cidOrder[requestCounter], '000'));\n        string[] memory cids;\n        address[] memory writers;\n        frankies[startCid] = Frankie(cids, writers, block.timestamp, msg.sender);\n        return startCid;\n    }\n\n    function _updateFrankie(string calldata newCid, string calldata oldCid) private {\n        frankies[newCid] = frankies[oldCid];\n        frankies[newCid].cids.push(newCid);\n        frankies[newCid].writers.push(msg.sender);\n        frankies[newCid].editor = address(0);\n    }\n\n    function requestText() public returns (string memory) { // isGreen() modifier\n        //_dealer();\n        uint256 rc = requestCounter;\n        if (rc % 5 == 0) {\n            if (firstTime == true) {\n                string memory startCid = _startFrankie();\n                firstTime = false;\n                emit RequestedText(startCid, true);\n                return startCid;\n            } else {\n                firstTime = true;\n            }\n        }\n        //uint256 distance;\n        unchecked {\n            requestCounter++;\n            //distance = submitCounter - requestCounter;\n        }\n        // if (100 >= distance) {\n        //     green = false;\n        // }\n        frankies[cidOrder[rc]].editSince = block.timestamp;\n        frankies[cidOrder[rc]].editor = msg.sender;\n        emit RequestedText(cidOrder[rc], false);\n        return cidOrder[rc];\n    }\n\n    function submitText(string calldata oldCid, string calldata newCid) public isEditor(oldCid) {\n        if (frankies[oldCid].editSince + 1 hours > block.timestamp) {\n            _updateFrankie(newCid, oldCid);\n            if (frankies[newCid].writers.length == 5) {\n                for (uint256 i = 0; i < 5; i++) {\n                    untitledTexts[frankies[newCid].writers[i]].push(newCid);\n                }\n            } else {\n                cidOrder[submitCounter] = newCid;\n                unchecked { submitCounter++; }\n            }\n        } else {\n            cidOrder[submitCounter] = oldCid;\n            unchecked { submitCounter++; }\n        }\n        //_setGreenTrue();\n    }\n\n    function mintFrankie(\n        string calldata newCid,\n        string calldata oldCid,\n        uint256 untitledId\n    ) public returns (uint256) {\n        require(frankies[oldCid].editSince + 3 days > block.timestamp);\n        bool isWriter;\n        for(uint i=0; i < 5; i++) {\n          if(msg.sender == frankies[oldCid].writers[i]) {\n            isWriter = true;\n          }\n        }\n        require(isWriter = true);\n\n        _updateFrankie(newCid, oldCid);\n        delete untitledTexts[msg.sender][untitledId];\n        frankieId++;\n        _safeMint(msg.sender, frankieId);\n        mintedCids[frankieId] = newCid;\n        return frankieId;\n    }\n\n    function seedPlot(string calldata cid) public isVictor() {\n        string[] memory cids;\n        address[] memory writers;\n        frankies[cid] = Frankie(cids, writers, block.timestamp, msg.sender);\n        frankies[cid].cids.push(cid);\n        frankies[cid].writers.push(msg.sender);\n        cidOrder[submitCounter] = cid;\n        submitCounter++;\n        //_setGreenTrue();\n    }\n}\n",
  "sourcePath": "/home/mariomazzaferro/projects/blockchain-developer-bootcamp-final-project/contracts/FrankensteinTexts.sol",
  "compiler": {
    "name": "solc",
    "version": "0.8.0+commit.c7dfd78e.Emscripten.clang"
  },
  "schemaVersion": "3.4.1",
  "updatedAt": "2021-10-21T23:58:19.731Z",
  "networkType": "ethereum",
  "devdoc": {
    "kind": "dev",
    "methods": {
      "approve(address,uint256)": {
        "details": "See {IERC721-approve}."
      },
      "balanceOf(address)": {
        "details": "See {IERC721-balanceOf}."
      },
      "getApproved(uint256)": {
        "details": "See {IERC721-getApproved}."
      },
      "isApprovedForAll(address,address)": {
        "details": "See {IERC721-isApprovedForAll}."
      },
      "name()": {
        "details": "See {IERC721Metadata-name}."
      },
      "ownerOf(uint256)": {
        "details": "See {IERC721-ownerOf}."
      },
      "safeTransferFrom(address,address,uint256)": {
        "details": "See {IERC721-safeTransferFrom}."
      },
      "safeTransferFrom(address,address,uint256,bytes)": {
        "details": "See {IERC721-safeTransferFrom}."
      },
      "setApprovalForAll(address,bool)": {
        "details": "See {IERC721-setApprovalForAll}."
      },
      "supportsInterface(bytes4)": {
        "details": "See {IERC165-supportsInterface}."
      },
      "symbol()": {
        "details": "See {IERC721Metadata-symbol}."
      },
      "tokenURI(uint256)": {
        "details": "See {IERC721Metadata-tokenURI}."
      },
      "transferFrom(address,address,uint256)": {
        "details": "See {IERC721-transferFrom}."
      }
    },
    "version": 1
  },
  "userdoc": {
    "kind": "user",
    "methods": {},
    "version": 1
  }
}