{
  "contractName": "FrankensteinTexts",
  "abi": [
    {
      "inputs": [],
      "stateMutability": "nonpayable",
      "type": "constructor"
    },
    {
      "anonymous": false,
      "inputs": [
        {
          "indexed": true,
          "internalType": "address",
          "name": "owner",
          "type": "address"
        },
        {
          "indexed": true,
          "internalType": "address",
          "name": "approved",
          "type": "address"
        },
        {
          "indexed": true,
          "internalType": "uint256",
          "name": "tokenId",
          "type": "uint256"
        }
      ],
      "name": "Approval",
      "type": "event"
    },
    {
      "anonymous": false,
      "inputs": [
        {
          "indexed": true,
          "internalType": "address",
          "name": "owner",
          "type": "address"
        },
        {
          "indexed": true,
          "internalType": "address",
          "name": "operator",
          "type": "address"
        },
        {
          "indexed": false,
          "internalType": "bool",
          "name": "approved",
          "type": "bool"
        }
      ],
      "name": "ApprovalForAll",
      "type": "event"
    },
    {
      "anonymous": false,
      "inputs": [
        {
          "indexed": true,
          "internalType": "address",
          "name": "from",
          "type": "address"
        },
        {
          "indexed": true,
          "internalType": "address",
          "name": "to",
          "type": "address"
        },
        {
          "indexed": true,
          "internalType": "uint256",
          "name": "tokenId",
          "type": "uint256"
        }
      ],
      "name": "Transfer",
      "type": "event"
    },
    {
      "inputs": [
        {
          "internalType": "address",
          "name": "to",
          "type": "address"
        },
        {
          "internalType": "uint256",
          "name": "tokenId",
          "type": "uint256"
        }
      ],
      "name": "approve",
      "outputs": [],
      "stateMutability": "nonpayable",
      "type": "function"
    },
    {
      "inputs": [
        {
          "internalType": "address",
          "name": "owner",
          "type": "address"
        }
      ],
      "name": "balanceOf",
      "outputs": [
        {
          "internalType": "uint256",
          "name": "",
          "type": "uint256"
        }
      ],
      "stateMutability": "view",
      "type": "function"
    },
    {
      "inputs": [],
      "name": "frankieId",
      "outputs": [
        {
          "internalType": "uint256",
          "name": "",
          "type": "uint256"
        }
      ],
      "stateMutability": "view",
      "type": "function"
    },
    {
      "inputs": [
        {
          "internalType": "uint256",
          "name": "tokenId",
          "type": "uint256"
        }
      ],
      "name": "getApproved",
      "outputs": [
        {
          "internalType": "address",
          "name": "",
          "type": "address"
        }
      ],
      "stateMutability": "view",
      "type": "function"
    },
    {
      "inputs": [],
      "name": "green",
      "outputs": [
        {
          "internalType": "bool",
          "name": "",
          "type": "bool"
        }
      ],
      "stateMutability": "view",
      "type": "function"
    },
    {
      "inputs": [
        {
          "internalType": "address",
          "name": "owner",
          "type": "address"
        },
        {
          "internalType": "address",
          "name": "operator",
          "type": "address"
        }
      ],
      "name": "isApprovedForAll",
      "outputs": [
        {
          "internalType": "bool",
          "name": "",
          "type": "bool"
        }
      ],
      "stateMutability": "view",
      "type": "function"
    },
    {
      "inputs": [],
      "name": "name",
      "outputs": [
        {
          "internalType": "string",
          "name": "",
          "type": "string"
        }
      ],
      "stateMutability": "view",
      "type": "function"
    },
    {
      "inputs": [
        {
          "internalType": "uint256",
          "name": "tokenId",
          "type": "uint256"
        }
      ],
      "name": "ownerOf",
      "outputs": [
        {
          "internalType": "address",
          "name": "",
          "type": "address"
        }
      ],
      "stateMutability": "view",
      "type": "function"
    },
    {
      "inputs": [
        {
          "internalType": "address",
          "name": "from",
          "type": "address"
        },
        {
          "internalType": "address",
          "name": "to",
          "type": "address"
        },
        {
          "internalType": "uint256",
          "name": "tokenId",
          "type": "uint256"
        }
      ],
      "name": "safeTransferFrom",
      "outputs": [],
      "stateMutability": "nonpayable",
      "type": "function"
    },
    {
      "inputs": [
        {
          "internalType": "address",
          "name": "from",
          "type": "address"
        },
        {
          "internalType": "address",
          "name": "to",
          "type": "address"
        },
        {
          "internalType": "uint256",
          "name": "tokenId",
          "type": "uint256"
        },
        {
          "internalType": "bytes",
          "name": "_data",
          "type": "bytes"
        }
      ],
      "name": "safeTransferFrom",
      "outputs": [],
      "stateMutability": "nonpayable",
      "type": "function"
    },
    {
      "inputs": [
        {
          "internalType": "address",
          "name": "operator",
          "type": "address"
        },
        {
          "internalType": "bool",
          "name": "approved",
          "type": "bool"
        }
      ],
      "name": "setApprovalForAll",
      "outputs": [],
      "stateMutability": "nonpayable",
      "type": "function"
    },
    {
      "inputs": [
        {
          "internalType": "bytes4",
          "name": "interfaceId",
          "type": "bytes4"
        }
      ],
      "name": "supportsInterface",
      "outputs": [
        {
          "internalType": "bool",
          "name": "",
          "type": "bool"
        }
      ],
      "stateMutability": "view",
      "type": "function"
    },
    {
      "inputs": [],
      "name": "symbol",
      "outputs": [
        {
          "internalType": "string",
          "name": "",
          "type": "string"
        }
      ],
      "stateMutability": "view",
      "type": "function"
    },
    {
      "inputs": [
        {
          "internalType": "uint256",
          "name": "tokenId",
          "type": "uint256"
        }
      ],
      "name": "tokenURI",
      "outputs": [
        {
          "internalType": "string",
          "name": "",
          "type": "string"
        }
      ],
      "stateMutability": "view",
      "type": "function"
    },
    {
      "inputs": [
        {
          "internalType": "address",
          "name": "from",
          "type": "address"
        },
        {
          "internalType": "address",
          "name": "to",
          "type": "address"
        },
        {
          "internalType": "uint256",
          "name": "tokenId",
          "type": "uint256"
        }
      ],
      "name": "transferFrom",
      "outputs": [],
      "stateMutability": "nonpayable",
      "type": "function"
    },
    {
      "inputs": [],
      "name": "victor",
      "outputs": [
        {
          "internalType": "address",
          "name": "",
          "type": "address"
        }
      ],
      "stateMutability": "view",
      "type": "function"
    },
    {
      "inputs": [],
      "name": "requestText",
      "outputs": [
        {
          "internalType": "bytes32",
          "name": "",
          "type": "bytes32"
        }
      ],
      "stateMutability": "nonpayable",
      "type": "function"
    },
    {
      "inputs": [
        {
          "internalType": "bytes32",
          "name": "newHash",
          "type": "bytes32"
        },
        {
          "internalType": "bytes32",
          "name": "oldHash",
          "type": "bytes32"
        }
      ],
      "name": "submitText",
      "outputs": [],
      "stateMutability": "nonpayable",
      "type": "function"
    },
    {
      "inputs": [
        {
          "internalType": "bytes32",
          "name": "newHash",
          "type": "bytes32"
        },
        {
          "internalType": "bytes32",
          "name": "oldHash",
          "type": "bytes32"
        },
        {
          "internalType": "uint256",
          "name": "untitledId",
          "type": "uint256"
        }
      ],
      "name": "mintFrankie",
      "outputs": [
        {
          "internalType": "uint256",
          "name": "",
          "type": "uint256"
        }
      ],
      "stateMutability": "nonpayable",
      "type": "function"
    },
    {
      "inputs": [
        {
          "internalType": "bytes32",
          "name": "plotHash",
          "type": "bytes32"
        }
      ],
      "name": "seedPlot",
      "outputs": [],
      "stateMutability": "nonpayable",
      "type": "function"
    }
  ],
  "bytecode": "0x60806040523480156200001157600080fd5b506040518060400160405280600881526020017f4672616e6b6965730000000000000000000000000000000000000000000000008152506040518060400160405280600381526020017f464b45000000000000000000000000000000000000000000000000000000000081525081600090805190602001906200009692919062000147565b508060019080519060200190620000af92919062000147565b50505060006006819055506000600781905550600060088190555033600960026101000a81548173ffffffffffffffffffffffffffffffffffffffff021916908373ffffffffffffffffffffffffffffffffffffffff1602179055506001600960006101000a81548160ff0219169083151502179055506001600960016101000a81548160ff0219169083151502179055506200025c565b8280546200015590620001f7565b90600052602060002090601f016020900481019282620001795760008555620001c5565b82601f106200019457805160ff1916838001178555620001c5565b82800160010185558215620001c5579182015b82811115620001c4578251825591602001919060010190620001a7565b5b509050620001d49190620001d8565b5090565b5b80821115620001f3576000816000905550600101620001d9565b5090565b600060028204905060018216806200021057607f821691505b602082108114156200022757620002266200022d565b5b50919050565b7f4e487b7100000000000000000000000000000000000000000000000000000000600052602260045260246000fd5b61337e806200026c6000396000f3fe608060405234801561001057600080fd5b506004361061012c5760003560e01c80637403a42a116100ad578063ae52bc9711610071578063ae52bc9714610341578063b88d4fde1461035f578063c87b56dd1461037b578063e985e9c5146103ab578063f2f1e132146103db5761012c565b80637403a42a1461029d578063882966a2146102bb57806395d89b41146102d7578063a22cb465146102f5578063ad2500dc146103115761012c565b806323b872dd116100f457806323b872dd146101e957806342842e0e14610205578063504ddf03146102215780636352211e1461023d57806370a082311461026d5761012c565b806301ffc9a71461013157806306fdde0314610161578063081812fc1461017f578063095ea7b3146101af5780631415f1e7146101cb575b600080fd5b61014b60048036038101906101469190612573565b6103f9565b6040516101589190612cf6565b60405180910390f35b6101696104db565b6040516101769190612d2c565b60405180910390f35b610199600480360381019061019491906125c5565b61056d565b6040516101a69190612c8f565b60405180910390f35b6101c960048036038101906101c49190612483565b6105f2565b005b6101d361070a565b6040516101e09190612d11565b60405180910390f35b61020360048036038101906101fe919061237d565b610845565b005b61021f600480360381019061021a919061237d565b6108a5565b005b61023b600480360381019061023691906124e8565b6108c5565b005b610257600480360381019061025291906125c5565b610ad3565b6040516102649190612c8f565b60405180910390f35b61028760048036038101906102829190612318565b610b85565b6040516102949190612f0e565b60405180910390f35b6102a5610c3d565b6040516102b29190612f0e565b60405180910390f35b6102d560048036038101906102d091906124bf565b610c43565b005b6102df610e00565b6040516102ec9190612d2c565b60405180910390f35b61030f600480360381019061030a9190612447565b610e92565b005b61032b60048036038101906103269190612524565b611013565b6040516103389190612f0e565b60405180910390f35b6103496110ee565b6040516103569190612c8f565b60405180910390f35b610379600480360381019061037491906123cc565b611114565b005b610395600480360381019061039091906125c5565b611176565b6040516103a29190612d2c565b60405180910390f35b6103c560048036038101906103c09190612341565b61121d565b6040516103d29190612cf6565b60405180910390f35b6103e36112b1565b6040516103f09190612cf6565b60405180910390f35b60007f80ac58cd000000000000000000000000000000000000000000000000000000007bffffffffffffffffffffffffffffffffffffffffffffffffffffffff1916827bffffffffffffffffffffffffffffffffffffffffffffffffffffffff191614806104c457507f5b5e139f000000000000000000000000000000000000000000000000000000007bffffffffffffffffffffffffffffffffffffffffffffffffffffffff1916827bffffffffffffffffffffffffffffffffffffffffffffffffffffffff1916145b806104d457506104d3826112c4565b5b9050919050565b6060600080546104ea90613148565b80601f016020809104026020016040519081016040528092919081815260200182805461051690613148565b80156105635780601f1061053857610100808354040283529160200191610563565b820191906000526020600020905b81548152906001019060200180831161054657829003601f168201915b5050505050905090565b60006105788261132e565b6105b7576040517f08c379a00000000000000000000000000000000000000000000000000000000081526004016105ae90612e6e565b60405180910390fd5b6004600083815260200190815260200160002060009054906101000a900473ffffffffffffffffffffffffffffffffffffffff169050919050565b60006105fd82610ad3565b90508073ffffffffffffffffffffffffffffffffffffffff168373ffffffffffffffffffffffffffffffffffffffff16141561066e576040517f08c379a000000000000000000000000000000000000000000000000000000000815260040161066590612ece565b60405180910390fd5b8073ffffffffffffffffffffffffffffffffffffffff1661068d61139a565b73ffffffffffffffffffffffffffffffffffffffff1614806106bc57506106bb816106b661139a565b61121d565b5b6106fb576040517f08c379a00000000000000000000000000000000000000000000000000000000081526004016106f290612dee565b60405180910390fd5b61070583836113a2565b505050565b600060011515600960019054906101000a900460ff1615151461072c57600080fd5b60006006546007540390506064811061075b576000600960016101000a81548160ff0219169083151502179055505b61076361145b565b60006006549050600060058261077991906131d7565b14156107e95760011515600960009054906101000a900460ff16151514156107cd5760006107a56114ca565b90506000600960006101000a81548160ff021916908315150217905550809350505050610842565b6001600960006101000a81548160ff0219169083151502179055505b60066000815480929190600101919050555042600a6000600b600085815260200190815260200160002054815260200190815260200160002060020181905550600b600082815260200190815260200160002054925050505b90565b61085661085061139a565b826115a7565b610895576040517f08c379a000000000000000000000000000000000000000000000000000000000815260040161088c90612eee565b60405180910390fd5b6108a0838383611685565b505050565b6108c083838360405180602001604052806000815250611114565b505050565b42610e10600a6000848152602001908152602001600020600201546108ea9190612fcd565b1015610a51576108fa82826118e1565b6005600a6000848152602001908152602001600020600101805490501415610a1f5760005b6005811015610a1957600c6000600a6000868152602001908152602001600020600101838154811061097a577f4e487b7100000000000000000000000000000000000000000000000000000000600052603260045260246000fd5b9060005260206000200160009054906101000a900473ffffffffffffffffffffffffffffffffffffffff1673ffffffffffffffffffffffffffffffffffffffff1673ffffffffffffffffffffffffffffffffffffffff1681526020019081526020016000208390806001815401808255809150506001900390600052602060002001600090919091909150558080610a119061317a565b91505061091f565b50610a4c565b81600b60006007548152602001908152602001600020819055506007600081548092919060010191905055505b610a7e565b80600b60006007548152602001908152602001600020819055506007600081548092919060010191905055505b600060065460075403905060001515600960019054906101000a900460ff161515148015610aad575080606411155b15610ace576001600960016101000a81548160ff0219169083151502179055505b505050565b6000806002600084815260200190815260200160002060009054906101000a900473ffffffffffffffffffffffffffffffffffffffff169050600073ffffffffffffffffffffffffffffffffffffffff168173ffffffffffffffffffffffffffffffffffffffff161415610b7c576040517f08c379a0000000000000000000000000000000000000000000000000000000008152600401610b7390612e2e565b60405180910390fd5b80915050919050565b60008073ffffffffffffffffffffffffffffffffffffffff168273ffffffffffffffffffffffffffffffffffffffff161415610bf6576040517f08c379a0000000000000000000000000000000000000000000000000000000008152600401610bed90612e0e565b60405180910390fd5b600360008373ffffffffffffffffffffffffffffffffffffffff1673ffffffffffffffffffffffffffffffffffffffff168152602001908152602001600020549050919050565b60085481565b600960029054906101000a900473ffffffffffffffffffffffffffffffffffffffff1673ffffffffffffffffffffffffffffffffffffffff163373ffffffffffffffffffffffffffffffffffffffff1614610c9d57600080fd5b606080604051806060016040528083815260200182815260200142815250600a60008581526020019081526020016000206000820151816000019080519060200190610cea92919061207d565b506020820151816001019080519060200190610d079291906120ca565b5060408201518160020155905050600a6000848152602001908152602001600020600001839080600181540180825580915050600190039060005260206000200160009091909190915055600a6000848152602001908152602001600020600101339080600181540180825580915050600190039060005260206000200160009091909190916101000a81548173ffffffffffffffffffffffffffffffffffffffff021916908373ffffffffffffffffffffffffffffffffffffffff16021790555082600b600060065481526020019081526020016000208190555060066000815480929190610df69061317a565b9190505550505050565b606060018054610e0f90613148565b80601f0160208091040260200160405190810160405280929190818152602001828054610e3b90613148565b8015610e885780601f10610e5d57610100808354040283529160200191610e88565b820191906000526020600020905b815481529060010190602001808311610e6b57829003601f168201915b5050505050905090565b610e9a61139a565b73ffffffffffffffffffffffffffffffffffffffff168273ffffffffffffffffffffffffffffffffffffffff161415610f08576040517f08c379a0000000000000000000000000000000000000000000000000000000008152600401610eff90612dae565b60405180910390fd5b8060056000610f1561139a565b73ffffffffffffffffffffffffffffffffffffffff1673ffffffffffffffffffffffffffffffffffffffff16815260200190815260200160002060008473ffffffffffffffffffffffffffffffffffffffff1673ffffffffffffffffffffffffffffffffffffffff16815260200190815260200160002060006101000a81548160ff0219169083151502179055508173ffffffffffffffffffffffffffffffffffffffff16610fc261139a565b73ffffffffffffffffffffffffffffffffffffffff167f17307eab39ab6107e8899845ad3d59bd9653f200f220920489ca2b5937696c31836040516110079190612cf6565b60405180910390a35050565b600061101f84846118e1565b600c60003373ffffffffffffffffffffffffffffffffffffffff1673ffffffffffffffffffffffffffffffffffffffff1681526020019081526020016000208281548110611096577f4e487b7100000000000000000000000000000000000000000000000000000000600052603260045260246000fd5b9060005260206000200160009055600860008154809291906110b79061317a565b91905055506110c8336008546119fa565b83600d600060085481526020019081526020016000208190555060085490509392505050565b600960029054906101000a900473ffffffffffffffffffffffffffffffffffffffff1681565b61112561111f61139a565b836115a7565b611164576040517f08c379a000000000000000000000000000000000000000000000000000000000815260040161115b90612eee565b60405180910390fd5b61117084848484611a18565b50505050565b60606111818261132e565b6111c0576040517f08c379a00000000000000000000000000000000000000000000000000000000081526004016111b790612eae565b60405180910390fd5b60006111ca611a74565b905060008151116111ea5760405180602001604052806000815250611215565b806111f484611a8b565b604051602001611205929190612c1d565b6040516020818303038152906040525b915050919050565b6000600560008473ffffffffffffffffffffffffffffffffffffffff1673ffffffffffffffffffffffffffffffffffffffff16815260200190815260200160002060008373ffffffffffffffffffffffffffffffffffffffff1673ffffffffffffffffffffffffffffffffffffffff16815260200190815260200160002060009054906101000a900460ff16905092915050565b600960019054906101000a900460ff1681565b60007f01ffc9a7000000000000000000000000000000000000000000000000000000007bffffffffffffffffffffffffffffffffffffffffffffffffffffffff1916827bffffffffffffffffffffffffffffffffffffffffffffffffffffffff1916149050919050565b60008073ffffffffffffffffffffffffffffffffffffffff166002600084815260200190815260200160002060009054906101000a900473ffffffffffffffffffffffffffffffffffffffff1673ffffffffffffffffffffffffffffffffffffffff1614159050919050565b600033905090565b816004600083815260200190815260200160002060006101000a81548173ffffffffffffffffffffffffffffffffffffffff021916908373ffffffffffffffffffffffffffffffffffffffff160217905550808273ffffffffffffffffffffffffffffffffffffffff1661141583610ad3565b73ffffffffffffffffffffffffffffffffffffffff167f8c5be1e5ebec7d5bd14f71427d1e84f3dd0314c0f7b2291e5b200ac8c7c3b92560405160405180910390a45050565b6000611465611c38565b90506000600b6000838152602001908152602001600020549050600b6000600654815260200190815260200160002054600b60008481526020019081526020016000208190555080600b60006006548152602001908152602001600020819055505050565b6000804442600b6000600654815260200190815260200160002054600b600060075481526020019081526020016000205460405160200161150e9493929190612c41565b604051602081830303815290604052805190602001209050606080604051806060016040528083815260200182815260200142815250600a6000858152602001908152602001600020600082015181600001908051906020019061157392919061207d565b5060208201518160010190805190602001906115909291906120ca565b506040820151816002015590505082935050505090565b60006115b28261132e565b6115f1576040517f08c379a00000000000000000000000000000000000000000000000000000000081526004016115e890612dce565b60405180910390fd5b60006115fc83610ad3565b90508073ffffffffffffffffffffffffffffffffffffffff168473ffffffffffffffffffffffffffffffffffffffff16148061166b57508373ffffffffffffffffffffffffffffffffffffffff166116538461056d565b73ffffffffffffffffffffffffffffffffffffffff16145b8061167c575061167b818561121d565b5b91505092915050565b8273ffffffffffffffffffffffffffffffffffffffff166116a582610ad3565b73ffffffffffffffffffffffffffffffffffffffff16146116fb576040517f08c379a00000000000000000000000000000000000000000000000000000000081526004016116f290612e8e565b60405180910390fd5b600073ffffffffffffffffffffffffffffffffffffffff168273ffffffffffffffffffffffffffffffffffffffff16141561176b576040517f08c379a000000000000000000000000000000000000000000000000000000000815260040161176290612d8e565b60405180910390fd5b611776838383611ca5565b6117816000826113a2565b6001600360008573ffffffffffffffffffffffffffffffffffffffff1673ffffffffffffffffffffffffffffffffffffffff16815260200190815260200160002060008282546117d19190613054565b925050819055506001600360008473ffffffffffffffffffffffffffffffffffffffff1673ffffffffffffffffffffffffffffffffffffffff16815260200190815260200160002060008282546118289190612fcd565b92505081905550816002600083815260200190815260200160002060006101000a81548173ffffffffffffffffffffffffffffffffffffffff021916908373ffffffffffffffffffffffffffffffffffffffff160217905550808273ffffffffffffffffffffffffffffffffffffffff168473ffffffffffffffffffffffffffffffffffffffff167fddf252ad1be2c89b69c2b068fc378daa952ba7f163c4a11628f55a4df523b3ef60405160405180910390a4505050565b600a6000828152602001908152602001600020600a6000848152602001908152602001600020600082018160000190805461191d929190612154565b5060018201816001019080546119349291906121a6565b5060028201548160020155905050600a6000838152602001908152602001600020600001829080600181540180825580915050600190039060005260206000200160009091909190915055600a6000838152602001908152602001600020600101339080600181540180825580915050600190039060005260206000200160009091909190916101000a81548173ffffffffffffffffffffffffffffffffffffffff021916908373ffffffffffffffffffffffffffffffffffffffff1602179055505050565b611a14828260405180602001604052806000815250611caa565b5050565b611a23848484611685565b611a2f84848484611d05565b611a6e576040517f08c379a0000000000000000000000000000000000000000000000000000000008152600401611a6590612d4e565b60405180910390fd5b50505050565b606060405180602001604052806000815250905090565b60606000821415611ad3576040518060400160405280600181526020017f30000000000000000000000000000000000000000000000000000000000000008152509050611c33565b600082905060005b60008214611b05578080611aee9061317a565b915050600a82611afe9190613023565b9150611adb565b60008167ffffffffffffffff811115611b47577f4e487b7100000000000000000000000000000000000000000000000000000000600052604160045260246000fd5b6040519080825280601f01601f191660200182016040528015611b795781602001600182028036833780820191505090505b5090505b60008514611c2c57600182611b929190613054565b9150600a85611ba191906131d7565b6030611bad9190612fcd565b60f81b818381518110611be9577f4e487b7100000000000000000000000000000000000000000000000000000000600052603260045260246000fd5b60200101907effffffffffffffffffffffffffffffffffffffffffffffffffffffffffffff1916908160001a905350600a85611c259190613023565b9450611b7d565b8093505050505b919050565b600060644442600b6000600654815260200190815260200160002054600b6000600754815260200190815260200160002054604051602001611c7d9493929190612c41565b6040516020818303038152906040528051906020012060001c611ca091906131d7565b905090565b505050565b611cb48383611e9c565b611cc16000848484611d05565b611d00576040517f08c379a0000000000000000000000000000000000000000000000000000000008152600401611cf790612d4e565b60405180910390fd5b505050565b6000611d268473ffffffffffffffffffffffffffffffffffffffff1661206a565b15611e8f578373ffffffffffffffffffffffffffffffffffffffff1663150b7a02611d4f61139a565b8786866040518563ffffffff1660e01b8152600401611d719493929190612caa565b602060405180830381600087803b158015611d8b57600080fd5b505af1925050508015611dbc57506040513d601f19601f82011682018060405250810190611db9919061259c565b60015b611e3f573d8060008114611dec576040519150601f19603f3d011682016040523d82523d6000602084013e611df1565b606091505b50600081511415611e37576040517f08c379a0000000000000000000000000000000000000000000000000000000008152600401611e2e90612d4e565b60405180910390fd5b805181602001fd5b63150b7a0260e01b7bffffffffffffffffffffffffffffffffffffffffffffffffffffffff1916817bffffffffffffffffffffffffffffffffffffffffffffffffffffffff191614915050611e94565b600190505b949350505050565b600073ffffffffffffffffffffffffffffffffffffffff168273ffffffffffffffffffffffffffffffffffffffff161415611f0c576040517f08c379a0000000000000000000000000000000000000000000000000000000008152600401611f0390612e4e565b60405180910390fd5b611f158161132e565b15611f55576040517f08c379a0000000000000000000000000000000000000000000000000000000008152600401611f4c90612d6e565b60405180910390fd5b611f6160008383611ca5565b6001600360008473ffffffffffffffffffffffffffffffffffffffff1673ffffffffffffffffffffffffffffffffffffffff1681526020019081526020016000206000828254611fb19190612fcd565b92505081905550816002600083815260200190815260200160002060006101000a81548173ffffffffffffffffffffffffffffffffffffffff021916908373ffffffffffffffffffffffffffffffffffffffff160217905550808273ffffffffffffffffffffffffffffffffffffffff16600073ffffffffffffffffffffffffffffffffffffffff167fddf252ad1be2c89b69c2b068fc378daa952ba7f163c4a11628f55a4df523b3ef60405160405180910390a45050565b600080823b905060008111915050919050565b8280548282559060005260206000209081019282156120b9579160200282015b828111156120b857825182559160200191906001019061209d565b5b5090506120c691906121f8565b5090565b828054828255906000526020600020908101928215612143579160200282015b828111156121425782518260006101000a81548173ffffffffffffffffffffffffffffffffffffffff021916908373ffffffffffffffffffffffffffffffffffffffff160217905550916020019190600101906120ea565b5b5090506121509190612215565b5090565b8280548282559060005260206000209081019282156121955760005260206000209182015b82811115612194578254825591600101919060010190612179565b5b5090506121a291906121f8565b5090565b8280548282559060005260206000209081019282156121e75760005260206000209182015b828111156121e65782548255916001019190600101906121cb565b5b5090506121f49190612215565b5090565b5b808211156122115760008160009055506001016121f9565b5090565b5b8082111561222e576000816000905550600101612216565b5090565b600061224561224084612f5a565b612f29565b90508281526020810184848401111561225d57600080fd5b612268848285613106565b509392505050565b60008135905061227f816132d5565b92915050565b600081359050612294816132ec565b92915050565b6000813590506122a981613303565b92915050565b6000813590506122be8161331a565b92915050565b6000815190506122d38161331a565b92915050565b600082601f8301126122ea57600080fd5b81356122fa848260208601612232565b91505092915050565b60008135905061231281613331565b92915050565b60006020828403121561232a57600080fd5b600061233884828501612270565b91505092915050565b6000806040838503121561235457600080fd5b600061236285828601612270565b925050602061237385828601612270565b9150509250929050565b60008060006060848603121561239257600080fd5b60006123a086828701612270565b93505060206123b186828701612270565b92505060406123c286828701612303565b9150509250925092565b600080600080608085870312156123e257600080fd5b60006123f087828801612270565b945050602061240187828801612270565b935050604061241287828801612303565b925050606085013567ffffffffffffffff81111561242f57600080fd5b61243b878288016122d9565b91505092959194509250565b6000806040838503121561245a57600080fd5b600061246885828601612270565b925050602061247985828601612285565b9150509250929050565b6000806040838503121561249657600080fd5b60006124a485828601612270565b92505060206124b585828601612303565b9150509250929050565b6000602082840312156124d157600080fd5b60006124df8482850161229a565b91505092915050565b600080604083850312156124fb57600080fd5b60006125098582860161229a565b925050602061251a8582860161229a565b9150509250929050565b60008060006060848603121561253957600080fd5b60006125478682870161229a565b93505060206125588682870161229a565b925050604061256986828701612303565b9150509250925092565b60006020828403121561258557600080fd5b6000612593848285016122af565b91505092915050565b6000602082840312156125ae57600080fd5b60006125bc848285016122c4565b91505092915050565b6000602082840312156125d757600080fd5b60006125e584828501612303565b91505092915050565b6125f781613088565b82525050565b6126068161309a565b82525050565b612615816130a6565b82525050565b61262c612627826130a6565b6131c3565b82525050565b600061263d82612f8a565b6126478185612fa0565b9350612657818560208601613115565b612660816132c4565b840191505092915050565b600061267682612f95565b6126808185612fb1565b9350612690818560208601613115565b612699816132c4565b840191505092915050565b60006126af82612f95565b6126b98185612fc2565b93506126c9818560208601613115565b80840191505092915050565b60006126e2603283612fb1565b91507f4552433732313a207472616e7366657220746f206e6f6e20455243373231526560008301527f63656976657220696d706c656d656e74657200000000000000000000000000006020830152604082019050919050565b6000612748601c83612fb1565b91507f4552433732313a20746f6b656e20616c7265616479206d696e746564000000006000830152602082019050919050565b6000612788602483612fb1565b91507f4552433732313a207472616e7366657220746f20746865207a65726f2061646460008301527f72657373000000000000000000000000000000000000000000000000000000006020830152604082019050919050565b60006127ee601983612fb1565b91507f4552433732313a20617070726f766520746f2063616c6c6572000000000000006000830152602082019050919050565b600061282e602c83612fb1565b91507f4552433732313a206f70657261746f7220717565727920666f72206e6f6e657860008301527f697374656e7420746f6b656e00000000000000000000000000000000000000006020830152604082019050919050565b6000612894603883612fb1565b91507f4552433732313a20617070726f76652063616c6c6572206973206e6f74206f7760008301527f6e6572206e6f7220617070726f76656420666f7220616c6c00000000000000006020830152604082019050919050565b60006128fa602a83612fb1565b91507f4552433732313a2062616c616e636520717565727920666f7220746865207a6560008301527f726f2061646472657373000000000000000000000000000000000000000000006020830152604082019050919050565b6000612960602983612fb1565b91507f4552433732313a206f776e657220717565727920666f72206e6f6e657869737460008301527f656e7420746f6b656e00000000000000000000000000000000000000000000006020830152604082019050919050565b60006129c6602083612fb1565b91507f4552433732313a206d696e7420746f20746865207a65726f20616464726573736000830152602082019050919050565b6000612a06602c83612fb1565b91507f4552433732313a20617070726f76656420717565727920666f72206e6f6e657860008301527f697374656e7420746f6b656e00000000000000000000000000000000000000006020830152604082019050919050565b6000612a6c602983612fb1565b91507f4552433732313a207472616e73666572206f6620746f6b656e2074686174206960008301527f73206e6f74206f776e00000000000000000000000000000000000000000000006020830152604082019050919050565b6000612ad2602f83612fb1565b91507f4552433732314d657461646174613a2055524920717565727920666f72206e6f60008301527f6e6578697374656e7420746f6b656e00000000000000000000000000000000006020830152604082019050919050565b6000612b38602183612fb1565b91507f4552433732313a20617070726f76616c20746f2063757272656e74206f776e6560008301527f72000000000000000000000000000000000000000000000000000000000000006020830152604082019050919050565b6000612b9e603183612fb1565b91507f4552433732313a207472616e736665722063616c6c6572206973206e6f74206f60008301527f776e6572206e6f7220617070726f7665640000000000000000000000000000006020830152604082019050919050565b612c00816130fc565b82525050565b612c17612c12826130fc565b6131cd565b82525050565b6000612c2982856126a4565b9150612c3582846126a4565b91508190509392505050565b6000612c4d8287612c06565b602082019150612c5d8286612c06565b602082019150612c6d828561261b565b602082019150612c7d828461261b565b60208201915081905095945050505050565b6000602082019050612ca460008301846125ee565b92915050565b6000608082019050612cbf60008301876125ee565b612ccc60208301866125ee565b612cd96040830185612bf7565b8181036060830152612ceb8184612632565b905095945050505050565b6000602082019050612d0b60008301846125fd565b92915050565b6000602082019050612d26600083018461260c565b92915050565b60006020820190508181036000830152612d46818461266b565b905092915050565b60006020820190508181036000830152612d67816126d5565b9050919050565b60006020820190508181036000830152612d878161273b565b9050919050565b60006020820190508181036000830152612da78161277b565b9050919050565b60006020820190508181036000830152612dc7816127e1565b9050919050565b60006020820190508181036000830152612de781612821565b9050919050565b60006020820190508181036000830152612e0781612887565b9050919050565b60006020820190508181036000830152612e27816128ed565b9050919050565b60006020820190508181036000830152612e4781612953565b9050919050565b60006020820190508181036000830152612e67816129b9565b9050919050565b60006020820190508181036000830152612e87816129f9565b9050919050565b60006020820190508181036000830152612ea781612a5f565b9050919050565b60006020820190508181036000830152612ec781612ac5565b9050919050565b60006020820190508181036000830152612ee781612b2b565b9050919050565b60006020820190508181036000830152612f0781612b91565b9050919050565b6000602082019050612f236000830184612bf7565b92915050565b6000604051905081810181811067ffffffffffffffff82111715612f5057612f4f613295565b5b8060405250919050565b600067ffffffffffffffff821115612f7557612f74613295565b5b601f19601f8301169050602081019050919050565b600081519050919050565b600081519050919050565b600082825260208201905092915050565b600082825260208201905092915050565b600081905092915050565b6000612fd8826130fc565b9150612fe3836130fc565b9250827fffffffffffffffffffffffffffffffffffffffffffffffffffffffffffffffff0382111561301857613017613208565b5b828201905092915050565b600061302e826130fc565b9150613039836130fc565b92508261304957613048613237565b5b828204905092915050565b600061305f826130fc565b915061306a836130fc565b92508282101561307d5761307c613208565b5b828203905092915050565b6000613093826130dc565b9050919050565b60008115159050919050565b6000819050919050565b60007fffffffff0000000000000000000000000000000000000000000000000000000082169050919050565b600073ffffffffffffffffffffffffffffffffffffffff82169050919050565b6000819050919050565b82818337600083830152505050565b60005b83811015613133578082015181840152602081019050613118565b83811115613142576000848401525b50505050565b6000600282049050600182168061316057607f821691505b6020821081141561317457613173613266565b5b50919050565b6000613185826130fc565b91507fffffffffffffffffffffffffffffffffffffffffffffffffffffffffffffffff8214156131b8576131b7613208565b5b600182019050919050565b6000819050919050565b6000819050919050565b60006131e2826130fc565b91506131ed836130fc565b9250826131fd576131fc613237565b5b828206905092915050565b7f4e487b7100000000000000000000000000000000000000000000000000000000600052601160045260246000fd5b7f4e487b7100000000000000000000000000000000000000000000000000000000600052601260045260246000fd5b7f4e487b7100000000000000000000000000000000000000000000000000000000600052602260045260246000fd5b7f4e487b7100000000000000000000000000000000000000000000000000000000600052604160045260246000fd5b6000601f19601f8301169050919050565b6132de81613088565b81146132e957600080fd5b50565b6132f58161309a565b811461330057600080fd5b50565b61330c816130a6565b811461331757600080fd5b50565b613323816130b0565b811461332e57600080fd5b50565b61333a816130fc565b811461334557600080fd5b5056fea264697066735822122091e0b8e046d1ae2696fa53fa6afd3e9daf09eaa8886d7c933f83a6f68881669564736f6c63430008000033",
  "immutableReferences": {},
  "source": "pragma solidity ^0.8.0;\n\nimport \"../node_modules/@openzeppelin/contracts/token/ERC721/ERC721.sol\";\n\ncontract FrankensteinTexts is ERC721 {\n\n    uint private requestCounter;\n\n    uint private submitCounter;\n\n    uint public frankieId;\n\n    bool private firstTime;\n\n    bool public green;\n\n    address public victor;\n\n    struct Frankie {\n      bytes32[] hashes;\n      address[] writers;\n      uint editSince;\n    }\n\n    mapping (bytes32 => Frankie) frankies;\n\n    mapping (uint => bytes32) hashOrder;\n\n    mapping (address => bytes32[]) untitledTexts;\n\n    mapping (uint => bytes32) mintedHashes;\n\n    constructor() ERC721(\"Frankies\", \"FKE\") {\n      requestCounter = 0;\n      submitCounter = 0;\n      frankieId = 0;\n      victor = msg.sender;\n      firstTime = true;\n      green = true;\n    }\n\n    modifier isVictor() {\n      require(msg.sender == victor);\n      _;\n    }\n\n    modifier isGreen() {\n      require(green == true);\n      _;\n    }\n\n    function _shuffle() private view returns(uint) {\n      return uint(keccak256(abi.encodePacked(block.difficulty, block.timestamp, hashOrder[requestCounter], hashOrder[submitCounter]))) % 100;\n    }\n\n    function _dealer() private {\n      uint random = _shuffle();\n      bytes32 chosen = hashOrder[random];\n      hashOrder[random] = hashOrder[requestCounter];\n      hashOrder[requestCounter] = chosen;\n    }\n\n    function _startFrankie() private returns(bytes32) {\n      bytes32 startHash = bytes32(keccak256(abi.encodePacked(block.difficulty, block.timestamp, hashOrder[requestCounter], hashOrder[submitCounter])));\n      bytes32[] memory hashes;\n      address[] memory writers;\n      frankies[startHash] = Frankie(hashes, writers, block.timestamp);\n      return startHash;\n    }\n\n    function _updateFrankie(bytes32 newHash, bytes32 oldHash) private {\n      frankies[newHash] = frankies[oldHash];\n      frankies[newHash].hashes.push(newHash);\n      frankies[newHash].writers.push(msg.sender);\n    }\n\n    function requestText() public isGreen() returns(bytes32) {\n      uint distance;\n      unchecked { distance = submitCounter - requestCounter; }\n      if(distance >= 100) {\n        green = false;\n      }\n      _dealer();\n      uint rc = requestCounter;\n      if(rc % 5 == 0) {\n        if(firstTime == true) {\n          bytes32 startHash = _startFrankie();\n          firstTime = false;\n          return startHash;\n        } else {\n          firstTime = true;\n        }\n      }\n      unchecked { requestCounter++; }\n      frankies[hashOrder[rc]].editSince = block.timestamp;\n      return hashOrder[rc];\n    }\n\n    function submitText(bytes32 newHash, bytes32 oldHash) public {\n      if(frankies[oldHash].editSince + 1 hours < block.timestamp) {\n        _updateFrankie(newHash, oldHash);\n        if(frankies[newHash].writers.length == 5) {\n          for(uint i=0; i < 5; i++) {\n            untitledTexts[frankies[newHash].writers[i]].push(newHash);\n          }\n        } else {\n          hashOrder[submitCounter] = newHash;\n          unchecked { submitCounter++; } \n        }\n      } else {\n        hashOrder[submitCounter] = oldHash;\n        unchecked { submitCounter++; }\n      }\n      uint distance;\n      unchecked { distance = submitCounter - requestCounter; }\n      if(green == false && 100 <= distance) {\n        green = true;\n      }\n    }\n\n    function mintFrankie(bytes32 newHash, bytes32 oldHash, uint untitledId) public returns(uint) {\n      _updateFrankie(newHash, oldHash);\n      delete untitledTexts[msg.sender][untitledId];\n      frankieId++;\n      _safeMint(msg.sender, frankieId);\n      mintedHashes[frankieId] = newHash;\n      return frankieId;\n    }\n\n    function seedPlot(bytes32 plotHash) public isVictor() {\n      bytes32[] memory hashes;\n      address[] memory writers;\n      frankies[plotHash] = Frankie(hashes, writers, block.timestamp);\n      frankies[plotHash].hashes.push(plotHash);\n      frankies[plotHash].writers.push(msg.sender);\n      hashOrder[requestCounter] = plotHash;\n      requestCounter++;\n    }\n}",
  "sourcePath": "/home/mariomazzaferro/projects/blockchain-developer-bootcamp-final-project/contracts/FrankensteinTexts.sol",
  "compiler": {
    "name": "solc",
    "version": "0.8.0+commit.c7dfd78e.Emscripten.clang"
  },
  "schemaVersion": "3.4.1",
  "updatedAt": "2021-10-18T20:07:27.654Z",
  "devdoc": {
    "kind": "dev",
    "methods": {
      "approve(address,uint256)": {
        "details": "See {IERC721-approve}."
      },
      "balanceOf(address)": {
        "details": "See {IERC721-balanceOf}."
      },
      "getApproved(uint256)": {
        "details": "See {IERC721-getApproved}."
      },
      "isApprovedForAll(address,address)": {
        "details": "See {IERC721-isApprovedForAll}."
      },
      "name()": {
        "details": "See {IERC721Metadata-name}."
      },
      "ownerOf(uint256)": {
        "details": "See {IERC721-ownerOf}."
      },
      "safeTransferFrom(address,address,uint256)": {
        "details": "See {IERC721-safeTransferFrom}."
      },
      "safeTransferFrom(address,address,uint256,bytes)": {
        "details": "See {IERC721-safeTransferFrom}."
      },
      "setApprovalForAll(address,bool)": {
        "details": "See {IERC721-setApprovalForAll}."
      },
      "supportsInterface(bytes4)": {
        "details": "See {IERC165-supportsInterface}."
      },
      "symbol()": {
        "details": "See {IERC721Metadata-symbol}."
      },
      "tokenURI(uint256)": {
        "details": "See {IERC721Metadata-tokenURI}."
      },
      "transferFrom(address,address,uint256)": {
        "details": "See {IERC721-transferFrom}."
      }
    },
    "version": 1
  },
  "userdoc": {
    "kind": "user",
    "methods": {},
    "version": 1
  }
}